{
	"contracts/webbb3.sol": {
		"Webbb3": {
			"abi": [
				{
					"inputs": [],
					"stateMutability": "nonpayable",
					"type": "constructor"
				},
				{
					"inputs": [
						{
							"internalType": "uint256",
							"name": "choice",
							"type": "uint256"
						}
					],
					"name": "addVote",
					"outputs": [],
					"stateMutability": "nonpayable",
					"type": "function"
				},
				{
					"inputs": [
						{
							"internalType": "string",
							"name": "option1",
							"type": "string"
						},
						{
							"internalType": "string",
							"name": "option2",
							"type": "string"
						},
						{
							"internalType": "uint256",
							"name": "timeToVote",
							"type": "uint256"
						}
					],
					"name": "addVoting",
					"outputs": [],
					"stateMutability": "nonpayable",
					"type": "function"
				},
				{
					"inputs": [],
					"name": "currentVoting",
					"outputs": [
						{
							"internalType": "uint256",
							"name": "",
							"type": "uint256"
						}
					],
					"stateMutability": "view",
					"type": "function"
				},
				{
					"inputs": [],
					"name": "getCurrentVoting",
					"outputs": [
						{
							"components": [
								{
									"internalType": "string",
									"name": "option1",
									"type": "string"
								},
								{
									"internalType": "uint256",
									"name": "votes1",
									"type": "uint256"
								},
								{
									"internalType": "string",
									"name": "option2",
									"type": "string"
								},
								{
									"internalType": "uint256",
									"name": "votes2",
									"type": "uint256"
								},
								{
									"internalType": "uint256",
									"name": "maxDate",
									"type": "uint256"
								}
							],
							"internalType": "struct Voting",
							"name": "",
							"type": "tuple"
						}
					],
					"stateMutability": "view",
					"type": "function"
				},
				{
					"inputs": [
						{
							"internalType": "uint256",
							"name": "",
							"type": "uint256"
						},
						{
							"internalType": "address",
							"name": "",
							"type": "address"
						}
					],
					"name": "votes",
					"outputs": [
						{
							"internalType": "uint256",
							"name": "choice",
							"type": "uint256"
						},
						{
							"internalType": "uint256",
							"name": "date",
							"type": "uint256"
						}
					],
					"stateMutability": "view",
					"type": "function"
				},
				{
					"inputs": [
						{
							"internalType": "uint256",
							"name": "",
							"type": "uint256"
						}
					],
					"name": "votings",
					"outputs": [
						{
							"internalType": "string",
							"name": "option1",
							"type": "string"
						},
						{
							"internalType": "uint256",
							"name": "votes1",
							"type": "uint256"
						},
						{
							"internalType": "string",
							"name": "option2",
							"type": "string"
						},
						{
							"internalType": "uint256",
							"name": "votes2",
							"type": "uint256"
						},
						{
							"internalType": "uint256",
							"name": "maxDate",
							"type": "uint256"
						}
					],
					"stateMutability": "view",
					"type": "function"
				}
			],
			"devdoc": {
				"kind": "dev",
				"methods": {},
				"version": 1
			},
			"evm": {
				"assembly": "    /* \"contracts/webbb3.sol\":246:1596  contract Webbb3 {... */\n  mstore(0x40, 0x80)\n    /* \"contracts/webbb3.sol\":318:319  0 */\n  0x00\n    /* \"contracts/webbb3.sol\":290:319  uint public currentVoting = 0 */\n  0x01\n  sstore\n    /* \"contracts/webbb3.sol\":419:471  constructor() {... */\n  callvalue\n  dup1\n  iszero\n  tag_1\n  jumpi\n  0x00\n  dup1\n  revert\ntag_1:\n  pop\n    /* \"contracts/webbb3.sol\":453:463  msg.sender */\n  caller\n    /* \"contracts/webbb3.sol\":444:450  owener */\n  0x00\n  dup1\n    /* \"contracts/webbb3.sol\":444:463  owener = msg.sender */\n  0x0100\n  exp\n  dup2\n  sload\n  dup2\n  0xffffffffffffffffffffffffffffffffffffffff\n  mul\n  not\n  and\n  swap1\n  dup4\n  0xffffffffffffffffffffffffffffffffffffffff\n  and\n  mul\n  or\n  swap1\n  sstore\n  pop\n    /* \"contracts/webbb3.sol\":246:1596  contract Webbb3 {... */\n  dataSize(sub_0)\n  dup1\n  dataOffset(sub_0)\n  0x00\n  codecopy\n  0x00\n  return\nstop\n\nsub_0: assembly {\n        /* \"contracts/webbb3.sol\":246:1596  contract Webbb3 {... */\n      mstore(0x40, 0x80)\n      callvalue\n      dup1\n      iszero\n      tag_1\n      jumpi\n      0x00\n      dup1\n      revert\n    tag_1:\n      pop\n      jumpi(tag_2, lt(calldatasize, 0x04))\n      shr(0xe0, calldataload(0x00))\n      dup1\n      0x0383badc\n      eq\n      tag_3\n      jumpi\n      dup1\n      0x1c7bec9d\n      eq\n      tag_4\n      jumpi\n      dup1\n      0x55f9b1ec\n      eq\n      tag_5\n      jumpi\n      dup1\n      0xa598d03c\n      eq\n      tag_6\n      jumpi\n      dup1\n      0xd23254b4\n      eq\n      tag_7\n      jumpi\n      dup1\n      0xf1156cdf\n      eq\n      tag_8\n      jumpi\n    tag_2:\n      0x00\n      dup1\n      revert\n        /* \"contracts/webbb3.sol\":1045:1593  function addVote(uint choice) public {... */\n    tag_3:\n      tag_9\n      0x04\n      dup1\n      calldatasize\n      sub\n      dup2\n      add\n      swap1\n      tag_10\n      swap2\n      swap1\n      tag_11\n      jump\t// in\n    tag_10:\n      tag_12\n      jump\t// in\n    tag_9:\n      stop\n        /* \"contracts/webbb3.sol\":290:319  uint public currentVoting = 0 */\n    tag_4:\n      tag_13\n      tag_14\n      jump\t// in\n    tag_13:\n      mload(0x40)\n      tag_15\n      swap2\n      swap1\n      tag_16\n      jump\t// in\n    tag_15:\n      mload(0x40)\n      dup1\n      swap2\n      sub\n      swap1\n      return\n        /* \"contracts/webbb3.sol\":599:1037  function addVoting(string memory option1, string memory option2, uint timeToVote) public {... */\n    tag_5:\n      tag_17\n      0x04\n      dup1\n      calldatasize\n      sub\n      dup2\n      add\n      swap1\n      tag_18\n      swap2\n      swap1\n      tag_19\n      jump\t// in\n    tag_18:\n      tag_20\n      jump\t// in\n    tag_17:\n      stop\n        /* \"contracts/webbb3.sol\":326:349  Voting[] public votings */\n    tag_6:\n      tag_21\n      0x04\n      dup1\n      calldatasize\n      sub\n      dup2\n      add\n      swap1\n      tag_22\n      swap2\n      swap1\n      tag_11\n      jump\t// in\n    tag_22:\n      tag_23\n      jump\t// in\n    tag_21:\n      mload(0x40)\n      tag_24\n      swap6\n      swap5\n      swap4\n      swap3\n      swap2\n      swap1\n      tag_25\n      jump\t// in\n    tag_24:\n      mload(0x40)\n      dup1\n      swap2\n      sub\n      swap1\n      return\n        /* \"contracts/webbb3.sol\":356:410  mapping(uint => mapping(address => Vote)) public votes */\n    tag_7:\n      tag_26\n      0x04\n      dup1\n      calldatasize\n      sub\n      dup2\n      add\n      swap1\n      tag_27\n      swap2\n      swap1\n      tag_28\n      jump\t// in\n    tag_27:\n      tag_29\n      jump\t// in\n    tag_26:\n      mload(0x40)\n      tag_30\n      swap3\n      swap2\n      swap1\n      tag_31\n      jump\t// in\n    tag_30:\n      mload(0x40)\n      dup1\n      swap2\n      sub\n      swap1\n      return\n        /* \"contracts/webbb3.sol\":479:591  function getCurrentVoting() public view returns (Voting memory) {... */\n    tag_8:\n      tag_32\n      tag_33\n      jump\t// in\n    tag_32:\n      mload(0x40)\n      tag_34\n      swap2\n      swap1\n      tag_35\n      jump\t// in\n    tag_34:\n      mload(0x40)\n      dup1\n      swap2\n      sub\n      swap1\n      return\n        /* \"contracts/webbb3.sol\":1045:1593  function addVote(uint choice) public {... */\n    tag_12:\n        /* \"contracts/webbb3.sol\":1111:1112  1 */\n      0x01\n        /* \"contracts/webbb3.sol\":1101:1107  choice */\n      dup2\n        /* \"contracts/webbb3.sol\":1101:1112  choice == 1 */\n      eq\n        /* \"contracts/webbb3.sol\":1101:1127  choice == 1 || choice == 2 */\n      dup1\n      tag_37\n      jumpi\n      pop\n        /* \"contracts/webbb3.sol\":1126:1127  2 */\n      0x02\n        /* \"contracts/webbb3.sol\":1116:1122  choice */\n      dup2\n        /* \"contracts/webbb3.sol\":1116:1127  choice == 2 */\n      eq\n        /* \"contracts/webbb3.sol\":1101:1127  choice == 1 || choice == 2 */\n    tag_37:\n        /* \"contracts/webbb3.sol\":1093:1146  require(choice == 1 || choice == 2, \"Invalid choice\") */\n      tag_38\n      jumpi\n      mload(0x40)\n      0x08c379a000000000000000000000000000000000000000000000000000000000\n      dup2\n      mstore\n      0x04\n      add\n      tag_39\n      swap1\n      tag_40\n      jump\t// in\n    tag_39:\n      mload(0x40)\n      dup1\n      swap2\n      sub\n      swap1\n      revert\n    tag_38:\n        /* \"contracts/webbb3.sol\":1194:1209  block.timestamp */\n      timestamp\n        /* \"contracts/webbb3.sol\":1165:1183  getCurrentVoting() */\n      tag_41\n        /* \"contracts/webbb3.sol\":1165:1181  getCurrentVoting */\n      tag_33\n        /* \"contracts/webbb3.sol\":1165:1183  getCurrentVoting() */\n      jump\t// in\n    tag_41:\n        /* \"contracts/webbb3.sol\":1165:1191  getCurrentVoting().maxDate */\n      0x80\n      add\n      mload\n        /* \"contracts/webbb3.sol\":1165:1209  getCurrentVoting().maxDate > block.timestamp */\n      gt\n        /* \"contracts/webbb3.sol\":1157:1228  require(getCurrentVoting().maxDate > block.timestamp, \"Voting expired\") */\n      tag_42\n      jumpi\n      mload(0x40)\n      0x08c379a000000000000000000000000000000000000000000000000000000000\n      dup2\n      mstore\n      0x04\n      add\n      tag_43\n      swap1\n      tag_44\n      jump\t// in\n    tag_43:\n      mload(0x40)\n      dup1\n      swap2\n      sub\n      swap1\n      revert\n    tag_42:\n        /* \"contracts/webbb3.sol\":1288:1289  0 */\n      0x00\n        /* \"contracts/webbb3.sol\":1247:1252  votes */\n      0x03\n        /* \"contracts/webbb3.sol\":1247:1267  votes[currentVoting] */\n      0x00\n        /* \"contracts/webbb3.sol\":1253:1266  currentVoting */\n      sload(0x01)\n        /* \"contracts/webbb3.sol\":1247:1267  votes[currentVoting] */\n      dup2\n      mstore\n      0x20\n      add\n      swap1\n      dup2\n      mstore\n      0x20\n      add\n      0x00\n      keccak256\n        /* \"contracts/webbb3.sol\":1247:1279  votes[currentVoting][msg.sender] */\n      0x00\n        /* \"contracts/webbb3.sol\":1268:1278  msg.sender */\n      caller\n        /* \"contracts/webbb3.sol\":1247:1279  votes[currentVoting][msg.sender] */\n      0xffffffffffffffffffffffffffffffffffffffff\n      and\n      0xffffffffffffffffffffffffffffffffffffffff\n      and\n      dup2\n      mstore\n      0x20\n      add\n      swap1\n      dup2\n      mstore\n      0x20\n      add\n      0x00\n      keccak256\n        /* \"contracts/webbb3.sol\":1247:1284  votes[currentVoting][msg.sender].date */\n      0x01\n      add\n      sload\n        /* \"contracts/webbb3.sol\":1247:1289  votes[currentVoting][msg.sender].date == 0 */\n      eq\n        /* \"contracts/webbb3.sol\":1239:1307  require(votes[currentVoting][msg.sender].date == 0, \"Already voted\") */\n      tag_45\n      jumpi\n      mload(0x40)\n      0x08c379a000000000000000000000000000000000000000000000000000000000\n      dup2\n      mstore\n      0x04\n      add\n      tag_46\n      swap1\n      tag_47\n      jump\t// in\n    tag_46:\n      mload(0x40)\n      dup1\n      swap2\n      sub\n      swap1\n      revert\n    tag_45:\n        /* \"contracts/webbb3.sol\":1362:1368  choice */\n      dup1\n        /* \"contracts/webbb3.sol\":1320:1325  votes */\n      0x03\n        /* \"contracts/webbb3.sol\":1320:1340  votes[currentVoting] */\n      0x00\n        /* \"contracts/webbb3.sol\":1326:1339  currentVoting */\n      sload(0x01)\n        /* \"contracts/webbb3.sol\":1320:1340  votes[currentVoting] */\n      dup2\n      mstore\n      0x20\n      add\n      swap1\n      dup2\n      mstore\n      0x20\n      add\n      0x00\n      keccak256\n        /* \"contracts/webbb3.sol\":1320:1352  votes[currentVoting][msg.sender] */\n      0x00\n        /* \"contracts/webbb3.sol\":1341:1351  msg.sender */\n      caller\n        /* \"contracts/webbb3.sol\":1320:1352  votes[currentVoting][msg.sender] */\n      0xffffffffffffffffffffffffffffffffffffffff\n      and\n      0xffffffffffffffffffffffffffffffffffffffff\n      and\n      dup2\n      mstore\n      0x20\n      add\n      swap1\n      dup2\n      mstore\n      0x20\n      add\n      0x00\n      keccak256\n        /* \"contracts/webbb3.sol\":1320:1359  votes[currentVoting][msg.sender].choice */\n      0x00\n      add\n        /* \"contracts/webbb3.sol\":1320:1368  votes[currentVoting][msg.sender].choice = choice */\n      dup2\n      swap1\n      sstore\n      pop\n        /* \"contracts/webbb3.sol\":1419:1434  block.timestamp */\n      timestamp\n        /* \"contracts/webbb3.sol\":1379:1384  votes */\n      0x03\n        /* \"contracts/webbb3.sol\":1379:1399  votes[currentVoting] */\n      0x00\n        /* \"contracts/webbb3.sol\":1385:1398  currentVoting */\n      sload(0x01)\n        /* \"contracts/webbb3.sol\":1379:1399  votes[currentVoting] */\n      dup2\n      mstore\n      0x20\n      add\n      swap1\n      dup2\n      mstore\n      0x20\n      add\n      0x00\n      keccak256\n        /* \"contracts/webbb3.sol\":1379:1411  votes[currentVoting][msg.sender] */\n      0x00\n        /* \"contracts/webbb3.sol\":1400:1410  msg.sender */\n      caller\n        /* \"contracts/webbb3.sol\":1379:1411  votes[currentVoting][msg.sender] */\n      0xffffffffffffffffffffffffffffffffffffffff\n      and\n      0xffffffffffffffffffffffffffffffffffffffff\n      and\n      dup2\n      mstore\n      0x20\n      add\n      swap1\n      dup2\n      mstore\n      0x20\n      add\n      0x00\n      keccak256\n        /* \"contracts/webbb3.sol\":1379:1416  votes[currentVoting][msg.sender].date */\n      0x01\n      add\n        /* \"contracts/webbb3.sol\":1379:1434  votes[currentVoting][msg.sender].date = block.timestamp */\n      dup2\n      swap1\n      sstore\n      pop\n        /* \"contracts/webbb3.sol\":1461:1462  1 */\n      0x01\n        /* \"contracts/webbb3.sol\":1451:1457  choice */\n      dup2\n        /* \"contracts/webbb3.sol\":1451:1462  choice == 1 */\n      sub\n        /* \"contracts/webbb3.sol\":1447:1586  if (choice == 1) {... */\n      tag_48\n      jumpi\n        /* \"contracts/webbb3.sol\":1479:1486  votings */\n      0x02\n        /* \"contracts/webbb3.sol\":1487:1500  currentVoting */\n      sload(0x01)\n        /* \"contracts/webbb3.sol\":1479:1501  votings[currentVoting] */\n      dup2\n      sload\n      dup2\n      lt\n      tag_49\n      jumpi\n      tag_50\n      tag_51\n      jump\t// in\n    tag_50:\n    tag_49:\n      swap1\n      0x00\n      mstore\n      keccak256(0x00, 0x20)\n      swap1\n      0x05\n      mul\n      add\n        /* \"contracts/webbb3.sol\":1479:1508  votings[currentVoting].votes1 */\n      0x01\n      add\n      0x00\n        /* \"contracts/webbb3.sol\":1479:1510  votings[currentVoting].votes1++ */\n      dup2\n      sload\n      dup1\n      swap3\n      swap2\n      swap1\n      tag_53\n      swap1\n      tag_54\n      jump\t// in\n    tag_53:\n      swap2\n      swap1\n      pop\n      sstore\n      pop\n        /* \"contracts/webbb3.sol\":1447:1586  if (choice == 1) {... */\n      jump(tag_55)\n    tag_48:\n        /* \"contracts/webbb3.sol\":1543:1550  votings */\n      0x02\n        /* \"contracts/webbb3.sol\":1551:1564  currentVoting */\n      sload(0x01)\n        /* \"contracts/webbb3.sol\":1543:1565  votings[currentVoting] */\n      dup2\n      sload\n      dup2\n      lt\n      tag_56\n      jumpi\n      tag_57\n      tag_51\n      jump\t// in\n    tag_57:\n    tag_56:\n      swap1\n      0x00\n      mstore\n      keccak256(0x00, 0x20)\n      swap1\n      0x05\n      mul\n      add\n        /* \"contracts/webbb3.sol\":1543:1572  votings[currentVoting].votes2 */\n      0x03\n      add\n      0x00\n        /* \"contracts/webbb3.sol\":1543:1574  votings[currentVoting].votes2++ */\n      dup2\n      sload\n      dup1\n      swap3\n      swap2\n      swap1\n      tag_59\n      swap1\n      tag_54\n      jump\t// in\n    tag_59:\n      swap2\n      swap1\n      pop\n      sstore\n      pop\n        /* \"contracts/webbb3.sol\":1447:1586  if (choice == 1) {... */\n    tag_55:\n        /* \"contracts/webbb3.sol\":1045:1593  function addVote(uint choice) public {... */\n      pop\n      jump\t// out\n        /* \"contracts/webbb3.sol\":290:319  uint public currentVoting = 0 */\n    tag_14:\n      sload(0x01)\n      dup2\n      jump\t// out\n        /* \"contracts/webbb3.sol\":599:1037  function addVoting(string memory option1, string memory option2, uint timeToVote) public {... */\n    tag_20:\n        /* \"contracts/webbb3.sol\":721:727  owener */\n      0x00\n      dup1\n      sload\n      swap1\n      0x0100\n      exp\n      swap1\n      div\n      0xffffffffffffffffffffffffffffffffffffffff\n      and\n        /* \"contracts/webbb3.sol\":707:727  msg.sender == owener */\n      0xffffffffffffffffffffffffffffffffffffffff\n      and\n        /* \"contracts/webbb3.sol\":707:717  msg.sender */\n      caller\n        /* \"contracts/webbb3.sol\":707:727  msg.sender == owener */\n      0xffffffffffffffffffffffffffffffffffffffff\n      and\n      eq\n        /* \"contracts/webbb3.sol\":699:746  require(msg.sender == owener, \"Invalid sender\") */\n      tag_61\n      jumpi\n      mload(0x40)\n      0x08c379a000000000000000000000000000000000000000000000000000000000\n      dup2\n      mstore\n      0x04\n      add\n      tag_62\n      swap1\n      tag_63\n      jump\t// in\n    tag_62:\n      mload(0x40)\n      dup1\n      swap2\n      sub\n      swap1\n      revert\n    tag_61:\n        /* \"contracts/webbb3.sol\":780:781  0 */\n      0x00\n        /* \"contracts/webbb3.sol\":763:776  currentVoting */\n      sload(0x01)\n        /* \"contracts/webbb3.sol\":763:781  currentVoting != 0 */\n      eq\n        /* \"contracts/webbb3.sol\":759:825  if (currentVoting != 0) {... */\n      tag_64\n      jumpi\n        /* \"contracts/webbb3.sol\":798:811  currentVoting */\n      0x01\n      0x00\n        /* \"contracts/webbb3.sol\":798:813  currentVoting++ */\n      dup2\n      sload\n      dup1\n      swap3\n      swap2\n      swap1\n      tag_65\n      swap1\n      tag_54\n      jump\t// in\n    tag_65:\n      swap2\n      swap1\n      pop\n      sstore\n      pop\n        /* \"contracts/webbb3.sol\":759:825  if (currentVoting != 0) {... */\n    tag_64:\n        /* \"contracts/webbb3.sol\":837:860  Voting memory newVoting */\n      tag_66\n      tag_67\n      jump\t// in\n    tag_66:\n        /* \"contracts/webbb3.sol\":891:898  option1 */\n      dup4\n        /* \"contracts/webbb3.sol\":871:880  newVoting */\n      dup2\n        /* \"contracts/webbb3.sol\":871:888  newVoting.option1 */\n      0x00\n      add\n        /* \"contracts/webbb3.sol\":871:898  newVoting.option1 = option1 */\n      dup2\n      swap1\n      mstore\n      pop\n        /* \"contracts/webbb3.sol\":929:936  option2 */\n      dup3\n        /* \"contracts/webbb3.sol\":909:918  newVoting */\n      dup2\n        /* \"contracts/webbb3.sol\":909:926  newVoting.option2 */\n      0x40\n      add\n        /* \"contracts/webbb3.sol\":909:936  newVoting.option2 = option2 */\n      dup2\n      swap1\n      mstore\n      pop\n        /* \"contracts/webbb3.sol\":980:995  block.timestamp */\n      timestamp\n        /* \"contracts/webbb3.sol\":967:977  timeToVote */\n      dup3\n        /* \"contracts/webbb3.sol\":967:995  timeToVote + block.timestamp */\n      tag_68\n      swap2\n      swap1\n      tag_69\n      jump\t// in\n    tag_68:\n        /* \"contracts/webbb3.sol\":947:956  newVoting */\n      dup2\n        /* \"contracts/webbb3.sol\":947:964  newVoting.maxDate */\n      0x80\n      add\n        /* \"contracts/webbb3.sol\":947:995  newVoting.maxDate = timeToVote + block.timestamp */\n      dup2\n      dup2\n      mstore\n      pop\n      pop\n        /* \"contracts/webbb3.sol\":1006:1013  votings */\n      0x02\n        /* \"contracts/webbb3.sol\":1019:1028  newVoting */\n      dup2\n        /* \"contracts/webbb3.sol\":1006:1029  votings.push(newVoting) */\n      swap1\n      dup1\n      0x01\n      dup2\n      sload\n      add\n      dup1\n      dup3\n      sstore\n      dup1\n      swap2\n      pop\n      pop\n      0x01\n      swap1\n      sub\n      swap1\n      0x00\n      mstore\n      keccak256(0x00, 0x20)\n      swap1\n      0x05\n      mul\n      add\n      0x00\n      swap1\n      swap2\n      swap1\n      swap2\n      swap1\n      swap2\n      pop\n      0x00\n      dup3\n      add\n      mload\n      dup2\n      0x00\n      add\n      swap1\n      dup2\n      tag_71\n      swap2\n      swap1\n      tag_72\n      jump\t// in\n    tag_71:\n      pop\n      0x20\n      dup3\n      add\n      mload\n      dup2\n      0x01\n      add\n      sstore\n      0x40\n      dup3\n      add\n      mload\n      dup2\n      0x02\n      add\n      swap1\n      dup2\n      tag_73\n      swap2\n      swap1\n      tag_72\n      jump\t// in\n    tag_73:\n      pop\n      0x60\n      dup3\n      add\n      mload\n      dup2\n      0x03\n      add\n      sstore\n      0x80\n      dup3\n      add\n      mload\n      dup2\n      0x04\n      add\n      sstore\n      pop\n      pop\n        /* \"contracts/webbb3.sol\":688:1037  {... */\n      pop\n        /* \"contracts/webbb3.sol\":599:1037  function addVoting(string memory option1, string memory option2, uint timeToVote) public {... */\n      pop\n      pop\n      pop\n      jump\t// out\n        /* \"contracts/webbb3.sol\":326:349  Voting[] public votings */\n    tag_23:\n      0x02\n      dup2\n      dup2\n      sload\n      dup2\n      lt\n      tag_74\n      jumpi\n      0x00\n      dup1\n      revert\n    tag_74:\n      swap1\n      0x00\n      mstore\n      keccak256(0x00, 0x20)\n      swap1\n      0x05\n      mul\n      add\n      0x00\n      swap2\n      pop\n      swap1\n      pop\n      dup1\n      0x00\n      add\n      dup1\n      sload\n      tag_76\n      swap1\n      tag_77\n      jump\t// in\n    tag_76:\n      dup1\n      0x1f\n      add\n      0x20\n      dup1\n      swap2\n      div\n      mul\n      0x20\n      add\n      mload(0x40)\n      swap1\n      dup2\n      add\n      0x40\n      mstore\n      dup1\n      swap3\n      swap2\n      swap1\n      dup2\n      dup2\n      mstore\n      0x20\n      add\n      dup3\n      dup1\n      sload\n      tag_78\n      swap1\n      tag_77\n      jump\t// in\n    tag_78:\n      dup1\n      iszero\n      tag_79\n      jumpi\n      dup1\n      0x1f\n      lt\n      tag_80\n      jumpi\n      0x0100\n      dup1\n      dup4\n      sload\n      div\n      mul\n      dup4\n      mstore\n      swap2\n      0x20\n      add\n      swap2\n      jump(tag_79)\n    tag_80:\n      dup3\n      add\n      swap2\n      swap1\n      0x00\n      mstore\n      keccak256(0x00, 0x20)\n      swap1\n    tag_81:\n      dup2\n      sload\n      dup2\n      mstore\n      swap1\n      0x01\n      add\n      swap1\n      0x20\n      add\n      dup1\n      dup4\n      gt\n      tag_81\n      jumpi\n      dup3\n      swap1\n      sub\n      0x1f\n      and\n      dup3\n      add\n      swap2\n    tag_79:\n      pop\n      pop\n      pop\n      pop\n      pop\n      swap1\n      dup1\n      0x01\n      add\n      sload\n      swap1\n      dup1\n      0x02\n      add\n      dup1\n      sload\n      tag_82\n      swap1\n      tag_77\n      jump\t// in\n    tag_82:\n      dup1\n      0x1f\n      add\n      0x20\n      dup1\n      swap2\n      div\n      mul\n      0x20\n      add\n      mload(0x40)\n      swap1\n      dup2\n      add\n      0x40\n      mstore\n      dup1\n      swap3\n      swap2\n      swap1\n      dup2\n      dup2\n      mstore\n      0x20\n      add\n      dup3\n      dup1\n      sload\n      tag_83\n      swap1\n      tag_77\n      jump\t// in\n    tag_83:\n      dup1\n      iszero\n      tag_84\n      jumpi\n      dup1\n      0x1f\n      lt\n      tag_85\n      jumpi\n      0x0100\n      dup1\n      dup4\n      sload\n      div\n      mul\n      dup4\n      mstore\n      swap2\n      0x20\n      add\n      swap2\n      jump(tag_84)\n    tag_85:\n      dup3\n      add\n      swap2\n      swap1\n      0x00\n      mstore\n      keccak256(0x00, 0x20)\n      swap1\n    tag_86:\n      dup2\n      sload\n      dup2\n      mstore\n      swap1\n      0x01\n      add\n      swap1\n      0x20\n      add\n      dup1\n      dup4\n      gt\n      tag_86\n      jumpi\n      dup3\n      swap1\n      sub\n      0x1f\n      and\n      dup3\n      add\n      swap2\n    tag_84:\n      pop\n      pop\n      pop\n      pop\n      pop\n      swap1\n      dup1\n      0x03\n      add\n      sload\n      swap1\n      dup1\n      0x04\n      add\n      sload\n      swap1\n      pop\n      dup6\n      jump\t// out\n        /* \"contracts/webbb3.sol\":356:410  mapping(uint => mapping(address => Vote)) public votes */\n    tag_29:\n      mstore(0x20, 0x03)\n      dup2\n      0x00\n      mstore\n      mstore(0x20, keccak256(0x00, 0x40))\n      dup1\n      0x00\n      mstore\n      keccak256(0x00, 0x40)\n      0x00\n      swap2\n      pop\n      swap2\n      pop\n      pop\n      dup1\n      0x00\n      add\n      sload\n      swap1\n      dup1\n      0x01\n      add\n      sload\n      swap1\n      pop\n      dup3\n      jump\t// out\n        /* \"contracts/webbb3.sol\":479:591  function getCurrentVoting() public view returns (Voting memory) {... */\n    tag_33:\n        /* \"contracts/webbb3.sol\":528:541  Voting memory */\n      tag_87\n      tag_67\n      jump\t// in\n    tag_87:\n        /* \"contracts/webbb3.sol\":561:568  votings */\n      0x02\n        /* \"contracts/webbb3.sol\":569:582  currentVoting */\n      sload(0x01)\n        /* \"contracts/webbb3.sol\":561:583  votings[currentVoting] */\n      dup2\n      sload\n      dup2\n      lt\n      tag_89\n      jumpi\n      tag_90\n      tag_51\n      jump\t// in\n    tag_90:\n    tag_89:\n      swap1\n      0x00\n      mstore\n      keccak256(0x00, 0x20)\n      swap1\n      0x05\n      mul\n      add\n        /* \"contracts/webbb3.sol\":554:583  return votings[currentVoting] */\n      mload(0x40)\n      dup1\n      0xa0\n      add\n      0x40\n      mstore\n      swap1\n      dup2\n      0x00\n      dup3\n      add\n      dup1\n      sload\n      tag_92\n      swap1\n      tag_77\n      jump\t// in\n    tag_92:\n      dup1\n      0x1f\n      add\n      0x20\n      dup1\n      swap2\n      div\n      mul\n      0x20\n      add\n      mload(0x40)\n      swap1\n      dup2\n      add\n      0x40\n      mstore\n      dup1\n      swap3\n      swap2\n      swap1\n      dup2\n      dup2\n      mstore\n      0x20\n      add\n      dup3\n      dup1\n      sload\n      tag_93\n      swap1\n      tag_77\n      jump\t// in\n    tag_93:\n      dup1\n      iszero\n      tag_94\n      jumpi\n      dup1\n      0x1f\n      lt\n      tag_95\n      jumpi\n      0x0100\n      dup1\n      dup4\n      sload\n      div\n      mul\n      dup4\n      mstore\n      swap2\n      0x20\n      add\n      swap2\n      jump(tag_94)\n    tag_95:\n      dup3\n      add\n      swap2\n      swap1\n      0x00\n      mstore\n      keccak256(0x00, 0x20)\n      swap1\n    tag_96:\n      dup2\n      sload\n      dup2\n      mstore\n      swap1\n      0x01\n      add\n      swap1\n      0x20\n      add\n      dup1\n      dup4\n      gt\n      tag_96\n      jumpi\n      dup3\n      swap1\n      sub\n      0x1f\n      and\n      dup3\n      add\n      swap2\n    tag_94:\n      pop\n      pop\n      pop\n      pop\n      pop\n      dup2\n      mstore\n      0x20\n      add\n      0x01\n      dup3\n      add\n      sload\n      dup2\n      mstore\n      0x20\n      add\n      0x02\n      dup3\n      add\n      dup1\n      sload\n      tag_97\n      swap1\n      tag_77\n      jump\t// in\n    tag_97:\n      dup1\n      0x1f\n      add\n      0x20\n      dup1\n      swap2\n      div\n      mul\n      0x20\n      add\n      mload(0x40)\n      swap1\n      dup2\n      add\n      0x40\n      mstore\n      dup1\n      swap3\n      swap2\n      swap1\n      dup2\n      dup2\n      mstore\n      0x20\n      add\n      dup3\n      dup1\n      sload\n      tag_98\n      swap1\n      tag_77\n      jump\t// in\n    tag_98:\n      dup1\n      iszero\n      tag_99\n      jumpi\n      dup1\n      0x1f\n      lt\n      tag_100\n      jumpi\n      0x0100\n      dup1\n      dup4\n      sload\n      div\n      mul\n      dup4\n      mstore\n      swap2\n      0x20\n      add\n      swap2\n      jump(tag_99)\n    tag_100:\n      dup3\n      add\n      swap2\n      swap1\n      0x00\n      mstore\n      keccak256(0x00, 0x20)\n      swap1\n    tag_101:\n      dup2\n      sload\n      dup2\n      mstore\n      swap1\n      0x01\n      add\n      swap1\n      0x20\n      add\n      dup1\n      dup4\n      gt\n      tag_101\n      jumpi\n      dup3\n      swap1\n      sub\n      0x1f\n      and\n      dup3\n      add\n      swap2\n    tag_99:\n      pop\n      pop\n      pop\n      pop\n      pop\n      dup2\n      mstore\n      0x20\n      add\n      0x03\n      dup3\n      add\n      sload\n      dup2\n      mstore\n      0x20\n      add\n      0x04\n      dup3\n      add\n      sload\n      dup2\n      mstore\n      pop\n      pop\n      swap1\n      pop\n        /* \"contracts/webbb3.sol\":479:591  function getCurrentVoting() public view returns (Voting memory) {... */\n      swap1\n      jump\t// out\n    tag_67:\n      mload(0x40)\n      dup1\n      0xa0\n      add\n      0x40\n      mstore\n      dup1\n      0x60\n      dup2\n      mstore\n      0x20\n      add\n      0x00\n      dup2\n      mstore\n      0x20\n      add\n      0x60\n      dup2\n      mstore\n      0x20\n      add\n      0x00\n      dup2\n      mstore\n      0x20\n      add\n      0x00\n      dup2\n      mstore\n      pop\n      swap1\n      jump\t// out\n        /* \"#utility.yul\":7:82   */\n    tag_102:\n        /* \"#utility.yul\":40:46   */\n      0x00\n        /* \"#utility.yul\":73:75   */\n      0x40\n        /* \"#utility.yul\":67:76   */\n      mload\n        /* \"#utility.yul\":57:76   */\n      swap1\n      pop\n        /* \"#utility.yul\":7:82   */\n      swap1\n      jump\t// out\n        /* \"#utility.yul\":88:205   */\n    tag_103:\n        /* \"#utility.yul\":197:198   */\n      0x00\n        /* \"#utility.yul\":194:195   */\n      dup1\n        /* \"#utility.yul\":187:199   */\n      revert\n        /* \"#utility.yul\":211:328   */\n    tag_104:\n        /* \"#utility.yul\":320:321   */\n      0x00\n        /* \"#utility.yul\":317:318   */\n      dup1\n        /* \"#utility.yul\":310:322   */\n      revert\n        /* \"#utility.yul\":334:411   */\n    tag_105:\n        /* \"#utility.yul\":371:378   */\n      0x00\n        /* \"#utility.yul\":400:405   */\n      dup2\n        /* \"#utility.yul\":389:405   */\n      swap1\n      pop\n        /* \"#utility.yul\":334:411   */\n      swap2\n      swap1\n      pop\n      jump\t// out\n        /* \"#utility.yul\":417:539   */\n    tag_106:\n        /* \"#utility.yul\":490:514   */\n      tag_162\n        /* \"#utility.yul\":508:513   */\n      dup2\n        /* \"#utility.yul\":490:514   */\n      tag_105\n      jump\t// in\n    tag_162:\n        /* \"#utility.yul\":483:488   */\n      dup2\n        /* \"#utility.yul\":480:515   */\n      eq\n        /* \"#utility.yul\":470:533   */\n      tag_163\n      jumpi\n        /* \"#utility.yul\":529:530   */\n      0x00\n        /* \"#utility.yul\":526:527   */\n      dup1\n        /* \"#utility.yul\":519:531   */\n      revert\n        /* \"#utility.yul\":470:533   */\n    tag_163:\n        /* \"#utility.yul\":417:539   */\n      pop\n      jump\t// out\n        /* \"#utility.yul\":545:684   */\n    tag_107:\n        /* \"#utility.yul\":591:596   */\n      0x00\n        /* \"#utility.yul\":629:635   */\n      dup2\n        /* \"#utility.yul\":616:636   */\n      calldataload\n        /* \"#utility.yul\":607:636   */\n      swap1\n      pop\n        /* \"#utility.yul\":645:678   */\n      tag_165\n        /* \"#utility.yul\":672:677   */\n      dup2\n        /* \"#utility.yul\":645:678   */\n      tag_106\n      jump\t// in\n    tag_165:\n        /* \"#utility.yul\":545:684   */\n      swap3\n      swap2\n      pop\n      pop\n      jump\t// out\n        /* \"#utility.yul\":690:1019   */\n    tag_11:\n        /* \"#utility.yul\":749:755   */\n      0x00\n        /* \"#utility.yul\":798:800   */\n      0x20\n        /* \"#utility.yul\":786:795   */\n      dup3\n        /* \"#utility.yul\":777:784   */\n      dup5\n        /* \"#utility.yul\":773:796   */\n      sub\n        /* \"#utility.yul\":769:801   */\n      slt\n        /* \"#utility.yul\":766:885   */\n      iszero\n      tag_167\n      jumpi\n        /* \"#utility.yul\":804:883   */\n      tag_168\n      tag_103\n      jump\t// in\n    tag_168:\n        /* \"#utility.yul\":766:885   */\n    tag_167:\n        /* \"#utility.yul\":924:925   */\n      0x00\n        /* \"#utility.yul\":949:1002   */\n      tag_169\n        /* \"#utility.yul\":994:1001   */\n      dup5\n        /* \"#utility.yul\":985:991   */\n      dup3\n        /* \"#utility.yul\":974:983   */\n      dup6\n        /* \"#utility.yul\":970:992   */\n      add\n        /* \"#utility.yul\":949:1002   */\n      tag_107\n      jump\t// in\n    tag_169:\n        /* \"#utility.yul\":939:1002   */\n      swap2\n      pop\n        /* \"#utility.yul\":895:1012   */\n      pop\n        /* \"#utility.yul\":690:1019   */\n      swap3\n      swap2\n      pop\n      pop\n      jump\t// out\n        /* \"#utility.yul\":1025:1143   */\n    tag_108:\n        /* \"#utility.yul\":1112:1136   */\n      tag_171\n        /* \"#utility.yul\":1130:1135   */\n      dup2\n        /* \"#utility.yul\":1112:1136   */\n      tag_105\n      jump\t// in\n    tag_171:\n        /* \"#utility.yul\":1107:1110   */\n      dup3\n        /* \"#utility.yul\":1100:1137   */\n      mstore\n        /* \"#utility.yul\":1025:1143   */\n      pop\n      pop\n      jump\t// out\n        /* \"#utility.yul\":1149:1371   */\n    tag_16:\n        /* \"#utility.yul\":1242:1246   */\n      0x00\n        /* \"#utility.yul\":1280:1282   */\n      0x20\n        /* \"#utility.yul\":1269:1278   */\n      dup3\n        /* \"#utility.yul\":1265:1283   */\n      add\n        /* \"#utility.yul\":1257:1283   */\n      swap1\n      pop\n        /* \"#utility.yul\":1293:1364   */\n      tag_173\n        /* \"#utility.yul\":1361:1362   */\n      0x00\n        /* \"#utility.yul\":1350:1359   */\n      dup4\n        /* \"#utility.yul\":1346:1363   */\n      add\n        /* \"#utility.yul\":1337:1343   */\n      dup5\n        /* \"#utility.yul\":1293:1364   */\n      tag_108\n      jump\t// in\n    tag_173:\n        /* \"#utility.yul\":1149:1371   */\n      swap3\n      swap2\n      pop\n      pop\n      jump\t// out\n        /* \"#utility.yul\":1377:1494   */\n    tag_109:\n        /* \"#utility.yul\":1486:1487   */\n      0x00\n        /* \"#utility.yul\":1483:1484   */\n      dup1\n        /* \"#utility.yul\":1476:1488   */\n      revert\n        /* \"#utility.yul\":1500:1617   */\n    tag_110:\n        /* \"#utility.yul\":1609:1610   */\n      0x00\n        /* \"#utility.yul\":1606:1607   */\n      dup1\n        /* \"#utility.yul\":1599:1611   */\n      revert\n        /* \"#utility.yul\":1623:1725   */\n    tag_111:\n        /* \"#utility.yul\":1664:1670   */\n      0x00\n        /* \"#utility.yul\":1715:1717   */\n      0x1f\n        /* \"#utility.yul\":1711:1718   */\n      not\n        /* \"#utility.yul\":1706:1708   */\n      0x1f\n        /* \"#utility.yul\":1699:1704   */\n      dup4\n        /* \"#utility.yul\":1695:1709   */\n      add\n        /* \"#utility.yul\":1691:1719   */\n      and\n        /* \"#utility.yul\":1681:1719   */\n      swap1\n      pop\n        /* \"#utility.yul\":1623:1725   */\n      swap2\n      swap1\n      pop\n      jump\t// out\n        /* \"#utility.yul\":1731:1911   */\n    tag_112:\n        /* \"#utility.yul\":1779:1856   */\n      0x4e487b7100000000000000000000000000000000000000000000000000000000\n        /* \"#utility.yul\":1776:1777   */\n      0x00\n        /* \"#utility.yul\":1769:1857   */\n      mstore\n        /* \"#utility.yul\":1876:1880   */\n      0x41\n        /* \"#utility.yul\":1873:1874   */\n      0x04\n        /* \"#utility.yul\":1866:1881   */\n      mstore\n        /* \"#utility.yul\":1900:1904   */\n      0x24\n        /* \"#utility.yul\":1897:1898   */\n      0x00\n        /* \"#utility.yul\":1890:1905   */\n      revert\n        /* \"#utility.yul\":1917:2198   */\n    tag_113:\n        /* \"#utility.yul\":2000:2027   */\n      tag_179\n        /* \"#utility.yul\":2022:2026   */\n      dup3\n        /* \"#utility.yul\":2000:2027   */\n      tag_111\n      jump\t// in\n    tag_179:\n        /* \"#utility.yul\":1992:1998   */\n      dup2\n        /* \"#utility.yul\":1988:2028   */\n      add\n        /* \"#utility.yul\":2130:2136   */\n      dup2\n        /* \"#utility.yul\":2118:2128   */\n      dup2\n        /* \"#utility.yul\":2115:2137   */\n      lt\n        /* \"#utility.yul\":2094:2112   */\n      0xffffffffffffffff\n        /* \"#utility.yul\":2082:2092   */\n      dup3\n        /* \"#utility.yul\":2079:2113   */\n      gt\n        /* \"#utility.yul\":2076:2138   */\n      or\n        /* \"#utility.yul\":2073:2161   */\n      iszero\n      tag_180\n      jumpi\n        /* \"#utility.yul\":2141:2159   */\n      tag_181\n      tag_112\n      jump\t// in\n    tag_181:\n        /* \"#utility.yul\":2073:2161   */\n    tag_180:\n        /* \"#utility.yul\":2181:2191   */\n      dup1\n        /* \"#utility.yul\":2177:2179   */\n      0x40\n        /* \"#utility.yul\":2170:2192   */\n      mstore\n        /* \"#utility.yul\":1960:2198   */\n      pop\n        /* \"#utility.yul\":1917:2198   */\n      pop\n      pop\n      jump\t// out\n        /* \"#utility.yul\":2204:2333   */\n    tag_114:\n        /* \"#utility.yul\":2238:2244   */\n      0x00\n        /* \"#utility.yul\":2265:2285   */\n      tag_183\n      tag_102\n      jump\t// in\n    tag_183:\n        /* \"#utility.yul\":2255:2285   */\n      swap1\n      pop\n        /* \"#utility.yul\":2294:2327   */\n      tag_184\n        /* \"#utility.yul\":2322:2326   */\n      dup3\n        /* \"#utility.yul\":2314:2320   */\n      dup3\n        /* \"#utility.yul\":2294:2327   */\n      tag_113\n      jump\t// in\n    tag_184:\n        /* \"#utility.yul\":2204:2333   */\n      swap2\n      swap1\n      pop\n      jump\t// out\n        /* \"#utility.yul\":2339:2647   */\n    tag_115:\n        /* \"#utility.yul\":2401:2405   */\n      0x00\n        /* \"#utility.yul\":2491:2509   */\n      0xffffffffffffffff\n        /* \"#utility.yul\":2483:2489   */\n      dup3\n        /* \"#utility.yul\":2480:2510   */\n      gt\n        /* \"#utility.yul\":2477:2533   */\n      iszero\n      tag_186\n      jumpi\n        /* \"#utility.yul\":2513:2531   */\n      tag_187\n      tag_112\n      jump\t// in\n    tag_187:\n        /* \"#utility.yul\":2477:2533   */\n    tag_186:\n        /* \"#utility.yul\":2551:2580   */\n      tag_188\n        /* \"#utility.yul\":2573:2579   */\n      dup3\n        /* \"#utility.yul\":2551:2580   */\n      tag_111\n      jump\t// in\n    tag_188:\n        /* \"#utility.yul\":2543:2580   */\n      swap1\n      pop\n        /* \"#utility.yul\":2635:2639   */\n      0x20\n        /* \"#utility.yul\":2629:2633   */\n      dup2\n        /* \"#utility.yul\":2625:2640   */\n      add\n        /* \"#utility.yul\":2617:2640   */\n      swap1\n      pop\n        /* \"#utility.yul\":2339:2647   */\n      swap2\n      swap1\n      pop\n      jump\t// out\n        /* \"#utility.yul\":2653:2799   */\n    tag_116:\n        /* \"#utility.yul\":2750:2756   */\n      dup3\n        /* \"#utility.yul\":2745:2748   */\n      dup2\n        /* \"#utility.yul\":2740:2743   */\n      dup4\n        /* \"#utility.yul\":2727:2757   */\n      calldatacopy\n        /* \"#utility.yul\":2791:2792   */\n      0x00\n        /* \"#utility.yul\":2782:2788   */\n      dup4\n        /* \"#utility.yul\":2777:2780   */\n      dup4\n        /* \"#utility.yul\":2773:2789   */\n      add\n        /* \"#utility.yul\":2766:2793   */\n      mstore\n        /* \"#utility.yul\":2653:2799   */\n      pop\n      pop\n      pop\n      jump\t// out\n        /* \"#utility.yul\":2805:3230   */\n    tag_117:\n        /* \"#utility.yul\":2883:2888   */\n      0x00\n        /* \"#utility.yul\":2908:2974   */\n      tag_191\n        /* \"#utility.yul\":2924:2973   */\n      tag_192\n        /* \"#utility.yul\":2966:2972   */\n      dup5\n        /* \"#utility.yul\":2924:2973   */\n      tag_115\n      jump\t// in\n    tag_192:\n        /* \"#utility.yul\":2908:2974   */\n      tag_114\n      jump\t// in\n    tag_191:\n        /* \"#utility.yul\":2899:2974   */\n      swap1\n      pop\n        /* \"#utility.yul\":2997:3003   */\n      dup3\n        /* \"#utility.yul\":2990:2995   */\n      dup2\n        /* \"#utility.yul\":2983:3004   */\n      mstore\n        /* \"#utility.yul\":3035:3039   */\n      0x20\n        /* \"#utility.yul\":3028:3033   */\n      dup2\n        /* \"#utility.yul\":3024:3040   */\n      add\n        /* \"#utility.yul\":3073:3076   */\n      dup5\n        /* \"#utility.yul\":3064:3070   */\n      dup5\n        /* \"#utility.yul\":3059:3062   */\n      dup5\n        /* \"#utility.yul\":3055:3071   */\n      add\n        /* \"#utility.yul\":3052:3077   */\n      gt\n        /* \"#utility.yul\":3049:3161   */\n      iszero\n      tag_193\n      jumpi\n        /* \"#utility.yul\":3080:3159   */\n      tag_194\n      tag_110\n      jump\t// in\n    tag_194:\n        /* \"#utility.yul\":3049:3161   */\n    tag_193:\n        /* \"#utility.yul\":3170:3224   */\n      tag_195\n        /* \"#utility.yul\":3217:3223   */\n      dup5\n        /* \"#utility.yul\":3212:3215   */\n      dup3\n        /* \"#utility.yul\":3207:3210   */\n      dup6\n        /* \"#utility.yul\":3170:3224   */\n      tag_116\n      jump\t// in\n    tag_195:\n        /* \"#utility.yul\":2889:3230   */\n      pop\n        /* \"#utility.yul\":2805:3230   */\n      swap4\n      swap3\n      pop\n      pop\n      pop\n      jump\t// out\n        /* \"#utility.yul\":3250:3590   */\n    tag_118:\n        /* \"#utility.yul\":3306:3311   */\n      0x00\n        /* \"#utility.yul\":3355:3358   */\n      dup3\n        /* \"#utility.yul\":3348:3352   */\n      0x1f\n        /* \"#utility.yul\":3340:3346   */\n      dup4\n        /* \"#utility.yul\":3336:3353   */\n      add\n        /* \"#utility.yul\":3332:3359   */\n      slt\n        /* \"#utility.yul\":3322:3444   */\n      tag_197\n      jumpi\n        /* \"#utility.yul\":3363:3442   */\n      tag_198\n      tag_109\n      jump\t// in\n    tag_198:\n        /* \"#utility.yul\":3322:3444   */\n    tag_197:\n        /* \"#utility.yul\":3480:3486   */\n      dup2\n        /* \"#utility.yul\":3467:3487   */\n      calldataload\n        /* \"#utility.yul\":3505:3584   */\n      tag_199\n        /* \"#utility.yul\":3580:3583   */\n      dup5\n        /* \"#utility.yul\":3572:3578   */\n      dup3\n        /* \"#utility.yul\":3565:3569   */\n      0x20\n        /* \"#utility.yul\":3557:3563   */\n      dup7\n        /* \"#utility.yul\":3553:3570   */\n      add\n        /* \"#utility.yul\":3505:3584   */\n      tag_117\n      jump\t// in\n    tag_199:\n        /* \"#utility.yul\":3496:3584   */\n      swap2\n      pop\n        /* \"#utility.yul\":3312:3590   */\n      pop\n        /* \"#utility.yul\":3250:3590   */\n      swap3\n      swap2\n      pop\n      pop\n      jump\t// out\n        /* \"#utility.yul\":3596:4575   */\n    tag_19:\n        /* \"#utility.yul\":3693:3699   */\n      0x00\n        /* \"#utility.yul\":3701:3707   */\n      dup1\n        /* \"#utility.yul\":3709:3715   */\n      0x00\n        /* \"#utility.yul\":3758:3760   */\n      0x60\n        /* \"#utility.yul\":3746:3755   */\n      dup5\n        /* \"#utility.yul\":3737:3744   */\n      dup7\n        /* \"#utility.yul\":3733:3756   */\n      sub\n        /* \"#utility.yul\":3729:3761   */\n      slt\n        /* \"#utility.yul\":3726:3845   */\n      iszero\n      tag_201\n      jumpi\n        /* \"#utility.yul\":3764:3843   */\n      tag_202\n      tag_103\n      jump\t// in\n    tag_202:\n        /* \"#utility.yul\":3726:3845   */\n    tag_201:\n        /* \"#utility.yul\":3912:3913   */\n      0x00\n        /* \"#utility.yul\":3901:3910   */\n      dup5\n        /* \"#utility.yul\":3897:3914   */\n      add\n        /* \"#utility.yul\":3884:3915   */\n      calldataload\n        /* \"#utility.yul\":3942:3960   */\n      0xffffffffffffffff\n        /* \"#utility.yul\":3934:3940   */\n      dup2\n        /* \"#utility.yul\":3931:3961   */\n      gt\n        /* \"#utility.yul\":3928:4045   */\n      iszero\n      tag_203\n      jumpi\n        /* \"#utility.yul\":3964:4043   */\n      tag_204\n      tag_104\n      jump\t// in\n    tag_204:\n        /* \"#utility.yul\":3928:4045   */\n    tag_203:\n        /* \"#utility.yul\":4069:4132   */\n      tag_205\n        /* \"#utility.yul\":4124:4131   */\n      dup7\n        /* \"#utility.yul\":4115:4121   */\n      dup3\n        /* \"#utility.yul\":4104:4113   */\n      dup8\n        /* \"#utility.yul\":4100:4122   */\n      add\n        /* \"#utility.yul\":4069:4132   */\n      tag_118\n      jump\t// in\n    tag_205:\n        /* \"#utility.yul\":4059:4132   */\n      swap4\n      pop\n        /* \"#utility.yul\":3855:4142   */\n      pop\n        /* \"#utility.yul\":4209:4211   */\n      0x20\n        /* \"#utility.yul\":4198:4207   */\n      dup5\n        /* \"#utility.yul\":4194:4212   */\n      add\n        /* \"#utility.yul\":4181:4213   */\n      calldataload\n        /* \"#utility.yul\":4240:4258   */\n      0xffffffffffffffff\n        /* \"#utility.yul\":4232:4238   */\n      dup2\n        /* \"#utility.yul\":4229:4259   */\n      gt\n        /* \"#utility.yul\":4226:4343   */\n      iszero\n      tag_206\n      jumpi\n        /* \"#utility.yul\":4262:4341   */\n      tag_207\n      tag_104\n      jump\t// in\n    tag_207:\n        /* \"#utility.yul\":4226:4343   */\n    tag_206:\n        /* \"#utility.yul\":4367:4430   */\n      tag_208\n        /* \"#utility.yul\":4422:4429   */\n      dup7\n        /* \"#utility.yul\":4413:4419   */\n      dup3\n        /* \"#utility.yul\":4402:4411   */\n      dup8\n        /* \"#utility.yul\":4398:4420   */\n      add\n        /* \"#utility.yul\":4367:4430   */\n      tag_118\n      jump\t// in\n    tag_208:\n        /* \"#utility.yul\":4357:4430   */\n      swap3\n      pop\n        /* \"#utility.yul\":4152:4440   */\n      pop\n        /* \"#utility.yul\":4479:4481   */\n      0x40\n        /* \"#utility.yul\":4505:4558   */\n      tag_209\n        /* \"#utility.yul\":4550:4557   */\n      dup7\n        /* \"#utility.yul\":4541:4547   */\n      dup3\n        /* \"#utility.yul\":4530:4539   */\n      dup8\n        /* \"#utility.yul\":4526:4548   */\n      add\n        /* \"#utility.yul\":4505:4558   */\n      tag_107\n      jump\t// in\n    tag_209:\n        /* \"#utility.yul\":4495:4558   */\n      swap2\n      pop\n        /* \"#utility.yul\":4450:4568   */\n      pop\n        /* \"#utility.yul\":3596:4575   */\n      swap3\n      pop\n      swap3\n      pop\n      swap3\n      jump\t// out\n        /* \"#utility.yul\":4581:4680   */\n    tag_119:\n        /* \"#utility.yul\":4633:4639   */\n      0x00\n        /* \"#utility.yul\":4667:4672   */\n      dup2\n        /* \"#utility.yul\":4661:4673   */\n      mload\n        /* \"#utility.yul\":4651:4673   */\n      swap1\n      pop\n        /* \"#utility.yul\":4581:4680   */\n      swap2\n      swap1\n      pop\n      jump\t// out\n        /* \"#utility.yul\":4686:4855   */\n    tag_120:\n        /* \"#utility.yul\":4770:4781   */\n      0x00\n        /* \"#utility.yul\":4804:4810   */\n      dup3\n        /* \"#utility.yul\":4799:4802   */\n      dup3\n        /* \"#utility.yul\":4792:4811   */\n      mstore\n        /* \"#utility.yul\":4844:4848   */\n      0x20\n        /* \"#utility.yul\":4839:4842   */\n      dup3\n        /* \"#utility.yul\":4835:4849   */\n      add\n        /* \"#utility.yul\":4820:4849   */\n      swap1\n      pop\n        /* \"#utility.yul\":4686:4855   */\n      swap3\n      swap2\n      pop\n      pop\n      jump\t// out\n        /* \"#utility.yul\":4861:5107   */\n    tag_121:\n        /* \"#utility.yul\":4942:4943   */\n      0x00\n        /* \"#utility.yul\":4952:5065   */\n    tag_213:\n        /* \"#utility.yul\":4966:4972   */\n      dup4\n        /* \"#utility.yul\":4963:4964   */\n      dup2\n        /* \"#utility.yul\":4960:4973   */\n      lt\n        /* \"#utility.yul\":4952:5065   */\n      iszero\n      tag_215\n      jumpi\n        /* \"#utility.yul\":5051:5052   */\n      dup1\n        /* \"#utility.yul\":5046:5049   */\n      dup3\n        /* \"#utility.yul\":5042:5053   */\n      add\n        /* \"#utility.yul\":5036:5054   */\n      mload\n        /* \"#utility.yul\":5032:5033   */\n      dup2\n        /* \"#utility.yul\":5027:5030   */\n      dup5\n        /* \"#utility.yul\":5023:5034   */\n      add\n        /* \"#utility.yul\":5016:5055   */\n      mstore\n        /* \"#utility.yul\":4988:4990   */\n      0x20\n        /* \"#utility.yul\":4985:4986   */\n      dup2\n        /* \"#utility.yul\":4981:4991   */\n      add\n        /* \"#utility.yul\":4976:4991   */\n      swap1\n      pop\n        /* \"#utility.yul\":4952:5065   */\n      jump(tag_213)\n    tag_215:\n        /* \"#utility.yul\":5099:5100   */\n      0x00\n        /* \"#utility.yul\":5090:5096   */\n      dup5\n        /* \"#utility.yul\":5085:5088   */\n      dup5\n        /* \"#utility.yul\":5081:5097   */\n      add\n        /* \"#utility.yul\":5074:5101   */\n      mstore\n        /* \"#utility.yul\":4923:5107   */\n      pop\n        /* \"#utility.yul\":4861:5107   */\n      pop\n      pop\n      pop\n      jump\t// out\n        /* \"#utility.yul\":5113:5490   */\n    tag_122:\n        /* \"#utility.yul\":5201:5204   */\n      0x00\n        /* \"#utility.yul\":5229:5268   */\n      tag_217\n        /* \"#utility.yul\":5262:5267   */\n      dup3\n        /* \"#utility.yul\":5229:5268   */\n      tag_119\n      jump\t// in\n    tag_217:\n        /* \"#utility.yul\":5284:5355   */\n      tag_218\n        /* \"#utility.yul\":5348:5354   */\n      dup2\n        /* \"#utility.yul\":5343:5346   */\n      dup6\n        /* \"#utility.yul\":5284:5355   */\n      tag_120\n      jump\t// in\n    tag_218:\n        /* \"#utility.yul\":5277:5355   */\n      swap4\n      pop\n        /* \"#utility.yul\":5364:5429   */\n      tag_219\n        /* \"#utility.yul\":5422:5428   */\n      dup2\n        /* \"#utility.yul\":5417:5420   */\n      dup6\n        /* \"#utility.yul\":5410:5414   */\n      0x20\n        /* \"#utility.yul\":5403:5408   */\n      dup7\n        /* \"#utility.yul\":5399:5415   */\n      add\n        /* \"#utility.yul\":5364:5429   */\n      tag_121\n      jump\t// in\n    tag_219:\n        /* \"#utility.yul\":5454:5483   */\n      tag_220\n        /* \"#utility.yul\":5476:5482   */\n      dup2\n        /* \"#utility.yul\":5454:5483   */\n      tag_111\n      jump\t// in\n    tag_220:\n        /* \"#utility.yul\":5449:5452   */\n      dup5\n        /* \"#utility.yul\":5445:5484   */\n      add\n        /* \"#utility.yul\":5438:5484   */\n      swap2\n      pop\n        /* \"#utility.yul\":5205:5490   */\n      pop\n        /* \"#utility.yul\":5113:5490   */\n      swap3\n      swap2\n      pop\n      pop\n      jump\t// out\n        /* \"#utility.yul\":5496:6342   */\n    tag_25:\n        /* \"#utility.yul\":5741:5745   */\n      0x00\n        /* \"#utility.yul\":5779:5782   */\n      0xa0\n        /* \"#utility.yul\":5768:5777   */\n      dup3\n        /* \"#utility.yul\":5764:5783   */\n      add\n        /* \"#utility.yul\":5756:5783   */\n      swap1\n      pop\n        /* \"#utility.yul\":5829:5838   */\n      dup2\n        /* \"#utility.yul\":5823:5827   */\n      dup2\n        /* \"#utility.yul\":5819:5839   */\n      sub\n        /* \"#utility.yul\":5815:5816   */\n      0x00\n        /* \"#utility.yul\":5804:5813   */\n      dup4\n        /* \"#utility.yul\":5800:5817   */\n      add\n        /* \"#utility.yul\":5793:5840   */\n      mstore\n        /* \"#utility.yul\":5857:5935   */\n      tag_222\n        /* \"#utility.yul\":5930:5934   */\n      dup2\n        /* \"#utility.yul\":5921:5927   */\n      dup9\n        /* \"#utility.yul\":5857:5935   */\n      tag_122\n      jump\t// in\n    tag_222:\n        /* \"#utility.yul\":5849:5935   */\n      swap1\n      pop\n        /* \"#utility.yul\":5945:6017   */\n      tag_223\n        /* \"#utility.yul\":6013:6015   */\n      0x20\n        /* \"#utility.yul\":6002:6011   */\n      dup4\n        /* \"#utility.yul\":5998:6016   */\n      add\n        /* \"#utility.yul\":5989:5995   */\n      dup8\n        /* \"#utility.yul\":5945:6017   */\n      tag_108\n      jump\t// in\n    tag_223:\n        /* \"#utility.yul\":6064:6073   */\n      dup2\n        /* \"#utility.yul\":6058:6062   */\n      dup2\n        /* \"#utility.yul\":6054:6074   */\n      sub\n        /* \"#utility.yul\":6049:6051   */\n      0x40\n        /* \"#utility.yul\":6038:6047   */\n      dup4\n        /* \"#utility.yul\":6034:6052   */\n      add\n        /* \"#utility.yul\":6027:6075   */\n      mstore\n        /* \"#utility.yul\":6092:6170   */\n      tag_224\n        /* \"#utility.yul\":6165:6169   */\n      dup2\n        /* \"#utility.yul\":6156:6162   */\n      dup7\n        /* \"#utility.yul\":6092:6170   */\n      tag_122\n      jump\t// in\n    tag_224:\n        /* \"#utility.yul\":6084:6170   */\n      swap1\n      pop\n        /* \"#utility.yul\":6180:6252   */\n      tag_225\n        /* \"#utility.yul\":6248:6250   */\n      0x60\n        /* \"#utility.yul\":6237:6246   */\n      dup4\n        /* \"#utility.yul\":6233:6251   */\n      add\n        /* \"#utility.yul\":6224:6230   */\n      dup6\n        /* \"#utility.yul\":6180:6252   */\n      tag_108\n      jump\t// in\n    tag_225:\n        /* \"#utility.yul\":6262:6335   */\n      tag_226\n        /* \"#utility.yul\":6330:6333   */\n      0x80\n        /* \"#utility.yul\":6319:6328   */\n      dup4\n        /* \"#utility.yul\":6315:6334   */\n      add\n        /* \"#utility.yul\":6306:6312   */\n      dup5\n        /* \"#utility.yul\":6262:6335   */\n      tag_108\n      jump\t// in\n    tag_226:\n        /* \"#utility.yul\":5496:6342   */\n      swap7\n      swap6\n      pop\n      pop\n      pop\n      pop\n      pop\n      pop\n      jump\t// out\n        /* \"#utility.yul\":6348:6474   */\n    tag_123:\n        /* \"#utility.yul\":6385:6392   */\n      0x00\n        /* \"#utility.yul\":6425:6467   */\n      0xffffffffffffffffffffffffffffffffffffffff\n        /* \"#utility.yul\":6418:6423   */\n      dup3\n        /* \"#utility.yul\":6414:6468   */\n      and\n        /* \"#utility.yul\":6403:6468   */\n      swap1\n      pop\n        /* \"#utility.yul\":6348:6474   */\n      swap2\n      swap1\n      pop\n      jump\t// out\n        /* \"#utility.yul\":6480:6576   */\n    tag_124:\n        /* \"#utility.yul\":6517:6524   */\n      0x00\n        /* \"#utility.yul\":6546:6570   */\n      tag_229\n        /* \"#utility.yul\":6564:6569   */\n      dup3\n        /* \"#utility.yul\":6546:6570   */\n      tag_123\n      jump\t// in\n    tag_229:\n        /* \"#utility.yul\":6535:6570   */\n      swap1\n      pop\n        /* \"#utility.yul\":6480:6576   */\n      swap2\n      swap1\n      pop\n      jump\t// out\n        /* \"#utility.yul\":6582:6704   */\n    tag_125:\n        /* \"#utility.yul\":6655:6679   */\n      tag_231\n        /* \"#utility.yul\":6673:6678   */\n      dup2\n        /* \"#utility.yul\":6655:6679   */\n      tag_124\n      jump\t// in\n    tag_231:\n        /* \"#utility.yul\":6648:6653   */\n      dup2\n        /* \"#utility.yul\":6645:6680   */\n      eq\n        /* \"#utility.yul\":6635:6698   */\n      tag_232\n      jumpi\n        /* \"#utility.yul\":6694:6695   */\n      0x00\n        /* \"#utility.yul\":6691:6692   */\n      dup1\n        /* \"#utility.yul\":6684:6696   */\n      revert\n        /* \"#utility.yul\":6635:6698   */\n    tag_232:\n        /* \"#utility.yul\":6582:6704   */\n      pop\n      jump\t// out\n        /* \"#utility.yul\":6710:6849   */\n    tag_126:\n        /* \"#utility.yul\":6756:6761   */\n      0x00\n        /* \"#utility.yul\":6794:6800   */\n      dup2\n        /* \"#utility.yul\":6781:6801   */\n      calldataload\n        /* \"#utility.yul\":6772:6801   */\n      swap1\n      pop\n        /* \"#utility.yul\":6810:6843   */\n      tag_234\n        /* \"#utility.yul\":6837:6842   */\n      dup2\n        /* \"#utility.yul\":6810:6843   */\n      tag_125\n      jump\t// in\n    tag_234:\n        /* \"#utility.yul\":6710:6849   */\n      swap3\n      swap2\n      pop\n      pop\n      jump\t// out\n        /* \"#utility.yul\":6855:7329   */\n    tag_28:\n        /* \"#utility.yul\":6923:6929   */\n      0x00\n        /* \"#utility.yul\":6931:6937   */\n      dup1\n        /* \"#utility.yul\":6980:6982   */\n      0x40\n        /* \"#utility.yul\":6968:6977   */\n      dup4\n        /* \"#utility.yul\":6959:6966   */\n      dup6\n        /* \"#utility.yul\":6955:6978   */\n      sub\n        /* \"#utility.yul\":6951:6983   */\n      slt\n        /* \"#utility.yul\":6948:7067   */\n      iszero\n      tag_236\n      jumpi\n        /* \"#utility.yul\":6986:7065   */\n      tag_237\n      tag_103\n      jump\t// in\n    tag_237:\n        /* \"#utility.yul\":6948:7067   */\n    tag_236:\n        /* \"#utility.yul\":7106:7107   */\n      0x00\n        /* \"#utility.yul\":7131:7184   */\n      tag_238\n        /* \"#utility.yul\":7176:7183   */\n      dup6\n        /* \"#utility.yul\":7167:7173   */\n      dup3\n        /* \"#utility.yul\":7156:7165   */\n      dup7\n        /* \"#utility.yul\":7152:7174   */\n      add\n        /* \"#utility.yul\":7131:7184   */\n      tag_107\n      jump\t// in\n    tag_238:\n        /* \"#utility.yul\":7121:7184   */\n      swap3\n      pop\n        /* \"#utility.yul\":7077:7194   */\n      pop\n        /* \"#utility.yul\":7233:7235   */\n      0x20\n        /* \"#utility.yul\":7259:7312   */\n      tag_239\n        /* \"#utility.yul\":7304:7311   */\n      dup6\n        /* \"#utility.yul\":7295:7301   */\n      dup3\n        /* \"#utility.yul\":7284:7293   */\n      dup7\n        /* \"#utility.yul\":7280:7302   */\n      add\n        /* \"#utility.yul\":7259:7312   */\n      tag_126\n      jump\t// in\n    tag_239:\n        /* \"#utility.yul\":7249:7312   */\n      swap2\n      pop\n        /* \"#utility.yul\":7204:7322   */\n      pop\n        /* \"#utility.yul\":6855:7329   */\n      swap3\n      pop\n      swap3\n      swap1\n      pop\n      jump\t// out\n        /* \"#utility.yul\":7335:7667   */\n    tag_31:\n        /* \"#utility.yul\":7456:7460   */\n      0x00\n        /* \"#utility.yul\":7494:7496   */\n      0x40\n        /* \"#utility.yul\":7483:7492   */\n      dup3\n        /* \"#utility.yul\":7479:7497   */\n      add\n        /* \"#utility.yul\":7471:7497   */\n      swap1\n      pop\n        /* \"#utility.yul\":7507:7578   */\n      tag_241\n        /* \"#utility.yul\":7575:7576   */\n      0x00\n        /* \"#utility.yul\":7564:7573   */\n      dup4\n        /* \"#utility.yul\":7560:7577   */\n      add\n        /* \"#utility.yul\":7551:7557   */\n      dup6\n        /* \"#utility.yul\":7507:7578   */\n      tag_108\n      jump\t// in\n    tag_241:\n        /* \"#utility.yul\":7588:7660   */\n      tag_242\n        /* \"#utility.yul\":7656:7658   */\n      0x20\n        /* \"#utility.yul\":7645:7654   */\n      dup4\n        /* \"#utility.yul\":7641:7659   */\n      add\n        /* \"#utility.yul\":7632:7638   */\n      dup5\n        /* \"#utility.yul\":7588:7660   */\n      tag_108\n      jump\t// in\n    tag_242:\n        /* \"#utility.yul\":7335:7667   */\n      swap4\n      swap3\n      pop\n      pop\n      pop\n      jump\t// out\n        /* \"#utility.yul\":7673:7832   */\n    tag_127:\n        /* \"#utility.yul\":7747:7758   */\n      0x00\n        /* \"#utility.yul\":7781:7787   */\n      dup3\n        /* \"#utility.yul\":7776:7779   */\n      dup3\n        /* \"#utility.yul\":7769:7788   */\n      mstore\n        /* \"#utility.yul\":7821:7825   */\n      0x20\n        /* \"#utility.yul\":7816:7819   */\n      dup3\n        /* \"#utility.yul\":7812:7826   */\n      add\n        /* \"#utility.yul\":7797:7826   */\n      swap1\n      pop\n        /* \"#utility.yul\":7673:7832   */\n      swap3\n      swap2\n      pop\n      pop\n      jump\t// out\n        /* \"#utility.yul\":7838:8195   */\n    tag_128:\n        /* \"#utility.yul\":7916:7919   */\n      0x00\n        /* \"#utility.yul\":7944:7983   */\n      tag_245\n        /* \"#utility.yul\":7977:7982   */\n      dup3\n        /* \"#utility.yul\":7944:7983   */\n      tag_119\n      jump\t// in\n    tag_245:\n        /* \"#utility.yul\":7999:8060   */\n      tag_246\n        /* \"#utility.yul\":8053:8059   */\n      dup2\n        /* \"#utility.yul\":8048:8051   */\n      dup6\n        /* \"#utility.yul\":7999:8060   */\n      tag_127\n      jump\t// in\n    tag_246:\n        /* \"#utility.yul\":7992:8060   */\n      swap4\n      pop\n        /* \"#utility.yul\":8069:8134   */\n      tag_247\n        /* \"#utility.yul\":8127:8133   */\n      dup2\n        /* \"#utility.yul\":8122:8125   */\n      dup6\n        /* \"#utility.yul\":8115:8119   */\n      0x20\n        /* \"#utility.yul\":8108:8113   */\n      dup7\n        /* \"#utility.yul\":8104:8120   */\n      add\n        /* \"#utility.yul\":8069:8134   */\n      tag_121\n      jump\t// in\n    tag_247:\n        /* \"#utility.yul\":8159:8188   */\n      tag_248\n        /* \"#utility.yul\":8181:8187   */\n      dup2\n        /* \"#utility.yul\":8159:8188   */\n      tag_111\n      jump\t// in\n    tag_248:\n        /* \"#utility.yul\":8154:8157   */\n      dup5\n        /* \"#utility.yul\":8150:8189   */\n      add\n        /* \"#utility.yul\":8143:8189   */\n      swap2\n      pop\n        /* \"#utility.yul\":7920:8195   */\n      pop\n        /* \"#utility.yul\":7838:8195   */\n      swap3\n      swap2\n      pop\n      pop\n      jump\t// out\n        /* \"#utility.yul\":8201:8309   */\n    tag_129:\n        /* \"#utility.yul\":8278:8302   */\n      tag_250\n        /* \"#utility.yul\":8296:8301   */\n      dup2\n        /* \"#utility.yul\":8278:8302   */\n      tag_105\n      jump\t// in\n    tag_250:\n        /* \"#utility.yul\":8273:8276   */\n      dup3\n        /* \"#utility.yul\":8266:8303   */\n      mstore\n        /* \"#utility.yul\":8201:8309   */\n      pop\n      pop\n      jump\t// out\n        /* \"#utility.yul\":8353:9559   */\n    tag_130:\n        /* \"#utility.yul\":8466:8469   */\n      0x00\n        /* \"#utility.yul\":8502:8506   */\n      0xa0\n        /* \"#utility.yul\":8497:8500   */\n      dup4\n        /* \"#utility.yul\":8493:8507   */\n      add\n        /* \"#utility.yul\":8592:8596   */\n      0x00\n        /* \"#utility.yul\":8585:8590   */\n      dup4\n        /* \"#utility.yul\":8581:8597   */\n      add\n        /* \"#utility.yul\":8575:8598   */\n      mload\n        /* \"#utility.yul\":8645:8648   */\n      dup5\n        /* \"#utility.yul\":8639:8643   */\n      dup3\n        /* \"#utility.yul\":8635:8649   */\n      sub\n        /* \"#utility.yul\":8628:8632   */\n      0x00\n        /* \"#utility.yul\":8623:8626   */\n      dup7\n        /* \"#utility.yul\":8619:8633   */\n      add\n        /* \"#utility.yul\":8612:8650   */\n      mstore\n        /* \"#utility.yul\":8671:8744   */\n      tag_252\n        /* \"#utility.yul\":8739:8743   */\n      dup3\n        /* \"#utility.yul\":8725:8737   */\n      dup3\n        /* \"#utility.yul\":8671:8744   */\n      tag_128\n      jump\t// in\n    tag_252:\n        /* \"#utility.yul\":8663:8744   */\n      swap2\n      pop\n        /* \"#utility.yul\":8517:8755   */\n      pop\n        /* \"#utility.yul\":8839:8843   */\n      0x20\n        /* \"#utility.yul\":8832:8837   */\n      dup4\n        /* \"#utility.yul\":8828:8844   */\n      add\n        /* \"#utility.yul\":8822:8845   */\n      mload\n        /* \"#utility.yul\":8858:8921   */\n      tag_253\n        /* \"#utility.yul\":8915:8919   */\n      0x20\n        /* \"#utility.yul\":8910:8913   */\n      dup7\n        /* \"#utility.yul\":8906:8920   */\n      add\n        /* \"#utility.yul\":8892:8904   */\n      dup3\n        /* \"#utility.yul\":8858:8921   */\n      tag_129\n      jump\t// in\n    tag_253:\n        /* \"#utility.yul\":8765:8931   */\n      pop\n        /* \"#utility.yul\":9016:9020   */\n      0x40\n        /* \"#utility.yul\":9009:9014   */\n      dup4\n        /* \"#utility.yul\":9005:9021   */\n      add\n        /* \"#utility.yul\":8999:9022   */\n      mload\n        /* \"#utility.yul\":9069:9072   */\n      dup5\n        /* \"#utility.yul\":9063:9067   */\n      dup3\n        /* \"#utility.yul\":9059:9073   */\n      sub\n        /* \"#utility.yul\":9052:9056   */\n      0x40\n        /* \"#utility.yul\":9047:9050   */\n      dup7\n        /* \"#utility.yul\":9043:9057   */\n      add\n        /* \"#utility.yul\":9036:9074   */\n      mstore\n        /* \"#utility.yul\":9095:9168   */\n      tag_254\n        /* \"#utility.yul\":9163:9167   */\n      dup3\n        /* \"#utility.yul\":9149:9161   */\n      dup3\n        /* \"#utility.yul\":9095:9168   */\n      tag_128\n      jump\t// in\n    tag_254:\n        /* \"#utility.yul\":9087:9168   */\n      swap2\n      pop\n        /* \"#utility.yul\":8941:9179   */\n      pop\n        /* \"#utility.yul\":9263:9267   */\n      0x60\n        /* \"#utility.yul\":9256:9261   */\n      dup4\n        /* \"#utility.yul\":9252:9268   */\n      add\n        /* \"#utility.yul\":9246:9269   */\n      mload\n        /* \"#utility.yul\":9282:9345   */\n      tag_255\n        /* \"#utility.yul\":9339:9343   */\n      0x60\n        /* \"#utility.yul\":9334:9337   */\n      dup7\n        /* \"#utility.yul\":9330:9344   */\n      add\n        /* \"#utility.yul\":9316:9328   */\n      dup3\n        /* \"#utility.yul\":9282:9345   */\n      tag_129\n      jump\t// in\n    tag_255:\n        /* \"#utility.yul\":9189:9355   */\n      pop\n        /* \"#utility.yul\":9440:9444   */\n      0x80\n        /* \"#utility.yul\":9433:9438   */\n      dup4\n        /* \"#utility.yul\":9429:9445   */\n      add\n        /* \"#utility.yul\":9423:9446   */\n      mload\n        /* \"#utility.yul\":9459:9522   */\n      tag_256\n        /* \"#utility.yul\":9516:9520   */\n      0x80\n        /* \"#utility.yul\":9511:9514   */\n      dup7\n        /* \"#utility.yul\":9507:9521   */\n      add\n        /* \"#utility.yul\":9493:9505   */\n      dup3\n        /* \"#utility.yul\":9459:9522   */\n      tag_129\n      jump\t// in\n    tag_256:\n        /* \"#utility.yul\":9365:9532   */\n      pop\n        /* \"#utility.yul\":9549:9553   */\n      dup1\n        /* \"#utility.yul\":9542:9553   */\n      swap2\n      pop\n        /* \"#utility.yul\":8471:9559   */\n      pop\n        /* \"#utility.yul\":8353:9559   */\n      swap3\n      swap2\n      pop\n      pop\n      jump\t// out\n        /* \"#utility.yul\":9565:9926   */\n    tag_35:\n        /* \"#utility.yul\":9702:9706   */\n      0x00\n        /* \"#utility.yul\":9740:9742   */\n      0x20\n        /* \"#utility.yul\":9729:9738   */\n      dup3\n        /* \"#utility.yul\":9725:9743   */\n      add\n        /* \"#utility.yul\":9717:9743   */\n      swap1\n      pop\n        /* \"#utility.yul\":9789:9798   */\n      dup2\n        /* \"#utility.yul\":9783:9787   */\n      dup2\n        /* \"#utility.yul\":9779:9799   */\n      sub\n        /* \"#utility.yul\":9775:9776   */\n      0x00\n        /* \"#utility.yul\":9764:9773   */\n      dup4\n        /* \"#utility.yul\":9760:9777   */\n      add\n        /* \"#utility.yul\":9753:9800   */\n      mstore\n        /* \"#utility.yul\":9817:9919   */\n      tag_258\n        /* \"#utility.yul\":9914:9918   */\n      dup2\n        /* \"#utility.yul\":9905:9911   */\n      dup5\n        /* \"#utility.yul\":9817:9919   */\n      tag_130\n      jump\t// in\n    tag_258:\n        /* \"#utility.yul\":9809:9919   */\n      swap1\n      pop\n        /* \"#utility.yul\":9565:9926   */\n      swap3\n      swap2\n      pop\n      pop\n      jump\t// out\n        /* \"#utility.yul\":9932:10096   */\n    tag_131:\n        /* \"#utility.yul\":10072:10088   */\n      0x496e76616c69642063686f696365000000000000000000000000000000000000\n        /* \"#utility.yul\":10068:10069   */\n      0x00\n        /* \"#utility.yul\":10060:10066   */\n      dup3\n        /* \"#utility.yul\":10056:10070   */\n      add\n        /* \"#utility.yul\":10049:10089   */\n      mstore\n        /* \"#utility.yul\":9932:10096   */\n      pop\n      jump\t// out\n        /* \"#utility.yul\":10102:10468   */\n    tag_132:\n        /* \"#utility.yul\":10244:10247   */\n      0x00\n        /* \"#utility.yul\":10265:10332   */\n      tag_261\n        /* \"#utility.yul\":10329:10331   */\n      0x0e\n        /* \"#utility.yul\":10324:10327   */\n      dup4\n        /* \"#utility.yul\":10265:10332   */\n      tag_120\n      jump\t// in\n    tag_261:\n        /* \"#utility.yul\":10258:10332   */\n      swap2\n      pop\n        /* \"#utility.yul\":10341:10434   */\n      tag_262\n        /* \"#utility.yul\":10430:10433   */\n      dup3\n        /* \"#utility.yul\":10341:10434   */\n      tag_131\n      jump\t// in\n    tag_262:\n        /* \"#utility.yul\":10459:10461   */\n      0x20\n        /* \"#utility.yul\":10454:10457   */\n      dup3\n        /* \"#utility.yul\":10450:10462   */\n      add\n        /* \"#utility.yul\":10443:10462   */\n      swap1\n      pop\n        /* \"#utility.yul\":10102:10468   */\n      swap2\n      swap1\n      pop\n      jump\t// out\n        /* \"#utility.yul\":10474:10893   */\n    tag_40:\n        /* \"#utility.yul\":10640:10644   */\n      0x00\n        /* \"#utility.yul\":10678:10680   */\n      0x20\n        /* \"#utility.yul\":10667:10676   */\n      dup3\n        /* \"#utility.yul\":10663:10681   */\n      add\n        /* \"#utility.yul\":10655:10681   */\n      swap1\n      pop\n        /* \"#utility.yul\":10727:10736   */\n      dup2\n        /* \"#utility.yul\":10721:10725   */\n      dup2\n        /* \"#utility.yul\":10717:10737   */\n      sub\n        /* \"#utility.yul\":10713:10714   */\n      0x00\n        /* \"#utility.yul\":10702:10711   */\n      dup4\n        /* \"#utility.yul\":10698:10715   */\n      add\n        /* \"#utility.yul\":10691:10738   */\n      mstore\n        /* \"#utility.yul\":10755:10886   */\n      tag_264\n        /* \"#utility.yul\":10881:10885   */\n      dup2\n        /* \"#utility.yul\":10755:10886   */\n      tag_132\n      jump\t// in\n    tag_264:\n        /* \"#utility.yul\":10747:10886   */\n      swap1\n      pop\n        /* \"#utility.yul\":10474:10893   */\n      swap2\n      swap1\n      pop\n      jump\t// out\n        /* \"#utility.yul\":10899:11063   */\n    tag_133:\n        /* \"#utility.yul\":11039:11055   */\n      0x566f74696e672065787069726564000000000000000000000000000000000000\n        /* \"#utility.yul\":11035:11036   */\n      0x00\n        /* \"#utility.yul\":11027:11033   */\n      dup3\n        /* \"#utility.yul\":11023:11037   */\n      add\n        /* \"#utility.yul\":11016:11056   */\n      mstore\n        /* \"#utility.yul\":10899:11063   */\n      pop\n      jump\t// out\n        /* \"#utility.yul\":11069:11435   */\n    tag_134:\n        /* \"#utility.yul\":11211:11214   */\n      0x00\n        /* \"#utility.yul\":11232:11299   */\n      tag_267\n        /* \"#utility.yul\":11296:11298   */\n      0x0e\n        /* \"#utility.yul\":11291:11294   */\n      dup4\n        /* \"#utility.yul\":11232:11299   */\n      tag_120\n      jump\t// in\n    tag_267:\n        /* \"#utility.yul\":11225:11299   */\n      swap2\n      pop\n        /* \"#utility.yul\":11308:11401   */\n      tag_268\n        /* \"#utility.yul\":11397:11400   */\n      dup3\n        /* \"#utility.yul\":11308:11401   */\n      tag_133\n      jump\t// in\n    tag_268:\n        /* \"#utility.yul\":11426:11428   */\n      0x20\n        /* \"#utility.yul\":11421:11424   */\n      dup3\n        /* \"#utility.yul\":11417:11429   */\n      add\n        /* \"#utility.yul\":11410:11429   */\n      swap1\n      pop\n        /* \"#utility.yul\":11069:11435   */\n      swap2\n      swap1\n      pop\n      jump\t// out\n        /* \"#utility.yul\":11441:11860   */\n    tag_44:\n        /* \"#utility.yul\":11607:11611   */\n      0x00\n        /* \"#utility.yul\":11645:11647   */\n      0x20\n        /* \"#utility.yul\":11634:11643   */\n      dup3\n        /* \"#utility.yul\":11630:11648   */\n      add\n        /* \"#utility.yul\":11622:11648   */\n      swap1\n      pop\n        /* \"#utility.yul\":11694:11703   */\n      dup2\n        /* \"#utility.yul\":11688:11692   */\n      dup2\n        /* \"#utility.yul\":11684:11704   */\n      sub\n        /* \"#utility.yul\":11680:11681   */\n      0x00\n        /* \"#utility.yul\":11669:11678   */\n      dup4\n        /* \"#utility.yul\":11665:11682   */\n      add\n        /* \"#utility.yul\":11658:11705   */\n      mstore\n        /* \"#utility.yul\":11722:11853   */\n      tag_270\n        /* \"#utility.yul\":11848:11852   */\n      dup2\n        /* \"#utility.yul\":11722:11853   */\n      tag_134\n      jump\t// in\n    tag_270:\n        /* \"#utility.yul\":11714:11853   */\n      swap1\n      pop\n        /* \"#utility.yul\":11441:11860   */\n      swap2\n      swap1\n      pop\n      jump\t// out\n        /* \"#utility.yul\":11866:12029   */\n    tag_135:\n        /* \"#utility.yul\":12006:12021   */\n      0x416c726561647920766f74656400000000000000000000000000000000000000\n        /* \"#utility.yul\":12002:12003   */\n      0x00\n        /* \"#utility.yul\":11994:12000   */\n      dup3\n        /* \"#utility.yul\":11990:12004   */\n      add\n        /* \"#utility.yul\":11983:12022   */\n      mstore\n        /* \"#utility.yul\":11866:12029   */\n      pop\n      jump\t// out\n        /* \"#utility.yul\":12035:12401   */\n    tag_136:\n        /* \"#utility.yul\":12177:12180   */\n      0x00\n        /* \"#utility.yul\":12198:12265   */\n      tag_273\n        /* \"#utility.yul\":12262:12264   */\n      0x0d\n        /* \"#utility.yul\":12257:12260   */\n      dup4\n        /* \"#utility.yul\":12198:12265   */\n      tag_120\n      jump\t// in\n    tag_273:\n        /* \"#utility.yul\":12191:12265   */\n      swap2\n      pop\n        /* \"#utility.yul\":12274:12367   */\n      tag_274\n        /* \"#utility.yul\":12363:12366   */\n      dup3\n        /* \"#utility.yul\":12274:12367   */\n      tag_135\n      jump\t// in\n    tag_274:\n        /* \"#utility.yul\":12392:12394   */\n      0x20\n        /* \"#utility.yul\":12387:12390   */\n      dup3\n        /* \"#utility.yul\":12383:12395   */\n      add\n        /* \"#utility.yul\":12376:12395   */\n      swap1\n      pop\n        /* \"#utility.yul\":12035:12401   */\n      swap2\n      swap1\n      pop\n      jump\t// out\n        /* \"#utility.yul\":12407:12826   */\n    tag_47:\n        /* \"#utility.yul\":12573:12577   */\n      0x00\n        /* \"#utility.yul\":12611:12613   */\n      0x20\n        /* \"#utility.yul\":12600:12609   */\n      dup3\n        /* \"#utility.yul\":12596:12614   */\n      add\n        /* \"#utility.yul\":12588:12614   */\n      swap1\n      pop\n        /* \"#utility.yul\":12660:12669   */\n      dup2\n        /* \"#utility.yul\":12654:12658   */\n      dup2\n        /* \"#utility.yul\":12650:12670   */\n      sub\n        /* \"#utility.yul\":12646:12647   */\n      0x00\n        /* \"#utility.yul\":12635:12644   */\n      dup4\n        /* \"#utility.yul\":12631:12648   */\n      add\n        /* \"#utility.yul\":12624:12671   */\n      mstore\n        /* \"#utility.yul\":12688:12819   */\n      tag_276\n        /* \"#utility.yul\":12814:12818   */\n      dup2\n        /* \"#utility.yul\":12688:12819   */\n      tag_136\n      jump\t// in\n    tag_276:\n        /* \"#utility.yul\":12680:12819   */\n      swap1\n      pop\n        /* \"#utility.yul\":12407:12826   */\n      swap2\n      swap1\n      pop\n      jump\t// out\n        /* \"#utility.yul\":12832:13012   */\n    tag_51:\n        /* \"#utility.yul\":12880:12957   */\n      0x4e487b7100000000000000000000000000000000000000000000000000000000\n        /* \"#utility.yul\":12877:12878   */\n      0x00\n        /* \"#utility.yul\":12870:12958   */\n      mstore\n        /* \"#utility.yul\":12977:12981   */\n      0x32\n        /* \"#utility.yul\":12974:12975   */\n      0x04\n        /* \"#utility.yul\":12967:12982   */\n      mstore\n        /* \"#utility.yul\":13001:13005   */\n      0x24\n        /* \"#utility.yul\":12998:12999   */\n      0x00\n        /* \"#utility.yul\":12991:13006   */\n      revert\n        /* \"#utility.yul\":13018:13198   */\n    tag_137:\n        /* \"#utility.yul\":13066:13143   */\n      0x4e487b7100000000000000000000000000000000000000000000000000000000\n        /* \"#utility.yul\":13063:13064   */\n      0x00\n        /* \"#utility.yul\":13056:13144   */\n      mstore\n        /* \"#utility.yul\":13163:13167   */\n      0x11\n        /* \"#utility.yul\":13160:13161   */\n      0x04\n        /* \"#utility.yul\":13153:13168   */\n      mstore\n        /* \"#utility.yul\":13187:13191   */\n      0x24\n        /* \"#utility.yul\":13184:13185   */\n      0x00\n        /* \"#utility.yul\":13177:13192   */\n      revert\n        /* \"#utility.yul\":13204:13437   */\n    tag_54:\n        /* \"#utility.yul\":13243:13246   */\n      0x00\n        /* \"#utility.yul\":13266:13290   */\n      tag_280\n        /* \"#utility.yul\":13284:13289   */\n      dup3\n        /* \"#utility.yul\":13266:13290   */\n      tag_105\n      jump\t// in\n    tag_280:\n        /* \"#utility.yul\":13257:13290   */\n      swap2\n      pop\n        /* \"#utility.yul\":13312:13378   */\n      0xffffffffffffffffffffffffffffffffffffffffffffffffffffffffffffffff\n        /* \"#utility.yul\":13305:13310   */\n      dup3\n        /* \"#utility.yul\":13302:13379   */\n      sub\n        /* \"#utility.yul\":13299:13402   */\n      tag_281\n      jumpi\n        /* \"#utility.yul\":13382:13400   */\n      tag_282\n      tag_137\n      jump\t// in\n    tag_282:\n        /* \"#utility.yul\":13299:13402   */\n    tag_281:\n        /* \"#utility.yul\":13429:13430   */\n      0x01\n        /* \"#utility.yul\":13422:13427   */\n      dup3\n        /* \"#utility.yul\":13418:13431   */\n      add\n        /* \"#utility.yul\":13411:13431   */\n      swap1\n      pop\n        /* \"#utility.yul\":13204:13437   */\n      swap2\n      swap1\n      pop\n      jump\t// out\n        /* \"#utility.yul\":13443:13607   */\n    tag_138:\n        /* \"#utility.yul\":13583:13599   */\n      0x496e76616c69642073656e646572000000000000000000000000000000000000\n        /* \"#utility.yul\":13579:13580   */\n      0x00\n        /* \"#utility.yul\":13571:13577   */\n      dup3\n        /* \"#utility.yul\":13567:13581   */\n      add\n        /* \"#utility.yul\":13560:13600   */\n      mstore\n        /* \"#utility.yul\":13443:13607   */\n      pop\n      jump\t// out\n        /* \"#utility.yul\":13613:13979   */\n    tag_139:\n        /* \"#utility.yul\":13755:13758   */\n      0x00\n        /* \"#utility.yul\":13776:13843   */\n      tag_285\n        /* \"#utility.yul\":13840:13842   */\n      0x0e\n        /* \"#utility.yul\":13835:13838   */\n      dup4\n        /* \"#utility.yul\":13776:13843   */\n      tag_120\n      jump\t// in\n    tag_285:\n        /* \"#utility.yul\":13769:13843   */\n      swap2\n      pop\n        /* \"#utility.yul\":13852:13945   */\n      tag_286\n        /* \"#utility.yul\":13941:13944   */\n      dup3\n        /* \"#utility.yul\":13852:13945   */\n      tag_138\n      jump\t// in\n    tag_286:\n        /* \"#utility.yul\":13970:13972   */\n      0x20\n        /* \"#utility.yul\":13965:13968   */\n      dup3\n        /* \"#utility.yul\":13961:13973   */\n      add\n        /* \"#utility.yul\":13954:13973   */\n      swap1\n      pop\n        /* \"#utility.yul\":13613:13979   */\n      swap2\n      swap1\n      pop\n      jump\t// out\n        /* \"#utility.yul\":13985:14404   */\n    tag_63:\n        /* \"#utility.yul\":14151:14155   */\n      0x00\n        /* \"#utility.yul\":14189:14191   */\n      0x20\n        /* \"#utility.yul\":14178:14187   */\n      dup3\n        /* \"#utility.yul\":14174:14192   */\n      add\n        /* \"#utility.yul\":14166:14192   */\n      swap1\n      pop\n        /* \"#utility.yul\":14238:14247   */\n      dup2\n        /* \"#utility.yul\":14232:14236   */\n      dup2\n        /* \"#utility.yul\":14228:14248   */\n      sub\n        /* \"#utility.yul\":14224:14225   */\n      0x00\n        /* \"#utility.yul\":14213:14222   */\n      dup4\n        /* \"#utility.yul\":14209:14226   */\n      add\n        /* \"#utility.yul\":14202:14249   */\n      mstore\n        /* \"#utility.yul\":14266:14397   */\n      tag_288\n        /* \"#utility.yul\":14392:14396   */\n      dup2\n        /* \"#utility.yul\":14266:14397   */\n      tag_139\n      jump\t// in\n    tag_288:\n        /* \"#utility.yul\":14258:14397   */\n      swap1\n      pop\n        /* \"#utility.yul\":13985:14404   */\n      swap2\n      swap1\n      pop\n      jump\t// out\n        /* \"#utility.yul\":14410:14601   */\n    tag_69:\n        /* \"#utility.yul\":14450:14453   */\n      0x00\n        /* \"#utility.yul\":14469:14489   */\n      tag_290\n        /* \"#utility.yul\":14487:14488   */\n      dup3\n        /* \"#utility.yul\":14469:14489   */\n      tag_105\n      jump\t// in\n    tag_290:\n        /* \"#utility.yul\":14464:14489   */\n      swap2\n      pop\n        /* \"#utility.yul\":14503:14523   */\n      tag_291\n        /* \"#utility.yul\":14521:14522   */\n      dup4\n        /* \"#utility.yul\":14503:14523   */\n      tag_105\n      jump\t// in\n    tag_291:\n        /* \"#utility.yul\":14498:14523   */\n      swap3\n      pop\n        /* \"#utility.yul\":14546:14547   */\n      dup3\n        /* \"#utility.yul\":14543:14544   */\n      dup3\n        /* \"#utility.yul\":14539:14548   */\n      add\n        /* \"#utility.yul\":14532:14548   */\n      swap1\n      pop\n        /* \"#utility.yul\":14567:14570   */\n      dup1\n        /* \"#utility.yul\":14564:14565   */\n      dup3\n        /* \"#utility.yul\":14561:14571   */\n      gt\n        /* \"#utility.yul\":14558:14594   */\n      iszero\n      tag_292\n      jumpi\n        /* \"#utility.yul\":14574:14592   */\n      tag_293\n      tag_137\n      jump\t// in\n    tag_293:\n        /* \"#utility.yul\":14558:14594   */\n    tag_292:\n        /* \"#utility.yul\":14410:14601   */\n      swap3\n      swap2\n      pop\n      pop\n      jump\t// out\n        /* \"#utility.yul\":14607:14787   */\n    tag_140:\n        /* \"#utility.yul\":14655:14732   */\n      0x4e487b7100000000000000000000000000000000000000000000000000000000\n        /* \"#utility.yul\":14652:14653   */\n      0x00\n        /* \"#utility.yul\":14645:14733   */\n      mstore\n        /* \"#utility.yul\":14752:14756   */\n      0x22\n        /* \"#utility.yul\":14749:14750   */\n      0x04\n        /* \"#utility.yul\":14742:14757   */\n      mstore\n        /* \"#utility.yul\":14776:14780   */\n      0x24\n        /* \"#utility.yul\":14773:14774   */\n      0x00\n        /* \"#utility.yul\":14766:14781   */\n      revert\n        /* \"#utility.yul\":14793:15113   */\n    tag_77:\n        /* \"#utility.yul\":14837:14843   */\n      0x00\n        /* \"#utility.yul\":14874:14875   */\n      0x02\n        /* \"#utility.yul\":14868:14872   */\n      dup3\n        /* \"#utility.yul\":14864:14876   */\n      div\n        /* \"#utility.yul\":14854:14876   */\n      swap1\n      pop\n        /* \"#utility.yul\":14921:14922   */\n      0x01\n        /* \"#utility.yul\":14915:14919   */\n      dup3\n        /* \"#utility.yul\":14911:14923   */\n      and\n        /* \"#utility.yul\":14942:14960   */\n      dup1\n        /* \"#utility.yul\":14932:15013   */\n      tag_296\n      jumpi\n        /* \"#utility.yul\":14998:15002   */\n      0x7f\n        /* \"#utility.yul\":14990:14996   */\n      dup3\n        /* \"#utility.yul\":14986:15003   */\n      and\n        /* \"#utility.yul\":14976:15003   */\n      swap2\n      pop\n        /* \"#utility.yul\":14932:15013   */\n    tag_296:\n        /* \"#utility.yul\":15060:15062   */\n      0x20\n        /* \"#utility.yul\":15052:15058   */\n      dup3\n        /* \"#utility.yul\":15049:15063   */\n      lt\n        /* \"#utility.yul\":15029:15047   */\n      dup2\n        /* \"#utility.yul\":15026:15064   */\n      sub\n        /* \"#utility.yul\":15023:15107   */\n      tag_297\n      jumpi\n        /* \"#utility.yul\":15079:15097   */\n      tag_298\n      tag_140\n      jump\t// in\n    tag_298:\n        /* \"#utility.yul\":15023:15107   */\n    tag_297:\n        /* \"#utility.yul\":14844:15113   */\n      pop\n        /* \"#utility.yul\":14793:15113   */\n      swap2\n      swap1\n      pop\n      jump\t// out\n        /* \"#utility.yul\":15119:15260   */\n    tag_141:\n        /* \"#utility.yul\":15168:15172   */\n      0x00\n        /* \"#utility.yul\":15191:15194   */\n      dup2\n        /* \"#utility.yul\":15183:15194   */\n      swap1\n      pop\n        /* \"#utility.yul\":15214:15217   */\n      dup2\n        /* \"#utility.yul\":15211:15212   */\n      0x00\n        /* \"#utility.yul\":15204:15218   */\n      mstore\n        /* \"#utility.yul\":15248:15252   */\n      0x20\n        /* \"#utility.yul\":15245:15246   */\n      0x00\n        /* \"#utility.yul\":15235:15253   */\n      keccak256\n        /* \"#utility.yul\":15227:15253   */\n      swap1\n      pop\n        /* \"#utility.yul\":15119:15260   */\n      swap2\n      swap1\n      pop\n      jump\t// out\n        /* \"#utility.yul\":15266:15359   */\n    tag_142:\n        /* \"#utility.yul\":15303:15309   */\n      0x00\n        /* \"#utility.yul\":15350:15352   */\n      0x20\n        /* \"#utility.yul\":15345:15347   */\n      0x1f\n        /* \"#utility.yul\":15338:15343   */\n      dup4\n        /* \"#utility.yul\":15334:15348   */\n      add\n        /* \"#utility.yul\":15330:15353   */\n      div\n        /* \"#utility.yul\":15320:15353   */\n      swap1\n      pop\n        /* \"#utility.yul\":15266:15359   */\n      swap2\n      swap1\n      pop\n      jump\t// out\n        /* \"#utility.yul\":15365:15472   */\n    tag_143:\n        /* \"#utility.yul\":15409:15417   */\n      0x00\n        /* \"#utility.yul\":15459:15464   */\n      dup3\n        /* \"#utility.yul\":15453:15457   */\n      dup3\n        /* \"#utility.yul\":15449:15465   */\n      shl\n        /* \"#utility.yul\":15428:15465   */\n      swap1\n      pop\n        /* \"#utility.yul\":15365:15472   */\n      swap3\n      swap2\n      pop\n      pop\n      jump\t// out\n        /* \"#utility.yul\":15478:15871   */\n    tag_144:\n        /* \"#utility.yul\":15547:15553   */\n      0x00\n        /* \"#utility.yul\":15597:15598   */\n      0x08\n        /* \"#utility.yul\":15585:15595   */\n      dup4\n        /* \"#utility.yul\":15581:15599   */\n      mul\n        /* \"#utility.yul\":15620:15717   */\n      tag_303\n        /* \"#utility.yul\":15650:15716   */\n      0xffffffffffffffffffffffffffffffffffffffffffffffffffffffffffffffff\n        /* \"#utility.yul\":15639:15648   */\n      dup3\n        /* \"#utility.yul\":15620:15717   */\n      tag_143\n      jump\t// in\n    tag_303:\n        /* \"#utility.yul\":15738:15777   */\n      tag_304\n        /* \"#utility.yul\":15768:15776   */\n      dup7\n        /* \"#utility.yul\":15757:15766   */\n      dup4\n        /* \"#utility.yul\":15738:15777   */\n      tag_143\n      jump\t// in\n    tag_304:\n        /* \"#utility.yul\":15726:15777   */\n      swap6\n      pop\n        /* \"#utility.yul\":15810:15814   */\n      dup1\n        /* \"#utility.yul\":15806:15815   */\n      not\n        /* \"#utility.yul\":15799:15804   */\n      dup5\n        /* \"#utility.yul\":15795:15816   */\n      and\n        /* \"#utility.yul\":15786:15816   */\n      swap4\n      pop\n        /* \"#utility.yul\":15859:15863   */\n      dup1\n        /* \"#utility.yul\":15849:15857   */\n      dup7\n        /* \"#utility.yul\":15845:15864   */\n      and\n        /* \"#utility.yul\":15838:15843   */\n      dup5\n        /* \"#utility.yul\":15835:15865   */\n      or\n        /* \"#utility.yul\":15825:15865   */\n      swap3\n      pop\n        /* \"#utility.yul\":15554:15871   */\n      pop\n      pop\n        /* \"#utility.yul\":15478:15871   */\n      swap4\n      swap3\n      pop\n      pop\n      pop\n      jump\t// out\n        /* \"#utility.yul\":15877:15937   */\n    tag_145:\n        /* \"#utility.yul\":15905:15908   */\n      0x00\n        /* \"#utility.yul\":15926:15931   */\n      dup2\n        /* \"#utility.yul\":15919:15931   */\n      swap1\n      pop\n        /* \"#utility.yul\":15877:15937   */\n      swap2\n      swap1\n      pop\n      jump\t// out\n        /* \"#utility.yul\":15943:16085   */\n    tag_146:\n        /* \"#utility.yul\":15993:16002   */\n      0x00\n        /* \"#utility.yul\":16026:16079   */\n      tag_307\n        /* \"#utility.yul\":16044:16078   */\n      tag_308\n        /* \"#utility.yul\":16053:16077   */\n      tag_309\n        /* \"#utility.yul\":16071:16076   */\n      dup5\n        /* \"#utility.yul\":16053:16077   */\n      tag_105\n      jump\t// in\n    tag_309:\n        /* \"#utility.yul\":16044:16078   */\n      tag_145\n      jump\t// in\n    tag_308:\n        /* \"#utility.yul\":16026:16079   */\n      tag_105\n      jump\t// in\n    tag_307:\n        /* \"#utility.yul\":16013:16079   */\n      swap1\n      pop\n        /* \"#utility.yul\":15943:16085   */\n      swap2\n      swap1\n      pop\n      jump\t// out\n        /* \"#utility.yul\":16091:16166   */\n    tag_147:\n        /* \"#utility.yul\":16134:16137   */\n      0x00\n        /* \"#utility.yul\":16155:16160   */\n      dup2\n        /* \"#utility.yul\":16148:16160   */\n      swap1\n      pop\n        /* \"#utility.yul\":16091:16166   */\n      swap2\n      swap1\n      pop\n      jump\t// out\n        /* \"#utility.yul\":16172:16441   */\n    tag_148:\n        /* \"#utility.yul\":16282:16321   */\n      tag_312\n        /* \"#utility.yul\":16313:16320   */\n      dup4\n        /* \"#utility.yul\":16282:16321   */\n      tag_146\n      jump\t// in\n    tag_312:\n        /* \"#utility.yul\":16343:16434   */\n      tag_313\n        /* \"#utility.yul\":16392:16433   */\n      tag_314\n        /* \"#utility.yul\":16416:16432   */\n      dup3\n        /* \"#utility.yul\":16392:16433   */\n      tag_147\n      jump\t// in\n    tag_314:\n        /* \"#utility.yul\":16384:16390   */\n      dup5\n        /* \"#utility.yul\":16377:16381   */\n      dup5\n        /* \"#utility.yul\":16371:16382   */\n      sload\n        /* \"#utility.yul\":16343:16434   */\n      tag_144\n      jump\t// in\n    tag_313:\n        /* \"#utility.yul\":16337:16341   */\n      dup3\n        /* \"#utility.yul\":16330:16435   */\n      sstore\n        /* \"#utility.yul\":16248:16441   */\n      pop\n        /* \"#utility.yul\":16172:16441   */\n      pop\n      pop\n      pop\n      jump\t// out\n        /* \"#utility.yul\":16447:16520   */\n    tag_149:\n        /* \"#utility.yul\":16492:16495   */\n      0x00\n        /* \"#utility.yul\":16447:16520   */\n      swap1\n      jump\t// out\n        /* \"#utility.yul\":16526:16715   */\n    tag_150:\n        /* \"#utility.yul\":16603:16635   */\n      tag_317\n      tag_149\n      jump\t// in\n    tag_317:\n        /* \"#utility.yul\":16644:16709   */\n      tag_318\n        /* \"#utility.yul\":16702:16708   */\n      dup2\n        /* \"#utility.yul\":16694:16700   */\n      dup5\n        /* \"#utility.yul\":16688:16692   */\n      dup5\n        /* \"#utility.yul\":16644:16709   */\n      tag_148\n      jump\t// in\n    tag_318:\n        /* \"#utility.yul\":16579:16715   */\n      pop\n        /* \"#utility.yul\":16526:16715   */\n      pop\n      pop\n      jump\t// out\n        /* \"#utility.yul\":16721:16907   */\n    tag_151:\n        /* \"#utility.yul\":16781:16901   */\n    tag_320:\n        /* \"#utility.yul\":16798:16801   */\n      dup2\n        /* \"#utility.yul\":16791:16796   */\n      dup2\n        /* \"#utility.yul\":16788:16802   */\n      lt\n        /* \"#utility.yul\":16781:16901   */\n      iszero\n      tag_322\n      jumpi\n        /* \"#utility.yul\":16852:16891   */\n      tag_323\n        /* \"#utility.yul\":16889:16890   */\n      0x00\n        /* \"#utility.yul\":16882:16887   */\n      dup3\n        /* \"#utility.yul\":16852:16891   */\n      tag_150\n      jump\t// in\n    tag_323:\n        /* \"#utility.yul\":16825:16826   */\n      0x01\n        /* \"#utility.yul\":16818:16823   */\n      dup2\n        /* \"#utility.yul\":16814:16827   */\n      add\n        /* \"#utility.yul\":16805:16827   */\n      swap1\n      pop\n        /* \"#utility.yul\":16781:16901   */\n      jump(tag_320)\n    tag_322:\n        /* \"#utility.yul\":16721:16907   */\n      pop\n      pop\n      jump\t// out\n        /* \"#utility.yul\":16913:17456   */\n    tag_152:\n        /* \"#utility.yul\":17014:17016   */\n      0x1f\n        /* \"#utility.yul\":17009:17012   */\n      dup3\n        /* \"#utility.yul\":17006:17017   */\n      gt\n        /* \"#utility.yul\":17003:17449   */\n      iszero\n      tag_325\n      jumpi\n        /* \"#utility.yul\":17048:17086   */\n      tag_326\n        /* \"#utility.yul\":17080:17085   */\n      dup2\n        /* \"#utility.yul\":17048:17086   */\n      tag_141\n      jump\t// in\n    tag_326:\n        /* \"#utility.yul\":17132:17161   */\n      tag_327\n        /* \"#utility.yul\":17150:17160   */\n      dup5\n        /* \"#utility.yul\":17132:17161   */\n      tag_142\n      jump\t// in\n    tag_327:\n        /* \"#utility.yul\":17122:17130   */\n      dup2\n        /* \"#utility.yul\":17118:17162   */\n      add\n        /* \"#utility.yul\":17315:17317   */\n      0x20\n        /* \"#utility.yul\":17303:17313   */\n      dup6\n        /* \"#utility.yul\":17300:17318   */\n      lt\n        /* \"#utility.yul\":17297:17346   */\n      iszero\n      tag_328\n      jumpi\n        /* \"#utility.yul\":17336:17344   */\n      dup2\n        /* \"#utility.yul\":17321:17344   */\n      swap1\n      pop\n        /* \"#utility.yul\":17297:17346   */\n    tag_328:\n        /* \"#utility.yul\":17359:17439   */\n      tag_329\n        /* \"#utility.yul\":17415:17437   */\n      tag_330\n        /* \"#utility.yul\":17433:17436   */\n      dup6\n        /* \"#utility.yul\":17415:17437   */\n      tag_142\n      jump\t// in\n    tag_330:\n        /* \"#utility.yul\":17405:17413   */\n      dup4\n        /* \"#utility.yul\":17401:17438   */\n      add\n        /* \"#utility.yul\":17388:17399   */\n      dup3\n        /* \"#utility.yul\":17359:17439   */\n      tag_151\n      jump\t// in\n    tag_329:\n        /* \"#utility.yul\":17018:17449   */\n      pop\n      pop\n        /* \"#utility.yul\":17003:17449   */\n    tag_325:\n        /* \"#utility.yul\":16913:17456   */\n      pop\n      pop\n      pop\n      jump\t// out\n        /* \"#utility.yul\":17462:17579   */\n    tag_153:\n        /* \"#utility.yul\":17516:17524   */\n      0x00\n        /* \"#utility.yul\":17566:17571   */\n      dup3\n        /* \"#utility.yul\":17560:17564   */\n      dup3\n        /* \"#utility.yul\":17556:17572   */\n      shr\n        /* \"#utility.yul\":17535:17572   */\n      swap1\n      pop\n        /* \"#utility.yul\":17462:17579   */\n      swap3\n      swap2\n      pop\n      pop\n      jump\t// out\n        /* \"#utility.yul\":17585:17754   */\n    tag_154:\n        /* \"#utility.yul\":17629:17635   */\n      0x00\n        /* \"#utility.yul\":17662:17713   */\n      tag_333\n        /* \"#utility.yul\":17710:17711   */\n      0x00\n        /* \"#utility.yul\":17706:17712   */\n      not\n        /* \"#utility.yul\":17698:17703   */\n      dup5\n        /* \"#utility.yul\":17695:17696   */\n      0x08\n        /* \"#utility.yul\":17691:17704   */\n      mul\n        /* \"#utility.yul\":17662:17713   */\n      tag_153\n      jump\t// in\n    tag_333:\n        /* \"#utility.yul\":17658:17714   */\n      not\n        /* \"#utility.yul\":17743:17747   */\n      dup1\n        /* \"#utility.yul\":17737:17741   */\n      dup4\n        /* \"#utility.yul\":17733:17748   */\n      and\n        /* \"#utility.yul\":17723:17748   */\n      swap2\n      pop\n        /* \"#utility.yul\":17636:17754   */\n      pop\n        /* \"#utility.yul\":17585:17754   */\n      swap3\n      swap2\n      pop\n      pop\n      jump\t// out\n        /* \"#utility.yul\":17759:18054   */\n    tag_155:\n        /* \"#utility.yul\":17835:17839   */\n      0x00\n        /* \"#utility.yul\":17981:18010   */\n      tag_335\n        /* \"#utility.yul\":18006:18009   */\n      dup4\n        /* \"#utility.yul\":18000:18004   */\n      dup4\n        /* \"#utility.yul\":17981:18010   */\n      tag_154\n      jump\t// in\n    tag_335:\n        /* \"#utility.yul\":17973:18010   */\n      swap2\n      pop\n        /* \"#utility.yul\":18043:18046   */\n      dup3\n        /* \"#utility.yul\":18040:18041   */\n      0x02\n        /* \"#utility.yul\":18036:18047   */\n      mul\n        /* \"#utility.yul\":18030:18034   */\n      dup3\n        /* \"#utility.yul\":18027:18048   */\n      or\n        /* \"#utility.yul\":18019:18048   */\n      swap1\n      pop\n        /* \"#utility.yul\":17759:18054   */\n      swap3\n      swap2\n      pop\n      pop\n      jump\t// out\n        /* \"#utility.yul\":18059:19454   */\n    tag_72:\n        /* \"#utility.yul\":18176:18213   */\n      tag_337\n        /* \"#utility.yul\":18209:18212   */\n      dup3\n        /* \"#utility.yul\":18176:18213   */\n      tag_119\n      jump\t// in\n    tag_337:\n        /* \"#utility.yul\":18278:18296   */\n      0xffffffffffffffff\n        /* \"#utility.yul\":18270:18276   */\n      dup2\n        /* \"#utility.yul\":18267:18297   */\n      gt\n        /* \"#utility.yul\":18264:18320   */\n      iszero\n      tag_338\n      jumpi\n        /* \"#utility.yul\":18300:18318   */\n      tag_339\n      tag_112\n      jump\t// in\n    tag_339:\n        /* \"#utility.yul\":18264:18320   */\n    tag_338:\n        /* \"#utility.yul\":18344:18382   */\n      tag_340\n        /* \"#utility.yul\":18376:18380   */\n      dup3\n        /* \"#utility.yul\":18370:18381   */\n      sload\n        /* \"#utility.yul\":18344:18382   */\n      tag_77\n      jump\t// in\n    tag_340:\n        /* \"#utility.yul\":18429:18496   */\n      tag_341\n        /* \"#utility.yul\":18489:18495   */\n      dup3\n        /* \"#utility.yul\":18481:18487   */\n      dup3\n        /* \"#utility.yul\":18475:18479   */\n      dup6\n        /* \"#utility.yul\":18429:18496   */\n      tag_152\n      jump\t// in\n    tag_341:\n        /* \"#utility.yul\":18523:18524   */\n      0x00\n        /* \"#utility.yul\":18547:18551   */\n      0x20\n        /* \"#utility.yul\":18534:18551   */\n      swap1\n      pop\n        /* \"#utility.yul\":18579:18581   */\n      0x1f\n        /* \"#utility.yul\":18571:18577   */\n      dup4\n        /* \"#utility.yul\":18568:18582   */\n      gt\n        /* \"#utility.yul\":18596:18597   */\n      0x01\n        /* \"#utility.yul\":18591:19209   */\n      dup2\n      eq\n      tag_343\n      jumpi\n        /* \"#utility.yul\":19253:19254   */\n      0x00\n        /* \"#utility.yul\":19270:19276   */\n      dup5\n        /* \"#utility.yul\":19267:19344   */\n      iszero\n      tag_344\n      jumpi\n        /* \"#utility.yul\":19319:19328   */\n      dup3\n        /* \"#utility.yul\":19314:19317   */\n      dup8\n        /* \"#utility.yul\":19310:19329   */\n      add\n        /* \"#utility.yul\":19304:19330   */\n      mload\n        /* \"#utility.yul\":19295:19330   */\n      swap1\n      pop\n        /* \"#utility.yul\":19267:19344   */\n    tag_344:\n        /* \"#utility.yul\":19370:19437   */\n      tag_345\n        /* \"#utility.yul\":19430:19436   */\n      dup6\n        /* \"#utility.yul\":19423:19428   */\n      dup3\n        /* \"#utility.yul\":19370:19437   */\n      tag_155\n      jump\t// in\n    tag_345:\n        /* \"#utility.yul\":19364:19368   */\n      dup7\n        /* \"#utility.yul\":19357:19438   */\n      sstore\n        /* \"#utility.yul\":19226:19448   */\n      pop\n        /* \"#utility.yul\":18561:19448   */\n      jump(tag_342)\n        /* \"#utility.yul\":18591:19209   */\n    tag_343:\n        /* \"#utility.yul\":18643:18647   */\n      0x1f\n        /* \"#utility.yul\":18639:18648   */\n      not\n        /* \"#utility.yul\":18631:18637   */\n      dup5\n        /* \"#utility.yul\":18627:18649   */\n      and\n        /* \"#utility.yul\":18677:18714   */\n      tag_346\n        /* \"#utility.yul\":18709:18713   */\n      dup7\n        /* \"#utility.yul\":18677:18714   */\n      tag_141\n      jump\t// in\n    tag_346:\n        /* \"#utility.yul\":18736:18737   */\n      0x00\n        /* \"#utility.yul\":18750:18958   */\n    tag_347:\n        /* \"#utility.yul\":18764:18771   */\n      dup3\n        /* \"#utility.yul\":18761:18762   */\n      dup2\n        /* \"#utility.yul\":18758:18772   */\n      lt\n        /* \"#utility.yul\":18750:18958   */\n      iszero\n      tag_349\n      jumpi\n        /* \"#utility.yul\":18843:18852   */\n      dup5\n        /* \"#utility.yul\":18838:18841   */\n      dup10\n        /* \"#utility.yul\":18834:18853   */\n      add\n        /* \"#utility.yul\":18828:18854   */\n      mload\n        /* \"#utility.yul\":18820:18826   */\n      dup3\n        /* \"#utility.yul\":18813:18855   */\n      sstore\n        /* \"#utility.yul\":18894:18895   */\n      0x01\n        /* \"#utility.yul\":18886:18892   */\n      dup3\n        /* \"#utility.yul\":18882:18896   */\n      add\n        /* \"#utility.yul\":18872:18896   */\n      swap2\n      pop\n        /* \"#utility.yul\":18941:18943   */\n      0x20\n        /* \"#utility.yul\":18930:18939   */\n      dup6\n        /* \"#utility.yul\":18926:18944   */\n      add\n        /* \"#utility.yul\":18913:18944   */\n      swap5\n      pop\n        /* \"#utility.yul\":18787:18791   */\n      0x20\n        /* \"#utility.yul\":18784:18785   */\n      dup2\n        /* \"#utility.yul\":18780:18792   */\n      add\n        /* \"#utility.yul\":18775:18792   */\n      swap1\n      pop\n        /* \"#utility.yul\":18750:18958   */\n      jump(tag_347)\n    tag_349:\n        /* \"#utility.yul\":18986:18992   */\n      dup7\n        /* \"#utility.yul\":18977:18984   */\n      dup4\n        /* \"#utility.yul\":18974:18993   */\n      lt\n        /* \"#utility.yul\":18971:19150   */\n      iszero\n      tag_350\n      jumpi\n        /* \"#utility.yul\":19044:19053   */\n      dup5\n        /* \"#utility.yul\":19039:19042   */\n      dup10\n        /* \"#utility.yul\":19035:19054   */\n      add\n        /* \"#utility.yul\":19029:19055   */\n      mload\n        /* \"#utility.yul\":19087:19135   */\n      tag_351\n        /* \"#utility.yul\":19129:19133   */\n      0x1f\n        /* \"#utility.yul\":19121:19127   */\n      dup10\n        /* \"#utility.yul\":19117:19134   */\n      and\n        /* \"#utility.yul\":19106:19115   */\n      dup3\n        /* \"#utility.yul\":19087:19135   */\n      tag_154\n      jump\t// in\n    tag_351:\n        /* \"#utility.yul\":19079:19085   */\n      dup4\n        /* \"#utility.yul\":19072:19136   */\n      sstore\n        /* \"#utility.yul\":18994:19150   */\n      pop\n        /* \"#utility.yul\":18971:19150   */\n    tag_350:\n        /* \"#utility.yul\":19196:19197   */\n      0x01\n        /* \"#utility.yul\":19192:19193   */\n      0x02\n        /* \"#utility.yul\":19184:19190   */\n      dup9\n        /* \"#utility.yul\":19180:19194   */\n      mul\n        /* \"#utility.yul\":19176:19198   */\n      add\n        /* \"#utility.yul\":19170:19174   */\n      dup9\n        /* \"#utility.yul\":19163:19199   */\n      sstore\n        /* \"#utility.yul\":18598:19209   */\n      pop\n      pop\n      pop\n        /* \"#utility.yul\":18561:19448   */\n    tag_342:\n      pop\n        /* \"#utility.yul\":18151:19454   */\n      pop\n      pop\n      pop\n        /* \"#utility.yul\":18059:19454   */\n      pop\n      pop\n      jump\t// out\n\n    auxdata: 0xa2646970667358221220893eadf3b72a127451dcc6f39d003390b016b621393b7c63618ec1cc702aebe164736f6c63430008180033\n}\n",
				"bytecode": {
					"linkReferences": {},
					"object": "60806040525f600155348015610013575f80fd5b50335f806101000a81548173ffffffffffffffffffffffffffffffffffffffff021916908373ffffffffffffffffffffffffffffffffffffffff160217905550611268806100605f395ff3fe608060405234801561000f575f80fd5b5060043610610060575f3560e01c80630383badc146100645780631c7bec9d1461008057806355f9b1ec1461009e578063a598d03c146100ba578063d23254b4146100ee578063f1156cdf1461011f575b5f80fd5b61007e60048036038101906100799190610855565b61013d565b005b61008861039b565b604051610095919061088f565b60405180910390f35b6100b860048036038101906100b391906109e4565b6103a1565b005b6100d460048036038101906100cf9190610855565b6104f6565b6040516100e5959493929190610ae6565b60405180910390f35b61010860048036038101906101039190610b9f565b610643565b604051610116929190610bdd565b60405180910390f35b61012761066e565b6040516101349190610cd5565b60405180910390f35b600181148061014c5750600281145b61018b576040517f08c379a000000000000000000000000000000000000000000000000000000000815260040161018290610d3f565b60405180910390fd5b4261019461066e565b60800151116101d8576040517f08c379a00000000000000000000000000000000000000000000000000000000081526004016101cf90610da7565b60405180910390fd5b5f60035f60015481526020019081526020015f205f3373ffffffffffffffffffffffffffffffffffffffff1673ffffffffffffffffffffffffffffffffffffffff1681526020019081526020015f20600101541461026b576040517f08c379a000000000000000000000000000000000000000000000000000000000815260040161026290610e0f565b60405180910390fd5b8060035f60015481526020019081526020015f205f3373ffffffffffffffffffffffffffffffffffffffff1673ffffffffffffffffffffffffffffffffffffffff1681526020019081526020015f205f01819055504260035f60015481526020019081526020015f205f3373ffffffffffffffffffffffffffffffffffffffff1673ffffffffffffffffffffffffffffffffffffffff1681526020019081526020015f20600101819055506001810361035d5760026001548154811061033457610333610e2d565b5b905f5260205f2090600502016001015f81548092919061035390610e87565b9190505550610398565b60026001548154811061037357610372610e2d565b5b905f5260205f2090600502016003015f81548092919061039290610e87565b91905055505b50565b60015481565b5f8054906101000a900473ffffffffffffffffffffffffffffffffffffffff1673ffffffffffffffffffffffffffffffffffffffff163373ffffffffffffffffffffffffffffffffffffffff161461042e576040517f08c379a000000000000000000000000000000000000000000000000000000000815260040161042590610f18565b60405180910390fd5b5f6001541461044f5760015f81548092919061044990610e87565b91905055505b6104576107e5565b83815f018190525082816040018190525042826104749190610f36565b816080018181525050600281908060018154018082558091505060019003905f5260205f2090600502015f909190919091505f820151815f0190816104b99190611163565b506020820151816001015560408201518160020190816104d99190611163565b506060820151816003015560808201518160040155505050505050565b60028181548110610505575f80fd5b905f5260205f2090600502015f91509050805f01805461052490610f96565b80601f016020809104026020016040519081016040528092919081815260200182805461055090610f96565b801561059b5780601f106105725761010080835404028352916020019161059b565b820191905f5260205f20905b81548152906001019060200180831161057e57829003601f168201915b5050505050908060010154908060020180546105b690610f96565b80601f01602080910402602001604051908101604052809291908181526020018280546105e290610f96565b801561062d5780601f106106045761010080835404028352916020019161062d565b820191905f5260205f20905b81548152906001019060200180831161061057829003601f168201915b5050505050908060030154908060040154905085565b6003602052815f5260405f20602052805f5260405f205f9150915050805f0154908060010154905082565b6106766107e5565b60026001548154811061068c5761068b610e2d565b5b905f5260205f2090600502016040518060a00160405290815f820180546106b290610f96565b80601f01602080910402602001604051908101604052809291908181526020018280546106de90610f96565b80156107295780601f1061070057610100808354040283529160200191610729565b820191905f5260205f20905b81548152906001019060200180831161070c57829003601f168201915b505050505081526020016001820154815260200160028201805461074c90610f96565b80601f016020809104026020016040519081016040528092919081815260200182805461077890610f96565b80156107c35780601f1061079a576101008083540402835291602001916107c3565b820191905f5260205f20905b8154815290600101906020018083116107a657829003601f168201915b5050505050815260200160038201548152602001600482015481525050905090565b6040518060a00160405280606081526020015f8152602001606081526020015f81526020015f81525090565b5f604051905090565b5f80fd5b5f80fd5b5f819050919050565b61083481610822565b811461083e575f80fd5b50565b5f8135905061084f8161082b565b92915050565b5f6020828403121561086a5761086961081a565b5b5f61087784828501610841565b91505092915050565b61088981610822565b82525050565b5f6020820190506108a25f830184610880565b92915050565b5f80fd5b5f80fd5b5f601f19601f8301169050919050565b7f4e487b71000000000000000000000000000000000000000000000000000000005f52604160045260245ffd5b6108f6826108b0565b810181811067ffffffffffffffff82111715610915576109146108c0565b5b80604052505050565b5f610927610811565b905061093382826108ed565b919050565b5f67ffffffffffffffff821115610952576109516108c0565b5b61095b826108b0565b9050602081019050919050565b828183375f83830152505050565b5f61098861098384610938565b61091e565b9050828152602081018484840111156109a4576109a36108ac565b5b6109af848285610968565b509392505050565b5f82601f8301126109cb576109ca6108a8565b5b81356109db848260208601610976565b91505092915050565b5f805f606084860312156109fb576109fa61081a565b5b5f84013567ffffffffffffffff811115610a1857610a1761081e565b5b610a24868287016109b7565b935050602084013567ffffffffffffffff811115610a4557610a4461081e565b5b610a51868287016109b7565b9250506040610a6286828701610841565b9150509250925092565b5f81519050919050565b5f82825260208201905092915050565b5f5b83811015610aa3578082015181840152602081019050610a88565b5f8484015250505050565b5f610ab882610a6c565b610ac28185610a76565b9350610ad2818560208601610a86565b610adb816108b0565b840191505092915050565b5f60a0820190508181035f830152610afe8188610aae565b9050610b0d6020830187610880565b8181036040830152610b1f8186610aae565b9050610b2e6060830185610880565b610b3b6080830184610880565b9695505050505050565b5f73ffffffffffffffffffffffffffffffffffffffff82169050919050565b5f610b6e82610b45565b9050919050565b610b7e81610b64565b8114610b88575f80fd5b50565b5f81359050610b9981610b75565b92915050565b5f8060408385031215610bb557610bb461081a565b5b5f610bc285828601610841565b9250506020610bd385828601610b8b565b9150509250929050565b5f604082019050610bf05f830185610880565b610bfd6020830184610880565b9392505050565b5f82825260208201905092915050565b5f610c1e82610a6c565b610c288185610c04565b9350610c38818560208601610a86565b610c41816108b0565b840191505092915050565b610c5581610822565b82525050565b5f60a083015f8301518482035f860152610c758282610c14565b9150506020830151610c8a6020860182610c4c565b5060408301518482036040860152610ca28282610c14565b9150506060830151610cb76060860182610c4c565b506080830151610cca6080860182610c4c565b508091505092915050565b5f6020820190508181035f830152610ced8184610c5b565b905092915050565b7f496e76616c69642063686f6963650000000000000000000000000000000000005f82015250565b5f610d29600e83610a76565b9150610d3482610cf5565b602082019050919050565b5f6020820190508181035f830152610d5681610d1d565b9050919050565b7f566f74696e6720657870697265640000000000000000000000000000000000005f82015250565b5f610d91600e83610a76565b9150610d9c82610d5d565b602082019050919050565b5f6020820190508181035f830152610dbe81610d85565b9050919050565b7f416c726561647920766f746564000000000000000000000000000000000000005f82015250565b5f610df9600d83610a76565b9150610e0482610dc5565b602082019050919050565b5f6020820190508181035f830152610e2681610ded565b9050919050565b7f4e487b71000000000000000000000000000000000000000000000000000000005f52603260045260245ffd5b7f4e487b71000000000000000000000000000000000000000000000000000000005f52601160045260245ffd5b5f610e9182610822565b91507fffffffffffffffffffffffffffffffffffffffffffffffffffffffffffffffff8203610ec357610ec2610e5a565b5b600182019050919050565b7f496e76616c69642073656e6465720000000000000000000000000000000000005f82015250565b5f610f02600e83610a76565b9150610f0d82610ece565b602082019050919050565b5f6020820190508181035f830152610f2f81610ef6565b9050919050565b5f610f4082610822565b9150610f4b83610822565b9250828201905080821115610f6357610f62610e5a565b5b92915050565b7f4e487b71000000000000000000000000000000000000000000000000000000005f52602260045260245ffd5b5f6002820490506001821680610fad57607f821691505b602082108103610fc057610fbf610f69565b5b50919050565b5f819050815f5260205f209050919050565b5f6020601f8301049050919050565b5f82821b905092915050565b5f600883026110227fffffffffffffffffffffffffffffffffffffffffffffffffffffffffffffffff82610fe7565b61102c8683610fe7565b95508019841693508086168417925050509392505050565b5f819050919050565b5f61106761106261105d84610822565b611044565b610822565b9050919050565b5f819050919050565b6110808361104d565b61109461108c8261106e565b848454610ff3565b825550505050565b5f90565b6110a861109c565b6110b3818484611077565b505050565b5b818110156110d6576110cb5f826110a0565b6001810190506110b9565b5050565b601f82111561111b576110ec81610fc6565b6110f584610fd8565b81016020851015611104578190505b61111861111085610fd8565b8301826110b8565b50505b505050565b5f82821c905092915050565b5f61113b5f1984600802611120565b1980831691505092915050565b5f611153838361112c565b9150826002028217905092915050565b61116c82610a6c565b67ffffffffffffffff811115611185576111846108c0565b5b61118f8254610f96565b61119a8282856110da565b5f60209050601f8311600181146111cb575f84156111b9578287015190505b6111c38582611148565b86555061122a565b601f1984166111d986610fc6565b5f5b82811015611200578489015182556001820191506020850194506020810190506111db565b8683101561121d5784890151611219601f89168261112c565b8355505b6001600288020188555050505b50505050505056fea2646970667358221220893eadf3b72a127451dcc6f39d003390b016b621393b7c63618ec1cc702aebe164736f6c63430008180033",
					"opcodes": "PUSH1 0x80 PUSH1 0x40 MSTORE PUSH0 PUSH1 0x1 SSTORE CALLVALUE DUP1 ISZERO PUSH2 0x13 JUMPI PUSH0 DUP1 REVERT JUMPDEST POP CALLER PUSH0 DUP1 PUSH2 0x100 EXP DUP2 SLOAD DUP2 PUSH20 0xFFFFFFFFFFFFFFFFFFFFFFFFFFFFFFFFFFFFFFFF MUL NOT AND SWAP1 DUP4 PUSH20 0xFFFFFFFFFFFFFFFFFFFFFFFFFFFFFFFFFFFFFFFF AND MUL OR SWAP1 SSTORE POP PUSH2 0x1268 DUP1 PUSH2 0x60 PUSH0 CODECOPY PUSH0 RETURN INVALID PUSH1 0x80 PUSH1 0x40 MSTORE CALLVALUE DUP1 ISZERO PUSH2 0xF JUMPI PUSH0 DUP1 REVERT JUMPDEST POP PUSH1 0x4 CALLDATASIZE LT PUSH2 0x60 JUMPI PUSH0 CALLDATALOAD PUSH1 0xE0 SHR DUP1 PUSH4 0x383BADC EQ PUSH2 0x64 JUMPI DUP1 PUSH4 0x1C7BEC9D EQ PUSH2 0x80 JUMPI DUP1 PUSH4 0x55F9B1EC EQ PUSH2 0x9E JUMPI DUP1 PUSH4 0xA598D03C EQ PUSH2 0xBA JUMPI DUP1 PUSH4 0xD23254B4 EQ PUSH2 0xEE JUMPI DUP1 PUSH4 0xF1156CDF EQ PUSH2 0x11F JUMPI JUMPDEST PUSH0 DUP1 REVERT JUMPDEST PUSH2 0x7E PUSH1 0x4 DUP1 CALLDATASIZE SUB DUP2 ADD SWAP1 PUSH2 0x79 SWAP2 SWAP1 PUSH2 0x855 JUMP JUMPDEST PUSH2 0x13D JUMP JUMPDEST STOP JUMPDEST PUSH2 0x88 PUSH2 0x39B JUMP JUMPDEST PUSH1 0x40 MLOAD PUSH2 0x95 SWAP2 SWAP1 PUSH2 0x88F JUMP JUMPDEST PUSH1 0x40 MLOAD DUP1 SWAP2 SUB SWAP1 RETURN JUMPDEST PUSH2 0xB8 PUSH1 0x4 DUP1 CALLDATASIZE SUB DUP2 ADD SWAP1 PUSH2 0xB3 SWAP2 SWAP1 PUSH2 0x9E4 JUMP JUMPDEST PUSH2 0x3A1 JUMP JUMPDEST STOP JUMPDEST PUSH2 0xD4 PUSH1 0x4 DUP1 CALLDATASIZE SUB DUP2 ADD SWAP1 PUSH2 0xCF SWAP2 SWAP1 PUSH2 0x855 JUMP JUMPDEST PUSH2 0x4F6 JUMP JUMPDEST PUSH1 0x40 MLOAD PUSH2 0xE5 SWAP6 SWAP5 SWAP4 SWAP3 SWAP2 SWAP1 PUSH2 0xAE6 JUMP JUMPDEST PUSH1 0x40 MLOAD DUP1 SWAP2 SUB SWAP1 RETURN JUMPDEST PUSH2 0x108 PUSH1 0x4 DUP1 CALLDATASIZE SUB DUP2 ADD SWAP1 PUSH2 0x103 SWAP2 SWAP1 PUSH2 0xB9F JUMP JUMPDEST PUSH2 0x643 JUMP JUMPDEST PUSH1 0x40 MLOAD PUSH2 0x116 SWAP3 SWAP2 SWAP1 PUSH2 0xBDD JUMP JUMPDEST PUSH1 0x40 MLOAD DUP1 SWAP2 SUB SWAP1 RETURN JUMPDEST PUSH2 0x127 PUSH2 0x66E JUMP JUMPDEST PUSH1 0x40 MLOAD PUSH2 0x134 SWAP2 SWAP1 PUSH2 0xCD5 JUMP JUMPDEST PUSH1 0x40 MLOAD DUP1 SWAP2 SUB SWAP1 RETURN JUMPDEST PUSH1 0x1 DUP2 EQ DUP1 PUSH2 0x14C JUMPI POP PUSH1 0x2 DUP2 EQ JUMPDEST PUSH2 0x18B JUMPI PUSH1 0x40 MLOAD PUSH32 0x8C379A000000000000000000000000000000000000000000000000000000000 DUP2 MSTORE PUSH1 0x4 ADD PUSH2 0x182 SWAP1 PUSH2 0xD3F JUMP JUMPDEST PUSH1 0x40 MLOAD DUP1 SWAP2 SUB SWAP1 REVERT JUMPDEST TIMESTAMP PUSH2 0x194 PUSH2 0x66E JUMP JUMPDEST PUSH1 0x80 ADD MLOAD GT PUSH2 0x1D8 JUMPI PUSH1 0x40 MLOAD PUSH32 0x8C379A000000000000000000000000000000000000000000000000000000000 DUP2 MSTORE PUSH1 0x4 ADD PUSH2 0x1CF SWAP1 PUSH2 0xDA7 JUMP JUMPDEST PUSH1 0x40 MLOAD DUP1 SWAP2 SUB SWAP1 REVERT JUMPDEST PUSH0 PUSH1 0x3 PUSH0 PUSH1 0x1 SLOAD DUP2 MSTORE PUSH1 0x20 ADD SWAP1 DUP2 MSTORE PUSH1 0x20 ADD PUSH0 KECCAK256 PUSH0 CALLER PUSH20 0xFFFFFFFFFFFFFFFFFFFFFFFFFFFFFFFFFFFFFFFF AND PUSH20 0xFFFFFFFFFFFFFFFFFFFFFFFFFFFFFFFFFFFFFFFF AND DUP2 MSTORE PUSH1 0x20 ADD SWAP1 DUP2 MSTORE PUSH1 0x20 ADD PUSH0 KECCAK256 PUSH1 0x1 ADD SLOAD EQ PUSH2 0x26B JUMPI PUSH1 0x40 MLOAD PUSH32 0x8C379A000000000000000000000000000000000000000000000000000000000 DUP2 MSTORE PUSH1 0x4 ADD PUSH2 0x262 SWAP1 PUSH2 0xE0F JUMP JUMPDEST PUSH1 0x40 MLOAD DUP1 SWAP2 SUB SWAP1 REVERT JUMPDEST DUP1 PUSH1 0x3 PUSH0 PUSH1 0x1 SLOAD DUP2 MSTORE PUSH1 0x20 ADD SWAP1 DUP2 MSTORE PUSH1 0x20 ADD PUSH0 KECCAK256 PUSH0 CALLER PUSH20 0xFFFFFFFFFFFFFFFFFFFFFFFFFFFFFFFFFFFFFFFF AND PUSH20 0xFFFFFFFFFFFFFFFFFFFFFFFFFFFFFFFFFFFFFFFF AND DUP2 MSTORE PUSH1 0x20 ADD SWAP1 DUP2 MSTORE PUSH1 0x20 ADD PUSH0 KECCAK256 PUSH0 ADD DUP2 SWAP1 SSTORE POP TIMESTAMP PUSH1 0x3 PUSH0 PUSH1 0x1 SLOAD DUP2 MSTORE PUSH1 0x20 ADD SWAP1 DUP2 MSTORE PUSH1 0x20 ADD PUSH0 KECCAK256 PUSH0 CALLER PUSH20 0xFFFFFFFFFFFFFFFFFFFFFFFFFFFFFFFFFFFFFFFF AND PUSH20 0xFFFFFFFFFFFFFFFFFFFFFFFFFFFFFFFFFFFFFFFF AND DUP2 MSTORE PUSH1 0x20 ADD SWAP1 DUP2 MSTORE PUSH1 0x20 ADD PUSH0 KECCAK256 PUSH1 0x1 ADD DUP2 SWAP1 SSTORE POP PUSH1 0x1 DUP2 SUB PUSH2 0x35D JUMPI PUSH1 0x2 PUSH1 0x1 SLOAD DUP2 SLOAD DUP2 LT PUSH2 0x334 JUMPI PUSH2 0x333 PUSH2 0xE2D JUMP JUMPDEST JUMPDEST SWAP1 PUSH0 MSTORE PUSH1 0x20 PUSH0 KECCAK256 SWAP1 PUSH1 0x5 MUL ADD PUSH1 0x1 ADD PUSH0 DUP2 SLOAD DUP1 SWAP3 SWAP2 SWAP1 PUSH2 0x353 SWAP1 PUSH2 0xE87 JUMP JUMPDEST SWAP2 SWAP1 POP SSTORE POP PUSH2 0x398 JUMP JUMPDEST PUSH1 0x2 PUSH1 0x1 SLOAD DUP2 SLOAD DUP2 LT PUSH2 0x373 JUMPI PUSH2 0x372 PUSH2 0xE2D JUMP JUMPDEST JUMPDEST SWAP1 PUSH0 MSTORE PUSH1 0x20 PUSH0 KECCAK256 SWAP1 PUSH1 0x5 MUL ADD PUSH1 0x3 ADD PUSH0 DUP2 SLOAD DUP1 SWAP3 SWAP2 SWAP1 PUSH2 0x392 SWAP1 PUSH2 0xE87 JUMP JUMPDEST SWAP2 SWAP1 POP SSTORE POP JUMPDEST POP JUMP JUMPDEST PUSH1 0x1 SLOAD DUP2 JUMP JUMPDEST PUSH0 DUP1 SLOAD SWAP1 PUSH2 0x100 EXP SWAP1 DIV PUSH20 0xFFFFFFFFFFFFFFFFFFFFFFFFFFFFFFFFFFFFFFFF AND PUSH20 0xFFFFFFFFFFFFFFFFFFFFFFFFFFFFFFFFFFFFFFFF AND CALLER PUSH20 0xFFFFFFFFFFFFFFFFFFFFFFFFFFFFFFFFFFFFFFFF AND EQ PUSH2 0x42E JUMPI PUSH1 0x40 MLOAD PUSH32 0x8C379A000000000000000000000000000000000000000000000000000000000 DUP2 MSTORE PUSH1 0x4 ADD PUSH2 0x425 SWAP1 PUSH2 0xF18 JUMP JUMPDEST PUSH1 0x40 MLOAD DUP1 SWAP2 SUB SWAP1 REVERT JUMPDEST PUSH0 PUSH1 0x1 SLOAD EQ PUSH2 0x44F JUMPI PUSH1 0x1 PUSH0 DUP2 SLOAD DUP1 SWAP3 SWAP2 SWAP1 PUSH2 0x449 SWAP1 PUSH2 0xE87 JUMP JUMPDEST SWAP2 SWAP1 POP SSTORE POP JUMPDEST PUSH2 0x457 PUSH2 0x7E5 JUMP JUMPDEST DUP4 DUP2 PUSH0 ADD DUP2 SWAP1 MSTORE POP DUP3 DUP2 PUSH1 0x40 ADD DUP2 SWAP1 MSTORE POP TIMESTAMP DUP3 PUSH2 0x474 SWAP2 SWAP1 PUSH2 0xF36 JUMP JUMPDEST DUP2 PUSH1 0x80 ADD DUP2 DUP2 MSTORE POP POP PUSH1 0x2 DUP2 SWAP1 DUP1 PUSH1 0x1 DUP2 SLOAD ADD DUP1 DUP3 SSTORE DUP1 SWAP2 POP POP PUSH1 0x1 SWAP1 SUB SWAP1 PUSH0 MSTORE PUSH1 0x20 PUSH0 KECCAK256 SWAP1 PUSH1 0x5 MUL ADD PUSH0 SWAP1 SWAP2 SWAP1 SWAP2 SWAP1 SWAP2 POP PUSH0 DUP3 ADD MLOAD DUP2 PUSH0 ADD SWAP1 DUP2 PUSH2 0x4B9 SWAP2 SWAP1 PUSH2 0x1163 JUMP JUMPDEST POP PUSH1 0x20 DUP3 ADD MLOAD DUP2 PUSH1 0x1 ADD SSTORE PUSH1 0x40 DUP3 ADD MLOAD DUP2 PUSH1 0x2 ADD SWAP1 DUP2 PUSH2 0x4D9 SWAP2 SWAP1 PUSH2 0x1163 JUMP JUMPDEST POP PUSH1 0x60 DUP3 ADD MLOAD DUP2 PUSH1 0x3 ADD SSTORE PUSH1 0x80 DUP3 ADD MLOAD DUP2 PUSH1 0x4 ADD SSTORE POP POP POP POP POP POP JUMP JUMPDEST PUSH1 0x2 DUP2 DUP2 SLOAD DUP2 LT PUSH2 0x505 JUMPI PUSH0 DUP1 REVERT JUMPDEST SWAP1 PUSH0 MSTORE PUSH1 0x20 PUSH0 KECCAK256 SWAP1 PUSH1 0x5 MUL ADD PUSH0 SWAP2 POP SWAP1 POP DUP1 PUSH0 ADD DUP1 SLOAD PUSH2 0x524 SWAP1 PUSH2 0xF96 JUMP JUMPDEST DUP1 PUSH1 0x1F ADD PUSH1 0x20 DUP1 SWAP2 DIV MUL PUSH1 0x20 ADD PUSH1 0x40 MLOAD SWAP1 DUP2 ADD PUSH1 0x40 MSTORE DUP1 SWAP3 SWAP2 SWAP1 DUP2 DUP2 MSTORE PUSH1 0x20 ADD DUP3 DUP1 SLOAD PUSH2 0x550 SWAP1 PUSH2 0xF96 JUMP JUMPDEST DUP1 ISZERO PUSH2 0x59B JUMPI DUP1 PUSH1 0x1F LT PUSH2 0x572 JUMPI PUSH2 0x100 DUP1 DUP4 SLOAD DIV MUL DUP4 MSTORE SWAP2 PUSH1 0x20 ADD SWAP2 PUSH2 0x59B JUMP JUMPDEST DUP3 ADD SWAP2 SWAP1 PUSH0 MSTORE PUSH1 0x20 PUSH0 KECCAK256 SWAP1 JUMPDEST DUP2 SLOAD DUP2 MSTORE SWAP1 PUSH1 0x1 ADD SWAP1 PUSH1 0x20 ADD DUP1 DUP4 GT PUSH2 0x57E JUMPI DUP3 SWAP1 SUB PUSH1 0x1F AND DUP3 ADD SWAP2 JUMPDEST POP POP POP POP POP SWAP1 DUP1 PUSH1 0x1 ADD SLOAD SWAP1 DUP1 PUSH1 0x2 ADD DUP1 SLOAD PUSH2 0x5B6 SWAP1 PUSH2 0xF96 JUMP JUMPDEST DUP1 PUSH1 0x1F ADD PUSH1 0x20 DUP1 SWAP2 DIV MUL PUSH1 0x20 ADD PUSH1 0x40 MLOAD SWAP1 DUP2 ADD PUSH1 0x40 MSTORE DUP1 SWAP3 SWAP2 SWAP1 DUP2 DUP2 MSTORE PUSH1 0x20 ADD DUP3 DUP1 SLOAD PUSH2 0x5E2 SWAP1 PUSH2 0xF96 JUMP JUMPDEST DUP1 ISZERO PUSH2 0x62D JUMPI DUP1 PUSH1 0x1F LT PUSH2 0x604 JUMPI PUSH2 0x100 DUP1 DUP4 SLOAD DIV MUL DUP4 MSTORE SWAP2 PUSH1 0x20 ADD SWAP2 PUSH2 0x62D JUMP JUMPDEST DUP3 ADD SWAP2 SWAP1 PUSH0 MSTORE PUSH1 0x20 PUSH0 KECCAK256 SWAP1 JUMPDEST DUP2 SLOAD DUP2 MSTORE SWAP1 PUSH1 0x1 ADD SWAP1 PUSH1 0x20 ADD DUP1 DUP4 GT PUSH2 0x610 JUMPI DUP3 SWAP1 SUB PUSH1 0x1F AND DUP3 ADD SWAP2 JUMPDEST POP POP POP POP POP SWAP1 DUP1 PUSH1 0x3 ADD SLOAD SWAP1 DUP1 PUSH1 0x4 ADD SLOAD SWAP1 POP DUP6 JUMP JUMPDEST PUSH1 0x3 PUSH1 0x20 MSTORE DUP2 PUSH0 MSTORE PUSH1 0x40 PUSH0 KECCAK256 PUSH1 0x20 MSTORE DUP1 PUSH0 MSTORE PUSH1 0x40 PUSH0 KECCAK256 PUSH0 SWAP2 POP SWAP2 POP POP DUP1 PUSH0 ADD SLOAD SWAP1 DUP1 PUSH1 0x1 ADD SLOAD SWAP1 POP DUP3 JUMP JUMPDEST PUSH2 0x676 PUSH2 0x7E5 JUMP JUMPDEST PUSH1 0x2 PUSH1 0x1 SLOAD DUP2 SLOAD DUP2 LT PUSH2 0x68C JUMPI PUSH2 0x68B PUSH2 0xE2D JUMP JUMPDEST JUMPDEST SWAP1 PUSH0 MSTORE PUSH1 0x20 PUSH0 KECCAK256 SWAP1 PUSH1 0x5 MUL ADD PUSH1 0x40 MLOAD DUP1 PUSH1 0xA0 ADD PUSH1 0x40 MSTORE SWAP1 DUP2 PUSH0 DUP3 ADD DUP1 SLOAD PUSH2 0x6B2 SWAP1 PUSH2 0xF96 JUMP JUMPDEST DUP1 PUSH1 0x1F ADD PUSH1 0x20 DUP1 SWAP2 DIV MUL PUSH1 0x20 ADD PUSH1 0x40 MLOAD SWAP1 DUP2 ADD PUSH1 0x40 MSTORE DUP1 SWAP3 SWAP2 SWAP1 DUP2 DUP2 MSTORE PUSH1 0x20 ADD DUP3 DUP1 SLOAD PUSH2 0x6DE SWAP1 PUSH2 0xF96 JUMP JUMPDEST DUP1 ISZERO PUSH2 0x729 JUMPI DUP1 PUSH1 0x1F LT PUSH2 0x700 JUMPI PUSH2 0x100 DUP1 DUP4 SLOAD DIV MUL DUP4 MSTORE SWAP2 PUSH1 0x20 ADD SWAP2 PUSH2 0x729 JUMP JUMPDEST DUP3 ADD SWAP2 SWAP1 PUSH0 MSTORE PUSH1 0x20 PUSH0 KECCAK256 SWAP1 JUMPDEST DUP2 SLOAD DUP2 MSTORE SWAP1 PUSH1 0x1 ADD SWAP1 PUSH1 0x20 ADD DUP1 DUP4 GT PUSH2 0x70C JUMPI DUP3 SWAP1 SUB PUSH1 0x1F AND DUP3 ADD SWAP2 JUMPDEST POP POP POP POP POP DUP2 MSTORE PUSH1 0x20 ADD PUSH1 0x1 DUP3 ADD SLOAD DUP2 MSTORE PUSH1 0x20 ADD PUSH1 0x2 DUP3 ADD DUP1 SLOAD PUSH2 0x74C SWAP1 PUSH2 0xF96 JUMP JUMPDEST DUP1 PUSH1 0x1F ADD PUSH1 0x20 DUP1 SWAP2 DIV MUL PUSH1 0x20 ADD PUSH1 0x40 MLOAD SWAP1 DUP2 ADD PUSH1 0x40 MSTORE DUP1 SWAP3 SWAP2 SWAP1 DUP2 DUP2 MSTORE PUSH1 0x20 ADD DUP3 DUP1 SLOAD PUSH2 0x778 SWAP1 PUSH2 0xF96 JUMP JUMPDEST DUP1 ISZERO PUSH2 0x7C3 JUMPI DUP1 PUSH1 0x1F LT PUSH2 0x79A JUMPI PUSH2 0x100 DUP1 DUP4 SLOAD DIV MUL DUP4 MSTORE SWAP2 PUSH1 0x20 ADD SWAP2 PUSH2 0x7C3 JUMP JUMPDEST DUP3 ADD SWAP2 SWAP1 PUSH0 MSTORE PUSH1 0x20 PUSH0 KECCAK256 SWAP1 JUMPDEST DUP2 SLOAD DUP2 MSTORE SWAP1 PUSH1 0x1 ADD SWAP1 PUSH1 0x20 ADD DUP1 DUP4 GT PUSH2 0x7A6 JUMPI DUP3 SWAP1 SUB PUSH1 0x1F AND DUP3 ADD SWAP2 JUMPDEST POP POP POP POP POP DUP2 MSTORE PUSH1 0x20 ADD PUSH1 0x3 DUP3 ADD SLOAD DUP2 MSTORE PUSH1 0x20 ADD PUSH1 0x4 DUP3 ADD SLOAD DUP2 MSTORE POP POP SWAP1 POP SWAP1 JUMP JUMPDEST PUSH1 0x40 MLOAD DUP1 PUSH1 0xA0 ADD PUSH1 0x40 MSTORE DUP1 PUSH1 0x60 DUP2 MSTORE PUSH1 0x20 ADD PUSH0 DUP2 MSTORE PUSH1 0x20 ADD PUSH1 0x60 DUP2 MSTORE PUSH1 0x20 ADD PUSH0 DUP2 MSTORE PUSH1 0x20 ADD PUSH0 DUP2 MSTORE POP SWAP1 JUMP JUMPDEST PUSH0 PUSH1 0x40 MLOAD SWAP1 POP SWAP1 JUMP JUMPDEST PUSH0 DUP1 REVERT JUMPDEST PUSH0 DUP1 REVERT JUMPDEST PUSH0 DUP2 SWAP1 POP SWAP2 SWAP1 POP JUMP JUMPDEST PUSH2 0x834 DUP2 PUSH2 0x822 JUMP JUMPDEST DUP2 EQ PUSH2 0x83E JUMPI PUSH0 DUP1 REVERT JUMPDEST POP JUMP JUMPDEST PUSH0 DUP2 CALLDATALOAD SWAP1 POP PUSH2 0x84F DUP2 PUSH2 0x82B JUMP JUMPDEST SWAP3 SWAP2 POP POP JUMP JUMPDEST PUSH0 PUSH1 0x20 DUP3 DUP5 SUB SLT ISZERO PUSH2 0x86A JUMPI PUSH2 0x869 PUSH2 0x81A JUMP JUMPDEST JUMPDEST PUSH0 PUSH2 0x877 DUP5 DUP3 DUP6 ADD PUSH2 0x841 JUMP JUMPDEST SWAP2 POP POP SWAP3 SWAP2 POP POP JUMP JUMPDEST PUSH2 0x889 DUP2 PUSH2 0x822 JUMP JUMPDEST DUP3 MSTORE POP POP JUMP JUMPDEST PUSH0 PUSH1 0x20 DUP3 ADD SWAP1 POP PUSH2 0x8A2 PUSH0 DUP4 ADD DUP5 PUSH2 0x880 JUMP JUMPDEST SWAP3 SWAP2 POP POP JUMP JUMPDEST PUSH0 DUP1 REVERT JUMPDEST PUSH0 DUP1 REVERT JUMPDEST PUSH0 PUSH1 0x1F NOT PUSH1 0x1F DUP4 ADD AND SWAP1 POP SWAP2 SWAP1 POP JUMP JUMPDEST PUSH32 0x4E487B7100000000000000000000000000000000000000000000000000000000 PUSH0 MSTORE PUSH1 0x41 PUSH1 0x4 MSTORE PUSH1 0x24 PUSH0 REVERT JUMPDEST PUSH2 0x8F6 DUP3 PUSH2 0x8B0 JUMP JUMPDEST DUP2 ADD DUP2 DUP2 LT PUSH8 0xFFFFFFFFFFFFFFFF DUP3 GT OR ISZERO PUSH2 0x915 JUMPI PUSH2 0x914 PUSH2 0x8C0 JUMP JUMPDEST JUMPDEST DUP1 PUSH1 0x40 MSTORE POP POP POP JUMP JUMPDEST PUSH0 PUSH2 0x927 PUSH2 0x811 JUMP JUMPDEST SWAP1 POP PUSH2 0x933 DUP3 DUP3 PUSH2 0x8ED JUMP JUMPDEST SWAP2 SWAP1 POP JUMP JUMPDEST PUSH0 PUSH8 0xFFFFFFFFFFFFFFFF DUP3 GT ISZERO PUSH2 0x952 JUMPI PUSH2 0x951 PUSH2 0x8C0 JUMP JUMPDEST JUMPDEST PUSH2 0x95B DUP3 PUSH2 0x8B0 JUMP JUMPDEST SWAP1 POP PUSH1 0x20 DUP2 ADD SWAP1 POP SWAP2 SWAP1 POP JUMP JUMPDEST DUP3 DUP2 DUP4 CALLDATACOPY PUSH0 DUP4 DUP4 ADD MSTORE POP POP POP JUMP JUMPDEST PUSH0 PUSH2 0x988 PUSH2 0x983 DUP5 PUSH2 0x938 JUMP JUMPDEST PUSH2 0x91E JUMP JUMPDEST SWAP1 POP DUP3 DUP2 MSTORE PUSH1 0x20 DUP2 ADD DUP5 DUP5 DUP5 ADD GT ISZERO PUSH2 0x9A4 JUMPI PUSH2 0x9A3 PUSH2 0x8AC JUMP JUMPDEST JUMPDEST PUSH2 0x9AF DUP5 DUP3 DUP6 PUSH2 0x968 JUMP JUMPDEST POP SWAP4 SWAP3 POP POP POP JUMP JUMPDEST PUSH0 DUP3 PUSH1 0x1F DUP4 ADD SLT PUSH2 0x9CB JUMPI PUSH2 0x9CA PUSH2 0x8A8 JUMP JUMPDEST JUMPDEST DUP2 CALLDATALOAD PUSH2 0x9DB DUP5 DUP3 PUSH1 0x20 DUP7 ADD PUSH2 0x976 JUMP JUMPDEST SWAP2 POP POP SWAP3 SWAP2 POP POP JUMP JUMPDEST PUSH0 DUP1 PUSH0 PUSH1 0x60 DUP5 DUP7 SUB SLT ISZERO PUSH2 0x9FB JUMPI PUSH2 0x9FA PUSH2 0x81A JUMP JUMPDEST JUMPDEST PUSH0 DUP5 ADD CALLDATALOAD PUSH8 0xFFFFFFFFFFFFFFFF DUP2 GT ISZERO PUSH2 0xA18 JUMPI PUSH2 0xA17 PUSH2 0x81E JUMP JUMPDEST JUMPDEST PUSH2 0xA24 DUP7 DUP3 DUP8 ADD PUSH2 0x9B7 JUMP JUMPDEST SWAP4 POP POP PUSH1 0x20 DUP5 ADD CALLDATALOAD PUSH8 0xFFFFFFFFFFFFFFFF DUP2 GT ISZERO PUSH2 0xA45 JUMPI PUSH2 0xA44 PUSH2 0x81E JUMP JUMPDEST JUMPDEST PUSH2 0xA51 DUP7 DUP3 DUP8 ADD PUSH2 0x9B7 JUMP JUMPDEST SWAP3 POP POP PUSH1 0x40 PUSH2 0xA62 DUP7 DUP3 DUP8 ADD PUSH2 0x841 JUMP JUMPDEST SWAP2 POP POP SWAP3 POP SWAP3 POP SWAP3 JUMP JUMPDEST PUSH0 DUP2 MLOAD SWAP1 POP SWAP2 SWAP1 POP JUMP JUMPDEST PUSH0 DUP3 DUP3 MSTORE PUSH1 0x20 DUP3 ADD SWAP1 POP SWAP3 SWAP2 POP POP JUMP JUMPDEST PUSH0 JUMPDEST DUP4 DUP2 LT ISZERO PUSH2 0xAA3 JUMPI DUP1 DUP3 ADD MLOAD DUP2 DUP5 ADD MSTORE PUSH1 0x20 DUP2 ADD SWAP1 POP PUSH2 0xA88 JUMP JUMPDEST PUSH0 DUP5 DUP5 ADD MSTORE POP POP POP POP JUMP JUMPDEST PUSH0 PUSH2 0xAB8 DUP3 PUSH2 0xA6C JUMP JUMPDEST PUSH2 0xAC2 DUP2 DUP6 PUSH2 0xA76 JUMP JUMPDEST SWAP4 POP PUSH2 0xAD2 DUP2 DUP6 PUSH1 0x20 DUP7 ADD PUSH2 0xA86 JUMP JUMPDEST PUSH2 0xADB DUP2 PUSH2 0x8B0 JUMP JUMPDEST DUP5 ADD SWAP2 POP POP SWAP3 SWAP2 POP POP JUMP JUMPDEST PUSH0 PUSH1 0xA0 DUP3 ADD SWAP1 POP DUP2 DUP2 SUB PUSH0 DUP4 ADD MSTORE PUSH2 0xAFE DUP2 DUP9 PUSH2 0xAAE JUMP JUMPDEST SWAP1 POP PUSH2 0xB0D PUSH1 0x20 DUP4 ADD DUP8 PUSH2 0x880 JUMP JUMPDEST DUP2 DUP2 SUB PUSH1 0x40 DUP4 ADD MSTORE PUSH2 0xB1F DUP2 DUP7 PUSH2 0xAAE JUMP JUMPDEST SWAP1 POP PUSH2 0xB2E PUSH1 0x60 DUP4 ADD DUP6 PUSH2 0x880 JUMP JUMPDEST PUSH2 0xB3B PUSH1 0x80 DUP4 ADD DUP5 PUSH2 0x880 JUMP JUMPDEST SWAP7 SWAP6 POP POP POP POP POP POP JUMP JUMPDEST PUSH0 PUSH20 0xFFFFFFFFFFFFFFFFFFFFFFFFFFFFFFFFFFFFFFFF DUP3 AND SWAP1 POP SWAP2 SWAP1 POP JUMP JUMPDEST PUSH0 PUSH2 0xB6E DUP3 PUSH2 0xB45 JUMP JUMPDEST SWAP1 POP SWAP2 SWAP1 POP JUMP JUMPDEST PUSH2 0xB7E DUP2 PUSH2 0xB64 JUMP JUMPDEST DUP2 EQ PUSH2 0xB88 JUMPI PUSH0 DUP1 REVERT JUMPDEST POP JUMP JUMPDEST PUSH0 DUP2 CALLDATALOAD SWAP1 POP PUSH2 0xB99 DUP2 PUSH2 0xB75 JUMP JUMPDEST SWAP3 SWAP2 POP POP JUMP JUMPDEST PUSH0 DUP1 PUSH1 0x40 DUP4 DUP6 SUB SLT ISZERO PUSH2 0xBB5 JUMPI PUSH2 0xBB4 PUSH2 0x81A JUMP JUMPDEST JUMPDEST PUSH0 PUSH2 0xBC2 DUP6 DUP3 DUP7 ADD PUSH2 0x841 JUMP JUMPDEST SWAP3 POP POP PUSH1 0x20 PUSH2 0xBD3 DUP6 DUP3 DUP7 ADD PUSH2 0xB8B JUMP JUMPDEST SWAP2 POP POP SWAP3 POP SWAP3 SWAP1 POP JUMP JUMPDEST PUSH0 PUSH1 0x40 DUP3 ADD SWAP1 POP PUSH2 0xBF0 PUSH0 DUP4 ADD DUP6 PUSH2 0x880 JUMP JUMPDEST PUSH2 0xBFD PUSH1 0x20 DUP4 ADD DUP5 PUSH2 0x880 JUMP JUMPDEST SWAP4 SWAP3 POP POP POP JUMP JUMPDEST PUSH0 DUP3 DUP3 MSTORE PUSH1 0x20 DUP3 ADD SWAP1 POP SWAP3 SWAP2 POP POP JUMP JUMPDEST PUSH0 PUSH2 0xC1E DUP3 PUSH2 0xA6C JUMP JUMPDEST PUSH2 0xC28 DUP2 DUP6 PUSH2 0xC04 JUMP JUMPDEST SWAP4 POP PUSH2 0xC38 DUP2 DUP6 PUSH1 0x20 DUP7 ADD PUSH2 0xA86 JUMP JUMPDEST PUSH2 0xC41 DUP2 PUSH2 0x8B0 JUMP JUMPDEST DUP5 ADD SWAP2 POP POP SWAP3 SWAP2 POP POP JUMP JUMPDEST PUSH2 0xC55 DUP2 PUSH2 0x822 JUMP JUMPDEST DUP3 MSTORE POP POP JUMP JUMPDEST PUSH0 PUSH1 0xA0 DUP4 ADD PUSH0 DUP4 ADD MLOAD DUP5 DUP3 SUB PUSH0 DUP7 ADD MSTORE PUSH2 0xC75 DUP3 DUP3 PUSH2 0xC14 JUMP JUMPDEST SWAP2 POP POP PUSH1 0x20 DUP4 ADD MLOAD PUSH2 0xC8A PUSH1 0x20 DUP7 ADD DUP3 PUSH2 0xC4C JUMP JUMPDEST POP PUSH1 0x40 DUP4 ADD MLOAD DUP5 DUP3 SUB PUSH1 0x40 DUP7 ADD MSTORE PUSH2 0xCA2 DUP3 DUP3 PUSH2 0xC14 JUMP JUMPDEST SWAP2 POP POP PUSH1 0x60 DUP4 ADD MLOAD PUSH2 0xCB7 PUSH1 0x60 DUP7 ADD DUP3 PUSH2 0xC4C JUMP JUMPDEST POP PUSH1 0x80 DUP4 ADD MLOAD PUSH2 0xCCA PUSH1 0x80 DUP7 ADD DUP3 PUSH2 0xC4C JUMP JUMPDEST POP DUP1 SWAP2 POP POP SWAP3 SWAP2 POP POP JUMP JUMPDEST PUSH0 PUSH1 0x20 DUP3 ADD SWAP1 POP DUP2 DUP2 SUB PUSH0 DUP4 ADD MSTORE PUSH2 0xCED DUP2 DUP5 PUSH2 0xC5B JUMP JUMPDEST SWAP1 POP SWAP3 SWAP2 POP POP JUMP JUMPDEST PUSH32 0x496E76616C69642063686F696365000000000000000000000000000000000000 PUSH0 DUP3 ADD MSTORE POP JUMP JUMPDEST PUSH0 PUSH2 0xD29 PUSH1 0xE DUP4 PUSH2 0xA76 JUMP JUMPDEST SWAP2 POP PUSH2 0xD34 DUP3 PUSH2 0xCF5 JUMP JUMPDEST PUSH1 0x20 DUP3 ADD SWAP1 POP SWAP2 SWAP1 POP JUMP JUMPDEST PUSH0 PUSH1 0x20 DUP3 ADD SWAP1 POP DUP2 DUP2 SUB PUSH0 DUP4 ADD MSTORE PUSH2 0xD56 DUP2 PUSH2 0xD1D JUMP JUMPDEST SWAP1 POP SWAP2 SWAP1 POP JUMP JUMPDEST PUSH32 0x566F74696E672065787069726564000000000000000000000000000000000000 PUSH0 DUP3 ADD MSTORE POP JUMP JUMPDEST PUSH0 PUSH2 0xD91 PUSH1 0xE DUP4 PUSH2 0xA76 JUMP JUMPDEST SWAP2 POP PUSH2 0xD9C DUP3 PUSH2 0xD5D JUMP JUMPDEST PUSH1 0x20 DUP3 ADD SWAP1 POP SWAP2 SWAP1 POP JUMP JUMPDEST PUSH0 PUSH1 0x20 DUP3 ADD SWAP1 POP DUP2 DUP2 SUB PUSH0 DUP4 ADD MSTORE PUSH2 0xDBE DUP2 PUSH2 0xD85 JUMP JUMPDEST SWAP1 POP SWAP2 SWAP1 POP JUMP JUMPDEST PUSH32 0x416C726561647920766F74656400000000000000000000000000000000000000 PUSH0 DUP3 ADD MSTORE POP JUMP JUMPDEST PUSH0 PUSH2 0xDF9 PUSH1 0xD DUP4 PUSH2 0xA76 JUMP JUMPDEST SWAP2 POP PUSH2 0xE04 DUP3 PUSH2 0xDC5 JUMP JUMPDEST PUSH1 0x20 DUP3 ADD SWAP1 POP SWAP2 SWAP1 POP JUMP JUMPDEST PUSH0 PUSH1 0x20 DUP3 ADD SWAP1 POP DUP2 DUP2 SUB PUSH0 DUP4 ADD MSTORE PUSH2 0xE26 DUP2 PUSH2 0xDED JUMP JUMPDEST SWAP1 POP SWAP2 SWAP1 POP JUMP JUMPDEST PUSH32 0x4E487B7100000000000000000000000000000000000000000000000000000000 PUSH0 MSTORE PUSH1 0x32 PUSH1 0x4 MSTORE PUSH1 0x24 PUSH0 REVERT JUMPDEST PUSH32 0x4E487B7100000000000000000000000000000000000000000000000000000000 PUSH0 MSTORE PUSH1 0x11 PUSH1 0x4 MSTORE PUSH1 0x24 PUSH0 REVERT JUMPDEST PUSH0 PUSH2 0xE91 DUP3 PUSH2 0x822 JUMP JUMPDEST SWAP2 POP PUSH32 0xFFFFFFFFFFFFFFFFFFFFFFFFFFFFFFFFFFFFFFFFFFFFFFFFFFFFFFFFFFFFFFFF DUP3 SUB PUSH2 0xEC3 JUMPI PUSH2 0xEC2 PUSH2 0xE5A JUMP JUMPDEST JUMPDEST PUSH1 0x1 DUP3 ADD SWAP1 POP SWAP2 SWAP1 POP JUMP JUMPDEST PUSH32 0x496E76616C69642073656E646572000000000000000000000000000000000000 PUSH0 DUP3 ADD MSTORE POP JUMP JUMPDEST PUSH0 PUSH2 0xF02 PUSH1 0xE DUP4 PUSH2 0xA76 JUMP JUMPDEST SWAP2 POP PUSH2 0xF0D DUP3 PUSH2 0xECE JUMP JUMPDEST PUSH1 0x20 DUP3 ADD SWAP1 POP SWAP2 SWAP1 POP JUMP JUMPDEST PUSH0 PUSH1 0x20 DUP3 ADD SWAP1 POP DUP2 DUP2 SUB PUSH0 DUP4 ADD MSTORE PUSH2 0xF2F DUP2 PUSH2 0xEF6 JUMP JUMPDEST SWAP1 POP SWAP2 SWAP1 POP JUMP JUMPDEST PUSH0 PUSH2 0xF40 DUP3 PUSH2 0x822 JUMP JUMPDEST SWAP2 POP PUSH2 0xF4B DUP4 PUSH2 0x822 JUMP JUMPDEST SWAP3 POP DUP3 DUP3 ADD SWAP1 POP DUP1 DUP3 GT ISZERO PUSH2 0xF63 JUMPI PUSH2 0xF62 PUSH2 0xE5A JUMP JUMPDEST JUMPDEST SWAP3 SWAP2 POP POP JUMP JUMPDEST PUSH32 0x4E487B7100000000000000000000000000000000000000000000000000000000 PUSH0 MSTORE PUSH1 0x22 PUSH1 0x4 MSTORE PUSH1 0x24 PUSH0 REVERT JUMPDEST PUSH0 PUSH1 0x2 DUP3 DIV SWAP1 POP PUSH1 0x1 DUP3 AND DUP1 PUSH2 0xFAD JUMPI PUSH1 0x7F DUP3 AND SWAP2 POP JUMPDEST PUSH1 0x20 DUP3 LT DUP2 SUB PUSH2 0xFC0 JUMPI PUSH2 0xFBF PUSH2 0xF69 JUMP JUMPDEST JUMPDEST POP SWAP2 SWAP1 POP JUMP JUMPDEST PUSH0 DUP2 SWAP1 POP DUP2 PUSH0 MSTORE PUSH1 0x20 PUSH0 KECCAK256 SWAP1 POP SWAP2 SWAP1 POP JUMP JUMPDEST PUSH0 PUSH1 0x20 PUSH1 0x1F DUP4 ADD DIV SWAP1 POP SWAP2 SWAP1 POP JUMP JUMPDEST PUSH0 DUP3 DUP3 SHL SWAP1 POP SWAP3 SWAP2 POP POP JUMP JUMPDEST PUSH0 PUSH1 0x8 DUP4 MUL PUSH2 0x1022 PUSH32 0xFFFFFFFFFFFFFFFFFFFFFFFFFFFFFFFFFFFFFFFFFFFFFFFFFFFFFFFFFFFFFFFF DUP3 PUSH2 0xFE7 JUMP JUMPDEST PUSH2 0x102C DUP7 DUP4 PUSH2 0xFE7 JUMP JUMPDEST SWAP6 POP DUP1 NOT DUP5 AND SWAP4 POP DUP1 DUP7 AND DUP5 OR SWAP3 POP POP POP SWAP4 SWAP3 POP POP POP JUMP JUMPDEST PUSH0 DUP2 SWAP1 POP SWAP2 SWAP1 POP JUMP JUMPDEST PUSH0 PUSH2 0x1067 PUSH2 0x1062 PUSH2 0x105D DUP5 PUSH2 0x822 JUMP JUMPDEST PUSH2 0x1044 JUMP JUMPDEST PUSH2 0x822 JUMP JUMPDEST SWAP1 POP SWAP2 SWAP1 POP JUMP JUMPDEST PUSH0 DUP2 SWAP1 POP SWAP2 SWAP1 POP JUMP JUMPDEST PUSH2 0x1080 DUP4 PUSH2 0x104D JUMP JUMPDEST PUSH2 0x1094 PUSH2 0x108C DUP3 PUSH2 0x106E JUMP JUMPDEST DUP5 DUP5 SLOAD PUSH2 0xFF3 JUMP JUMPDEST DUP3 SSTORE POP POP POP POP JUMP JUMPDEST PUSH0 SWAP1 JUMP JUMPDEST PUSH2 0x10A8 PUSH2 0x109C JUMP JUMPDEST PUSH2 0x10B3 DUP2 DUP5 DUP5 PUSH2 0x1077 JUMP JUMPDEST POP POP POP JUMP JUMPDEST JUMPDEST DUP2 DUP2 LT ISZERO PUSH2 0x10D6 JUMPI PUSH2 0x10CB PUSH0 DUP3 PUSH2 0x10A0 JUMP JUMPDEST PUSH1 0x1 DUP2 ADD SWAP1 POP PUSH2 0x10B9 JUMP JUMPDEST POP POP JUMP JUMPDEST PUSH1 0x1F DUP3 GT ISZERO PUSH2 0x111B JUMPI PUSH2 0x10EC DUP2 PUSH2 0xFC6 JUMP JUMPDEST PUSH2 0x10F5 DUP5 PUSH2 0xFD8 JUMP JUMPDEST DUP2 ADD PUSH1 0x20 DUP6 LT ISZERO PUSH2 0x1104 JUMPI DUP2 SWAP1 POP JUMPDEST PUSH2 0x1118 PUSH2 0x1110 DUP6 PUSH2 0xFD8 JUMP JUMPDEST DUP4 ADD DUP3 PUSH2 0x10B8 JUMP JUMPDEST POP POP JUMPDEST POP POP POP JUMP JUMPDEST PUSH0 DUP3 DUP3 SHR SWAP1 POP SWAP3 SWAP2 POP POP JUMP JUMPDEST PUSH0 PUSH2 0x113B PUSH0 NOT DUP5 PUSH1 0x8 MUL PUSH2 0x1120 JUMP JUMPDEST NOT DUP1 DUP4 AND SWAP2 POP POP SWAP3 SWAP2 POP POP JUMP JUMPDEST PUSH0 PUSH2 0x1153 DUP4 DUP4 PUSH2 0x112C JUMP JUMPDEST SWAP2 POP DUP3 PUSH1 0x2 MUL DUP3 OR SWAP1 POP SWAP3 SWAP2 POP POP JUMP JUMPDEST PUSH2 0x116C DUP3 PUSH2 0xA6C JUMP JUMPDEST PUSH8 0xFFFFFFFFFFFFFFFF DUP2 GT ISZERO PUSH2 0x1185 JUMPI PUSH2 0x1184 PUSH2 0x8C0 JUMP JUMPDEST JUMPDEST PUSH2 0x118F DUP3 SLOAD PUSH2 0xF96 JUMP JUMPDEST PUSH2 0x119A DUP3 DUP3 DUP6 PUSH2 0x10DA JUMP JUMPDEST PUSH0 PUSH1 0x20 SWAP1 POP PUSH1 0x1F DUP4 GT PUSH1 0x1 DUP2 EQ PUSH2 0x11CB JUMPI PUSH0 DUP5 ISZERO PUSH2 0x11B9 JUMPI DUP3 DUP8 ADD MLOAD SWAP1 POP JUMPDEST PUSH2 0x11C3 DUP6 DUP3 PUSH2 0x1148 JUMP JUMPDEST DUP7 SSTORE POP PUSH2 0x122A JUMP JUMPDEST PUSH1 0x1F NOT DUP5 AND PUSH2 0x11D9 DUP7 PUSH2 0xFC6 JUMP JUMPDEST PUSH0 JUMPDEST DUP3 DUP2 LT ISZERO PUSH2 0x1200 JUMPI DUP5 DUP10 ADD MLOAD DUP3 SSTORE PUSH1 0x1 DUP3 ADD SWAP2 POP PUSH1 0x20 DUP6 ADD SWAP5 POP PUSH1 0x20 DUP2 ADD SWAP1 POP PUSH2 0x11DB JUMP JUMPDEST DUP7 DUP4 LT ISZERO PUSH2 0x121D JUMPI DUP5 DUP10 ADD MLOAD PUSH2 0x1219 PUSH1 0x1F DUP10 AND DUP3 PUSH2 0x112C JUMP JUMPDEST DUP4 SSTORE POP JUMPDEST PUSH1 0x1 PUSH1 0x2 DUP9 MUL ADD DUP9 SSTORE POP POP POP JUMPDEST POP POP POP POP POP POP JUMP INVALID LOG2 PUSH5 0x6970667358 0x22 SLT KECCAK256 DUP10 RETURNDATACOPY 0xAD RETURN 0xB7 0x2A SLT PUSH21 0x51DCC6F39D003390B016B621393B7C63618EC1CC70 0x2A 0xEB 0xE1 PUSH5 0x736F6C6343 STOP ADDMOD XOR STOP CALLER "
				},
				"gasEstimates": {
					"creation": {
						"codeDepositCost": "942400",
						"executionCost": "30249",
						"totalCost": "972649"
					},
					"external": {
						"addVote(uint256)": "infinite",
						"addVoting(string,string,uint256)": "infinite",
						"currentVoting()": "2425",
						"getCurrentVoting()": "infinite",
						"votes(uint256,address)": "infinite",
						"votings(uint256)": "infinite"
					}
				},
				"methodIdentifiers": {
					"addVote(uint256)": "0383badc",
					"addVoting(string,string,uint256)": "55f9b1ec",
					"currentVoting()": "1c7bec9d",
					"getCurrentVoting()": "f1156cdf",
					"votes(uint256,address)": "d23254b4",
					"votings(uint256)": "a598d03c"
				}
			},
			"storageLayout": {
				"storage": [
					{
						"astId": 19,
						"contract": "contracts/webbb3.sol:Webbb3",
						"label": "owener",
						"offset": 0,
						"slot": "0",
						"type": "t_address"
					},
					{
						"astId": 22,
						"contract": "contracts/webbb3.sol:Webbb3",
						"label": "currentVoting",
						"offset": 0,
						"slot": "1",
						"type": "t_uint256"
					},
					{
						"astId": 26,
						"contract": "contracts/webbb3.sol:Webbb3",
						"label": "votings",
						"offset": 0,
						"slot": "2",
						"type": "t_array(t_struct(Voting)12_storage)dyn_storage"
					},
					{
						"astId": 33,
						"contract": "contracts/webbb3.sol:Webbb3",
						"label": "votes",
						"offset": 0,
						"slot": "3",
						"type": "t_mapping(t_uint256,t_mapping(t_address,t_struct(Vote)17_storage))"
					}
				],
				"types": {
					"t_address": {
						"encoding": "inplace",
						"label": "address",
						"numberOfBytes": "20"
					},
					"t_array(t_struct(Voting)12_storage)dyn_storage": {
						"base": "t_struct(Voting)12_storage",
						"encoding": "dynamic_array",
						"label": "struct Voting[]",
						"numberOfBytes": "32"
					},
					"t_mapping(t_address,t_struct(Vote)17_storage)": {
						"encoding": "mapping",
						"key": "t_address",
						"label": "mapping(address => struct Vote)",
						"numberOfBytes": "32",
						"value": "t_struct(Vote)17_storage"
					},
					"t_mapping(t_uint256,t_mapping(t_address,t_struct(Vote)17_storage))": {
						"encoding": "mapping",
						"key": "t_uint256",
						"label": "mapping(uint256 => mapping(address => struct Vote))",
						"numberOfBytes": "32",
						"value": "t_mapping(t_address,t_struct(Vote)17_storage)"
					},
					"t_string_storage": {
						"encoding": "bytes",
						"label": "string",
						"numberOfBytes": "32"
					},
					"t_struct(Vote)17_storage": {
						"encoding": "inplace",
						"label": "struct Vote",
						"members": [
							{
								"astId": 14,
								"contract": "contracts/webbb3.sol:Webbb3",
								"label": "choice",
								"offset": 0,
								"slot": "0",
								"type": "t_uint256"
							},
							{
								"astId": 16,
								"contract": "contracts/webbb3.sol:Webbb3",
								"label": "date",
								"offset": 0,
								"slot": "1",
								"type": "t_uint256"
							}
						],
						"numberOfBytes": "64"
					},
					"t_struct(Voting)12_storage": {
						"encoding": "inplace",
						"label": "struct Voting",
						"members": [
							{
								"astId": 3,
								"contract": "contracts/webbb3.sol:Webbb3",
								"label": "option1",
								"offset": 0,
								"slot": "0",
								"type": "t_string_storage"
							},
							{
								"astId": 5,
								"contract": "contracts/webbb3.sol:Webbb3",
								"label": "votes1",
								"offset": 0,
								"slot": "1",
								"type": "t_uint256"
							},
							{
								"astId": 7,
								"contract": "contracts/webbb3.sol:Webbb3",
								"label": "option2",
								"offset": 0,
								"slot": "2",
								"type": "t_string_storage"
							},
							{
								"astId": 9,
								"contract": "contracts/webbb3.sol:Webbb3",
								"label": "votes2",
								"offset": 0,
								"slot": "3",
								"type": "t_uint256"
							},
							{
								"astId": 11,
								"contract": "contracts/webbb3.sol:Webbb3",
								"label": "maxDate",
								"offset": 0,
								"slot": "4",
								"type": "t_uint256"
							}
						],
						"numberOfBytes": "160"
					},
					"t_uint256": {
						"encoding": "inplace",
						"label": "uint256",
						"numberOfBytes": "32"
					}
				}
			},
			"userdoc": {
				"kind": "user",
				"methods": {},
				"version": 1
			}
		}
	}
}