{
	"contracts/desafio.sol": {
		"DesafioContract": {
			"abi": [
				{
					"inputs": [],
					"stateMutability": "nonpayable",
					"type": "constructor"
				},
				{
					"anonymous": false,
					"inputs": [
						{
							"indexed": true,
							"internalType": "address",
							"name": "desafiante",
							"type": "address"
						},
						{
							"indexed": true,
							"internalType": "address",
							"name": "desafiado",
							"type": "address"
						},
						{
							"indexed": false,
							"internalType": "uint256",
							"name": "valorAposta",
							"type": "uint256"
						}
					],
					"name": "DesafioCriado",
					"type": "event"
				},
				{
					"inputs": [
						{
							"internalType": "uint256",
							"name": "_indiceDesafio",
							"type": "uint256"
						}
					],
					"name": "aceitarDesafio",
					"outputs": [],
					"stateMutability": "payable",
					"type": "function"
				},
				{
					"inputs": [],
					"name": "balance",
					"outputs": [
						{
							"internalType": "uint256",
							"name": "",
							"type": "uint256"
						}
					],
					"stateMutability": "view",
					"type": "function"
				},
				{
					"inputs": [],
					"name": "criarDesafio",
					"outputs": [],
					"stateMutability": "payable",
					"type": "function"
				},
				{
					"inputs": [
						{
							"internalType": "uint256",
							"name": "_indiceDesafio",
							"type": "uint256"
						}
					],
					"name": "declararJuiz",
					"outputs": [],
					"stateMutability": "nonpayable",
					"type": "function"
				},
				{
					"inputs": [
						{
							"internalType": "uint256",
							"name": "_indiceDesafio",
							"type": "uint256"
						},
						{
							"internalType": "address",
							"name": "_vencedor",
							"type": "address"
						}
					],
					"name": "declararVencedor",
					"outputs": [],
					"stateMutability": "payable",
					"type": "function"
				},
				{
					"inputs": [
						{
							"internalType": "uint256",
							"name": "",
							"type": "uint256"
						}
					],
					"name": "desafiosPorDesafiado",
					"outputs": [
						{
							"internalType": "address",
							"name": "desafiante",
							"type": "address"
						},
						{
							"internalType": "address",
							"name": "desafiado",
							"type": "address"
						},
						{
							"internalType": "address",
							"name": "juiz",
							"type": "address"
						},
						{
							"internalType": "uint256",
							"name": "valorAposta",
							"type": "uint256"
						},
						{
							"internalType": "bool",
							"name": "desafioAtivo",
							"type": "bool"
						},
						{
							"internalType": "bool",
							"name": "desafioAceito",
							"type": "bool"
						},
						{
							"internalType": "address",
							"name": "vencedor",
							"type": "address"
						}
					],
					"stateMutability": "view",
					"type": "function"
				},
				{
					"inputs": [],
					"name": "getDesafios",
					"outputs": [
						{
							"components": [
								{
									"internalType": "address",
									"name": "desafiante",
									"type": "address"
								},
								{
									"internalType": "address",
									"name": "desafiado",
									"type": "address"
								},
								{
									"internalType": "address",
									"name": "juiz",
									"type": "address"
								},
								{
									"internalType": "uint256",
									"name": "valorAposta",
									"type": "uint256"
								},
								{
									"internalType": "bool",
									"name": "desafioAtivo",
									"type": "bool"
								},
								{
									"internalType": "bool",
									"name": "desafioAceito",
									"type": "bool"
								},
								{
									"internalType": "address",
									"name": "vencedor",
									"type": "address"
								}
							],
							"internalType": "struct DesafioContract.Desafio[]",
							"name": "",
							"type": "tuple[]"
						}
					],
					"stateMutability": "view",
					"type": "function"
				}
			],
			"devdoc": {
				"kind": "dev",
				"methods": {},
				"version": 1
			},
			"evm": {
				"assembly": "    /* \"contracts/desafio.sol\":99:4837  contract DesafioContract {... */\n  mstore(0x40, 0x80)\n    /* \"contracts/desafio.sol\":194:245  constructor() {... */\n  callvalue\n  dup1\n  iszero\n  tag_1\n  jumpi\n  0x00\n  dup1\n  revert\ntag_1:\n  pop\n    /* \"contracts/desafio.sol\":227:237  msg.sender */\n  caller\n    /* \"contracts/desafio.sol\":219:224  owner */\n  0x00\n  dup1\n    /* \"contracts/desafio.sol\":219:237  owner = msg.sender */\n  0x0100\n  exp\n  dup2\n  sload\n  dup2\n  0xffffffffffffffffffffffffffffffffffffffff\n  mul\n  not\n  and\n  swap1\n  dup4\n  0xffffffffffffffffffffffffffffffffffffffff\n  and\n  mul\n  or\n  swap1\n  sstore\n  pop\n    /* \"contracts/desafio.sol\":99:4837  contract DesafioContract {... */\n  dataSize(sub_0)\n  dup1\n  dataOffset(sub_0)\n  0x00\n  codecopy\n  0x00\n  return\nstop\n\nsub_0: assembly {\n        /* \"contracts/desafio.sol\":99:4837  contract DesafioContract {... */\n      mstore(0x40, 0x80)\n      jumpi(tag_1, lt(calldatasize, 0x04))\n      shr(0xe0, calldataload(0x00))\n      dup1\n      0xacdaca3e\n      gt\n      tag_9\n      jumpi\n      dup1\n      0xacdaca3e\n      eq\n      tag_5\n      jumpi\n      dup1\n      0xb69ef8a8\n      eq\n      tag_6\n      jumpi\n      dup1\n      0xd34c6445\n      eq\n      tag_7\n      jumpi\n      dup1\n      0xfb03fa72\n      eq\n      tag_8\n      jumpi\n      jump(tag_1)\n    tag_9:\n      dup1\n      0x01958da5\n      eq\n      tag_2\n      jumpi\n      dup1\n      0x02317522\n      eq\n      tag_3\n      jumpi\n      dup1\n      0x90de64ee\n      eq\n      tag_4\n      jumpi\n    tag_1:\n      0x00\n      dup1\n      revert\n        /* \"contracts/desafio.sol\":4411:4619  function declararJuiz(uint _indiceDesafio) external juizValido(msg.sender, _indiceDesafio) {... */\n    tag_2:\n      callvalue\n      dup1\n      iszero\n      tag_10\n      jumpi\n      0x00\n      dup1\n      revert\n    tag_10:\n      pop\n      tag_11\n      0x04\n      dup1\n      calldatasize\n      sub\n      dup2\n      add\n      swap1\n      tag_12\n      swap2\n      swap1\n      tag_13\n      jump\t// in\n    tag_12:\n      tag_14\n      jump\t// in\n    tag_11:\n      stop\n        /* \"contracts/desafio.sol\":3178:4403  function declararVencedor(uint256 _indiceDesafio, address _vencedor) external payable  {... */\n    tag_3:\n      tag_15\n      0x04\n      dup1\n      calldatasize\n      sub\n      dup2\n      add\n      swap1\n      tag_16\n      swap2\n      swap1\n      tag_17\n      jump\t// in\n    tag_16:\n      tag_18\n      jump\t// in\n    tag_15:\n      stop\n        /* \"contracts/desafio.sol\":597:634  Desafio[] public desafiosPorDesafiado */\n    tag_4:\n      callvalue\n      dup1\n      iszero\n      tag_19\n      jumpi\n      0x00\n      dup1\n      revert\n    tag_19:\n      pop\n      tag_20\n      0x04\n      dup1\n      calldatasize\n      sub\n      dup2\n      add\n      swap1\n      tag_21\n      swap2\n      swap1\n      tag_13\n      jump\t// in\n    tag_21:\n      tag_22\n      jump\t// in\n    tag_20:\n      mload(0x40)\n      tag_23\n      swap8\n      swap7\n      swap6\n      swap5\n      swap4\n      swap3\n      swap2\n      swap1\n      tag_24\n      jump\t// in\n    tag_23:\n      mload(0x40)\n      dup1\n      swap2\n      sub\n      swap1\n      return\n        /* \"contracts/desafio.sol\":2189:3121  function aceitarDesafio(uint256 _indiceDesafio) external payable valorApostaValido(msg.value) {... */\n    tag_5:\n      tag_25\n      0x04\n      dup1\n      calldatasize\n      sub\n      dup2\n      add\n      swap1\n      tag_26\n      swap2\n      swap1\n      tag_13\n      jump\t// in\n    tag_26:\n      tag_27\n      jump\t// in\n    tag_25:\n      stop\n        /* \"contracts/desafio.sol\":4742:4834  function balance() public view returns(uint) {... */\n    tag_6:\n      callvalue\n      dup1\n      iszero\n      tag_28\n      jumpi\n      0x00\n      dup1\n      revert\n    tag_28:\n      pop\n      tag_29\n      tag_30\n      jump\t// in\n    tag_29:\n      mload(0x40)\n      tag_31\n      swap2\n      swap1\n      tag_32\n      jump\t// in\n    tag_31:\n      mload(0x40)\n      dup1\n      swap2\n      sub\n      swap1\n      return\n        /* \"contracts/desafio.sol\":4627:4734  function getDesafios() public view returns(Desafio[] memory) {... */\n    tag_7:\n      callvalue\n      dup1\n      iszero\n      tag_33\n      jumpi\n      0x00\n      dup1\n      revert\n    tag_33:\n      pop\n      tag_34\n      tag_35\n      jump\t// in\n    tag_34:\n      mload(0x40)\n      tag_36\n      swap2\n      swap1\n      tag_37\n      jump\t// in\n    tag_36:\n      mload(0x40)\n      dup1\n      swap2\n      sub\n      swap1\n      return\n        /* \"contracts/desafio.sol\":1450:2124  function criarDesafio() external payable valorApostaValido(msg.value) {... */\n    tag_8:\n      tag_38\n      tag_39\n      jump\t// in\n    tag_38:\n      stop\n        /* \"contracts/desafio.sol\":4411:4619  function declararJuiz(uint _indiceDesafio) external juizValido(msg.sender, _indiceDesafio) {... */\n    tag_14:\n        /* \"contracts/desafio.sol\":4474:4484  msg.sender */\n      caller\n        /* \"contracts/desafio.sol\":4486:4500  _indiceDesafio */\n      dup2\n        /* \"contracts/desafio.sol\":1185:1205  desafiosPorDesafiado */\n      0x01\n        /* \"contracts/desafio.sol\":1206:1219  _indexDesafio */\n      dup2\n        /* \"contracts/desafio.sol\":1185:1220  desafiosPorDesafiado[_indexDesafio] */\n      dup2\n      sload\n      dup2\n      lt\n      tag_41\n      jumpi\n      tag_42\n      tag_43\n      jump\t// in\n    tag_42:\n    tag_41:\n      swap1\n      0x00\n      mstore\n      keccak256(0x00, 0x20)\n      swap1\n      0x05\n      mul\n      add\n        /* \"contracts/desafio.sol\":1185:1230  desafiosPorDesafiado[_indexDesafio].desafiado */\n      0x01\n      add\n      0x00\n      swap1\n      sload\n      swap1\n      0x0100\n      exp\n      swap1\n      div\n      0xffffffffffffffffffffffffffffffffffffffff\n      and\n        /* \"contracts/desafio.sol\":1177:1230  juiz != desafiosPorDesafiado[_indexDesafio].desafiado */\n      0xffffffffffffffffffffffffffffffffffffffff\n      and\n        /* \"contracts/desafio.sol\":1177:1181  juiz */\n      dup3\n        /* \"contracts/desafio.sol\":1177:1230  juiz != desafiosPorDesafiado[_indexDesafio].desafiado */\n      0xffffffffffffffffffffffffffffffffffffffff\n      and\n      sub\n        /* \"contracts/desafio.sol\":1169:1267  require(juiz != desafiosPorDesafiado[_indexDesafio].desafiado, \"O desafiado nao pode ser o juiz.\") */\n      tag_45\n      jumpi\n      mload(0x40)\n      0x08c379a000000000000000000000000000000000000000000000000000000000\n      dup2\n      mstore\n      0x04\n      add\n      tag_46\n      swap1\n      tag_47\n      jump\t// in\n    tag_46:\n      mload(0x40)\n      dup1\n      swap2\n      sub\n      swap1\n      revert\n    tag_45:\n        /* \"contracts/desafio.sol\":1294:1314  desafiosPorDesafiado */\n      0x01\n        /* \"contracts/desafio.sol\":1315:1328  _indexDesafio */\n      dup2\n        /* \"contracts/desafio.sol\":1294:1329  desafiosPorDesafiado[_indexDesafio] */\n      dup2\n      sload\n      dup2\n      lt\n      tag_48\n      jumpi\n      tag_49\n      tag_43\n      jump\t// in\n    tag_49:\n    tag_48:\n      swap1\n      0x00\n      mstore\n      keccak256(0x00, 0x20)\n      swap1\n      0x05\n      mul\n      add\n        /* \"contracts/desafio.sol\":1294:1340  desafiosPorDesafiado[_indexDesafio].desafiante */\n      0x00\n      add\n      0x00\n      swap1\n      sload\n      swap1\n      0x0100\n      exp\n      swap1\n      div\n      0xffffffffffffffffffffffffffffffffffffffff\n      and\n        /* \"contracts/desafio.sol\":1286:1340  juiz != desafiosPorDesafiado[_indexDesafio].desafiante */\n      0xffffffffffffffffffffffffffffffffffffffff\n      and\n        /* \"contracts/desafio.sol\":1286:1290  juiz */\n      dup3\n        /* \"contracts/desafio.sol\":1286:1340  juiz != desafiosPorDesafiado[_indexDesafio].desafiante */\n      0xffffffffffffffffffffffffffffffffffffffff\n      and\n      sub\n        /* \"contracts/desafio.sol\":1278:1378  require(juiz != desafiosPorDesafiado[_indexDesafio].desafiante, \"O desafiante nao pode ser o juiz.\") */\n      tag_51\n      jumpi\n      mload(0x40)\n      0x08c379a000000000000000000000000000000000000000000000000000000000\n      dup2\n      mstore\n      0x04\n      add\n      tag_52\n      swap1\n      tag_53\n      jump\t// in\n    tag_52:\n      mload(0x40)\n      dup1\n      swap2\n      sub\n      swap1\n      revert\n    tag_51:\n        /* \"contracts/desafio.sol\":4513:4536  Desafio storage desafio */\n      0x00\n        /* \"contracts/desafio.sol\":4539:4559  desafiosPorDesafiado */\n      0x01\n        /* \"contracts/desafio.sol\":4560:4574  _indiceDesafio */\n      dup5\n        /* \"contracts/desafio.sol\":4539:4575  desafiosPorDesafiado[_indiceDesafio] */\n      dup2\n      sload\n      dup2\n      lt\n      tag_55\n      jumpi\n      tag_56\n      tag_43\n      jump\t// in\n    tag_56:\n    tag_55:\n      swap1\n      0x00\n      mstore\n      keccak256(0x00, 0x20)\n      swap1\n      0x05\n      mul\n      add\n        /* \"contracts/desafio.sol\":4513:4575  Desafio storage desafio = desafiosPorDesafiado[_indiceDesafio] */\n      swap1\n      pop\n        /* \"contracts/desafio.sol\":4601:4611  msg.sender */\n      caller\n        /* \"contracts/desafio.sol\":4586:4593  desafio */\n      dup2\n        /* \"contracts/desafio.sol\":4586:4598  desafio.juiz */\n      0x02\n      add\n      0x00\n        /* \"contracts/desafio.sol\":4586:4611  desafio.juiz = msg.sender */\n      0x0100\n      exp\n      dup2\n      sload\n      dup2\n      0xffffffffffffffffffffffffffffffffffffffff\n      mul\n      not\n      and\n      swap1\n      dup4\n      0xffffffffffffffffffffffffffffffffffffffff\n      and\n      mul\n      or\n      swap1\n      sstore\n      pop\n        /* \"contracts/desafio.sol\":4502:4619  {... */\n      pop\n        /* \"contracts/desafio.sol\":4411:4619  function declararJuiz(uint _indiceDesafio) external juizValido(msg.sender, _indiceDesafio) {... */\n      pop\n      pop\n      pop\n      jump\t// out\n        /* \"contracts/desafio.sol\":3178:4403  function declararVencedor(uint256 _indiceDesafio, address _vencedor) external payable  {... */\n    tag_18:\n        /* \"contracts/desafio.sol\":3351:3371  desafiosPorDesafiado */\n      0x01\n        /* \"contracts/desafio.sol\":3372:3386  _indiceDesafio */\n      dup3\n        /* \"contracts/desafio.sol\":3351:3387  desafiosPorDesafiado[_indiceDesafio] */\n      dup2\n      sload\n      dup2\n      lt\n      tag_59\n      jumpi\n      tag_60\n      tag_43\n      jump\t// in\n    tag_60:\n    tag_59:\n      swap1\n      0x00\n      mstore\n      keccak256(0x00, 0x20)\n      swap1\n      0x05\n      mul\n      add\n        /* \"contracts/desafio.sol\":3351:3392  desafiosPorDesafiado[_indiceDesafio].juiz */\n      0x02\n      add\n      0x00\n      swap1\n      sload\n      swap1\n      0x0100\n      exp\n      swap1\n      div\n      0xffffffffffffffffffffffffffffffffffffffff\n      and\n        /* \"contracts/desafio.sol\":3337:3392  msg.sender == desafiosPorDesafiado[_indiceDesafio].juiz */\n      0xffffffffffffffffffffffffffffffffffffffff\n      and\n        /* \"contracts/desafio.sol\":3337:3347  msg.sender */\n      caller\n        /* \"contracts/desafio.sol\":3337:3392  msg.sender == desafiosPorDesafiado[_indiceDesafio].juiz */\n      0xffffffffffffffffffffffffffffffffffffffff\n      and\n      eq\n        /* \"contracts/desafio.sol\":3329:3436  require(msg.sender == desafiosPorDesafiado[_indiceDesafio].juiz, \"Somente o juiz pode declarar o vencedor\") */\n      tag_62\n      jumpi\n      mload(0x40)\n      0x08c379a000000000000000000000000000000000000000000000000000000000\n      dup2\n      mstore\n      0x04\n      add\n      tag_63\n      swap1\n      tag_64\n      jump\t// in\n    tag_63:\n      mload(0x40)\n      dup1\n      swap2\n      sub\n      swap1\n      revert\n    tag_62:\n        /* \"contracts/desafio.sol\":3500:3523  Desafio storage desafio */\n      0x00\n        /* \"contracts/desafio.sol\":3526:3546  desafiosPorDesafiado */\n      0x01\n        /* \"contracts/desafio.sol\":3547:3561  _indiceDesafio */\n      dup4\n        /* \"contracts/desafio.sol\":3526:3562  desafiosPorDesafiado[_indiceDesafio] */\n      dup2\n      sload\n      dup2\n      lt\n      tag_65\n      jumpi\n      tag_66\n      tag_43\n      jump\t// in\n    tag_66:\n    tag_65:\n      swap1\n      0x00\n      mstore\n      keccak256(0x00, 0x20)\n      swap1\n      0x05\n      mul\n      add\n        /* \"contracts/desafio.sol\":3500:3562  Desafio storage desafio = desafiosPorDesafiado[_indiceDesafio] */\n      swap1\n      pop\n        /* \"contracts/desafio.sol\":3650:3657  desafio */\n      dup1\n        /* \"contracts/desafio.sol\":3650:3670  desafio.desafioAtivo */\n      0x04\n      add\n      0x00\n      swap1\n      sload\n      swap1\n      0x0100\n      exp\n      swap1\n      div\n      0xff\n      and\n        /* \"contracts/desafio.sol\":3650:3695  desafio.desafioAtivo && desafio.desafioAceito */\n      dup1\n      iszero\n      tag_68\n      jumpi\n      pop\n        /* \"contracts/desafio.sol\":3674:3681  desafio */\n      dup1\n        /* \"contracts/desafio.sol\":3674:3695  desafio.desafioAceito */\n      0x04\n      add\n      0x01\n      swap1\n      sload\n      swap1\n      0x0100\n      exp\n      swap1\n      div\n      0xff\n      and\n        /* \"contracts/desafio.sol\":3650:3695  desafio.desafioAtivo && desafio.desafioAceito */\n    tag_68:\n        /* \"contracts/desafio.sol\":3642:3740  require(desafio.desafioAtivo && desafio.desafioAceito, \"Desafio nao esta ativo ou nao foi aceito\") */\n      tag_69\n      jumpi\n      mload(0x40)\n      0x08c379a000000000000000000000000000000000000000000000000000000000\n      dup2\n      mstore\n      0x04\n      add\n      tag_70\n      swap1\n      tag_71\n      jump\t// in\n    tag_70:\n      mload(0x40)\n      dup1\n      swap2\n      sub\n      swap1\n      revert\n    tag_69:\n        /* \"contracts/desafio.sol\":3802:3811  _vencedor */\n      dup2\n        /* \"contracts/desafio.sol\":3783:3790  desafio */\n      dup2\n        /* \"contracts/desafio.sol\":3783:3799  desafio.vencedor */\n      0x04\n      add\n      0x02\n        /* \"contracts/desafio.sol\":3783:3811  desafio.vencedor = _vencedor */\n      0x0100\n      exp\n      dup2\n      sload\n      dup2\n      0xffffffffffffffffffffffffffffffffffffffff\n      mul\n      not\n      and\n      swap1\n      dup4\n      0xffffffffffffffffffffffffffffffffffffffff\n      and\n      mul\n      or\n      swap1\n      sstore\n      pop\n        /* \"contracts/desafio.sol\":3845:3850  false */\n      0x00\n        /* \"contracts/desafio.sol\":3822:3829  desafio */\n      dup2\n        /* \"contracts/desafio.sol\":3822:3842  desafio.desafioAtivo */\n      0x04\n      add\n      0x00\n        /* \"contracts/desafio.sol\":3822:3850  desafio.desafioAtivo = false */\n      0x0100\n      exp\n      dup2\n      sload\n      dup2\n      0xff\n      mul\n      not\n      and\n      swap1\n      dup4\n      iszero\n      iszero\n      mul\n      or\n      swap1\n      sstore\n      pop\n        /* \"contracts/desafio.sol\":3897:3916  uint256 valorPremio */\n      0x00\n        /* \"contracts/desafio.sol\":3945:3947  10 */\n      0x0a\n        /* \"contracts/desafio.sol\":3941:3942  8 */\n      0x08\n        /* \"contracts/desafio.sol\":3919:3926  desafio */\n      dup4\n        /* \"contracts/desafio.sol\":3919:3938  desafio.valorAposta */\n      0x03\n      add\n      sload\n        /* \"contracts/desafio.sol\":3919:3942  desafio.valorAposta * 8 */\n      tag_72\n      swap2\n      swap1\n      tag_73\n      jump\t// in\n    tag_72:\n        /* \"contracts/desafio.sol\":3919:3947  desafio.valorAposta * 8 / 10 */\n      tag_74\n      swap2\n      swap1\n      tag_75\n      jump\t// in\n    tag_74:\n        /* \"contracts/desafio.sol\":3897:3947  uint256 valorPremio = desafio.valorAposta * 8 / 10 */\n      swap1\n      pop\n        /* \"contracts/desafio.sol\":3981:4007  uint256 taxaAdministrativa */\n      0x00\n        /* \"contracts/desafio.sol\":4036:4038  10 */\n      0x0a\n        /* \"contracts/desafio.sol\":4032:4033  1 */\n      0x01\n        /* \"contracts/desafio.sol\":4010:4017  desafio */\n      dup5\n        /* \"contracts/desafio.sol\":4010:4029  desafio.valorAposta */\n      0x03\n      add\n      sload\n        /* \"contracts/desafio.sol\":4010:4033  desafio.valorAposta * 1 */\n      tag_76\n      swap2\n      swap1\n      tag_73\n      jump\t// in\n    tag_76:\n        /* \"contracts/desafio.sol\":4010:4038  desafio.valorAposta * 1 / 10 */\n      tag_77\n      swap2\n      swap1\n      tag_75\n      jump\t// in\n    tag_77:\n        /* \"contracts/desafio.sol\":3981:4038  uint256 taxaAdministrativa = desafio.valorAposta * 1 / 10 */\n      swap1\n      pop\n        /* \"contracts/desafio.sol\":4082:4103  uint256 pagamentoJuiz */\n      0x00\n        /* \"contracts/desafio.sol\":4132:4134  10 */\n      0x0a\n        /* \"contracts/desafio.sol\":4128:4129  1 */\n      0x01\n        /* \"contracts/desafio.sol\":4106:4113  desafio */\n      dup6\n        /* \"contracts/desafio.sol\":4106:4125  desafio.valorAposta */\n      0x03\n      add\n      sload\n        /* \"contracts/desafio.sol\":4106:4129  desafio.valorAposta * 1 */\n      tag_78\n      swap2\n      swap1\n      tag_73\n      jump\t// in\n    tag_78:\n        /* \"contracts/desafio.sol\":4106:4134  desafio.valorAposta * 1 / 10 */\n      tag_79\n      swap2\n      swap1\n      tag_75\n      jump\t// in\n    tag_79:\n        /* \"contracts/desafio.sol\":4082:4134  uint256 pagamentoJuiz = desafio.valorAposta * 1 / 10 */\n      swap1\n      pop\n        /* \"contracts/desafio.sol\":4210:4219  _vencedor */\n      dup5\n        /* \"contracts/desafio.sol\":4202:4229  payable(_vencedor).transfer */\n      0xffffffffffffffffffffffffffffffffffffffff\n      and\n        /* \"contracts/desafio.sol\":4202:4242  payable(_vencedor).transfer(valorPremio) */\n      0x08fc\n        /* \"contracts/desafio.sol\":4230:4241  valorPremio */\n      dup5\n        /* \"contracts/desafio.sol\":4202:4242  payable(_vencedor).transfer(valorPremio) */\n      swap1\n      dup2\n      iszero\n      mul\n      swap1\n      mload(0x40)\n      0x00\n      mload(0x40)\n      dup1\n      dup4\n      sub\n      dup2\n      dup6\n      dup9\n      dup9\n      call\n      swap4\n      pop\n      pop\n      pop\n      pop\n      iszero\n      dup1\n      iszero\n      tag_81\n      jumpi\n      returndatasize\n      0x00\n      dup1\n      returndatacopy\n      revert(0x00, returndatasize)\n    tag_81:\n      pop\n        /* \"contracts/desafio.sol\":4261:4268  desafio */\n      dup4\n        /* \"contracts/desafio.sol\":4261:4273  desafio.juiz */\n      0x02\n      add\n      0x00\n      swap1\n      sload\n      swap1\n      0x0100\n      exp\n      swap1\n      div\n      0xffffffffffffffffffffffffffffffffffffffff\n      and\n        /* \"contracts/desafio.sol\":4253:4283  payable(desafio.juiz).transfer */\n      0xffffffffffffffffffffffffffffffffffffffff\n      and\n        /* \"contracts/desafio.sol\":4253:4298  payable(desafio.juiz).transfer(pagamentoJuiz) */\n      0x08fc\n        /* \"contracts/desafio.sol\":4284:4297  pagamentoJuiz */\n      dup3\n        /* \"contracts/desafio.sol\":4253:4298  payable(desafio.juiz).transfer(pagamentoJuiz) */\n      swap1\n      dup2\n      iszero\n      mul\n      swap1\n      mload(0x40)\n      0x00\n      mload(0x40)\n      dup1\n      dup4\n      sub\n      dup2\n      dup6\n      dup9\n      dup9\n      call\n      swap4\n      pop\n      pop\n      pop\n      pop\n      iszero\n      dup1\n      iszero\n      tag_83\n      jumpi\n      returndatasize\n      0x00\n      dup1\n      returndatacopy\n      revert(0x00, returndatasize)\n    tag_83:\n      pop\n        /* \"contracts/desafio.sol\":4317:4322  owner */\n      0x00\n      dup1\n      sload\n      swap1\n      0x0100\n      exp\n      swap1\n      div\n      0xffffffffffffffffffffffffffffffffffffffff\n      and\n        /* \"contracts/desafio.sol\":4309:4332  payable(owner).transfer */\n      0xffffffffffffffffffffffffffffffffffffffff\n      and\n        /* \"contracts/desafio.sol\":4309:4352  payable(owner).transfer(taxaAdministrativa) */\n      0x08fc\n        /* \"contracts/desafio.sol\":4333:4351  taxaAdministrativa */\n      dup4\n        /* \"contracts/desafio.sol\":4309:4352  payable(owner).transfer(taxaAdministrativa) */\n      swap1\n      dup2\n      iszero\n      mul\n      swap1\n      mload(0x40)\n      0x00\n      mload(0x40)\n      dup1\n      dup4\n      sub\n      dup2\n      dup6\n      dup9\n      dup9\n      call\n      swap4\n      pop\n      pop\n      pop\n      pop\n      iszero\n      dup1\n      iszero\n      tag_85\n      jumpi\n      returndatasize\n      0x00\n      dup1\n      returndatacopy\n      revert(0x00, returndatasize)\n    tag_85:\n      pop\n        /* \"contracts/desafio.sol\":3265:4403  {... */\n      pop\n      pop\n      pop\n      pop\n        /* \"contracts/desafio.sol\":3178:4403  function declararVencedor(uint256 _indiceDesafio, address _vencedor) external payable  {... */\n      pop\n      pop\n      jump\t// out\n        /* \"contracts/desafio.sol\":597:634  Desafio[] public desafiosPorDesafiado */\n    tag_22:\n      0x01\n      dup2\n      dup2\n      sload\n      dup2\n      lt\n      tag_86\n      jumpi\n      0x00\n      dup1\n      revert\n    tag_86:\n      swap1\n      0x00\n      mstore\n      keccak256(0x00, 0x20)\n      swap1\n      0x05\n      mul\n      add\n      0x00\n      swap2\n      pop\n      swap1\n      pop\n      dup1\n      0x00\n      add\n      0x00\n      swap1\n      sload\n      swap1\n      0x0100\n      exp\n      swap1\n      div\n      0xffffffffffffffffffffffffffffffffffffffff\n      and\n      swap1\n      dup1\n      0x01\n      add\n      0x00\n      swap1\n      sload\n      swap1\n      0x0100\n      exp\n      swap1\n      div\n      0xffffffffffffffffffffffffffffffffffffffff\n      and\n      swap1\n      dup1\n      0x02\n      add\n      0x00\n      swap1\n      sload\n      swap1\n      0x0100\n      exp\n      swap1\n      div\n      0xffffffffffffffffffffffffffffffffffffffff\n      and\n      swap1\n      dup1\n      0x03\n      add\n      sload\n      swap1\n      dup1\n      0x04\n      add\n      0x00\n      swap1\n      sload\n      swap1\n      0x0100\n      exp\n      swap1\n      div\n      0xff\n      and\n      swap1\n      dup1\n      0x04\n      add\n      0x01\n      swap1\n      sload\n      swap1\n      0x0100\n      exp\n      swap1\n      div\n      0xff\n      and\n      swap1\n      dup1\n      0x04\n      add\n      0x02\n      swap1\n      sload\n      swap1\n      0x0100\n      exp\n      swap1\n      div\n      0xffffffffffffffffffffffffffffffffffffffff\n      and\n      swap1\n      pop\n      dup8\n      jump\t// out\n        /* \"contracts/desafio.sol\":2189:3121  function aceitarDesafio(uint256 _indiceDesafio) external payable valorApostaValido(msg.value) {... */\n    tag_27:\n        /* \"contracts/desafio.sol\":2272:2281  msg.value */\n      callvalue\n        /* \"contracts/desafio.sol\":985:1002  0.0017 * (10**18) */\n      0x060a24181e4000\n        /* \"contracts/desafio.sol\":969:981  _valorAposta */\n      dup2\n        /* \"contracts/desafio.sol\":969:1002  _valorAposta >= 0.0017 * (10**18) */\n      lt\n      iszero\n        /* \"contracts/desafio.sol\":969:1028  _valorAposta >= 0.0017 * (10**18) && _valorAposta <= 10**18 */\n      dup1\n      iszero\n      tag_89\n      jumpi\n      pop\n        /* \"contracts/desafio.sol\":1022:1028  10**18 */\n      0x0de0b6b3a7640000\n        /* \"contracts/desafio.sol\":1006:1018  _valorAposta */\n      dup2\n        /* \"contracts/desafio.sol\":1006:1028  _valorAposta <= 10**18 */\n      gt\n      iszero\n        /* \"contracts/desafio.sol\":969:1028  _valorAposta >= 0.0017 * (10**18) && _valorAposta <= 10**18 */\n    tag_89:\n        /* \"contracts/desafio.sol\":961:1076  require(_valorAposta >= 0.0017 * (10**18) && _valorAposta <= 10**18, \"Valor da aposta fora do intervalo permitido\") */\n      tag_90\n      jumpi\n      mload(0x40)\n      0x08c379a000000000000000000000000000000000000000000000000000000000\n      dup2\n      mstore\n      0x04\n      add\n      tag_91\n      swap1\n      tag_92\n      jump\t// in\n    tag_91:\n      mload(0x40)\n      dup1\n      swap2\n      sub\n      swap1\n      revert\n    tag_90:\n        /* \"contracts/desafio.sol\":2345:2368  Desafio storage desafio */\n      0x00\n        /* \"contracts/desafio.sol\":2371:2391  desafiosPorDesafiado */\n      0x01\n        /* \"contracts/desafio.sol\":2392:2406  _indiceDesafio */\n      dup4\n        /* \"contracts/desafio.sol\":2371:2407  desafiosPorDesafiado[_indiceDesafio] */\n      dup2\n      sload\n      dup2\n      lt\n      tag_94\n      jumpi\n      tag_95\n      tag_43\n      jump\t// in\n    tag_95:\n    tag_94:\n      swap1\n      0x00\n      mstore\n      keccak256(0x00, 0x20)\n      swap1\n      0x05\n      mul\n      add\n        /* \"contracts/desafio.sol\":2345:2407  Desafio storage desafio = desafiosPorDesafiado[_indiceDesafio] */\n      swap1\n      pop\n        /* \"contracts/desafio.sol\":2506:2513  desafio */\n      dup1\n        /* \"contracts/desafio.sol\":2506:2526  desafio.desafioAtivo */\n      0x04\n      add\n      0x00\n      swap1\n      sload\n      swap1\n      0x0100\n      exp\n      swap1\n      div\n      0xff\n      and\n        /* \"contracts/desafio.sol\":2506:2552  desafio.desafioAtivo && !desafio.desafioAceito */\n      dup1\n      iszero\n      tag_97\n      jumpi\n      pop\n        /* \"contracts/desafio.sol\":2531:2538  desafio */\n      dup1\n        /* \"contracts/desafio.sol\":2531:2552  desafio.desafioAceito */\n      0x04\n      add\n      0x01\n      swap1\n      sload\n      swap1\n      0x0100\n      exp\n      swap1\n      div\n      0xff\n      and\n        /* \"contracts/desafio.sol\":2530:2552  !desafio.desafioAceito */\n      iszero\n        /* \"contracts/desafio.sol\":2506:2552  desafio.desafioAtivo && !desafio.desafioAceito */\n    tag_97:\n        /* \"contracts/desafio.sol\":2498:2597  require(desafio.desafioAtivo && !desafio.desafioAceito, \"Desafio nao esta ativo ou ja foi aceito.\") */\n      tag_98\n      jumpi\n      mload(0x40)\n      0x08c379a000000000000000000000000000000000000000000000000000000000\n      dup2\n      mstore\n      0x04\n      add\n      tag_99\n      swap1\n      tag_100\n      jump\t// in\n    tag_99:\n      mload(0x40)\n      dup1\n      swap2\n      sub\n      swap1\n      revert\n    tag_98:\n        /* \"contracts/desafio.sol\":2701:2708  desafio */\n      dup1\n        /* \"contracts/desafio.sol\":2701:2720  desafio.valorAposta */\n      0x03\n      add\n      sload\n        /* \"contracts/desafio.sol\":2688:2697  msg.value */\n      callvalue\n        /* \"contracts/desafio.sol\":2688:2720  msg.value == desafio.valorAposta */\n      eq\n        /* \"contracts/desafio.sol\":2680:2768  require(msg.value == desafio.valorAposta, \"Valor enviado diferente do valor da aposta.\") */\n      tag_101\n      jumpi\n      mload(0x40)\n      0x08c379a000000000000000000000000000000000000000000000000000000000\n      dup2\n      mstore\n      0x04\n      add\n      tag_102\n      swap1\n      tag_103\n      jump\t// in\n    tag_102:\n      mload(0x40)\n      dup1\n      swap2\n      sub\n      swap1\n      revert\n    tag_101:\n        /* \"contracts/desafio.sol\":2862:2869  desafio */\n      dup1\n        /* \"contracts/desafio.sol\":2862:2879  desafio.desafiado */\n      0x01\n      add\n      0x00\n      swap1\n      sload\n      swap1\n      0x0100\n      exp\n      swap1\n      div\n      0xffffffffffffffffffffffffffffffffffffffff\n      and\n        /* \"contracts/desafio.sol\":2848:2879  msg.sender != desafio.desafiado */\n      0xffffffffffffffffffffffffffffffffffffffff\n      and\n        /* \"contracts/desafio.sol\":2848:2858  msg.sender */\n      caller\n        /* \"contracts/desafio.sol\":2848:2879  msg.sender != desafio.desafiado */\n      0xffffffffffffffffffffffffffffffffffffffff\n      and\n      sub\n        /* \"contracts/desafio.sol\":2840:2924  require(msg.sender != desafio.desafiado, \"Voce nao pode aceitar o proprio desafio.\") */\n      tag_104\n      jumpi\n      mload(0x40)\n      0x08c379a000000000000000000000000000000000000000000000000000000000\n      dup2\n      mstore\n      0x04\n      add\n      tag_105\n      swap1\n      tag_106\n      jump\t// in\n    tag_105:\n      mload(0x40)\n      dup1\n      swap2\n      sub\n      swap1\n      revert\n    tag_104:\n        /* \"contracts/desafio.sol\":3018:3028  msg.sender */\n      caller\n        /* \"contracts/desafio.sol\":2997:3004  desafio */\n      dup2\n        /* \"contracts/desafio.sol\":2997:3015  desafio.desafiante */\n      0x00\n      add\n      0x00\n        /* \"contracts/desafio.sol\":2997:3028  desafio.desafiante = msg.sender */\n      0x0100\n      exp\n      dup2\n      sload\n      dup2\n      0xffffffffffffffffffffffffffffffffffffffff\n      mul\n      not\n      and\n      swap1\n      dup4\n      0xffffffffffffffffffffffffffffffffffffffff\n      and\n      mul\n      or\n      swap1\n      sstore\n      pop\n        /* \"contracts/desafio.sol\":3109:3113  true */\n      0x01\n        /* \"contracts/desafio.sol\":3085:3092  desafio */\n      dup2\n        /* \"contracts/desafio.sol\":3085:3106  desafio.desafioAceito */\n      0x04\n      add\n      0x01\n        /* \"contracts/desafio.sol\":3085:3113  desafio.desafioAceito = true */\n      0x0100\n      exp\n      dup2\n      sload\n      dup2\n      0xff\n      mul\n      not\n      and\n      swap1\n      dup4\n      iszero\n      iszero\n      mul\n      or\n      swap1\n      sstore\n      pop\n        /* \"contracts/desafio.sol\":2283:3121  {... */\n      pop\n        /* \"contracts/desafio.sol\":2189:3121  function aceitarDesafio(uint256 _indiceDesafio) external payable valorApostaValido(msg.value) {... */\n      pop\n      pop\n      jump\t// out\n        /* \"contracts/desafio.sol\":4742:4834  function balance() public view returns(uint) {... */\n    tag_30:\n        /* \"contracts/desafio.sol\":4781:4785  uint */\n      0x00\n        /* \"contracts/desafio.sol\":4805:4826  address(this).balance */\n      selfbalance\n        /* \"contracts/desafio.sol\":4798:4826  return address(this).balance */\n      swap1\n      pop\n        /* \"contracts/desafio.sol\":4742:4834  function balance() public view returns(uint) {... */\n      swap1\n      jump\t// out\n        /* \"contracts/desafio.sol\":4627:4734  function getDesafios() public view returns(Desafio[] memory) {... */\n    tag_35:\n        /* \"contracts/desafio.sol\":4670:4686  Desafio[] memory */\n      0x60\n        /* \"contracts/desafio.sol\":4706:4726  desafiosPorDesafiado */\n      0x01\n        /* \"contracts/desafio.sol\":4699:4726  return desafiosPorDesafiado */\n      dup1\n      sload\n      dup1\n      0x20\n      mul\n      0x20\n      add\n      mload(0x40)\n      swap1\n      dup2\n      add\n      0x40\n      mstore\n      dup1\n      swap3\n      swap2\n      swap1\n      dup2\n      dup2\n      mstore\n      0x20\n      add\n      0x00\n      swap1\n    tag_109:\n      dup3\n      dup3\n      lt\n      iszero\n      tag_110\n      jumpi\n      dup4\n      dup3\n      swap1\n      0x00\n      mstore\n      keccak256(0x00, 0x20)\n      swap1\n      0x05\n      mul\n      add\n      mload(0x40)\n      dup1\n      0xe0\n      add\n      0x40\n      mstore\n      swap1\n      dup2\n      0x00\n      dup3\n      add\n      0x00\n      swap1\n      sload\n      swap1\n      0x0100\n      exp\n      swap1\n      div\n      0xffffffffffffffffffffffffffffffffffffffff\n      and\n      0xffffffffffffffffffffffffffffffffffffffff\n      and\n      0xffffffffffffffffffffffffffffffffffffffff\n      and\n      dup2\n      mstore\n      0x20\n      add\n      0x01\n      dup3\n      add\n      0x00\n      swap1\n      sload\n      swap1\n      0x0100\n      exp\n      swap1\n      div\n      0xffffffffffffffffffffffffffffffffffffffff\n      and\n      0xffffffffffffffffffffffffffffffffffffffff\n      and\n      0xffffffffffffffffffffffffffffffffffffffff\n      and\n      dup2\n      mstore\n      0x20\n      add\n      0x02\n      dup3\n      add\n      0x00\n      swap1\n      sload\n      swap1\n      0x0100\n      exp\n      swap1\n      div\n      0xffffffffffffffffffffffffffffffffffffffff\n      and\n      0xffffffffffffffffffffffffffffffffffffffff\n      and\n      0xffffffffffffffffffffffffffffffffffffffff\n      and\n      dup2\n      mstore\n      0x20\n      add\n      0x03\n      dup3\n      add\n      sload\n      dup2\n      mstore\n      0x20\n      add\n      0x04\n      dup3\n      add\n      0x00\n      swap1\n      sload\n      swap1\n      0x0100\n      exp\n      swap1\n      div\n      0xff\n      and\n      iszero\n      iszero\n      iszero\n      iszero\n      dup2\n      mstore\n      0x20\n      add\n      0x04\n      dup3\n      add\n      0x01\n      swap1\n      sload\n      swap1\n      0x0100\n      exp\n      swap1\n      div\n      0xff\n      and\n      iszero\n      iszero\n      iszero\n      iszero\n      dup2\n      mstore\n      0x20\n      add\n      0x04\n      dup3\n      add\n      0x02\n      swap1\n      sload\n      swap1\n      0x0100\n      exp\n      swap1\n      div\n      0xffffffffffffffffffffffffffffffffffffffff\n      and\n      0xffffffffffffffffffffffffffffffffffffffff\n      and\n      0xffffffffffffffffffffffffffffffffffffffff\n      and\n      dup2\n      mstore\n      pop\n      pop\n      dup2\n      mstore\n      0x20\n      add\n      swap1\n      0x01\n      add\n      swap1\n      jump(tag_109)\n    tag_110:\n      pop\n      pop\n      pop\n      pop\n      swap1\n      pop\n        /* \"contracts/desafio.sol\":4627:4734  function getDesafios() public view returns(Desafio[] memory) {... */\n      swap1\n      jump\t// out\n        /* \"contracts/desafio.sol\":1450:2124  function criarDesafio() external payable valorApostaValido(msg.value) {... */\n    tag_39:\n        /* \"contracts/desafio.sol\":1509:1518  msg.value */\n      callvalue\n        /* \"contracts/desafio.sol\":985:1002  0.0017 * (10**18) */\n      0x060a24181e4000\n        /* \"contracts/desafio.sol\":969:981  _valorAposta */\n      dup2\n        /* \"contracts/desafio.sol\":969:1002  _valorAposta >= 0.0017 * (10**18) */\n      lt\n      iszero\n        /* \"contracts/desafio.sol\":969:1028  _valorAposta >= 0.0017 * (10**18) && _valorAposta <= 10**18 */\n      dup1\n      iszero\n      tag_113\n      jumpi\n      pop\n        /* \"contracts/desafio.sol\":1022:1028  10**18 */\n      0x0de0b6b3a7640000\n        /* \"contracts/desafio.sol\":1006:1018  _valorAposta */\n      dup2\n        /* \"contracts/desafio.sol\":1006:1028  _valorAposta <= 10**18 */\n      gt\n      iszero\n        /* \"contracts/desafio.sol\":969:1028  _valorAposta >= 0.0017 * (10**18) && _valorAposta <= 10**18 */\n    tag_113:\n        /* \"contracts/desafio.sol\":961:1076  require(_valorAposta >= 0.0017 * (10**18) && _valorAposta <= 10**18, \"Valor da aposta fora do intervalo permitido\") */\n      tag_114\n      jumpi\n      mload(0x40)\n      0x08c379a000000000000000000000000000000000000000000000000000000000\n      dup2\n      mstore\n      0x04\n      add\n      tag_115\n      swap1\n      tag_92\n      jump\t// in\n    tag_115:\n      mload(0x40)\n      dup1\n      swap2\n      sub\n      swap1\n      revert\n    tag_114:\n        /* \"contracts/desafio.sol\":1531:1549  address _desafiado */\n      0x00\n        /* \"contracts/desafio.sol\":1552:1562  msg.sender */\n      caller\n        /* \"contracts/desafio.sol\":1531:1562  address _desafiado = msg.sender */\n      swap1\n      pop\n        /* \"contracts/desafio.sol\":1602:1628  Desafio memory novoDesafio */\n      0x00\n        /* \"contracts/desafio.sol\":1631:1895  Desafio({... */\n      mload(0x40)\n      dup1\n      0xe0\n      add\n      0x40\n      mstore\n      dup1\n        /* \"contracts/desafio.sol\":1674:1675  0 */\n      0x00\n        /* \"contracts/desafio.sol\":1631:1895  Desafio({... */\n      0xffffffffffffffffffffffffffffffffffffffff\n      and\n      dup2\n      mstore\n      0x20\n      add\n        /* \"contracts/desafio.sol\":1702:1712  _desafiado */\n      dup4\n        /* \"contracts/desafio.sol\":1631:1895  Desafio({... */\n      0xffffffffffffffffffffffffffffffffffffffff\n      and\n      dup2\n      mstore\n      0x20\n      add\n        /* \"contracts/desafio.sol\":1741:1742  0 */\n      0x00\n        /* \"contracts/desafio.sol\":1631:1895  Desafio({... */\n      0xffffffffffffffffffffffffffffffffffffffff\n      and\n      dup2\n      mstore\n      0x20\n      add\n        /* \"contracts/desafio.sol\":1771:1780  msg.value */\n      callvalue\n        /* \"contracts/desafio.sol\":1631:1895  Desafio({... */\n      dup2\n      mstore\n      0x20\n      add\n        /* \"contracts/desafio.sol\":1809:1813  true */\n      0x01\n        /* \"contracts/desafio.sol\":1631:1895  Desafio({... */\n      iszero\n      iszero\n      dup2\n      mstore\n      0x20\n      add\n        /* \"contracts/desafio.sol\":1843:1848  false */\n      0x00\n        /* \"contracts/desafio.sol\":1631:1895  Desafio({... */\n      iszero\n      iszero\n      dup2\n      mstore\n      0x20\n      add\n        /* \"contracts/desafio.sol\":1881:1882  0 */\n      0x00\n        /* \"contracts/desafio.sol\":1631:1895  Desafio({... */\n      0xffffffffffffffffffffffffffffffffffffffff\n      and\n      dup2\n      mstore\n      pop\n        /* \"contracts/desafio.sol\":1602:1895  Desafio memory novoDesafio = Desafio({... */\n      swap1\n      pop\n        /* \"contracts/desafio.sol\":1961:1981  desafiosPorDesafiado */\n      0x01\n        /* \"contracts/desafio.sol\":1987:1998  novoDesafio */\n      dup2\n        /* \"contracts/desafio.sol\":1961:1999  desafiosPorDesafiado.push(novoDesafio) */\n      swap1\n      dup1\n      0x01\n      dup2\n      sload\n      add\n      dup1\n      dup3\n      sstore\n      dup1\n      swap2\n      pop\n      pop\n      0x01\n      swap1\n      sub\n      swap1\n      0x00\n      mstore\n      keccak256(0x00, 0x20)\n      swap1\n      0x05\n      mul\n      add\n      0x00\n      swap1\n      swap2\n      swap1\n      swap2\n      swap1\n      swap2\n      pop\n      0x00\n      dup3\n      add\n      mload\n      dup2\n      0x00\n      add\n      exp(0x0100, 0x00)\n      dup2\n      sload\n      dup2\n      0xffffffffffffffffffffffffffffffffffffffff\n      mul\n      not\n      and\n      swap1\n      dup4\n      0xffffffffffffffffffffffffffffffffffffffff\n      and\n      mul\n      or\n      swap1\n      sstore\n      pop\n      0x20\n      dup3\n      add\n      mload\n      dup2\n      0x01\n      add\n      exp(0x0100, 0x00)\n      dup2\n      sload\n      dup2\n      0xffffffffffffffffffffffffffffffffffffffff\n      mul\n      not\n      and\n      swap1\n      dup4\n      0xffffffffffffffffffffffffffffffffffffffff\n      and\n      mul\n      or\n      swap1\n      sstore\n      pop\n      0x40\n      dup3\n      add\n      mload\n      dup2\n      0x02\n      add\n      exp(0x0100, 0x00)\n      dup2\n      sload\n      dup2\n      0xffffffffffffffffffffffffffffffffffffffff\n      mul\n      not\n      and\n      swap1\n      dup4\n      0xffffffffffffffffffffffffffffffffffffffff\n      and\n      mul\n      or\n      swap1\n      sstore\n      pop\n      0x60\n      dup3\n      add\n      mload\n      dup2\n      0x03\n      add\n      sstore\n      0x80\n      dup3\n      add\n      mload\n      dup2\n      0x04\n      add\n      exp(0x0100, 0x00)\n      dup2\n      sload\n      dup2\n      0xff\n      mul\n      not\n      and\n      swap1\n      dup4\n      iszero\n      iszero\n      mul\n      or\n      swap1\n      sstore\n      pop\n      0xa0\n      dup3\n      add\n      mload\n      dup2\n      0x04\n      add\n      exp(0x0100, 0x01)\n      dup2\n      sload\n      dup2\n      0xff\n      mul\n      not\n      and\n      swap1\n      dup4\n      iszero\n      iszero\n      mul\n      or\n      swap1\n      sstore\n      pop\n      0xc0\n      dup3\n      add\n      mload\n      dup2\n      0x04\n      add\n      exp(0x0100, 0x02)\n      dup2\n      sload\n      dup2\n      0xffffffffffffffffffffffffffffffffffffffff\n      mul\n      not\n      and\n      swap1\n      dup4\n      0xffffffffffffffffffffffffffffffffffffffff\n      and\n      mul\n      or\n      swap1\n      sstore\n      pop\n      pop\n      pop\n        /* \"contracts/desafio.sol\":2094:2104  _desafiado */\n      dup2\n        /* \"contracts/desafio.sol\":2068:2116  DesafioCriado(address(0), _desafiado, msg.value) */\n      0xffffffffffffffffffffffffffffffffffffffff\n      and\n        /* \"contracts/desafio.sol\":2090:2091  0 */\n      0x00\n        /* \"contracts/desafio.sol\":2068:2116  DesafioCriado(address(0), _desafiado, msg.value) */\n      0xffffffffffffffffffffffffffffffffffffffff\n      and\n      0x9f35d8b2b608c7fb87cbd5bb99303d30bb4c28312a9cc11a5ff23a06a21b724b\n        /* \"contracts/desafio.sol\":2106:2115  msg.value */\n      callvalue\n        /* \"contracts/desafio.sol\":2068:2116  DesafioCriado(address(0), _desafiado, msg.value) */\n      mload(0x40)\n      tag_118\n      swap2\n      swap1\n      tag_32\n      jump\t// in\n    tag_118:\n      mload(0x40)\n      dup1\n      swap2\n      sub\n      swap1\n      log3\n        /* \"contracts/desafio.sol\":1520:2124  {... */\n      pop\n      pop\n        /* \"contracts/desafio.sol\":1450:2124  function criarDesafio() external payable valorApostaValido(msg.value) {... */\n      pop\n      jump\t// out\n        /* \"#utility.yul\":88:205   */\n    tag_120:\n        /* \"#utility.yul\":197:198   */\n      0x00\n        /* \"#utility.yul\":194:195   */\n      dup1\n        /* \"#utility.yul\":187:199   */\n      revert\n        /* \"#utility.yul\":334:411   */\n    tag_122:\n        /* \"#utility.yul\":371:378   */\n      0x00\n        /* \"#utility.yul\":400:405   */\n      dup2\n        /* \"#utility.yul\":389:405   */\n      swap1\n      pop\n        /* \"#utility.yul\":334:411   */\n      swap2\n      swap1\n      pop\n      jump\t// out\n        /* \"#utility.yul\":417:539   */\n    tag_123:\n        /* \"#utility.yul\":490:514   */\n      tag_168\n        /* \"#utility.yul\":508:513   */\n      dup2\n        /* \"#utility.yul\":490:514   */\n      tag_122\n      jump\t// in\n    tag_168:\n        /* \"#utility.yul\":483:488   */\n      dup2\n        /* \"#utility.yul\":480:515   */\n      eq\n        /* \"#utility.yul\":470:533   */\n      tag_169\n      jumpi\n        /* \"#utility.yul\":529:530   */\n      0x00\n        /* \"#utility.yul\":526:527   */\n      dup1\n        /* \"#utility.yul\":519:531   */\n      revert\n        /* \"#utility.yul\":470:533   */\n    tag_169:\n        /* \"#utility.yul\":417:539   */\n      pop\n      jump\t// out\n        /* \"#utility.yul\":545:684   */\n    tag_124:\n        /* \"#utility.yul\":591:596   */\n      0x00\n        /* \"#utility.yul\":629:635   */\n      dup2\n        /* \"#utility.yul\":616:636   */\n      calldataload\n        /* \"#utility.yul\":607:636   */\n      swap1\n      pop\n        /* \"#utility.yul\":645:678   */\n      tag_171\n        /* \"#utility.yul\":672:677   */\n      dup2\n        /* \"#utility.yul\":645:678   */\n      tag_123\n      jump\t// in\n    tag_171:\n        /* \"#utility.yul\":545:684   */\n      swap3\n      swap2\n      pop\n      pop\n      jump\t// out\n        /* \"#utility.yul\":690:1019   */\n    tag_13:\n        /* \"#utility.yul\":749:755   */\n      0x00\n        /* \"#utility.yul\":798:800   */\n      0x20\n        /* \"#utility.yul\":786:795   */\n      dup3\n        /* \"#utility.yul\":777:784   */\n      dup5\n        /* \"#utility.yul\":773:796   */\n      sub\n        /* \"#utility.yul\":769:801   */\n      slt\n        /* \"#utility.yul\":766:885   */\n      iszero\n      tag_173\n      jumpi\n        /* \"#utility.yul\":804:883   */\n      tag_174\n      tag_120\n      jump\t// in\n    tag_174:\n        /* \"#utility.yul\":766:885   */\n    tag_173:\n        /* \"#utility.yul\":924:925   */\n      0x00\n        /* \"#utility.yul\":949:1002   */\n      tag_175\n        /* \"#utility.yul\":994:1001   */\n      dup5\n        /* \"#utility.yul\":985:991   */\n      dup3\n        /* \"#utility.yul\":974:983   */\n      dup6\n        /* \"#utility.yul\":970:992   */\n      add\n        /* \"#utility.yul\":949:1002   */\n      tag_124\n      jump\t// in\n    tag_175:\n        /* \"#utility.yul\":939:1002   */\n      swap2\n      pop\n        /* \"#utility.yul\":895:1012   */\n      pop\n        /* \"#utility.yul\":690:1019   */\n      swap3\n      swap2\n      pop\n      pop\n      jump\t// out\n        /* \"#utility.yul\":1025:1151   */\n    tag_125:\n        /* \"#utility.yul\":1062:1069   */\n      0x00\n        /* \"#utility.yul\":1102:1144   */\n      0xffffffffffffffffffffffffffffffffffffffff\n        /* \"#utility.yul\":1095:1100   */\n      dup3\n        /* \"#utility.yul\":1091:1145   */\n      and\n        /* \"#utility.yul\":1080:1145   */\n      swap1\n      pop\n        /* \"#utility.yul\":1025:1151   */\n      swap2\n      swap1\n      pop\n      jump\t// out\n        /* \"#utility.yul\":1157:1253   */\n    tag_126:\n        /* \"#utility.yul\":1194:1201   */\n      0x00\n        /* \"#utility.yul\":1223:1247   */\n      tag_178\n        /* \"#utility.yul\":1241:1246   */\n      dup3\n        /* \"#utility.yul\":1223:1247   */\n      tag_125\n      jump\t// in\n    tag_178:\n        /* \"#utility.yul\":1212:1247   */\n      swap1\n      pop\n        /* \"#utility.yul\":1157:1253   */\n      swap2\n      swap1\n      pop\n      jump\t// out\n        /* \"#utility.yul\":1259:1381   */\n    tag_127:\n        /* \"#utility.yul\":1332:1356   */\n      tag_180\n        /* \"#utility.yul\":1350:1355   */\n      dup2\n        /* \"#utility.yul\":1332:1356   */\n      tag_126\n      jump\t// in\n    tag_180:\n        /* \"#utility.yul\":1325:1330   */\n      dup2\n        /* \"#utility.yul\":1322:1357   */\n      eq\n        /* \"#utility.yul\":1312:1375   */\n      tag_181\n      jumpi\n        /* \"#utility.yul\":1371:1372   */\n      0x00\n        /* \"#utility.yul\":1368:1369   */\n      dup1\n        /* \"#utility.yul\":1361:1373   */\n      revert\n        /* \"#utility.yul\":1312:1375   */\n    tag_181:\n        /* \"#utility.yul\":1259:1381   */\n      pop\n      jump\t// out\n        /* \"#utility.yul\":1387:1526   */\n    tag_128:\n        /* \"#utility.yul\":1433:1438   */\n      0x00\n        /* \"#utility.yul\":1471:1477   */\n      dup2\n        /* \"#utility.yul\":1458:1478   */\n      calldataload\n        /* \"#utility.yul\":1449:1478   */\n      swap1\n      pop\n        /* \"#utility.yul\":1487:1520   */\n      tag_183\n        /* \"#utility.yul\":1514:1519   */\n      dup2\n        /* \"#utility.yul\":1487:1520   */\n      tag_127\n      jump\t// in\n    tag_183:\n        /* \"#utility.yul\":1387:1526   */\n      swap3\n      swap2\n      pop\n      pop\n      jump\t// out\n        /* \"#utility.yul\":1532:2006   */\n    tag_17:\n        /* \"#utility.yul\":1600:1606   */\n      0x00\n        /* \"#utility.yul\":1608:1614   */\n      dup1\n        /* \"#utility.yul\":1657:1659   */\n      0x40\n        /* \"#utility.yul\":1645:1654   */\n      dup4\n        /* \"#utility.yul\":1636:1643   */\n      dup6\n        /* \"#utility.yul\":1632:1655   */\n      sub\n        /* \"#utility.yul\":1628:1660   */\n      slt\n        /* \"#utility.yul\":1625:1744   */\n      iszero\n      tag_185\n      jumpi\n        /* \"#utility.yul\":1663:1742   */\n      tag_186\n      tag_120\n      jump\t// in\n    tag_186:\n        /* \"#utility.yul\":1625:1744   */\n    tag_185:\n        /* \"#utility.yul\":1783:1784   */\n      0x00\n        /* \"#utility.yul\":1808:1861   */\n      tag_187\n        /* \"#utility.yul\":1853:1860   */\n      dup6\n        /* \"#utility.yul\":1844:1850   */\n      dup3\n        /* \"#utility.yul\":1833:1842   */\n      dup7\n        /* \"#utility.yul\":1829:1851   */\n      add\n        /* \"#utility.yul\":1808:1861   */\n      tag_124\n      jump\t// in\n    tag_187:\n        /* \"#utility.yul\":1798:1861   */\n      swap3\n      pop\n        /* \"#utility.yul\":1754:1871   */\n      pop\n        /* \"#utility.yul\":1910:1912   */\n      0x20\n        /* \"#utility.yul\":1936:1989   */\n      tag_188\n        /* \"#utility.yul\":1981:1988   */\n      dup6\n        /* \"#utility.yul\":1972:1978   */\n      dup3\n        /* \"#utility.yul\":1961:1970   */\n      dup7\n        /* \"#utility.yul\":1957:1979   */\n      add\n        /* \"#utility.yul\":1936:1989   */\n      tag_128\n      jump\t// in\n    tag_188:\n        /* \"#utility.yul\":1926:1989   */\n      swap2\n      pop\n        /* \"#utility.yul\":1881:1999   */\n      pop\n        /* \"#utility.yul\":1532:2006   */\n      swap3\n      pop\n      swap3\n      swap1\n      pop\n      jump\t// out\n        /* \"#utility.yul\":2012:2130   */\n    tag_129:\n        /* \"#utility.yul\":2099:2123   */\n      tag_190\n        /* \"#utility.yul\":2117:2122   */\n      dup2\n        /* \"#utility.yul\":2099:2123   */\n      tag_126\n      jump\t// in\n    tag_190:\n        /* \"#utility.yul\":2094:2097   */\n      dup3\n        /* \"#utility.yul\":2087:2124   */\n      mstore\n        /* \"#utility.yul\":2012:2130   */\n      pop\n      pop\n      jump\t// out\n        /* \"#utility.yul\":2136:2254   */\n    tag_130:\n        /* \"#utility.yul\":2223:2247   */\n      tag_192\n        /* \"#utility.yul\":2241:2246   */\n      dup2\n        /* \"#utility.yul\":2223:2247   */\n      tag_122\n      jump\t// in\n    tag_192:\n        /* \"#utility.yul\":2218:2221   */\n      dup3\n        /* \"#utility.yul\":2211:2248   */\n      mstore\n        /* \"#utility.yul\":2136:2254   */\n      pop\n      pop\n      jump\t// out\n        /* \"#utility.yul\":2260:2350   */\n    tag_131:\n        /* \"#utility.yul\":2294:2301   */\n      0x00\n        /* \"#utility.yul\":2337:2342   */\n      dup2\n        /* \"#utility.yul\":2330:2343   */\n      iszero\n        /* \"#utility.yul\":2323:2344   */\n      iszero\n        /* \"#utility.yul\":2312:2344   */\n      swap1\n      pop\n        /* \"#utility.yul\":2260:2350   */\n      swap2\n      swap1\n      pop\n      jump\t// out\n        /* \"#utility.yul\":2356:2465   */\n    tag_132:\n        /* \"#utility.yul\":2437:2458   */\n      tag_195\n        /* \"#utility.yul\":2452:2457   */\n      dup2\n        /* \"#utility.yul\":2437:2458   */\n      tag_131\n      jump\t// in\n    tag_195:\n        /* \"#utility.yul\":2432:2435   */\n      dup3\n        /* \"#utility.yul\":2425:2459   */\n      mstore\n        /* \"#utility.yul\":2356:2465   */\n      pop\n      pop\n      jump\t// out\n        /* \"#utility.yul\":2471:3333   */\n    tag_24:\n        /* \"#utility.yul\":2720:2724   */\n      0x00\n        /* \"#utility.yul\":2758:2761   */\n      0xe0\n        /* \"#utility.yul\":2747:2756   */\n      dup3\n        /* \"#utility.yul\":2743:2762   */\n      add\n        /* \"#utility.yul\":2735:2762   */\n      swap1\n      pop\n        /* \"#utility.yul\":2772:2843   */\n      tag_197\n        /* \"#utility.yul\":2840:2841   */\n      0x00\n        /* \"#utility.yul\":2829:2838   */\n      dup4\n        /* \"#utility.yul\":2825:2842   */\n      add\n        /* \"#utility.yul\":2816:2822   */\n      dup11\n        /* \"#utility.yul\":2772:2843   */\n      tag_129\n      jump\t// in\n    tag_197:\n        /* \"#utility.yul\":2853:2925   */\n      tag_198\n        /* \"#utility.yul\":2921:2923   */\n      0x20\n        /* \"#utility.yul\":2910:2919   */\n      dup4\n        /* \"#utility.yul\":2906:2924   */\n      add\n        /* \"#utility.yul\":2897:2903   */\n      dup10\n        /* \"#utility.yul\":2853:2925   */\n      tag_129\n      jump\t// in\n    tag_198:\n        /* \"#utility.yul\":2935:3007   */\n      tag_199\n        /* \"#utility.yul\":3003:3005   */\n      0x40\n        /* \"#utility.yul\":2992:3001   */\n      dup4\n        /* \"#utility.yul\":2988:3006   */\n      add\n        /* \"#utility.yul\":2979:2985   */\n      dup9\n        /* \"#utility.yul\":2935:3007   */\n      tag_129\n      jump\t// in\n    tag_199:\n        /* \"#utility.yul\":3017:3089   */\n      tag_200\n        /* \"#utility.yul\":3085:3087   */\n      0x60\n        /* \"#utility.yul\":3074:3083   */\n      dup4\n        /* \"#utility.yul\":3070:3088   */\n      add\n        /* \"#utility.yul\":3061:3067   */\n      dup8\n        /* \"#utility.yul\":3017:3089   */\n      tag_130\n      jump\t// in\n    tag_200:\n        /* \"#utility.yul\":3099:3166   */\n      tag_201\n        /* \"#utility.yul\":3161:3164   */\n      0x80\n        /* \"#utility.yul\":3150:3159   */\n      dup4\n        /* \"#utility.yul\":3146:3165   */\n      add\n        /* \"#utility.yul\":3137:3143   */\n      dup7\n        /* \"#utility.yul\":3099:3166   */\n      tag_132\n      jump\t// in\n    tag_201:\n        /* \"#utility.yul\":3176:3243   */\n      tag_202\n        /* \"#utility.yul\":3238:3241   */\n      0xa0\n        /* \"#utility.yul\":3227:3236   */\n      dup4\n        /* \"#utility.yul\":3223:3242   */\n      add\n        /* \"#utility.yul\":3214:3220   */\n      dup6\n        /* \"#utility.yul\":3176:3243   */\n      tag_132\n      jump\t// in\n    tag_202:\n        /* \"#utility.yul\":3253:3326   */\n      tag_203\n        /* \"#utility.yul\":3321:3324   */\n      0xc0\n        /* \"#utility.yul\":3310:3319   */\n      dup4\n        /* \"#utility.yul\":3306:3325   */\n      add\n        /* \"#utility.yul\":3297:3303   */\n      dup5\n        /* \"#utility.yul\":3253:3326   */\n      tag_129\n      jump\t// in\n    tag_203:\n        /* \"#utility.yul\":2471:3333   */\n      swap9\n      swap8\n      pop\n      pop\n      pop\n      pop\n      pop\n      pop\n      pop\n      pop\n      jump\t// out\n        /* \"#utility.yul\":3339:3561   */\n    tag_32:\n        /* \"#utility.yul\":3432:3436   */\n      0x00\n        /* \"#utility.yul\":3470:3472   */\n      0x20\n        /* \"#utility.yul\":3459:3468   */\n      dup3\n        /* \"#utility.yul\":3455:3473   */\n      add\n        /* \"#utility.yul\":3447:3473   */\n      swap1\n      pop\n        /* \"#utility.yul\":3483:3554   */\n      tag_205\n        /* \"#utility.yul\":3551:3552   */\n      0x00\n        /* \"#utility.yul\":3540:3549   */\n      dup4\n        /* \"#utility.yul\":3536:3553   */\n      add\n        /* \"#utility.yul\":3527:3533   */\n      dup5\n        /* \"#utility.yul\":3483:3554   */\n      tag_130\n      jump\t// in\n    tag_205:\n        /* \"#utility.yul\":3339:3561   */\n      swap3\n      swap2\n      pop\n      pop\n      jump\t// out\n        /* \"#utility.yul\":3567:3704   */\n    tag_133:\n        /* \"#utility.yul\":3657:3663   */\n      0x00\n        /* \"#utility.yul\":3691:3696   */\n      dup2\n        /* \"#utility.yul\":3685:3697   */\n      mload\n        /* \"#utility.yul\":3675:3697   */\n      swap1\n      pop\n        /* \"#utility.yul\":3567:3704   */\n      swap2\n      swap1\n      pop\n      jump\t// out\n        /* \"#utility.yul\":3710:3917   */\n    tag_134:\n        /* \"#utility.yul\":3832:3843   */\n      0x00\n        /* \"#utility.yul\":3866:3872   */\n      dup3\n        /* \"#utility.yul\":3861:3864   */\n      dup3\n        /* \"#utility.yul\":3854:3873   */\n      mstore\n        /* \"#utility.yul\":3906:3910   */\n      0x20\n        /* \"#utility.yul\":3901:3904   */\n      dup3\n        /* \"#utility.yul\":3897:3911   */\n      add\n        /* \"#utility.yul\":3882:3911   */\n      swap1\n      pop\n        /* \"#utility.yul\":3710:3917   */\n      swap3\n      swap2\n      pop\n      pop\n      jump\t// out\n        /* \"#utility.yul\":3923:4078   */\n    tag_135:\n        /* \"#utility.yul\":4013:4017   */\n      0x00\n        /* \"#utility.yul\":4036:4039   */\n      dup2\n        /* \"#utility.yul\":4028:4039   */\n      swap1\n      pop\n        /* \"#utility.yul\":4066:4070   */\n      0x20\n        /* \"#utility.yul\":4061:4064   */\n      dup3\n        /* \"#utility.yul\":4057:4071   */\n      add\n        /* \"#utility.yul\":4049:4071   */\n      swap1\n      pop\n        /* \"#utility.yul\":3923:4078   */\n      swap2\n      swap1\n      pop\n      jump\t// out\n        /* \"#utility.yul\":4084:4192   */\n    tag_136:\n        /* \"#utility.yul\":4161:4185   */\n      tag_210\n        /* \"#utility.yul\":4179:4184   */\n      dup2\n        /* \"#utility.yul\":4161:4185   */\n      tag_126\n      jump\t// in\n    tag_210:\n        /* \"#utility.yul\":4156:4159   */\n      dup3\n        /* \"#utility.yul\":4149:4186   */\n      mstore\n        /* \"#utility.yul\":4084:4192   */\n      pop\n      pop\n      jump\t// out\n        /* \"#utility.yul\":4198:4306   */\n    tag_137:\n        /* \"#utility.yul\":4275:4299   */\n      tag_212\n        /* \"#utility.yul\":4293:4298   */\n      dup2\n        /* \"#utility.yul\":4275:4299   */\n      tag_122\n      jump\t// in\n    tag_212:\n        /* \"#utility.yul\":4270:4273   */\n      dup3\n        /* \"#utility.yul\":4263:4300   */\n      mstore\n        /* \"#utility.yul\":4198:4306   */\n      pop\n      pop\n      jump\t// out\n        /* \"#utility.yul\":4312:4411   */\n    tag_138:\n        /* \"#utility.yul\":4383:4404   */\n      tag_214\n        /* \"#utility.yul\":4398:4403   */\n      dup2\n        /* \"#utility.yul\":4383:4404   */\n      tag_131\n      jump\t// in\n    tag_214:\n        /* \"#utility.yul\":4378:4381   */\n      dup3\n        /* \"#utility.yul\":4371:4405   */\n      mstore\n        /* \"#utility.yul\":4312:4411   */\n      pop\n      pop\n      jump\t// out\n        /* \"#utility.yul\":4489:5879   */\n    tag_139:\n        /* \"#utility.yul\":4622:4626   */\n      0xe0\n        /* \"#utility.yul\":4617:4620   */\n      dup3\n        /* \"#utility.yul\":4613:4627   */\n      add\n        /* \"#utility.yul\":4715:4719   */\n      0x00\n        /* \"#utility.yul\":4708:4713   */\n      dup3\n        /* \"#utility.yul\":4704:4720   */\n      add\n        /* \"#utility.yul\":4698:4721   */\n      mload\n        /* \"#utility.yul\":4734:4797   */\n      tag_216\n        /* \"#utility.yul\":4791:4795   */\n      0x00\n        /* \"#utility.yul\":4786:4789   */\n      dup6\n        /* \"#utility.yul\":4782:4796   */\n      add\n        /* \"#utility.yul\":4768:4780   */\n      dup3\n        /* \"#utility.yul\":4734:4797   */\n      tag_136\n      jump\t// in\n    tag_216:\n        /* \"#utility.yul\":4637:4807   */\n      pop\n        /* \"#utility.yul\":4894:4898   */\n      0x20\n        /* \"#utility.yul\":4887:4892   */\n      dup3\n        /* \"#utility.yul\":4883:4899   */\n      add\n        /* \"#utility.yul\":4877:4900   */\n      mload\n        /* \"#utility.yul\":4913:4976   */\n      tag_217\n        /* \"#utility.yul\":4970:4974   */\n      0x20\n        /* \"#utility.yul\":4965:4968   */\n      dup6\n        /* \"#utility.yul\":4961:4975   */\n      add\n        /* \"#utility.yul\":4947:4959   */\n      dup3\n        /* \"#utility.yul\":4913:4976   */\n      tag_136\n      jump\t// in\n    tag_217:\n        /* \"#utility.yul\":4817:4986   */\n      pop\n        /* \"#utility.yul\":5068:5072   */\n      0x40\n        /* \"#utility.yul\":5061:5066   */\n      dup3\n        /* \"#utility.yul\":5057:5073   */\n      add\n        /* \"#utility.yul\":5051:5074   */\n      mload\n        /* \"#utility.yul\":5087:5150   */\n      tag_218\n        /* \"#utility.yul\":5144:5148   */\n      0x40\n        /* \"#utility.yul\":5139:5142   */\n      dup6\n        /* \"#utility.yul\":5135:5149   */\n      add\n        /* \"#utility.yul\":5121:5133   */\n      dup3\n        /* \"#utility.yul\":5087:5150   */\n      tag_136\n      jump\t// in\n    tag_218:\n        /* \"#utility.yul\":4996:5160   */\n      pop\n        /* \"#utility.yul\":5249:5253   */\n      0x60\n        /* \"#utility.yul\":5242:5247   */\n      dup3\n        /* \"#utility.yul\":5238:5254   */\n      add\n        /* \"#utility.yul\":5232:5255   */\n      mload\n        /* \"#utility.yul\":5268:5331   */\n      tag_219\n        /* \"#utility.yul\":5325:5329   */\n      0x60\n        /* \"#utility.yul\":5320:5323   */\n      dup6\n        /* \"#utility.yul\":5316:5330   */\n      add\n        /* \"#utility.yul\":5302:5314   */\n      dup3\n        /* \"#utility.yul\":5268:5331   */\n      tag_137\n      jump\t// in\n    tag_219:\n        /* \"#utility.yul\":5170:5341   */\n      pop\n        /* \"#utility.yul\":5431:5435   */\n      0x80\n        /* \"#utility.yul\":5424:5429   */\n      dup3\n        /* \"#utility.yul\":5420:5436   */\n      add\n        /* \"#utility.yul\":5414:5437   */\n      mload\n        /* \"#utility.yul\":5450:5507   */\n      tag_220\n        /* \"#utility.yul\":5501:5505   */\n      0x80\n        /* \"#utility.yul\":5496:5499   */\n      dup6\n        /* \"#utility.yul\":5492:5506   */\n      add\n        /* \"#utility.yul\":5478:5490   */\n      dup3\n        /* \"#utility.yul\":5450:5507   */\n      tag_138\n      jump\t// in\n    tag_220:\n        /* \"#utility.yul\":5351:5517   */\n      pop\n        /* \"#utility.yul\":5608:5612   */\n      0xa0\n        /* \"#utility.yul\":5601:5606   */\n      dup3\n        /* \"#utility.yul\":5597:5613   */\n      add\n        /* \"#utility.yul\":5591:5614   */\n      mload\n        /* \"#utility.yul\":5627:5684   */\n      tag_221\n        /* \"#utility.yul\":5678:5682   */\n      0xa0\n        /* \"#utility.yul\":5673:5676   */\n      dup6\n        /* \"#utility.yul\":5669:5683   */\n      add\n        /* \"#utility.yul\":5655:5667   */\n      dup3\n        /* \"#utility.yul\":5627:5684   */\n      tag_138\n      jump\t// in\n    tag_221:\n        /* \"#utility.yul\":5527:5694   */\n      pop\n        /* \"#utility.yul\":5780:5784   */\n      0xc0\n        /* \"#utility.yul\":5773:5778   */\n      dup3\n        /* \"#utility.yul\":5769:5785   */\n      add\n        /* \"#utility.yul\":5763:5786   */\n      mload\n        /* \"#utility.yul\":5799:5862   */\n      tag_222\n        /* \"#utility.yul\":5856:5860   */\n      0xc0\n        /* \"#utility.yul\":5851:5854   */\n      dup6\n        /* \"#utility.yul\":5847:5861   */\n      add\n        /* \"#utility.yul\":5833:5845   */\n      dup3\n        /* \"#utility.yul\":5799:5862   */\n      tag_136\n      jump\t// in\n    tag_222:\n        /* \"#utility.yul\":5704:5872   */\n      pop\n        /* \"#utility.yul\":4591:5879   */\n      pop\n        /* \"#utility.yul\":4489:5879   */\n      pop\n      pop\n      jump\t// out\n        /* \"#utility.yul\":5885:6156   */\n    tag_140:\n        /* \"#utility.yul\":6000:6010   */\n      0x00\n        /* \"#utility.yul\":6021:6113   */\n      tag_224\n        /* \"#utility.yul\":6109:6112   */\n      dup4\n        /* \"#utility.yul\":6101:6107   */\n      dup4\n        /* \"#utility.yul\":6021:6113   */\n      tag_139\n      jump\t// in\n    tag_224:\n        /* \"#utility.yul\":6145:6149   */\n      0xe0\n        /* \"#utility.yul\":6140:6143   */\n      dup4\n        /* \"#utility.yul\":6136:6150   */\n      add\n        /* \"#utility.yul\":6122:6150   */\n      swap1\n      pop\n        /* \"#utility.yul\":5885:6156   */\n      swap3\n      swap2\n      pop\n      pop\n      jump\t// out\n        /* \"#utility.yul\":6162:6298   */\n    tag_141:\n        /* \"#utility.yul\":6255:6259   */\n      0x00\n        /* \"#utility.yul\":6287:6291   */\n      0x20\n        /* \"#utility.yul\":6282:6285   */\n      dup3\n        /* \"#utility.yul\":6278:6292   */\n      add\n        /* \"#utility.yul\":6270:6292   */\n      swap1\n      pop\n        /* \"#utility.yul\":6162:6298   */\n      swap2\n      swap1\n      pop\n      jump\t// out\n        /* \"#utility.yul\":6380:7296   */\n    tag_142:\n        /* \"#utility.yul\":6545:6548   */\n      0x00\n        /* \"#utility.yul\":6574:6651   */\n      tag_227\n        /* \"#utility.yul\":6645:6650   */\n      dup3\n        /* \"#utility.yul\":6574:6651   */\n      tag_133\n      jump\t// in\n    tag_227:\n        /* \"#utility.yul\":6667:6776   */\n      tag_228\n        /* \"#utility.yul\":6769:6775   */\n      dup2\n        /* \"#utility.yul\":6764:6767   */\n      dup6\n        /* \"#utility.yul\":6667:6776   */\n      tag_134\n      jump\t// in\n    tag_228:\n        /* \"#utility.yul\":6660:6776   */\n      swap4\n      pop\n        /* \"#utility.yul\":6800:6879   */\n      tag_229\n        /* \"#utility.yul\":6873:6878   */\n      dup4\n        /* \"#utility.yul\":6800:6879   */\n      tag_135\n      jump\t// in\n    tag_229:\n        /* \"#utility.yul\":6902:6909   */\n      dup1\n        /* \"#utility.yul\":6933:6934   */\n      0x00\n        /* \"#utility.yul\":6918:7271   */\n    tag_230:\n        /* \"#utility.yul\":6943:6949   */\n      dup4\n        /* \"#utility.yul\":6940:6941   */\n      dup2\n        /* \"#utility.yul\":6937:6950   */\n      lt\n        /* \"#utility.yul\":6918:7271   */\n      iszero\n      tag_232\n      jumpi\n        /* \"#utility.yul\":7019:7025   */\n      dup2\n        /* \"#utility.yul\":7013:7026   */\n      mload\n        /* \"#utility.yul\":7046:7155   */\n      tag_233\n        /* \"#utility.yul\":7151:7154   */\n      dup9\n        /* \"#utility.yul\":7136:7149   */\n      dup3\n        /* \"#utility.yul\":7046:7155   */\n      tag_140\n      jump\t// in\n    tag_233:\n        /* \"#utility.yul\":7039:7155   */\n      swap8\n      pop\n        /* \"#utility.yul\":7178:7261   */\n      tag_234\n        /* \"#utility.yul\":7254:7260   */\n      dup4\n        /* \"#utility.yul\":7178:7261   */\n      tag_141\n      jump\t// in\n    tag_234:\n        /* \"#utility.yul\":7168:7261   */\n      swap3\n      pop\n        /* \"#utility.yul\":6978:7271   */\n      pop\n        /* \"#utility.yul\":6965:6966   */\n      0x01\n        /* \"#utility.yul\":6962:6963   */\n      dup2\n        /* \"#utility.yul\":6958:6967   */\n      add\n        /* \"#utility.yul\":6953:6967   */\n      swap1\n      pop\n        /* \"#utility.yul\":6918:7271   */\n      jump(tag_230)\n    tag_232:\n        /* \"#utility.yul\":6922:6936   */\n      pop\n        /* \"#utility.yul\":7287:7290   */\n      dup6\n        /* \"#utility.yul\":7280:7290   */\n      swap4\n      pop\n        /* \"#utility.yul\":6550:7296   */\n      pop\n      pop\n      pop\n        /* \"#utility.yul\":6380:7296   */\n      swap3\n      swap2\n      pop\n      pop\n      jump\t// out\n        /* \"#utility.yul\":7302:7767   */\n    tag_37:\n        /* \"#utility.yul\":7491:7495   */\n      0x00\n        /* \"#utility.yul\":7529:7531   */\n      0x20\n        /* \"#utility.yul\":7518:7527   */\n      dup3\n        /* \"#utility.yul\":7514:7532   */\n      add\n        /* \"#utility.yul\":7506:7532   */\n      swap1\n      pop\n        /* \"#utility.yul\":7578:7587   */\n      dup2\n        /* \"#utility.yul\":7572:7576   */\n      dup2\n        /* \"#utility.yul\":7568:7588   */\n      sub\n        /* \"#utility.yul\":7564:7565   */\n      0x00\n        /* \"#utility.yul\":7553:7562   */\n      dup4\n        /* \"#utility.yul\":7549:7566   */\n      add\n        /* \"#utility.yul\":7542:7589   */\n      mstore\n        /* \"#utility.yul\":7606:7760   */\n      tag_236\n        /* \"#utility.yul\":7755:7759   */\n      dup2\n        /* \"#utility.yul\":7746:7752   */\n      dup5\n        /* \"#utility.yul\":7606:7760   */\n      tag_142\n      jump\t// in\n    tag_236:\n        /* \"#utility.yul\":7598:7760   */\n      swap1\n      pop\n        /* \"#utility.yul\":7302:7767   */\n      swap3\n      swap2\n      pop\n      pop\n      jump\t// out\n        /* \"#utility.yul\":7773:7953   */\n    tag_43:\n        /* \"#utility.yul\":7821:7898   */\n      0x4e487b7100000000000000000000000000000000000000000000000000000000\n        /* \"#utility.yul\":7818:7819   */\n      0x00\n        /* \"#utility.yul\":7811:7899   */\n      mstore\n        /* \"#utility.yul\":7918:7922   */\n      0x32\n        /* \"#utility.yul\":7915:7916   */\n      0x04\n        /* \"#utility.yul\":7908:7923   */\n      mstore\n        /* \"#utility.yul\":7942:7946   */\n      0x24\n        /* \"#utility.yul\":7939:7940   */\n      0x00\n        /* \"#utility.yul\":7932:7947   */\n      revert\n        /* \"#utility.yul\":7959:8128   */\n    tag_143:\n        /* \"#utility.yul\":8043:8054   */\n      0x00\n        /* \"#utility.yul\":8077:8083   */\n      dup3\n        /* \"#utility.yul\":8072:8075   */\n      dup3\n        /* \"#utility.yul\":8065:8084   */\n      mstore\n        /* \"#utility.yul\":8117:8121   */\n      0x20\n        /* \"#utility.yul\":8112:8115   */\n      dup3\n        /* \"#utility.yul\":8108:8122   */\n      add\n        /* \"#utility.yul\":8093:8122   */\n      swap1\n      pop\n        /* \"#utility.yul\":7959:8128   */\n      swap3\n      swap2\n      pop\n      pop\n      jump\t// out\n        /* \"#utility.yul\":8134:8316   */\n    tag_144:\n        /* \"#utility.yul\":8274:8308   */\n      0x4f2064657361666961646f206e616f20706f646520736572206f206a75697a2e\n        /* \"#utility.yul\":8270:8271   */\n      0x00\n        /* \"#utility.yul\":8262:8268   */\n      dup3\n        /* \"#utility.yul\":8258:8272   */\n      add\n        /* \"#utility.yul\":8251:8309   */\n      mstore\n        /* \"#utility.yul\":8134:8316   */\n      pop\n      jump\t// out\n        /* \"#utility.yul\":8322:8688   */\n    tag_145:\n        /* \"#utility.yul\":8464:8467   */\n      0x00\n        /* \"#utility.yul\":8485:8552   */\n      tag_241\n        /* \"#utility.yul\":8549:8551   */\n      0x20\n        /* \"#utility.yul\":8544:8547   */\n      dup4\n        /* \"#utility.yul\":8485:8552   */\n      tag_143\n      jump\t// in\n    tag_241:\n        /* \"#utility.yul\":8478:8552   */\n      swap2\n      pop\n        /* \"#utility.yul\":8561:8654   */\n      tag_242\n        /* \"#utility.yul\":8650:8653   */\n      dup3\n        /* \"#utility.yul\":8561:8654   */\n      tag_144\n      jump\t// in\n    tag_242:\n        /* \"#utility.yul\":8679:8681   */\n      0x20\n        /* \"#utility.yul\":8674:8677   */\n      dup3\n        /* \"#utility.yul\":8670:8682   */\n      add\n        /* \"#utility.yul\":8663:8682   */\n      swap1\n      pop\n        /* \"#utility.yul\":8322:8688   */\n      swap2\n      swap1\n      pop\n      jump\t// out\n        /* \"#utility.yul\":8694:9113   */\n    tag_47:\n        /* \"#utility.yul\":8860:8864   */\n      0x00\n        /* \"#utility.yul\":8898:8900   */\n      0x20\n        /* \"#utility.yul\":8887:8896   */\n      dup3\n        /* \"#utility.yul\":8883:8901   */\n      add\n        /* \"#utility.yul\":8875:8901   */\n      swap1\n      pop\n        /* \"#utility.yul\":8947:8956   */\n      dup2\n        /* \"#utility.yul\":8941:8945   */\n      dup2\n        /* \"#utility.yul\":8937:8957   */\n      sub\n        /* \"#utility.yul\":8933:8934   */\n      0x00\n        /* \"#utility.yul\":8922:8931   */\n      dup4\n        /* \"#utility.yul\":8918:8935   */\n      add\n        /* \"#utility.yul\":8911:8958   */\n      mstore\n        /* \"#utility.yul\":8975:9106   */\n      tag_244\n        /* \"#utility.yul\":9101:9105   */\n      dup2\n        /* \"#utility.yul\":8975:9106   */\n      tag_145\n      jump\t// in\n    tag_244:\n        /* \"#utility.yul\":8967:9106   */\n      swap1\n      pop\n        /* \"#utility.yul\":8694:9113   */\n      swap2\n      swap1\n      pop\n      jump\t// out\n        /* \"#utility.yul\":9119:9339   */\n    tag_146:\n        /* \"#utility.yul\":9259:9293   */\n      0x4f20646573616669616e7465206e616f20706f646520736572206f206a75697a\n        /* \"#utility.yul\":9255:9256   */\n      0x00\n        /* \"#utility.yul\":9247:9253   */\n      dup3\n        /* \"#utility.yul\":9243:9257   */\n      add\n        /* \"#utility.yul\":9236:9294   */\n      mstore\n        /* \"#utility.yul\":9328:9331   */\n      0x2e00000000000000000000000000000000000000000000000000000000000000\n        /* \"#utility.yul\":9323:9325   */\n      0x20\n        /* \"#utility.yul\":9315:9321   */\n      dup3\n        /* \"#utility.yul\":9311:9326   */\n      add\n        /* \"#utility.yul\":9304:9332   */\n      mstore\n        /* \"#utility.yul\":9119:9339   */\n      pop\n      jump\t// out\n        /* \"#utility.yul\":9345:9711   */\n    tag_147:\n        /* \"#utility.yul\":9487:9490   */\n      0x00\n        /* \"#utility.yul\":9508:9575   */\n      tag_247\n        /* \"#utility.yul\":9572:9574   */\n      0x21\n        /* \"#utility.yul\":9567:9570   */\n      dup4\n        /* \"#utility.yul\":9508:9575   */\n      tag_143\n      jump\t// in\n    tag_247:\n        /* \"#utility.yul\":9501:9575   */\n      swap2\n      pop\n        /* \"#utility.yul\":9584:9677   */\n      tag_248\n        /* \"#utility.yul\":9673:9676   */\n      dup3\n        /* \"#utility.yul\":9584:9677   */\n      tag_146\n      jump\t// in\n    tag_248:\n        /* \"#utility.yul\":9702:9704   */\n      0x40\n        /* \"#utility.yul\":9697:9700   */\n      dup3\n        /* \"#utility.yul\":9693:9705   */\n      add\n        /* \"#utility.yul\":9686:9705   */\n      swap1\n      pop\n        /* \"#utility.yul\":9345:9711   */\n      swap2\n      swap1\n      pop\n      jump\t// out\n        /* \"#utility.yul\":9717:10136   */\n    tag_53:\n        /* \"#utility.yul\":9883:9887   */\n      0x00\n        /* \"#utility.yul\":9921:9923   */\n      0x20\n        /* \"#utility.yul\":9910:9919   */\n      dup3\n        /* \"#utility.yul\":9906:9924   */\n      add\n        /* \"#utility.yul\":9898:9924   */\n      swap1\n      pop\n        /* \"#utility.yul\":9970:9979   */\n      dup2\n        /* \"#utility.yul\":9964:9968   */\n      dup2\n        /* \"#utility.yul\":9960:9980   */\n      sub\n        /* \"#utility.yul\":9956:9957   */\n      0x00\n        /* \"#utility.yul\":9945:9954   */\n      dup4\n        /* \"#utility.yul\":9941:9958   */\n      add\n        /* \"#utility.yul\":9934:9981   */\n      mstore\n        /* \"#utility.yul\":9998:10129   */\n      tag_250\n        /* \"#utility.yul\":10124:10128   */\n      dup2\n        /* \"#utility.yul\":9998:10129   */\n      tag_147\n      jump\t// in\n    tag_250:\n        /* \"#utility.yul\":9990:10129   */\n      swap1\n      pop\n        /* \"#utility.yul\":9717:10136   */\n      swap2\n      swap1\n      pop\n      jump\t// out\n        /* \"#utility.yul\":10142:10368   */\n    tag_148:\n        /* \"#utility.yul\":10282:10316   */\n      0x536f6d656e7465206f206a75697a20706f6465206465636c61726172206f2076\n        /* \"#utility.yul\":10278:10279   */\n      0x00\n        /* \"#utility.yul\":10270:10276   */\n      dup3\n        /* \"#utility.yul\":10266:10280   */\n      add\n        /* \"#utility.yul\":10259:10317   */\n      mstore\n        /* \"#utility.yul\":10351:10360   */\n      0x656e6365646f7200000000000000000000000000000000000000000000000000\n        /* \"#utility.yul\":10346:10348   */\n      0x20\n        /* \"#utility.yul\":10338:10344   */\n      dup3\n        /* \"#utility.yul\":10334:10349   */\n      add\n        /* \"#utility.yul\":10327:10361   */\n      mstore\n        /* \"#utility.yul\":10142:10368   */\n      pop\n      jump\t// out\n        /* \"#utility.yul\":10374:10740   */\n    tag_149:\n        /* \"#utility.yul\":10516:10519   */\n      0x00\n        /* \"#utility.yul\":10537:10604   */\n      tag_253\n        /* \"#utility.yul\":10601:10603   */\n      0x27\n        /* \"#utility.yul\":10596:10599   */\n      dup4\n        /* \"#utility.yul\":10537:10604   */\n      tag_143\n      jump\t// in\n    tag_253:\n        /* \"#utility.yul\":10530:10604   */\n      swap2\n      pop\n        /* \"#utility.yul\":10613:10706   */\n      tag_254\n        /* \"#utility.yul\":10702:10705   */\n      dup3\n        /* \"#utility.yul\":10613:10706   */\n      tag_148\n      jump\t// in\n    tag_254:\n        /* \"#utility.yul\":10731:10733   */\n      0x40\n        /* \"#utility.yul\":10726:10729   */\n      dup3\n        /* \"#utility.yul\":10722:10734   */\n      add\n        /* \"#utility.yul\":10715:10734   */\n      swap1\n      pop\n        /* \"#utility.yul\":10374:10740   */\n      swap2\n      swap1\n      pop\n      jump\t// out\n        /* \"#utility.yul\":10746:11165   */\n    tag_64:\n        /* \"#utility.yul\":10912:10916   */\n      0x00\n        /* \"#utility.yul\":10950:10952   */\n      0x20\n        /* \"#utility.yul\":10939:10948   */\n      dup3\n        /* \"#utility.yul\":10935:10953   */\n      add\n        /* \"#utility.yul\":10927:10953   */\n      swap1\n      pop\n        /* \"#utility.yul\":10999:11008   */\n      dup2\n        /* \"#utility.yul\":10993:10997   */\n      dup2\n        /* \"#utility.yul\":10989:11009   */\n      sub\n        /* \"#utility.yul\":10985:10986   */\n      0x00\n        /* \"#utility.yul\":10974:10983   */\n      dup4\n        /* \"#utility.yul\":10970:10987   */\n      add\n        /* \"#utility.yul\":10963:11010   */\n      mstore\n        /* \"#utility.yul\":11027:11158   */\n      tag_256\n        /* \"#utility.yul\":11153:11157   */\n      dup2\n        /* \"#utility.yul\":11027:11158   */\n      tag_149\n      jump\t// in\n    tag_256:\n        /* \"#utility.yul\":11019:11158   */\n      swap1\n      pop\n        /* \"#utility.yul\":10746:11165   */\n      swap2\n      swap1\n      pop\n      jump\t// out\n        /* \"#utility.yul\":11171:11398   */\n    tag_150:\n        /* \"#utility.yul\":11311:11345   */\n      0x4465736166696f206e616f206573746120617469766f206f75206e616f20666f\n        /* \"#utility.yul\":11307:11308   */\n      0x00\n        /* \"#utility.yul\":11299:11305   */\n      dup3\n        /* \"#utility.yul\":11295:11309   */\n      add\n        /* \"#utility.yul\":11288:11346   */\n      mstore\n        /* \"#utility.yul\":11380:11390   */\n      0x692061636569746f000000000000000000000000000000000000000000000000\n        /* \"#utility.yul\":11375:11377   */\n      0x20\n        /* \"#utility.yul\":11367:11373   */\n      dup3\n        /* \"#utility.yul\":11363:11378   */\n      add\n        /* \"#utility.yul\":11356:11391   */\n      mstore\n        /* \"#utility.yul\":11171:11398   */\n      pop\n      jump\t// out\n        /* \"#utility.yul\":11404:11770   */\n    tag_151:\n        /* \"#utility.yul\":11546:11549   */\n      0x00\n        /* \"#utility.yul\":11567:11634   */\n      tag_259\n        /* \"#utility.yul\":11631:11633   */\n      0x28\n        /* \"#utility.yul\":11626:11629   */\n      dup4\n        /* \"#utility.yul\":11567:11634   */\n      tag_143\n      jump\t// in\n    tag_259:\n        /* \"#utility.yul\":11560:11634   */\n      swap2\n      pop\n        /* \"#utility.yul\":11643:11736   */\n      tag_260\n        /* \"#utility.yul\":11732:11735   */\n      dup3\n        /* \"#utility.yul\":11643:11736   */\n      tag_150\n      jump\t// in\n    tag_260:\n        /* \"#utility.yul\":11761:11763   */\n      0x40\n        /* \"#utility.yul\":11756:11759   */\n      dup3\n        /* \"#utility.yul\":11752:11764   */\n      add\n        /* \"#utility.yul\":11745:11764   */\n      swap1\n      pop\n        /* \"#utility.yul\":11404:11770   */\n      swap2\n      swap1\n      pop\n      jump\t// out\n        /* \"#utility.yul\":11776:12195   */\n    tag_71:\n        /* \"#utility.yul\":11942:11946   */\n      0x00\n        /* \"#utility.yul\":11980:11982   */\n      0x20\n        /* \"#utility.yul\":11969:11978   */\n      dup3\n        /* \"#utility.yul\":11965:11983   */\n      add\n        /* \"#utility.yul\":11957:11983   */\n      swap1\n      pop\n        /* \"#utility.yul\":12029:12038   */\n      dup2\n        /* \"#utility.yul\":12023:12027   */\n      dup2\n        /* \"#utility.yul\":12019:12039   */\n      sub\n        /* \"#utility.yul\":12015:12016   */\n      0x00\n        /* \"#utility.yul\":12004:12013   */\n      dup4\n        /* \"#utility.yul\":12000:12017   */\n      add\n        /* \"#utility.yul\":11993:12040   */\n      mstore\n        /* \"#utility.yul\":12057:12188   */\n      tag_262\n        /* \"#utility.yul\":12183:12187   */\n      dup2\n        /* \"#utility.yul\":12057:12188   */\n      tag_151\n      jump\t// in\n    tag_262:\n        /* \"#utility.yul\":12049:12188   */\n      swap1\n      pop\n        /* \"#utility.yul\":11776:12195   */\n      swap2\n      swap1\n      pop\n      jump\t// out\n        /* \"#utility.yul\":12201:12381   */\n    tag_152:\n        /* \"#utility.yul\":12249:12326   */\n      0x4e487b7100000000000000000000000000000000000000000000000000000000\n        /* \"#utility.yul\":12246:12247   */\n      0x00\n        /* \"#utility.yul\":12239:12327   */\n      mstore\n        /* \"#utility.yul\":12346:12350   */\n      0x11\n        /* \"#utility.yul\":12343:12344   */\n      0x04\n        /* \"#utility.yul\":12336:12351   */\n      mstore\n        /* \"#utility.yul\":12370:12374   */\n      0x24\n        /* \"#utility.yul\":12367:12368   */\n      0x00\n        /* \"#utility.yul\":12360:12375   */\n      revert\n        /* \"#utility.yul\":12387:12797   */\n    tag_73:\n        /* \"#utility.yul\":12427:12434   */\n      0x00\n        /* \"#utility.yul\":12450:12470   */\n      tag_265\n        /* \"#utility.yul\":12468:12469   */\n      dup3\n        /* \"#utility.yul\":12450:12470   */\n      tag_122\n      jump\t// in\n    tag_265:\n        /* \"#utility.yul\":12445:12470   */\n      swap2\n      pop\n        /* \"#utility.yul\":12484:12504   */\n      tag_266\n        /* \"#utility.yul\":12502:12503   */\n      dup4\n        /* \"#utility.yul\":12484:12504   */\n      tag_122\n      jump\t// in\n    tag_266:\n        /* \"#utility.yul\":12479:12504   */\n      swap3\n      pop\n        /* \"#utility.yul\":12539:12540   */\n      dup3\n        /* \"#utility.yul\":12536:12537   */\n      dup3\n        /* \"#utility.yul\":12532:12541   */\n      mul\n        /* \"#utility.yul\":12561:12591   */\n      tag_267\n        /* \"#utility.yul\":12579:12590   */\n      dup2\n        /* \"#utility.yul\":12561:12591   */\n      tag_122\n      jump\t// in\n    tag_267:\n        /* \"#utility.yul\":12550:12591   */\n      swap2\n      pop\n        /* \"#utility.yul\":12740:12741   */\n      dup3\n        /* \"#utility.yul\":12731:12738   */\n      dup3\n        /* \"#utility.yul\":12727:12742   */\n      div\n        /* \"#utility.yul\":12724:12725   */\n      dup5\n        /* \"#utility.yul\":12721:12743   */\n      eq\n        /* \"#utility.yul\":12701:12702   */\n      dup4\n        /* \"#utility.yul\":12694:12703   */\n      iszero\n        /* \"#utility.yul\":12674:12757   */\n      or\n        /* \"#utility.yul\":12651:12790   */\n      tag_268\n      jumpi\n        /* \"#utility.yul\":12770:12788   */\n      tag_269\n      tag_152\n      jump\t// in\n    tag_269:\n        /* \"#utility.yul\":12651:12790   */\n    tag_268:\n        /* \"#utility.yul\":12435:12797   */\n      pop\n        /* \"#utility.yul\":12387:12797   */\n      swap3\n      swap2\n      pop\n      pop\n      jump\t// out\n        /* \"#utility.yul\":12803:12983   */\n    tag_153:\n        /* \"#utility.yul\":12851:12928   */\n      0x4e487b7100000000000000000000000000000000000000000000000000000000\n        /* \"#utility.yul\":12848:12849   */\n      0x00\n        /* \"#utility.yul\":12841:12929   */\n      mstore\n        /* \"#utility.yul\":12948:12952   */\n      0x12\n        /* \"#utility.yul\":12945:12946   */\n      0x04\n        /* \"#utility.yul\":12938:12953   */\n      mstore\n        /* \"#utility.yul\":12972:12976   */\n      0x24\n        /* \"#utility.yul\":12969:12970   */\n      0x00\n        /* \"#utility.yul\":12962:12977   */\n      revert\n        /* \"#utility.yul\":12989:13174   */\n    tag_75:\n        /* \"#utility.yul\":13029:13030   */\n      0x00\n        /* \"#utility.yul\":13046:13066   */\n      tag_272\n        /* \"#utility.yul\":13064:13065   */\n      dup3\n        /* \"#utility.yul\":13046:13066   */\n      tag_122\n      jump\t// in\n    tag_272:\n        /* \"#utility.yul\":13041:13066   */\n      swap2\n      pop\n        /* \"#utility.yul\":13080:13100   */\n      tag_273\n        /* \"#utility.yul\":13098:13099   */\n      dup4\n        /* \"#utility.yul\":13080:13100   */\n      tag_122\n      jump\t// in\n    tag_273:\n        /* \"#utility.yul\":13075:13100   */\n      swap3\n      pop\n        /* \"#utility.yul\":13119:13120   */\n      dup3\n        /* \"#utility.yul\":13109:13144   */\n      tag_274\n      jumpi\n        /* \"#utility.yul\":13124:13142   */\n      tag_275\n      tag_153\n      jump\t// in\n    tag_275:\n        /* \"#utility.yul\":13109:13144   */\n    tag_274:\n        /* \"#utility.yul\":13166:13167   */\n      dup3\n        /* \"#utility.yul\":13163:13164   */\n      dup3\n        /* \"#utility.yul\":13159:13168   */\n      div\n        /* \"#utility.yul\":13154:13168   */\n      swap1\n      pop\n        /* \"#utility.yul\":12989:13174   */\n      swap3\n      swap2\n      pop\n      pop\n      jump\t// out\n        /* \"#utility.yul\":13180:13410   */\n    tag_154:\n        /* \"#utility.yul\":13320:13354   */\n      0x56616c6f722064612061706f73746120666f726120646f20696e74657276616c\n        /* \"#utility.yul\":13316:13317   */\n      0x00\n        /* \"#utility.yul\":13308:13314   */\n      dup3\n        /* \"#utility.yul\":13304:13318   */\n      add\n        /* \"#utility.yul\":13297:13355   */\n      mstore\n        /* \"#utility.yul\":13389:13402   */\n      0x6f207065726d697469646f000000000000000000000000000000000000000000\n        /* \"#utility.yul\":13384:13386   */\n      0x20\n        /* \"#utility.yul\":13376:13382   */\n      dup3\n        /* \"#utility.yul\":13372:13387   */\n      add\n        /* \"#utility.yul\":13365:13403   */\n      mstore\n        /* \"#utility.yul\":13180:13410   */\n      pop\n      jump\t// out\n        /* \"#utility.yul\":13416:13782   */\n    tag_155:\n        /* \"#utility.yul\":13558:13561   */\n      0x00\n        /* \"#utility.yul\":13579:13646   */\n      tag_278\n        /* \"#utility.yul\":13643:13645   */\n      0x2b\n        /* \"#utility.yul\":13638:13641   */\n      dup4\n        /* \"#utility.yul\":13579:13646   */\n      tag_143\n      jump\t// in\n    tag_278:\n        /* \"#utility.yul\":13572:13646   */\n      swap2\n      pop\n        /* \"#utility.yul\":13655:13748   */\n      tag_279\n        /* \"#utility.yul\":13744:13747   */\n      dup3\n        /* \"#utility.yul\":13655:13748   */\n      tag_154\n      jump\t// in\n    tag_279:\n        /* \"#utility.yul\":13773:13775   */\n      0x40\n        /* \"#utility.yul\":13768:13771   */\n      dup3\n        /* \"#utility.yul\":13764:13776   */\n      add\n        /* \"#utility.yul\":13757:13776   */\n      swap1\n      pop\n        /* \"#utility.yul\":13416:13782   */\n      swap2\n      swap1\n      pop\n      jump\t// out\n        /* \"#utility.yul\":13788:14207   */\n    tag_92:\n        /* \"#utility.yul\":13954:13958   */\n      0x00\n        /* \"#utility.yul\":13992:13994   */\n      0x20\n        /* \"#utility.yul\":13981:13990   */\n      dup3\n        /* \"#utility.yul\":13977:13995   */\n      add\n        /* \"#utility.yul\":13969:13995   */\n      swap1\n      pop\n        /* \"#utility.yul\":14041:14050   */\n      dup2\n        /* \"#utility.yul\":14035:14039   */\n      dup2\n        /* \"#utility.yul\":14031:14051   */\n      sub\n        /* \"#utility.yul\":14027:14028   */\n      0x00\n        /* \"#utility.yul\":14016:14025   */\n      dup4\n        /* \"#utility.yul\":14012:14029   */\n      add\n        /* \"#utility.yul\":14005:14052   */\n      mstore\n        /* \"#utility.yul\":14069:14200   */\n      tag_281\n        /* \"#utility.yul\":14195:14199   */\n      dup2\n        /* \"#utility.yul\":14069:14200   */\n      tag_155\n      jump\t// in\n    tag_281:\n        /* \"#utility.yul\":14061:14200   */\n      swap1\n      pop\n        /* \"#utility.yul\":13788:14207   */\n      swap2\n      swap1\n      pop\n      jump\t// out\n        /* \"#utility.yul\":14213:14440   */\n    tag_156:\n        /* \"#utility.yul\":14353:14387   */\n      0x4465736166696f206e616f206573746120617469766f206f75206a6120666f69\n        /* \"#utility.yul\":14349:14350   */\n      0x00\n        /* \"#utility.yul\":14341:14347   */\n      dup3\n        /* \"#utility.yul\":14337:14351   */\n      add\n        /* \"#utility.yul\":14330:14388   */\n      mstore\n        /* \"#utility.yul\":14422:14432   */\n      0x2061636569746f2e000000000000000000000000000000000000000000000000\n        /* \"#utility.yul\":14417:14419   */\n      0x20\n        /* \"#utility.yul\":14409:14415   */\n      dup3\n        /* \"#utility.yul\":14405:14420   */\n      add\n        /* \"#utility.yul\":14398:14433   */\n      mstore\n        /* \"#utility.yul\":14213:14440   */\n      pop\n      jump\t// out\n        /* \"#utility.yul\":14446:14812   */\n    tag_157:\n        /* \"#utility.yul\":14588:14591   */\n      0x00\n        /* \"#utility.yul\":14609:14676   */\n      tag_284\n        /* \"#utility.yul\":14673:14675   */\n      0x28\n        /* \"#utility.yul\":14668:14671   */\n      dup4\n        /* \"#utility.yul\":14609:14676   */\n      tag_143\n      jump\t// in\n    tag_284:\n        /* \"#utility.yul\":14602:14676   */\n      swap2\n      pop\n        /* \"#utility.yul\":14685:14778   */\n      tag_285\n        /* \"#utility.yul\":14774:14777   */\n      dup3\n        /* \"#utility.yul\":14685:14778   */\n      tag_156\n      jump\t// in\n    tag_285:\n        /* \"#utility.yul\":14803:14805   */\n      0x40\n        /* \"#utility.yul\":14798:14801   */\n      dup3\n        /* \"#utility.yul\":14794:14806   */\n      add\n        /* \"#utility.yul\":14787:14806   */\n      swap1\n      pop\n        /* \"#utility.yul\":14446:14812   */\n      swap2\n      swap1\n      pop\n      jump\t// out\n        /* \"#utility.yul\":14818:15237   */\n    tag_100:\n        /* \"#utility.yul\":14984:14988   */\n      0x00\n        /* \"#utility.yul\":15022:15024   */\n      0x20\n        /* \"#utility.yul\":15011:15020   */\n      dup3\n        /* \"#utility.yul\":15007:15025   */\n      add\n        /* \"#utility.yul\":14999:15025   */\n      swap1\n      pop\n        /* \"#utility.yul\":15071:15080   */\n      dup2\n        /* \"#utility.yul\":15065:15069   */\n      dup2\n        /* \"#utility.yul\":15061:15081   */\n      sub\n        /* \"#utility.yul\":15057:15058   */\n      0x00\n        /* \"#utility.yul\":15046:15055   */\n      dup4\n        /* \"#utility.yul\":15042:15059   */\n      add\n        /* \"#utility.yul\":15035:15082   */\n      mstore\n        /* \"#utility.yul\":15099:15230   */\n      tag_287\n        /* \"#utility.yul\":15225:15229   */\n      dup2\n        /* \"#utility.yul\":15099:15230   */\n      tag_157\n      jump\t// in\n    tag_287:\n        /* \"#utility.yul\":15091:15230   */\n      swap1\n      pop\n        /* \"#utility.yul\":14818:15237   */\n      swap2\n      swap1\n      pop\n      jump\t// out\n        /* \"#utility.yul\":15243:15473   */\n    tag_158:\n        /* \"#utility.yul\":15383:15417   */\n      0x56616c6f7220656e766961646f206469666572656e746520646f2076616c6f72\n        /* \"#utility.yul\":15379:15380   */\n      0x00\n        /* \"#utility.yul\":15371:15377   */\n      dup3\n        /* \"#utility.yul\":15367:15381   */\n      add\n        /* \"#utility.yul\":15360:15418   */\n      mstore\n        /* \"#utility.yul\":15452:15465   */\n      0x2064612061706f7374612e000000000000000000000000000000000000000000\n        /* \"#utility.yul\":15447:15449   */\n      0x20\n        /* \"#utility.yul\":15439:15445   */\n      dup3\n        /* \"#utility.yul\":15435:15450   */\n      add\n        /* \"#utility.yul\":15428:15466   */\n      mstore\n        /* \"#utility.yul\":15243:15473   */\n      pop\n      jump\t// out\n        /* \"#utility.yul\":15479:15845   */\n    tag_159:\n        /* \"#utility.yul\":15621:15624   */\n      0x00\n        /* \"#utility.yul\":15642:15709   */\n      tag_290\n        /* \"#utility.yul\":15706:15708   */\n      0x2b\n        /* \"#utility.yul\":15701:15704   */\n      dup4\n        /* \"#utility.yul\":15642:15709   */\n      tag_143\n      jump\t// in\n    tag_290:\n        /* \"#utility.yul\":15635:15709   */\n      swap2\n      pop\n        /* \"#utility.yul\":15718:15811   */\n      tag_291\n        /* \"#utility.yul\":15807:15810   */\n      dup3\n        /* \"#utility.yul\":15718:15811   */\n      tag_158\n      jump\t// in\n    tag_291:\n        /* \"#utility.yul\":15836:15838   */\n      0x40\n        /* \"#utility.yul\":15831:15834   */\n      dup3\n        /* \"#utility.yul\":15827:15839   */\n      add\n        /* \"#utility.yul\":15820:15839   */\n      swap1\n      pop\n        /* \"#utility.yul\":15479:15845   */\n      swap2\n      swap1\n      pop\n      jump\t// out\n        /* \"#utility.yul\":15851:16270   */\n    tag_103:\n        /* \"#utility.yul\":16017:16021   */\n      0x00\n        /* \"#utility.yul\":16055:16057   */\n      0x20\n        /* \"#utility.yul\":16044:16053   */\n      dup3\n        /* \"#utility.yul\":16040:16058   */\n      add\n        /* \"#utility.yul\":16032:16058   */\n      swap1\n      pop\n        /* \"#utility.yul\":16104:16113   */\n      dup2\n        /* \"#utility.yul\":16098:16102   */\n      dup2\n        /* \"#utility.yul\":16094:16114   */\n      sub\n        /* \"#utility.yul\":16090:16091   */\n      0x00\n        /* \"#utility.yul\":16079:16088   */\n      dup4\n        /* \"#utility.yul\":16075:16092   */\n      add\n        /* \"#utility.yul\":16068:16115   */\n      mstore\n        /* \"#utility.yul\":16132:16263   */\n      tag_293\n        /* \"#utility.yul\":16258:16262   */\n      dup2\n        /* \"#utility.yul\":16132:16263   */\n      tag_159\n      jump\t// in\n    tag_293:\n        /* \"#utility.yul\":16124:16263   */\n      swap1\n      pop\n        /* \"#utility.yul\":15851:16270   */\n      swap2\n      swap1\n      pop\n      jump\t// out\n        /* \"#utility.yul\":16276:16503   */\n    tag_160:\n        /* \"#utility.yul\":16416:16450   */\n      0x566f6365206e616f20706f64652061636569746172206f2070726f7072696f20\n        /* \"#utility.yul\":16412:16413   */\n      0x00\n        /* \"#utility.yul\":16404:16410   */\n      dup3\n        /* \"#utility.yul\":16400:16414   */\n      add\n        /* \"#utility.yul\":16393:16451   */\n      mstore\n        /* \"#utility.yul\":16485:16495   */\n      0x6465736166696f2e000000000000000000000000000000000000000000000000\n        /* \"#utility.yul\":16480:16482   */\n      0x20\n        /* \"#utility.yul\":16472:16478   */\n      dup3\n        /* \"#utility.yul\":16468:16483   */\n      add\n        /* \"#utility.yul\":16461:16496   */\n      mstore\n        /* \"#utility.yul\":16276:16503   */\n      pop\n      jump\t// out\n        /* \"#utility.yul\":16509:16875   */\n    tag_161:\n        /* \"#utility.yul\":16651:16654   */\n      0x00\n        /* \"#utility.yul\":16672:16739   */\n      tag_296\n        /* \"#utility.yul\":16736:16738   */\n      0x28\n        /* \"#utility.yul\":16731:16734   */\n      dup4\n        /* \"#utility.yul\":16672:16739   */\n      tag_143\n      jump\t// in\n    tag_296:\n        /* \"#utility.yul\":16665:16739   */\n      swap2\n      pop\n        /* \"#utility.yul\":16748:16841   */\n      tag_297\n        /* \"#utility.yul\":16837:16840   */\n      dup3\n        /* \"#utility.yul\":16748:16841   */\n      tag_160\n      jump\t// in\n    tag_297:\n        /* \"#utility.yul\":16866:16868   */\n      0x40\n        /* \"#utility.yul\":16861:16864   */\n      dup3\n        /* \"#utility.yul\":16857:16869   */\n      add\n        /* \"#utility.yul\":16850:16869   */\n      swap1\n      pop\n        /* \"#utility.yul\":16509:16875   */\n      swap2\n      swap1\n      pop\n      jump\t// out\n        /* \"#utility.yul\":16881:17300   */\n    tag_106:\n        /* \"#utility.yul\":17047:17051   */\n      0x00\n        /* \"#utility.yul\":17085:17087   */\n      0x20\n        /* \"#utility.yul\":17074:17083   */\n      dup3\n        /* \"#utility.yul\":17070:17088   */\n      add\n        /* \"#utility.yul\":17062:17088   */\n      swap1\n      pop\n        /* \"#utility.yul\":17134:17143   */\n      dup2\n        /* \"#utility.yul\":17128:17132   */\n      dup2\n        /* \"#utility.yul\":17124:17144   */\n      sub\n        /* \"#utility.yul\":17120:17121   */\n      0x00\n        /* \"#utility.yul\":17109:17118   */\n      dup4\n        /* \"#utility.yul\":17105:17122   */\n      add\n        /* \"#utility.yul\":17098:17145   */\n      mstore\n        /* \"#utility.yul\":17162:17293   */\n      tag_299\n        /* \"#utility.yul\":17288:17292   */\n      dup2\n        /* \"#utility.yul\":17162:17293   */\n      tag_161\n      jump\t// in\n    tag_299:\n        /* \"#utility.yul\":17154:17293   */\n      swap1\n      pop\n        /* \"#utility.yul\":16881:17300   */\n      swap2\n      swap1\n      pop\n      jump\t// out\n\n    auxdata: 0xa2646970667358221220d7765ee047689ecf943e77e5d178f03eb4ccc5e64bd0f590fae25ad743b7713e64736f6c63430008180033\n}\n",
				"bytecode": {
					"linkReferences": {},
					"object": "608060405234801561000f575f80fd5b50335f806101000a81548173ffffffffffffffffffffffffffffffffffffffff021916908373ffffffffffffffffffffffffffffffffffffffff1602179055506116fc8061005c5f395ff3fe60806040526004361061006f575f3560e01c8063acdaca3e1161004d578063acdaca3e146100f9578063b69ef8a814610115578063d34c64451461013f578063fb03fa72146101695761006f565b806301958da514610073578063023175221461009b57806390de64ee146100b7575b5f80fd5b34801561007e575f80fd5b5061009960048036038101906100949190610e72565b610173565b005b6100b560048036038101906100b09190610ef7565b61033f565b005b3480156100c2575f80fd5b506100dd60048036038101906100d89190610e72565b610650565b6040516100f09796959493929190610f6d565b60405180910390f35b610113600480360381019061010e9190610e72565b610733565b005b348015610120575f80fd5b5061012961095a565b6040516101369190610fda565b60405180910390f35b34801561014a575f80fd5b50610153610961565b6040516101609190611154565b60405180910390f35b610171610b50565b005b33816001818154811061018957610188611174565b5b905f5260205f2090600502016001015f9054906101000a900473ffffffffffffffffffffffffffffffffffffffff1673ffffffffffffffffffffffffffffffffffffffff168273ffffffffffffffffffffffffffffffffffffffff1603610225576040517f08c379a000000000000000000000000000000000000000000000000000000000815260040161021c906111fb565b60405180910390fd5b6001818154811061023957610238611174565b5b905f5260205f2090600502015f015f9054906101000a900473ffffffffffffffffffffffffffffffffffffffff1673ffffffffffffffffffffffffffffffffffffffff168273ffffffffffffffffffffffffffffffffffffffff16036102d4576040517f08c379a00000000000000000000000000000000000000000000000000000000081526004016102cb90611289565b60405180910390fd5b5f600184815481106102e9576102e8611174565b5b905f5260205f209060050201905033816002015f6101000a81548173ffffffffffffffffffffffffffffffffffffffff021916908373ffffffffffffffffffffffffffffffffffffffff16021790555050505050565b6001828154811061035357610352611174565b5b905f5260205f2090600502016002015f9054906101000a900473ffffffffffffffffffffffffffffffffffffffff1673ffffffffffffffffffffffffffffffffffffffff163373ffffffffffffffffffffffffffffffffffffffff16146103ef576040517f08c379a00000000000000000000000000000000000000000000000000000000081526004016103e690611317565b60405180910390fd5b5f6001838154811061040457610403611174565b5b905f5260205f2090600502019050806004015f9054906101000a900460ff16801561043d57508060040160019054906101000a900460ff165b61047c576040517f08c379a0000000000000000000000000000000000000000000000000000000008152600401610473906113a5565b60405180910390fd5b818160040160026101000a81548173ffffffffffffffffffffffffffffffffffffffff021916908373ffffffffffffffffffffffffffffffffffffffff1602179055505f816004015f6101000a81548160ff0219169083151502179055505f600a600883600301546104ee91906113f0565b6104f8919061145e565b90505f600a6001846003015461050e91906113f0565b610518919061145e565b90505f600a6001856003015461052e91906113f0565b610538919061145e565b90508473ffffffffffffffffffffffffffffffffffffffff166108fc8490811502906040515f60405180830381858888f1935050505015801561057d573d5f803e3d5ffd5b50836002015f9054906101000a900473ffffffffffffffffffffffffffffffffffffffff1673ffffffffffffffffffffffffffffffffffffffff166108fc8290811502906040515f60405180830381858888f193505050501580156105e4573d5f803e3d5ffd5b505f8054906101000a900473ffffffffffffffffffffffffffffffffffffffff1673ffffffffffffffffffffffffffffffffffffffff166108fc8390811502906040515f60405180830381858888f19350505050158015610647573d5f803e3d5ffd5b50505050505050565b6001818154811061065f575f80fd5b905f5260205f2090600502015f91509050805f015f9054906101000a900473ffffffffffffffffffffffffffffffffffffffff1690806001015f9054906101000a900473ffffffffffffffffffffffffffffffffffffffff1690806002015f9054906101000a900473ffffffffffffffffffffffffffffffffffffffff1690806003015490806004015f9054906101000a900460ff16908060040160019054906101000a900460ff16908060040160029054906101000a900473ffffffffffffffffffffffffffffffffffffffff16905087565b3466060a24181e400081101580156107535750670de0b6b3a76400008111155b610792576040517f08c379a0000000000000000000000000000000000000000000000000000000008152600401610789906114fe565b60405180910390fd5b5f600183815481106107a7576107a6611174565b5b905f5260205f2090600502019050806004015f9054906101000a900460ff1680156107e157508060040160019054906101000a900460ff16155b610820576040517f08c379a00000000000000000000000000000000000000000000000000000000081526004016108179061158c565b60405180910390fd5b80600301543414610866576040517f08c379a000000000000000000000000000000000000000000000000000000000815260040161085d9061161a565b60405180910390fd5b806001015f9054906101000a900473ffffffffffffffffffffffffffffffffffffffff1673ffffffffffffffffffffffffffffffffffffffff163373ffffffffffffffffffffffffffffffffffffffff16036108f7576040517f08c379a00000000000000000000000000000000000000000000000000000000081526004016108ee906116a8565b60405180910390fd5b33815f015f6101000a81548173ffffffffffffffffffffffffffffffffffffffff021916908373ffffffffffffffffffffffffffffffffffffffff16021790555060018160040160016101000a81548160ff021916908315150217905550505050565b5f47905090565b60606001805480602002602001604051908101604052809291908181526020015f905b82821015610b47578382905f5260205f2090600502016040518060e00160405290815f82015f9054906101000a900473ffffffffffffffffffffffffffffffffffffffff1673ffffffffffffffffffffffffffffffffffffffff1673ffffffffffffffffffffffffffffffffffffffff168152602001600182015f9054906101000a900473ffffffffffffffffffffffffffffffffffffffff1673ffffffffffffffffffffffffffffffffffffffff1673ffffffffffffffffffffffffffffffffffffffff168152602001600282015f9054906101000a900473ffffffffffffffffffffffffffffffffffffffff1673ffffffffffffffffffffffffffffffffffffffff1673ffffffffffffffffffffffffffffffffffffffff16815260200160038201548152602001600482015f9054906101000a900460ff161515151581526020016004820160019054906101000a900460ff161515151581526020016004820160029054906101000a900473ffffffffffffffffffffffffffffffffffffffff1673ffffffffffffffffffffffffffffffffffffffff1673ffffffffffffffffffffffffffffffffffffffff168152505081526020019060010190610984565b50505050905090565b3466060a24181e40008110158015610b705750670de0b6b3a76400008111155b610baf576040517f08c379a0000000000000000000000000000000000000000000000000000000008152600401610ba6906114fe565b60405180910390fd5b5f3390505f6040518060e001604052805f73ffffffffffffffffffffffffffffffffffffffff1681526020018373ffffffffffffffffffffffffffffffffffffffff1681526020015f73ffffffffffffffffffffffffffffffffffffffff1681526020013481526020016001151581526020015f151581526020015f73ffffffffffffffffffffffffffffffffffffffff168152509050600181908060018154018082558091505060019003905f5260205f2090600502015f909190919091505f820151815f015f6101000a81548173ffffffffffffffffffffffffffffffffffffffff021916908373ffffffffffffffffffffffffffffffffffffffff1602179055506020820151816001015f6101000a81548173ffffffffffffffffffffffffffffffffffffffff021916908373ffffffffffffffffffffffffffffffffffffffff1602179055506040820151816002015f6101000a81548173ffffffffffffffffffffffffffffffffffffffff021916908373ffffffffffffffffffffffffffffffffffffffff160217905550606082015181600301556080820151816004015f6101000a81548160ff02191690831515021790555060a08201518160040160016101000a81548160ff02191690831515021790555060c08201518160040160026101000a81548173ffffffffffffffffffffffffffffffffffffffff021916908373ffffffffffffffffffffffffffffffffffffffff16021790555050508173ffffffffffffffffffffffffffffffffffffffff165f73ffffffffffffffffffffffffffffffffffffffff167f9f35d8b2b608c7fb87cbd5bb99303d30bb4c28312a9cc11a5ff23a06a21b724b34604051610e2e9190610fda565b60405180910390a3505050565b5f80fd5b5f819050919050565b610e5181610e3f565b8114610e5b575f80fd5b50565b5f81359050610e6c81610e48565b92915050565b5f60208284031215610e8757610e86610e3b565b5b5f610e9484828501610e5e565b91505092915050565b5f73ffffffffffffffffffffffffffffffffffffffff82169050919050565b5f610ec682610e9d565b9050919050565b610ed681610ebc565b8114610ee0575f80fd5b50565b5f81359050610ef181610ecd565b92915050565b5f8060408385031215610f0d57610f0c610e3b565b5b5f610f1a85828601610e5e565b9250506020610f2b85828601610ee3565b9150509250929050565b610f3e81610ebc565b82525050565b610f4d81610e3f565b82525050565b5f8115159050919050565b610f6781610f53565b82525050565b5f60e082019050610f805f83018a610f35565b610f8d6020830189610f35565b610f9a6040830188610f35565b610fa76060830187610f44565b610fb46080830186610f5e565b610fc160a0830185610f5e565b610fce60c0830184610f35565b98975050505050505050565b5f602082019050610fed5f830184610f44565b92915050565b5f81519050919050565b5f82825260208201905092915050565b5f819050602082019050919050565b61102581610ebc565b82525050565b61103481610e3f565b82525050565b61104381610f53565b82525050565b60e082015f82015161105d5f85018261101c565b506020820151611070602085018261101c565b506040820151611083604085018261101c565b506060820151611096606085018261102b565b5060808201516110a9608085018261103a565b5060a08201516110bc60a085018261103a565b5060c08201516110cf60c085018261101c565b50505050565b5f6110e08383611049565b60e08301905092915050565b5f602082019050919050565b5f61110282610ff3565b61110c8185610ffd565b93506111178361100d565b805f5b8381101561114757815161112e88826110d5565b9750611139836110ec565b92505060018101905061111a565b5085935050505092915050565b5f6020820190508181035f83015261116c81846110f8565b905092915050565b7f4e487b71000000000000000000000000000000000000000000000000000000005f52603260045260245ffd5b5f82825260208201905092915050565b7f4f2064657361666961646f206e616f20706f646520736572206f206a75697a2e5f82015250565b5f6111e56020836111a1565b91506111f0826111b1565b602082019050919050565b5f6020820190508181035f830152611212816111d9565b9050919050565b7f4f20646573616669616e7465206e616f20706f646520736572206f206a75697a5f8201527f2e00000000000000000000000000000000000000000000000000000000000000602082015250565b5f6112736021836111a1565b915061127e82611219565b604082019050919050565b5f6020820190508181035f8301526112a081611267565b9050919050565b7f536f6d656e7465206f206a75697a20706f6465206465636c61726172206f20765f8201527f656e6365646f7200000000000000000000000000000000000000000000000000602082015250565b5f6113016027836111a1565b915061130c826112a7565b604082019050919050565b5f6020820190508181035f83015261132e816112f5565b9050919050565b7f4465736166696f206e616f206573746120617469766f206f75206e616f20666f5f8201527f692061636569746f000000000000000000000000000000000000000000000000602082015250565b5f61138f6028836111a1565b915061139a82611335565b604082019050919050565b5f6020820190508181035f8301526113bc81611383565b9050919050565b7f4e487b71000000000000000000000000000000000000000000000000000000005f52601160045260245ffd5b5f6113fa82610e3f565b915061140583610e3f565b925082820261141381610e3f565b9150828204841483151761142a576114296113c3565b5b5092915050565b7f4e487b71000000000000000000000000000000000000000000000000000000005f52601260045260245ffd5b5f61146882610e3f565b915061147383610e3f565b92508261148357611482611431565b5b828204905092915050565b7f56616c6f722064612061706f73746120666f726120646f20696e74657276616c5f8201527f6f207065726d697469646f000000000000000000000000000000000000000000602082015250565b5f6114e8602b836111a1565b91506114f38261148e565b604082019050919050565b5f6020820190508181035f830152611515816114dc565b9050919050565b7f4465736166696f206e616f206573746120617469766f206f75206a6120666f695f8201527f2061636569746f2e000000000000000000000000000000000000000000000000602082015250565b5f6115766028836111a1565b91506115818261151c565b604082019050919050565b5f6020820190508181035f8301526115a38161156a565b9050919050565b7f56616c6f7220656e766961646f206469666572656e746520646f2076616c6f725f8201527f2064612061706f7374612e000000000000000000000000000000000000000000602082015250565b5f611604602b836111a1565b915061160f826115aa565b604082019050919050565b5f6020820190508181035f830152611631816115f8565b9050919050565b7f566f6365206e616f20706f64652061636569746172206f2070726f7072696f205f8201527f6465736166696f2e000000000000000000000000000000000000000000000000602082015250565b5f6116926028836111a1565b915061169d82611638565b604082019050919050565b5f6020820190508181035f8301526116bf81611686565b905091905056fea2646970667358221220d7765ee047689ecf943e77e5d178f03eb4ccc5e64bd0f590fae25ad743b7713e64736f6c63430008180033",
					"opcodes": "PUSH1 0x80 PUSH1 0x40 MSTORE CALLVALUE DUP1 ISZERO PUSH2 0xF JUMPI PUSH0 DUP1 REVERT JUMPDEST POP CALLER PUSH0 DUP1 PUSH2 0x100 EXP DUP2 SLOAD DUP2 PUSH20 0xFFFFFFFFFFFFFFFFFFFFFFFFFFFFFFFFFFFFFFFF MUL NOT AND SWAP1 DUP4 PUSH20 0xFFFFFFFFFFFFFFFFFFFFFFFFFFFFFFFFFFFFFFFF AND MUL OR SWAP1 SSTORE POP PUSH2 0x16FC DUP1 PUSH2 0x5C PUSH0 CODECOPY PUSH0 RETURN INVALID PUSH1 0x80 PUSH1 0x40 MSTORE PUSH1 0x4 CALLDATASIZE LT PUSH2 0x6F JUMPI PUSH0 CALLDATALOAD PUSH1 0xE0 SHR DUP1 PUSH4 0xACDACA3E GT PUSH2 0x4D JUMPI DUP1 PUSH4 0xACDACA3E EQ PUSH2 0xF9 JUMPI DUP1 PUSH4 0xB69EF8A8 EQ PUSH2 0x115 JUMPI DUP1 PUSH4 0xD34C6445 EQ PUSH2 0x13F JUMPI DUP1 PUSH4 0xFB03FA72 EQ PUSH2 0x169 JUMPI PUSH2 0x6F JUMP JUMPDEST DUP1 PUSH4 0x1958DA5 EQ PUSH2 0x73 JUMPI DUP1 PUSH4 0x2317522 EQ PUSH2 0x9B JUMPI DUP1 PUSH4 0x90DE64EE EQ PUSH2 0xB7 JUMPI JUMPDEST PUSH0 DUP1 REVERT JUMPDEST CALLVALUE DUP1 ISZERO PUSH2 0x7E JUMPI PUSH0 DUP1 REVERT JUMPDEST POP PUSH2 0x99 PUSH1 0x4 DUP1 CALLDATASIZE SUB DUP2 ADD SWAP1 PUSH2 0x94 SWAP2 SWAP1 PUSH2 0xE72 JUMP JUMPDEST PUSH2 0x173 JUMP JUMPDEST STOP JUMPDEST PUSH2 0xB5 PUSH1 0x4 DUP1 CALLDATASIZE SUB DUP2 ADD SWAP1 PUSH2 0xB0 SWAP2 SWAP1 PUSH2 0xEF7 JUMP JUMPDEST PUSH2 0x33F JUMP JUMPDEST STOP JUMPDEST CALLVALUE DUP1 ISZERO PUSH2 0xC2 JUMPI PUSH0 DUP1 REVERT JUMPDEST POP PUSH2 0xDD PUSH1 0x4 DUP1 CALLDATASIZE SUB DUP2 ADD SWAP1 PUSH2 0xD8 SWAP2 SWAP1 PUSH2 0xE72 JUMP JUMPDEST PUSH2 0x650 JUMP JUMPDEST PUSH1 0x40 MLOAD PUSH2 0xF0 SWAP8 SWAP7 SWAP6 SWAP5 SWAP4 SWAP3 SWAP2 SWAP1 PUSH2 0xF6D JUMP JUMPDEST PUSH1 0x40 MLOAD DUP1 SWAP2 SUB SWAP1 RETURN JUMPDEST PUSH2 0x113 PUSH1 0x4 DUP1 CALLDATASIZE SUB DUP2 ADD SWAP1 PUSH2 0x10E SWAP2 SWAP1 PUSH2 0xE72 JUMP JUMPDEST PUSH2 0x733 JUMP JUMPDEST STOP JUMPDEST CALLVALUE DUP1 ISZERO PUSH2 0x120 JUMPI PUSH0 DUP1 REVERT JUMPDEST POP PUSH2 0x129 PUSH2 0x95A JUMP JUMPDEST PUSH1 0x40 MLOAD PUSH2 0x136 SWAP2 SWAP1 PUSH2 0xFDA JUMP JUMPDEST PUSH1 0x40 MLOAD DUP1 SWAP2 SUB SWAP1 RETURN JUMPDEST CALLVALUE DUP1 ISZERO PUSH2 0x14A JUMPI PUSH0 DUP1 REVERT JUMPDEST POP PUSH2 0x153 PUSH2 0x961 JUMP JUMPDEST PUSH1 0x40 MLOAD PUSH2 0x160 SWAP2 SWAP1 PUSH2 0x1154 JUMP JUMPDEST PUSH1 0x40 MLOAD DUP1 SWAP2 SUB SWAP1 RETURN JUMPDEST PUSH2 0x171 PUSH2 0xB50 JUMP JUMPDEST STOP JUMPDEST CALLER DUP2 PUSH1 0x1 DUP2 DUP2 SLOAD DUP2 LT PUSH2 0x189 JUMPI PUSH2 0x188 PUSH2 0x1174 JUMP JUMPDEST JUMPDEST SWAP1 PUSH0 MSTORE PUSH1 0x20 PUSH0 KECCAK256 SWAP1 PUSH1 0x5 MUL ADD PUSH1 0x1 ADD PUSH0 SWAP1 SLOAD SWAP1 PUSH2 0x100 EXP SWAP1 DIV PUSH20 0xFFFFFFFFFFFFFFFFFFFFFFFFFFFFFFFFFFFFFFFF AND PUSH20 0xFFFFFFFFFFFFFFFFFFFFFFFFFFFFFFFFFFFFFFFF AND DUP3 PUSH20 0xFFFFFFFFFFFFFFFFFFFFFFFFFFFFFFFFFFFFFFFF AND SUB PUSH2 0x225 JUMPI PUSH1 0x40 MLOAD PUSH32 0x8C379A000000000000000000000000000000000000000000000000000000000 DUP2 MSTORE PUSH1 0x4 ADD PUSH2 0x21C SWAP1 PUSH2 0x11FB JUMP JUMPDEST PUSH1 0x40 MLOAD DUP1 SWAP2 SUB SWAP1 REVERT JUMPDEST PUSH1 0x1 DUP2 DUP2 SLOAD DUP2 LT PUSH2 0x239 JUMPI PUSH2 0x238 PUSH2 0x1174 JUMP JUMPDEST JUMPDEST SWAP1 PUSH0 MSTORE PUSH1 0x20 PUSH0 KECCAK256 SWAP1 PUSH1 0x5 MUL ADD PUSH0 ADD PUSH0 SWAP1 SLOAD SWAP1 PUSH2 0x100 EXP SWAP1 DIV PUSH20 0xFFFFFFFFFFFFFFFFFFFFFFFFFFFFFFFFFFFFFFFF AND PUSH20 0xFFFFFFFFFFFFFFFFFFFFFFFFFFFFFFFFFFFFFFFF AND DUP3 PUSH20 0xFFFFFFFFFFFFFFFFFFFFFFFFFFFFFFFFFFFFFFFF AND SUB PUSH2 0x2D4 JUMPI PUSH1 0x40 MLOAD PUSH32 0x8C379A000000000000000000000000000000000000000000000000000000000 DUP2 MSTORE PUSH1 0x4 ADD PUSH2 0x2CB SWAP1 PUSH2 0x1289 JUMP JUMPDEST PUSH1 0x40 MLOAD DUP1 SWAP2 SUB SWAP1 REVERT JUMPDEST PUSH0 PUSH1 0x1 DUP5 DUP2 SLOAD DUP2 LT PUSH2 0x2E9 JUMPI PUSH2 0x2E8 PUSH2 0x1174 JUMP JUMPDEST JUMPDEST SWAP1 PUSH0 MSTORE PUSH1 0x20 PUSH0 KECCAK256 SWAP1 PUSH1 0x5 MUL ADD SWAP1 POP CALLER DUP2 PUSH1 0x2 ADD PUSH0 PUSH2 0x100 EXP DUP2 SLOAD DUP2 PUSH20 0xFFFFFFFFFFFFFFFFFFFFFFFFFFFFFFFFFFFFFFFF MUL NOT AND SWAP1 DUP4 PUSH20 0xFFFFFFFFFFFFFFFFFFFFFFFFFFFFFFFFFFFFFFFF AND MUL OR SWAP1 SSTORE POP POP POP POP POP JUMP JUMPDEST PUSH1 0x1 DUP3 DUP2 SLOAD DUP2 LT PUSH2 0x353 JUMPI PUSH2 0x352 PUSH2 0x1174 JUMP JUMPDEST JUMPDEST SWAP1 PUSH0 MSTORE PUSH1 0x20 PUSH0 KECCAK256 SWAP1 PUSH1 0x5 MUL ADD PUSH1 0x2 ADD PUSH0 SWAP1 SLOAD SWAP1 PUSH2 0x100 EXP SWAP1 DIV PUSH20 0xFFFFFFFFFFFFFFFFFFFFFFFFFFFFFFFFFFFFFFFF AND PUSH20 0xFFFFFFFFFFFFFFFFFFFFFFFFFFFFFFFFFFFFFFFF AND CALLER PUSH20 0xFFFFFFFFFFFFFFFFFFFFFFFFFFFFFFFFFFFFFFFF AND EQ PUSH2 0x3EF JUMPI PUSH1 0x40 MLOAD PUSH32 0x8C379A000000000000000000000000000000000000000000000000000000000 DUP2 MSTORE PUSH1 0x4 ADD PUSH2 0x3E6 SWAP1 PUSH2 0x1317 JUMP JUMPDEST PUSH1 0x40 MLOAD DUP1 SWAP2 SUB SWAP1 REVERT JUMPDEST PUSH0 PUSH1 0x1 DUP4 DUP2 SLOAD DUP2 LT PUSH2 0x404 JUMPI PUSH2 0x403 PUSH2 0x1174 JUMP JUMPDEST JUMPDEST SWAP1 PUSH0 MSTORE PUSH1 0x20 PUSH0 KECCAK256 SWAP1 PUSH1 0x5 MUL ADD SWAP1 POP DUP1 PUSH1 0x4 ADD PUSH0 SWAP1 SLOAD SWAP1 PUSH2 0x100 EXP SWAP1 DIV PUSH1 0xFF AND DUP1 ISZERO PUSH2 0x43D JUMPI POP DUP1 PUSH1 0x4 ADD PUSH1 0x1 SWAP1 SLOAD SWAP1 PUSH2 0x100 EXP SWAP1 DIV PUSH1 0xFF AND JUMPDEST PUSH2 0x47C JUMPI PUSH1 0x40 MLOAD PUSH32 0x8C379A000000000000000000000000000000000000000000000000000000000 DUP2 MSTORE PUSH1 0x4 ADD PUSH2 0x473 SWAP1 PUSH2 0x13A5 JUMP JUMPDEST PUSH1 0x40 MLOAD DUP1 SWAP2 SUB SWAP1 REVERT JUMPDEST DUP2 DUP2 PUSH1 0x4 ADD PUSH1 0x2 PUSH2 0x100 EXP DUP2 SLOAD DUP2 PUSH20 0xFFFFFFFFFFFFFFFFFFFFFFFFFFFFFFFFFFFFFFFF MUL NOT AND SWAP1 DUP4 PUSH20 0xFFFFFFFFFFFFFFFFFFFFFFFFFFFFFFFFFFFFFFFF AND MUL OR SWAP1 SSTORE POP PUSH0 DUP2 PUSH1 0x4 ADD PUSH0 PUSH2 0x100 EXP DUP2 SLOAD DUP2 PUSH1 0xFF MUL NOT AND SWAP1 DUP4 ISZERO ISZERO MUL OR SWAP1 SSTORE POP PUSH0 PUSH1 0xA PUSH1 0x8 DUP4 PUSH1 0x3 ADD SLOAD PUSH2 0x4EE SWAP2 SWAP1 PUSH2 0x13F0 JUMP JUMPDEST PUSH2 0x4F8 SWAP2 SWAP1 PUSH2 0x145E JUMP JUMPDEST SWAP1 POP PUSH0 PUSH1 0xA PUSH1 0x1 DUP5 PUSH1 0x3 ADD SLOAD PUSH2 0x50E SWAP2 SWAP1 PUSH2 0x13F0 JUMP JUMPDEST PUSH2 0x518 SWAP2 SWAP1 PUSH2 0x145E JUMP JUMPDEST SWAP1 POP PUSH0 PUSH1 0xA PUSH1 0x1 DUP6 PUSH1 0x3 ADD SLOAD PUSH2 0x52E SWAP2 SWAP1 PUSH2 0x13F0 JUMP JUMPDEST PUSH2 0x538 SWAP2 SWAP1 PUSH2 0x145E JUMP JUMPDEST SWAP1 POP DUP5 PUSH20 0xFFFFFFFFFFFFFFFFFFFFFFFFFFFFFFFFFFFFFFFF AND PUSH2 0x8FC DUP5 SWAP1 DUP2 ISZERO MUL SWAP1 PUSH1 0x40 MLOAD PUSH0 PUSH1 0x40 MLOAD DUP1 DUP4 SUB DUP2 DUP6 DUP9 DUP9 CALL SWAP4 POP POP POP POP ISZERO DUP1 ISZERO PUSH2 0x57D JUMPI RETURNDATASIZE PUSH0 DUP1 RETURNDATACOPY RETURNDATASIZE PUSH0 REVERT JUMPDEST POP DUP4 PUSH1 0x2 ADD PUSH0 SWAP1 SLOAD SWAP1 PUSH2 0x100 EXP SWAP1 DIV PUSH20 0xFFFFFFFFFFFFFFFFFFFFFFFFFFFFFFFFFFFFFFFF AND PUSH20 0xFFFFFFFFFFFFFFFFFFFFFFFFFFFFFFFFFFFFFFFF AND PUSH2 0x8FC DUP3 SWAP1 DUP2 ISZERO MUL SWAP1 PUSH1 0x40 MLOAD PUSH0 PUSH1 0x40 MLOAD DUP1 DUP4 SUB DUP2 DUP6 DUP9 DUP9 CALL SWAP4 POP POP POP POP ISZERO DUP1 ISZERO PUSH2 0x5E4 JUMPI RETURNDATASIZE PUSH0 DUP1 RETURNDATACOPY RETURNDATASIZE PUSH0 REVERT JUMPDEST POP PUSH0 DUP1 SLOAD SWAP1 PUSH2 0x100 EXP SWAP1 DIV PUSH20 0xFFFFFFFFFFFFFFFFFFFFFFFFFFFFFFFFFFFFFFFF AND PUSH20 0xFFFFFFFFFFFFFFFFFFFFFFFFFFFFFFFFFFFFFFFF AND PUSH2 0x8FC DUP4 SWAP1 DUP2 ISZERO MUL SWAP1 PUSH1 0x40 MLOAD PUSH0 PUSH1 0x40 MLOAD DUP1 DUP4 SUB DUP2 DUP6 DUP9 DUP9 CALL SWAP4 POP POP POP POP ISZERO DUP1 ISZERO PUSH2 0x647 JUMPI RETURNDATASIZE PUSH0 DUP1 RETURNDATACOPY RETURNDATASIZE PUSH0 REVERT JUMPDEST POP POP POP POP POP POP POP JUMP JUMPDEST PUSH1 0x1 DUP2 DUP2 SLOAD DUP2 LT PUSH2 0x65F JUMPI PUSH0 DUP1 REVERT JUMPDEST SWAP1 PUSH0 MSTORE PUSH1 0x20 PUSH0 KECCAK256 SWAP1 PUSH1 0x5 MUL ADD PUSH0 SWAP2 POP SWAP1 POP DUP1 PUSH0 ADD PUSH0 SWAP1 SLOAD SWAP1 PUSH2 0x100 EXP SWAP1 DIV PUSH20 0xFFFFFFFFFFFFFFFFFFFFFFFFFFFFFFFFFFFFFFFF AND SWAP1 DUP1 PUSH1 0x1 ADD PUSH0 SWAP1 SLOAD SWAP1 PUSH2 0x100 EXP SWAP1 DIV PUSH20 0xFFFFFFFFFFFFFFFFFFFFFFFFFFFFFFFFFFFFFFFF AND SWAP1 DUP1 PUSH1 0x2 ADD PUSH0 SWAP1 SLOAD SWAP1 PUSH2 0x100 EXP SWAP1 DIV PUSH20 0xFFFFFFFFFFFFFFFFFFFFFFFFFFFFFFFFFFFFFFFF AND SWAP1 DUP1 PUSH1 0x3 ADD SLOAD SWAP1 DUP1 PUSH1 0x4 ADD PUSH0 SWAP1 SLOAD SWAP1 PUSH2 0x100 EXP SWAP1 DIV PUSH1 0xFF AND SWAP1 DUP1 PUSH1 0x4 ADD PUSH1 0x1 SWAP1 SLOAD SWAP1 PUSH2 0x100 EXP SWAP1 DIV PUSH1 0xFF AND SWAP1 DUP1 PUSH1 0x4 ADD PUSH1 0x2 SWAP1 SLOAD SWAP1 PUSH2 0x100 EXP SWAP1 DIV PUSH20 0xFFFFFFFFFFFFFFFFFFFFFFFFFFFFFFFFFFFFFFFF AND SWAP1 POP DUP8 JUMP JUMPDEST CALLVALUE PUSH7 0x60A24181E4000 DUP2 LT ISZERO DUP1 ISZERO PUSH2 0x753 JUMPI POP PUSH8 0xDE0B6B3A7640000 DUP2 GT ISZERO JUMPDEST PUSH2 0x792 JUMPI PUSH1 0x40 MLOAD PUSH32 0x8C379A000000000000000000000000000000000000000000000000000000000 DUP2 MSTORE PUSH1 0x4 ADD PUSH2 0x789 SWAP1 PUSH2 0x14FE JUMP JUMPDEST PUSH1 0x40 MLOAD DUP1 SWAP2 SUB SWAP1 REVERT JUMPDEST PUSH0 PUSH1 0x1 DUP4 DUP2 SLOAD DUP2 LT PUSH2 0x7A7 JUMPI PUSH2 0x7A6 PUSH2 0x1174 JUMP JUMPDEST JUMPDEST SWAP1 PUSH0 MSTORE PUSH1 0x20 PUSH0 KECCAK256 SWAP1 PUSH1 0x5 MUL ADD SWAP1 POP DUP1 PUSH1 0x4 ADD PUSH0 SWAP1 SLOAD SWAP1 PUSH2 0x100 EXP SWAP1 DIV PUSH1 0xFF AND DUP1 ISZERO PUSH2 0x7E1 JUMPI POP DUP1 PUSH1 0x4 ADD PUSH1 0x1 SWAP1 SLOAD SWAP1 PUSH2 0x100 EXP SWAP1 DIV PUSH1 0xFF AND ISZERO JUMPDEST PUSH2 0x820 JUMPI PUSH1 0x40 MLOAD PUSH32 0x8C379A000000000000000000000000000000000000000000000000000000000 DUP2 MSTORE PUSH1 0x4 ADD PUSH2 0x817 SWAP1 PUSH2 0x158C JUMP JUMPDEST PUSH1 0x40 MLOAD DUP1 SWAP2 SUB SWAP1 REVERT JUMPDEST DUP1 PUSH1 0x3 ADD SLOAD CALLVALUE EQ PUSH2 0x866 JUMPI PUSH1 0x40 MLOAD PUSH32 0x8C379A000000000000000000000000000000000000000000000000000000000 DUP2 MSTORE PUSH1 0x4 ADD PUSH2 0x85D SWAP1 PUSH2 0x161A JUMP JUMPDEST PUSH1 0x40 MLOAD DUP1 SWAP2 SUB SWAP1 REVERT JUMPDEST DUP1 PUSH1 0x1 ADD PUSH0 SWAP1 SLOAD SWAP1 PUSH2 0x100 EXP SWAP1 DIV PUSH20 0xFFFFFFFFFFFFFFFFFFFFFFFFFFFFFFFFFFFFFFFF AND PUSH20 0xFFFFFFFFFFFFFFFFFFFFFFFFFFFFFFFFFFFFFFFF AND CALLER PUSH20 0xFFFFFFFFFFFFFFFFFFFFFFFFFFFFFFFFFFFFFFFF AND SUB PUSH2 0x8F7 JUMPI PUSH1 0x40 MLOAD PUSH32 0x8C379A000000000000000000000000000000000000000000000000000000000 DUP2 MSTORE PUSH1 0x4 ADD PUSH2 0x8EE SWAP1 PUSH2 0x16A8 JUMP JUMPDEST PUSH1 0x40 MLOAD DUP1 SWAP2 SUB SWAP1 REVERT JUMPDEST CALLER DUP2 PUSH0 ADD PUSH0 PUSH2 0x100 EXP DUP2 SLOAD DUP2 PUSH20 0xFFFFFFFFFFFFFFFFFFFFFFFFFFFFFFFFFFFFFFFF MUL NOT AND SWAP1 DUP4 PUSH20 0xFFFFFFFFFFFFFFFFFFFFFFFFFFFFFFFFFFFFFFFF AND MUL OR SWAP1 SSTORE POP PUSH1 0x1 DUP2 PUSH1 0x4 ADD PUSH1 0x1 PUSH2 0x100 EXP DUP2 SLOAD DUP2 PUSH1 0xFF MUL NOT AND SWAP1 DUP4 ISZERO ISZERO MUL OR SWAP1 SSTORE POP POP POP POP JUMP JUMPDEST PUSH0 SELFBALANCE SWAP1 POP SWAP1 JUMP JUMPDEST PUSH1 0x60 PUSH1 0x1 DUP1 SLOAD DUP1 PUSH1 0x20 MUL PUSH1 0x20 ADD PUSH1 0x40 MLOAD SWAP1 DUP2 ADD PUSH1 0x40 MSTORE DUP1 SWAP3 SWAP2 SWAP1 DUP2 DUP2 MSTORE PUSH1 0x20 ADD PUSH0 SWAP1 JUMPDEST DUP3 DUP3 LT ISZERO PUSH2 0xB47 JUMPI DUP4 DUP3 SWAP1 PUSH0 MSTORE PUSH1 0x20 PUSH0 KECCAK256 SWAP1 PUSH1 0x5 MUL ADD PUSH1 0x40 MLOAD DUP1 PUSH1 0xE0 ADD PUSH1 0x40 MSTORE SWAP1 DUP2 PUSH0 DUP3 ADD PUSH0 SWAP1 SLOAD SWAP1 PUSH2 0x100 EXP SWAP1 DIV PUSH20 0xFFFFFFFFFFFFFFFFFFFFFFFFFFFFFFFFFFFFFFFF AND PUSH20 0xFFFFFFFFFFFFFFFFFFFFFFFFFFFFFFFFFFFFFFFF AND PUSH20 0xFFFFFFFFFFFFFFFFFFFFFFFFFFFFFFFFFFFFFFFF AND DUP2 MSTORE PUSH1 0x20 ADD PUSH1 0x1 DUP3 ADD PUSH0 SWAP1 SLOAD SWAP1 PUSH2 0x100 EXP SWAP1 DIV PUSH20 0xFFFFFFFFFFFFFFFFFFFFFFFFFFFFFFFFFFFFFFFF AND PUSH20 0xFFFFFFFFFFFFFFFFFFFFFFFFFFFFFFFFFFFFFFFF AND PUSH20 0xFFFFFFFFFFFFFFFFFFFFFFFFFFFFFFFFFFFFFFFF AND DUP2 MSTORE PUSH1 0x20 ADD PUSH1 0x2 DUP3 ADD PUSH0 SWAP1 SLOAD SWAP1 PUSH2 0x100 EXP SWAP1 DIV PUSH20 0xFFFFFFFFFFFFFFFFFFFFFFFFFFFFFFFFFFFFFFFF AND PUSH20 0xFFFFFFFFFFFFFFFFFFFFFFFFFFFFFFFFFFFFFFFF AND PUSH20 0xFFFFFFFFFFFFFFFFFFFFFFFFFFFFFFFFFFFFFFFF AND DUP2 MSTORE PUSH1 0x20 ADD PUSH1 0x3 DUP3 ADD SLOAD DUP2 MSTORE PUSH1 0x20 ADD PUSH1 0x4 DUP3 ADD PUSH0 SWAP1 SLOAD SWAP1 PUSH2 0x100 EXP SWAP1 DIV PUSH1 0xFF AND ISZERO ISZERO ISZERO ISZERO DUP2 MSTORE PUSH1 0x20 ADD PUSH1 0x4 DUP3 ADD PUSH1 0x1 SWAP1 SLOAD SWAP1 PUSH2 0x100 EXP SWAP1 DIV PUSH1 0xFF AND ISZERO ISZERO ISZERO ISZERO DUP2 MSTORE PUSH1 0x20 ADD PUSH1 0x4 DUP3 ADD PUSH1 0x2 SWAP1 SLOAD SWAP1 PUSH2 0x100 EXP SWAP1 DIV PUSH20 0xFFFFFFFFFFFFFFFFFFFFFFFFFFFFFFFFFFFFFFFF AND PUSH20 0xFFFFFFFFFFFFFFFFFFFFFFFFFFFFFFFFFFFFFFFF AND PUSH20 0xFFFFFFFFFFFFFFFFFFFFFFFFFFFFFFFFFFFFFFFF AND DUP2 MSTORE POP POP DUP2 MSTORE PUSH1 0x20 ADD SWAP1 PUSH1 0x1 ADD SWAP1 PUSH2 0x984 JUMP JUMPDEST POP POP POP POP SWAP1 POP SWAP1 JUMP JUMPDEST CALLVALUE PUSH7 0x60A24181E4000 DUP2 LT ISZERO DUP1 ISZERO PUSH2 0xB70 JUMPI POP PUSH8 0xDE0B6B3A7640000 DUP2 GT ISZERO JUMPDEST PUSH2 0xBAF JUMPI PUSH1 0x40 MLOAD PUSH32 0x8C379A000000000000000000000000000000000000000000000000000000000 DUP2 MSTORE PUSH1 0x4 ADD PUSH2 0xBA6 SWAP1 PUSH2 0x14FE JUMP JUMPDEST PUSH1 0x40 MLOAD DUP1 SWAP2 SUB SWAP1 REVERT JUMPDEST PUSH0 CALLER SWAP1 POP PUSH0 PUSH1 0x40 MLOAD DUP1 PUSH1 0xE0 ADD PUSH1 0x40 MSTORE DUP1 PUSH0 PUSH20 0xFFFFFFFFFFFFFFFFFFFFFFFFFFFFFFFFFFFFFFFF AND DUP2 MSTORE PUSH1 0x20 ADD DUP4 PUSH20 0xFFFFFFFFFFFFFFFFFFFFFFFFFFFFFFFFFFFFFFFF AND DUP2 MSTORE PUSH1 0x20 ADD PUSH0 PUSH20 0xFFFFFFFFFFFFFFFFFFFFFFFFFFFFFFFFFFFFFFFF AND DUP2 MSTORE PUSH1 0x20 ADD CALLVALUE DUP2 MSTORE PUSH1 0x20 ADD PUSH1 0x1 ISZERO ISZERO DUP2 MSTORE PUSH1 0x20 ADD PUSH0 ISZERO ISZERO DUP2 MSTORE PUSH1 0x20 ADD PUSH0 PUSH20 0xFFFFFFFFFFFFFFFFFFFFFFFFFFFFFFFFFFFFFFFF AND DUP2 MSTORE POP SWAP1 POP PUSH1 0x1 DUP2 SWAP1 DUP1 PUSH1 0x1 DUP2 SLOAD ADD DUP1 DUP3 SSTORE DUP1 SWAP2 POP POP PUSH1 0x1 SWAP1 SUB SWAP1 PUSH0 MSTORE PUSH1 0x20 PUSH0 KECCAK256 SWAP1 PUSH1 0x5 MUL ADD PUSH0 SWAP1 SWAP2 SWAP1 SWAP2 SWAP1 SWAP2 POP PUSH0 DUP3 ADD MLOAD DUP2 PUSH0 ADD PUSH0 PUSH2 0x100 EXP DUP2 SLOAD DUP2 PUSH20 0xFFFFFFFFFFFFFFFFFFFFFFFFFFFFFFFFFFFFFFFF MUL NOT AND SWAP1 DUP4 PUSH20 0xFFFFFFFFFFFFFFFFFFFFFFFFFFFFFFFFFFFFFFFF AND MUL OR SWAP1 SSTORE POP PUSH1 0x20 DUP3 ADD MLOAD DUP2 PUSH1 0x1 ADD PUSH0 PUSH2 0x100 EXP DUP2 SLOAD DUP2 PUSH20 0xFFFFFFFFFFFFFFFFFFFFFFFFFFFFFFFFFFFFFFFF MUL NOT AND SWAP1 DUP4 PUSH20 0xFFFFFFFFFFFFFFFFFFFFFFFFFFFFFFFFFFFFFFFF AND MUL OR SWAP1 SSTORE POP PUSH1 0x40 DUP3 ADD MLOAD DUP2 PUSH1 0x2 ADD PUSH0 PUSH2 0x100 EXP DUP2 SLOAD DUP2 PUSH20 0xFFFFFFFFFFFFFFFFFFFFFFFFFFFFFFFFFFFFFFFF MUL NOT AND SWAP1 DUP4 PUSH20 0xFFFFFFFFFFFFFFFFFFFFFFFFFFFFFFFFFFFFFFFF AND MUL OR SWAP1 SSTORE POP PUSH1 0x60 DUP3 ADD MLOAD DUP2 PUSH1 0x3 ADD SSTORE PUSH1 0x80 DUP3 ADD MLOAD DUP2 PUSH1 0x4 ADD PUSH0 PUSH2 0x100 EXP DUP2 SLOAD DUP2 PUSH1 0xFF MUL NOT AND SWAP1 DUP4 ISZERO ISZERO MUL OR SWAP1 SSTORE POP PUSH1 0xA0 DUP3 ADD MLOAD DUP2 PUSH1 0x4 ADD PUSH1 0x1 PUSH2 0x100 EXP DUP2 SLOAD DUP2 PUSH1 0xFF MUL NOT AND SWAP1 DUP4 ISZERO ISZERO MUL OR SWAP1 SSTORE POP PUSH1 0xC0 DUP3 ADD MLOAD DUP2 PUSH1 0x4 ADD PUSH1 0x2 PUSH2 0x100 EXP DUP2 SLOAD DUP2 PUSH20 0xFFFFFFFFFFFFFFFFFFFFFFFFFFFFFFFFFFFFFFFF MUL NOT AND SWAP1 DUP4 PUSH20 0xFFFFFFFFFFFFFFFFFFFFFFFFFFFFFFFFFFFFFFFF AND MUL OR SWAP1 SSTORE POP POP POP DUP2 PUSH20 0xFFFFFFFFFFFFFFFFFFFFFFFFFFFFFFFFFFFFFFFF AND PUSH0 PUSH20 0xFFFFFFFFFFFFFFFFFFFFFFFFFFFFFFFFFFFFFFFF AND PUSH32 0x9F35D8B2B608C7FB87CBD5BB99303D30BB4C28312A9CC11A5FF23A06A21B724B CALLVALUE PUSH1 0x40 MLOAD PUSH2 0xE2E SWAP2 SWAP1 PUSH2 0xFDA JUMP JUMPDEST PUSH1 0x40 MLOAD DUP1 SWAP2 SUB SWAP1 LOG3 POP POP POP JUMP JUMPDEST PUSH0 DUP1 REVERT JUMPDEST PUSH0 DUP2 SWAP1 POP SWAP2 SWAP1 POP JUMP JUMPDEST PUSH2 0xE51 DUP2 PUSH2 0xE3F JUMP JUMPDEST DUP2 EQ PUSH2 0xE5B JUMPI PUSH0 DUP1 REVERT JUMPDEST POP JUMP JUMPDEST PUSH0 DUP2 CALLDATALOAD SWAP1 POP PUSH2 0xE6C DUP2 PUSH2 0xE48 JUMP JUMPDEST SWAP3 SWAP2 POP POP JUMP JUMPDEST PUSH0 PUSH1 0x20 DUP3 DUP5 SUB SLT ISZERO PUSH2 0xE87 JUMPI PUSH2 0xE86 PUSH2 0xE3B JUMP JUMPDEST JUMPDEST PUSH0 PUSH2 0xE94 DUP5 DUP3 DUP6 ADD PUSH2 0xE5E JUMP JUMPDEST SWAP2 POP POP SWAP3 SWAP2 POP POP JUMP JUMPDEST PUSH0 PUSH20 0xFFFFFFFFFFFFFFFFFFFFFFFFFFFFFFFFFFFFFFFF DUP3 AND SWAP1 POP SWAP2 SWAP1 POP JUMP JUMPDEST PUSH0 PUSH2 0xEC6 DUP3 PUSH2 0xE9D JUMP JUMPDEST SWAP1 POP SWAP2 SWAP1 POP JUMP JUMPDEST PUSH2 0xED6 DUP2 PUSH2 0xEBC JUMP JUMPDEST DUP2 EQ PUSH2 0xEE0 JUMPI PUSH0 DUP1 REVERT JUMPDEST POP JUMP JUMPDEST PUSH0 DUP2 CALLDATALOAD SWAP1 POP PUSH2 0xEF1 DUP2 PUSH2 0xECD JUMP JUMPDEST SWAP3 SWAP2 POP POP JUMP JUMPDEST PUSH0 DUP1 PUSH1 0x40 DUP4 DUP6 SUB SLT ISZERO PUSH2 0xF0D JUMPI PUSH2 0xF0C PUSH2 0xE3B JUMP JUMPDEST JUMPDEST PUSH0 PUSH2 0xF1A DUP6 DUP3 DUP7 ADD PUSH2 0xE5E JUMP JUMPDEST SWAP3 POP POP PUSH1 0x20 PUSH2 0xF2B DUP6 DUP3 DUP7 ADD PUSH2 0xEE3 JUMP JUMPDEST SWAP2 POP POP SWAP3 POP SWAP3 SWAP1 POP JUMP JUMPDEST PUSH2 0xF3E DUP2 PUSH2 0xEBC JUMP JUMPDEST DUP3 MSTORE POP POP JUMP JUMPDEST PUSH2 0xF4D DUP2 PUSH2 0xE3F JUMP JUMPDEST DUP3 MSTORE POP POP JUMP JUMPDEST PUSH0 DUP2 ISZERO ISZERO SWAP1 POP SWAP2 SWAP1 POP JUMP JUMPDEST PUSH2 0xF67 DUP2 PUSH2 0xF53 JUMP JUMPDEST DUP3 MSTORE POP POP JUMP JUMPDEST PUSH0 PUSH1 0xE0 DUP3 ADD SWAP1 POP PUSH2 0xF80 PUSH0 DUP4 ADD DUP11 PUSH2 0xF35 JUMP JUMPDEST PUSH2 0xF8D PUSH1 0x20 DUP4 ADD DUP10 PUSH2 0xF35 JUMP JUMPDEST PUSH2 0xF9A PUSH1 0x40 DUP4 ADD DUP9 PUSH2 0xF35 JUMP JUMPDEST PUSH2 0xFA7 PUSH1 0x60 DUP4 ADD DUP8 PUSH2 0xF44 JUMP JUMPDEST PUSH2 0xFB4 PUSH1 0x80 DUP4 ADD DUP7 PUSH2 0xF5E JUMP JUMPDEST PUSH2 0xFC1 PUSH1 0xA0 DUP4 ADD DUP6 PUSH2 0xF5E JUMP JUMPDEST PUSH2 0xFCE PUSH1 0xC0 DUP4 ADD DUP5 PUSH2 0xF35 JUMP JUMPDEST SWAP9 SWAP8 POP POP POP POP POP POP POP POP JUMP JUMPDEST PUSH0 PUSH1 0x20 DUP3 ADD SWAP1 POP PUSH2 0xFED PUSH0 DUP4 ADD DUP5 PUSH2 0xF44 JUMP JUMPDEST SWAP3 SWAP2 POP POP JUMP JUMPDEST PUSH0 DUP2 MLOAD SWAP1 POP SWAP2 SWAP1 POP JUMP JUMPDEST PUSH0 DUP3 DUP3 MSTORE PUSH1 0x20 DUP3 ADD SWAP1 POP SWAP3 SWAP2 POP POP JUMP JUMPDEST PUSH0 DUP2 SWAP1 POP PUSH1 0x20 DUP3 ADD SWAP1 POP SWAP2 SWAP1 POP JUMP JUMPDEST PUSH2 0x1025 DUP2 PUSH2 0xEBC JUMP JUMPDEST DUP3 MSTORE POP POP JUMP JUMPDEST PUSH2 0x1034 DUP2 PUSH2 0xE3F JUMP JUMPDEST DUP3 MSTORE POP POP JUMP JUMPDEST PUSH2 0x1043 DUP2 PUSH2 0xF53 JUMP JUMPDEST DUP3 MSTORE POP POP JUMP JUMPDEST PUSH1 0xE0 DUP3 ADD PUSH0 DUP3 ADD MLOAD PUSH2 0x105D PUSH0 DUP6 ADD DUP3 PUSH2 0x101C JUMP JUMPDEST POP PUSH1 0x20 DUP3 ADD MLOAD PUSH2 0x1070 PUSH1 0x20 DUP6 ADD DUP3 PUSH2 0x101C JUMP JUMPDEST POP PUSH1 0x40 DUP3 ADD MLOAD PUSH2 0x1083 PUSH1 0x40 DUP6 ADD DUP3 PUSH2 0x101C JUMP JUMPDEST POP PUSH1 0x60 DUP3 ADD MLOAD PUSH2 0x1096 PUSH1 0x60 DUP6 ADD DUP3 PUSH2 0x102B JUMP JUMPDEST POP PUSH1 0x80 DUP3 ADD MLOAD PUSH2 0x10A9 PUSH1 0x80 DUP6 ADD DUP3 PUSH2 0x103A JUMP JUMPDEST POP PUSH1 0xA0 DUP3 ADD MLOAD PUSH2 0x10BC PUSH1 0xA0 DUP6 ADD DUP3 PUSH2 0x103A JUMP JUMPDEST POP PUSH1 0xC0 DUP3 ADD MLOAD PUSH2 0x10CF PUSH1 0xC0 DUP6 ADD DUP3 PUSH2 0x101C JUMP JUMPDEST POP POP POP POP JUMP JUMPDEST PUSH0 PUSH2 0x10E0 DUP4 DUP4 PUSH2 0x1049 JUMP JUMPDEST PUSH1 0xE0 DUP4 ADD SWAP1 POP SWAP3 SWAP2 POP POP JUMP JUMPDEST PUSH0 PUSH1 0x20 DUP3 ADD SWAP1 POP SWAP2 SWAP1 POP JUMP JUMPDEST PUSH0 PUSH2 0x1102 DUP3 PUSH2 0xFF3 JUMP JUMPDEST PUSH2 0x110C DUP2 DUP6 PUSH2 0xFFD JUMP JUMPDEST SWAP4 POP PUSH2 0x1117 DUP4 PUSH2 0x100D JUMP JUMPDEST DUP1 PUSH0 JUMPDEST DUP4 DUP2 LT ISZERO PUSH2 0x1147 JUMPI DUP2 MLOAD PUSH2 0x112E DUP9 DUP3 PUSH2 0x10D5 JUMP JUMPDEST SWAP8 POP PUSH2 0x1139 DUP4 PUSH2 0x10EC JUMP JUMPDEST SWAP3 POP POP PUSH1 0x1 DUP2 ADD SWAP1 POP PUSH2 0x111A JUMP JUMPDEST POP DUP6 SWAP4 POP POP POP POP SWAP3 SWAP2 POP POP JUMP JUMPDEST PUSH0 PUSH1 0x20 DUP3 ADD SWAP1 POP DUP2 DUP2 SUB PUSH0 DUP4 ADD MSTORE PUSH2 0x116C DUP2 DUP5 PUSH2 0x10F8 JUMP JUMPDEST SWAP1 POP SWAP3 SWAP2 POP POP JUMP JUMPDEST PUSH32 0x4E487B7100000000000000000000000000000000000000000000000000000000 PUSH0 MSTORE PUSH1 0x32 PUSH1 0x4 MSTORE PUSH1 0x24 PUSH0 REVERT JUMPDEST PUSH0 DUP3 DUP3 MSTORE PUSH1 0x20 DUP3 ADD SWAP1 POP SWAP3 SWAP2 POP POP JUMP JUMPDEST PUSH32 0x4F2064657361666961646F206E616F20706F646520736572206F206A75697A2E PUSH0 DUP3 ADD MSTORE POP JUMP JUMPDEST PUSH0 PUSH2 0x11E5 PUSH1 0x20 DUP4 PUSH2 0x11A1 JUMP JUMPDEST SWAP2 POP PUSH2 0x11F0 DUP3 PUSH2 0x11B1 JUMP JUMPDEST PUSH1 0x20 DUP3 ADD SWAP1 POP SWAP2 SWAP1 POP JUMP JUMPDEST PUSH0 PUSH1 0x20 DUP3 ADD SWAP1 POP DUP2 DUP2 SUB PUSH0 DUP4 ADD MSTORE PUSH2 0x1212 DUP2 PUSH2 0x11D9 JUMP JUMPDEST SWAP1 POP SWAP2 SWAP1 POP JUMP JUMPDEST PUSH32 0x4F20646573616669616E7465206E616F20706F646520736572206F206A75697A PUSH0 DUP3 ADD MSTORE PUSH32 0x2E00000000000000000000000000000000000000000000000000000000000000 PUSH1 0x20 DUP3 ADD MSTORE POP JUMP JUMPDEST PUSH0 PUSH2 0x1273 PUSH1 0x21 DUP4 PUSH2 0x11A1 JUMP JUMPDEST SWAP2 POP PUSH2 0x127E DUP3 PUSH2 0x1219 JUMP JUMPDEST PUSH1 0x40 DUP3 ADD SWAP1 POP SWAP2 SWAP1 POP JUMP JUMPDEST PUSH0 PUSH1 0x20 DUP3 ADD SWAP1 POP DUP2 DUP2 SUB PUSH0 DUP4 ADD MSTORE PUSH2 0x12A0 DUP2 PUSH2 0x1267 JUMP JUMPDEST SWAP1 POP SWAP2 SWAP1 POP JUMP JUMPDEST PUSH32 0x536F6D656E7465206F206A75697A20706F6465206465636C61726172206F2076 PUSH0 DUP3 ADD MSTORE PUSH32 0x656E6365646F7200000000000000000000000000000000000000000000000000 PUSH1 0x20 DUP3 ADD MSTORE POP JUMP JUMPDEST PUSH0 PUSH2 0x1301 PUSH1 0x27 DUP4 PUSH2 0x11A1 JUMP JUMPDEST SWAP2 POP PUSH2 0x130C DUP3 PUSH2 0x12A7 JUMP JUMPDEST PUSH1 0x40 DUP3 ADD SWAP1 POP SWAP2 SWAP1 POP JUMP JUMPDEST PUSH0 PUSH1 0x20 DUP3 ADD SWAP1 POP DUP2 DUP2 SUB PUSH0 DUP4 ADD MSTORE PUSH2 0x132E DUP2 PUSH2 0x12F5 JUMP JUMPDEST SWAP1 POP SWAP2 SWAP1 POP JUMP JUMPDEST PUSH32 0x4465736166696F206E616F206573746120617469766F206F75206E616F20666F PUSH0 DUP3 ADD MSTORE PUSH32 0x692061636569746F000000000000000000000000000000000000000000000000 PUSH1 0x20 DUP3 ADD MSTORE POP JUMP JUMPDEST PUSH0 PUSH2 0x138F PUSH1 0x28 DUP4 PUSH2 0x11A1 JUMP JUMPDEST SWAP2 POP PUSH2 0x139A DUP3 PUSH2 0x1335 JUMP JUMPDEST PUSH1 0x40 DUP3 ADD SWAP1 POP SWAP2 SWAP1 POP JUMP JUMPDEST PUSH0 PUSH1 0x20 DUP3 ADD SWAP1 POP DUP2 DUP2 SUB PUSH0 DUP4 ADD MSTORE PUSH2 0x13BC DUP2 PUSH2 0x1383 JUMP JUMPDEST SWAP1 POP SWAP2 SWAP1 POP JUMP JUMPDEST PUSH32 0x4E487B7100000000000000000000000000000000000000000000000000000000 PUSH0 MSTORE PUSH1 0x11 PUSH1 0x4 MSTORE PUSH1 0x24 PUSH0 REVERT JUMPDEST PUSH0 PUSH2 0x13FA DUP3 PUSH2 0xE3F JUMP JUMPDEST SWAP2 POP PUSH2 0x1405 DUP4 PUSH2 0xE3F JUMP JUMPDEST SWAP3 POP DUP3 DUP3 MUL PUSH2 0x1413 DUP2 PUSH2 0xE3F JUMP JUMPDEST SWAP2 POP DUP3 DUP3 DIV DUP5 EQ DUP4 ISZERO OR PUSH2 0x142A JUMPI PUSH2 0x1429 PUSH2 0x13C3 JUMP JUMPDEST JUMPDEST POP SWAP3 SWAP2 POP POP JUMP JUMPDEST PUSH32 0x4E487B7100000000000000000000000000000000000000000000000000000000 PUSH0 MSTORE PUSH1 0x12 PUSH1 0x4 MSTORE PUSH1 0x24 PUSH0 REVERT JUMPDEST PUSH0 PUSH2 0x1468 DUP3 PUSH2 0xE3F JUMP JUMPDEST SWAP2 POP PUSH2 0x1473 DUP4 PUSH2 0xE3F JUMP JUMPDEST SWAP3 POP DUP3 PUSH2 0x1483 JUMPI PUSH2 0x1482 PUSH2 0x1431 JUMP JUMPDEST JUMPDEST DUP3 DUP3 DIV SWAP1 POP SWAP3 SWAP2 POP POP JUMP JUMPDEST PUSH32 0x56616C6F722064612061706F73746120666F726120646F20696E74657276616C PUSH0 DUP3 ADD MSTORE PUSH32 0x6F207065726D697469646F000000000000000000000000000000000000000000 PUSH1 0x20 DUP3 ADD MSTORE POP JUMP JUMPDEST PUSH0 PUSH2 0x14E8 PUSH1 0x2B DUP4 PUSH2 0x11A1 JUMP JUMPDEST SWAP2 POP PUSH2 0x14F3 DUP3 PUSH2 0x148E JUMP JUMPDEST PUSH1 0x40 DUP3 ADD SWAP1 POP SWAP2 SWAP1 POP JUMP JUMPDEST PUSH0 PUSH1 0x20 DUP3 ADD SWAP1 POP DUP2 DUP2 SUB PUSH0 DUP4 ADD MSTORE PUSH2 0x1515 DUP2 PUSH2 0x14DC JUMP JUMPDEST SWAP1 POP SWAP2 SWAP1 POP JUMP JUMPDEST PUSH32 0x4465736166696F206E616F206573746120617469766F206F75206A6120666F69 PUSH0 DUP3 ADD MSTORE PUSH32 0x2061636569746F2E000000000000000000000000000000000000000000000000 PUSH1 0x20 DUP3 ADD MSTORE POP JUMP JUMPDEST PUSH0 PUSH2 0x1576 PUSH1 0x28 DUP4 PUSH2 0x11A1 JUMP JUMPDEST SWAP2 POP PUSH2 0x1581 DUP3 PUSH2 0x151C JUMP JUMPDEST PUSH1 0x40 DUP3 ADD SWAP1 POP SWAP2 SWAP1 POP JUMP JUMPDEST PUSH0 PUSH1 0x20 DUP3 ADD SWAP1 POP DUP2 DUP2 SUB PUSH0 DUP4 ADD MSTORE PUSH2 0x15A3 DUP2 PUSH2 0x156A JUMP JUMPDEST SWAP1 POP SWAP2 SWAP1 POP JUMP JUMPDEST PUSH32 0x56616C6F7220656E766961646F206469666572656E746520646F2076616C6F72 PUSH0 DUP3 ADD MSTORE PUSH32 0x2064612061706F7374612E000000000000000000000000000000000000000000 PUSH1 0x20 DUP3 ADD MSTORE POP JUMP JUMPDEST PUSH0 PUSH2 0x1604 PUSH1 0x2B DUP4 PUSH2 0x11A1 JUMP JUMPDEST SWAP2 POP PUSH2 0x160F DUP3 PUSH2 0x15AA JUMP JUMPDEST PUSH1 0x40 DUP3 ADD SWAP1 POP SWAP2 SWAP1 POP JUMP JUMPDEST PUSH0 PUSH1 0x20 DUP3 ADD SWAP1 POP DUP2 DUP2 SUB PUSH0 DUP4 ADD MSTORE PUSH2 0x1631 DUP2 PUSH2 0x15F8 JUMP JUMPDEST SWAP1 POP SWAP2 SWAP1 POP JUMP JUMPDEST PUSH32 0x566F6365206E616F20706F64652061636569746172206F2070726F7072696F20 PUSH0 DUP3 ADD MSTORE PUSH32 0x6465736166696F2E000000000000000000000000000000000000000000000000 PUSH1 0x20 DUP3 ADD MSTORE POP JUMP JUMPDEST PUSH0 PUSH2 0x1692 PUSH1 0x28 DUP4 PUSH2 0x11A1 JUMP JUMPDEST SWAP2 POP PUSH2 0x169D DUP3 PUSH2 0x1638 JUMP JUMPDEST PUSH1 0x40 DUP3 ADD SWAP1 POP SWAP2 SWAP1 POP JUMP JUMPDEST PUSH0 PUSH1 0x20 DUP3 ADD SWAP1 POP DUP2 DUP2 SUB PUSH0 DUP4 ADD MSTORE PUSH2 0x16BF DUP2 PUSH2 0x1686 JUMP JUMPDEST SWAP1 POP SWAP2 SWAP1 POP JUMP INVALID LOG2 PUSH5 0x6970667358 0x22 SLT KECCAK256 0xD7 PUSH23 0x5EE047689ECF943E77E5D178F03EB4CCC5E64BD0F590FA 0xE2 GAS 0xD7 NUMBER 0xB7 PUSH18 0x3E64736F6C63430008180033000000000000 "
				},
				"gasEstimates": {
					"creation": {
						"codeDepositCost": "1176800",
						"executionCost": "25484",
						"totalCost": "1202284"
					},
					"external": {
						"aceitarDesafio(uint256)": "59916",
						"balance()": "356",
						"criarDesafio()": "194642",
						"declararJuiz(uint256)": "35612",
						"declararVencedor(uint256,address)": "infinite",
						"desafiosPorDesafiado(uint256)": "infinite",
						"getDesafios()": "infinite"
					}
				},
				"methodIdentifiers": {
					"aceitarDesafio(uint256)": "acdaca3e",
					"balance()": "b69ef8a8",
					"criarDesafio()": "fb03fa72",
					"declararJuiz(uint256)": "01958da5",
					"declararVencedor(uint256,address)": "02317522",
					"desafiosPorDesafiado(uint256)": "90de64ee",
					"getDesafios()": "d34c6445"
				}
			},
			"storageLayout": {
				"storage": [
					{
						"astId": 7,
						"contract": "contracts/desafio.sol:DesafioContract",
						"label": "owner",
						"offset": 0,
						"slot": "0",
						"type": "t_address"
					},
					{
						"astId": 35,
						"contract": "contracts/desafio.sol:DesafioContract",
						"label": "desafiosPorDesafiado",
						"offset": 0,
						"slot": "1",
						"type": "t_array(t_struct(Desafio)31_storage)dyn_storage"
					}
				],
				"types": {
					"t_address": {
						"encoding": "inplace",
						"label": "address",
						"numberOfBytes": "20"
					},
					"t_array(t_struct(Desafio)31_storage)dyn_storage": {
						"base": "t_struct(Desafio)31_storage",
						"encoding": "dynamic_array",
						"label": "struct DesafioContract.Desafio[]",
						"numberOfBytes": "32"
					},
					"t_bool": {
						"encoding": "inplace",
						"label": "bool",
						"numberOfBytes": "1"
					},
					"t_struct(Desafio)31_storage": {
						"encoding": "inplace",
						"label": "struct DesafioContract.Desafio",
						"members": [
							{
								"astId": 18,
								"contract": "contracts/desafio.sol:DesafioContract",
								"label": "desafiante",
								"offset": 0,
								"slot": "0",
								"type": "t_address"
							},
							{
								"astId": 20,
								"contract": "contracts/desafio.sol:DesafioContract",
								"label": "desafiado",
								"offset": 0,
								"slot": "1",
								"type": "t_address"
							},
							{
								"astId": 22,
								"contract": "contracts/desafio.sol:DesafioContract",
								"label": "juiz",
								"offset": 0,
								"slot": "2",
								"type": "t_address"
							},
							{
								"astId": 24,
								"contract": "contracts/desafio.sol:DesafioContract",
								"label": "valorAposta",
								"offset": 0,
								"slot": "3",
								"type": "t_uint256"
							},
							{
								"astId": 26,
								"contract": "contracts/desafio.sol:DesafioContract",
								"label": "desafioAtivo",
								"offset": 0,
								"slot": "4",
								"type": "t_bool"
							},
							{
								"astId": 28,
								"contract": "contracts/desafio.sol:DesafioContract",
								"label": "desafioAceito",
								"offset": 1,
								"slot": "4",
								"type": "t_bool"
							},
							{
								"astId": 30,
								"contract": "contracts/desafio.sol:DesafioContract",
								"label": "vencedor",
								"offset": 2,
								"slot": "4",
								"type": "t_address"
							}
						],
						"numberOfBytes": "160"
					},
					"t_uint256": {
						"encoding": "inplace",
						"label": "uint256",
						"numberOfBytes": "32"
					}
				}
			},
			"userdoc": {
				"kind": "user",
				"methods": {},
				"version": 1
			}
		}
	}
}