{
	"contracts/desafio.sol": {
		"DesafioContract": {
			"abi": [
				{
					"anonymous": false,
					"inputs": [
						{
							"indexed": true,
							"internalType": "address",
							"name": "desafiante",
							"type": "address"
						},
						{
							"indexed": true,
							"internalType": "address",
							"name": "desafiado",
							"type": "address"
						},
						{
							"indexed": false,
							"internalType": "uint256",
							"name": "valorAposta",
							"type": "uint256"
						}
					],
					"name": "DesafioCriado",
					"type": "event"
				},
				{
					"inputs": [
						{
							"internalType": "uint256",
							"name": "_indiceDesafio",
							"type": "uint256"
						}
					],
					"name": "aceitarDesafio",
					"outputs": [],
					"stateMutability": "payable",
					"type": "function"
				},
				{
					"inputs": [
						{
							"internalType": "uint256",
							"name": "_valorAposta",
							"type": "uint256"
						}
					],
					"name": "criarDesafio",
					"outputs": [],
					"stateMutability": "payable",
					"type": "function"
				},
				{
					"inputs": [
						{
							"internalType": "uint256",
							"name": "_indiceDesafio",
							"type": "uint256"
						}
					],
					"name": "declararJuiz",
					"outputs": [],
					"stateMutability": "nonpayable",
					"type": "function"
				},
				{
					"inputs": [
						{
							"internalType": "uint256",
							"name": "_indiceDesafio",
							"type": "uint256"
						},
						{
							"internalType": "address",
							"name": "_vencedor",
							"type": "address"
						}
					],
					"name": "declararVencedor",
					"outputs": [],
					"stateMutability": "payable",
					"type": "function"
				},
				{
					"inputs": [
						{
							"internalType": "uint256",
							"name": "",
							"type": "uint256"
						}
					],
					"name": "desafiosPorDesafiado",
					"outputs": [
						{
							"internalType": "address",
							"name": "desafiante",
							"type": "address"
						},
						{
							"internalType": "address",
							"name": "desafiado",
							"type": "address"
						},
						{
							"internalType": "address",
							"name": "juiz",
							"type": "address"
						},
						{
							"internalType": "uint256",
							"name": "valorAposta",
							"type": "uint256"
						},
						{
							"internalType": "bool",
							"name": "desafioAtivo",
							"type": "bool"
						},
						{
							"internalType": "bool",
							"name": "desafioAceito",
							"type": "bool"
						},
						{
							"internalType": "address",
							"name": "vencedor",
							"type": "address"
						}
					],
					"stateMutability": "view",
					"type": "function"
				},
				{
					"inputs": [],
					"name": "getDesafios",
					"outputs": [
						{
							"components": [
								{
									"internalType": "address",
									"name": "desafiante",
									"type": "address"
								},
								{
									"internalType": "address",
									"name": "desafiado",
									"type": "address"
								},
								{
									"internalType": "address",
									"name": "juiz",
									"type": "address"
								},
								{
									"internalType": "uint256",
									"name": "valorAposta",
									"type": "uint256"
								},
								{
									"internalType": "bool",
									"name": "desafioAtivo",
									"type": "bool"
								},
								{
									"internalType": "bool",
									"name": "desafioAceito",
									"type": "bool"
								},
								{
									"internalType": "address",
									"name": "vencedor",
									"type": "address"
								}
							],
							"internalType": "struct DesafioContract.Desafio[]",
							"name": "",
							"type": "tuple[]"
						}
					],
					"stateMutability": "view",
					"type": "function"
				}
			],
			"devdoc": {
				"kind": "dev",
				"methods": {},
				"version": 1
			},
			"evm": {
				"assembly": "    /* \"contracts/desafio.sol\":99:4821  contract DesafioContract {... */\n  mstore(0x40, 0x80)\n  callvalue\n  dup1\n  iszero\n  tag_1\n  jumpi\n  0x00\n  dup1\n  revert\ntag_1:\n  pop\n  dataSize(sub_0)\n  dup1\n  dataOffset(sub_0)\n  0x00\n  codecopy\n  0x00\n  return\nstop\n\nsub_0: assembly {\n        /* \"contracts/desafio.sol\":99:4821  contract DesafioContract {... */\n      mstore(0x40, 0x80)\n      jumpi(tag_1, lt(calldatasize, 0x04))\n      shr(0xe0, calldataload(0x00))\n      dup1\n      0x01958da5\n      eq\n      tag_2\n      jumpi\n      dup1\n      0x02317522\n      eq\n      tag_3\n      jumpi\n      dup1\n      0x30fd4a74\n      eq\n      tag_4\n      jumpi\n      dup1\n      0x90de64ee\n      eq\n      tag_5\n      jumpi\n      dup1\n      0xacdaca3e\n      eq\n      tag_6\n      jumpi\n      dup1\n      0xd34c6445\n      eq\n      tag_7\n      jumpi\n    tag_1:\n      0x00\n      dup1\n      revert\n        /* \"contracts/desafio.sol\":4495:4703  function declararJuiz(uint _indiceDesafio) external juizValido(msg.sender, _indiceDesafio) {... */\n    tag_2:\n      callvalue\n      dup1\n      iszero\n      tag_8\n      jumpi\n      0x00\n      dup1\n      revert\n    tag_8:\n      pop\n      tag_9\n      0x04\n      dup1\n      calldatasize\n      sub\n      dup2\n      add\n      swap1\n      tag_10\n      swap2\n      swap1\n      tag_11\n      jump\t// in\n    tag_10:\n      tag_12\n      jump\t// in\n    tag_9:\n      stop\n        /* \"contracts/desafio.sol\":3293:4487  function declararVencedor(uint256 _indiceDesafio, address _vencedor) external payable  {... */\n    tag_3:\n      tag_13\n      0x04\n      dup1\n      calldatasize\n      sub\n      dup2\n      add\n      swap1\n      tag_14\n      swap2\n      swap1\n      tag_15\n      jump\t// in\n    tag_14:\n      tag_16\n      jump\t// in\n    tag_13:\n      stop\n        /* \"contracts/desafio.sol\":1365:2340  function criarDesafio(uint256 _valorAposta) external payable valorApostaValido(_valorAposta) {... */\n    tag_4:\n      tag_17\n      0x04\n      dup1\n      calldatasize\n      sub\n      dup2\n      add\n      swap1\n      tag_18\n      swap2\n      swap1\n      tag_11\n      jump\t// in\n    tag_18:\n      tag_19\n      jump\t// in\n    tag_17:\n      stop\n        /* \"contracts/desafio.sol\":510:547  Desafio[] public desafiosPorDesafiado */\n    tag_5:\n      callvalue\n      dup1\n      iszero\n      tag_20\n      jumpi\n      0x00\n      dup1\n      revert\n    tag_20:\n      pop\n      tag_21\n      0x04\n      dup1\n      calldatasize\n      sub\n      dup2\n      add\n      swap1\n      tag_22\n      swap2\n      swap1\n      tag_11\n      jump\t// in\n    tag_22:\n      tag_23\n      jump\t// in\n    tag_21:\n      mload(0x40)\n      tag_24\n      swap8\n      swap7\n      swap6\n      swap5\n      swap4\n      swap3\n      swap2\n      swap1\n      tag_25\n      jump\t// in\n    tag_24:\n      mload(0x40)\n      dup1\n      swap2\n      sub\n      swap1\n      return\n        /* \"contracts/desafio.sol\":2405:3236  function aceitarDesafio(uint256 _indiceDesafio) external payable valorApostaValido(msg.value) {... */\n    tag_6:\n      tag_26\n      0x04\n      dup1\n      calldatasize\n      sub\n      dup2\n      add\n      swap1\n      tag_27\n      swap2\n      swap1\n      tag_11\n      jump\t// in\n    tag_27:\n      tag_28\n      jump\t// in\n    tag_26:\n      stop\n        /* \"contracts/desafio.sol\":4711:4818  function getDesafios() public view returns(Desafio[] memory) {... */\n    tag_7:\n      callvalue\n      dup1\n      iszero\n      tag_29\n      jumpi\n      0x00\n      dup1\n      revert\n    tag_29:\n      pop\n      tag_30\n      tag_31\n      jump\t// in\n    tag_30:\n      mload(0x40)\n      tag_32\n      swap2\n      swap1\n      tag_33\n      jump\t// in\n    tag_32:\n      mload(0x40)\n      dup1\n      swap2\n      sub\n      swap1\n      return\n        /* \"contracts/desafio.sol\":4495:4703  function declararJuiz(uint _indiceDesafio) external juizValido(msg.sender, _indiceDesafio) {... */\n    tag_12:\n        /* \"contracts/desafio.sol\":4558:4568  msg.sender */\n      caller\n        /* \"contracts/desafio.sol\":4570:4584  _indiceDesafio */\n      dup2\n        /* \"contracts/desafio.sol\":1100:1120  desafiosPorDesafiado */\n      0x00\n        /* \"contracts/desafio.sol\":1121:1134  _indexDesafio */\n      dup2\n        /* \"contracts/desafio.sol\":1100:1135  desafiosPorDesafiado[_indexDesafio] */\n      dup2\n      sload\n      dup2\n      lt\n      tag_35\n      jumpi\n      tag_36\n      tag_37\n      jump\t// in\n    tag_36:\n    tag_35:\n      swap1\n      0x00\n      mstore\n      keccak256(0x00, 0x20)\n      swap1\n      0x05\n      mul\n      add\n        /* \"contracts/desafio.sol\":1100:1145  desafiosPorDesafiado[_indexDesafio].desafiado */\n      0x01\n      add\n      0x00\n      swap1\n      sload\n      swap1\n      0x0100\n      exp\n      swap1\n      div\n      0xffffffffffffffffffffffffffffffffffffffff\n      and\n        /* \"contracts/desafio.sol\":1092:1145  juiz != desafiosPorDesafiado[_indexDesafio].desafiado */\n      0xffffffffffffffffffffffffffffffffffffffff\n      and\n        /* \"contracts/desafio.sol\":1092:1096  juiz */\n      dup3\n        /* \"contracts/desafio.sol\":1092:1145  juiz != desafiosPorDesafiado[_indexDesafio].desafiado */\n      0xffffffffffffffffffffffffffffffffffffffff\n      and\n      sub\n        /* \"contracts/desafio.sol\":1084:1182  require(juiz != desafiosPorDesafiado[_indexDesafio].desafiado, \"O desafiado nao pode ser o juiz.\") */\n      tag_39\n      jumpi\n      mload(0x40)\n      0x08c379a000000000000000000000000000000000000000000000000000000000\n      dup2\n      mstore\n      0x04\n      add\n      tag_40\n      swap1\n      tag_41\n      jump\t// in\n    tag_40:\n      mload(0x40)\n      dup1\n      swap2\n      sub\n      swap1\n      revert\n    tag_39:\n        /* \"contracts/desafio.sol\":1209:1229  desafiosPorDesafiado */\n      0x00\n        /* \"contracts/desafio.sol\":1230:1243  _indexDesafio */\n      dup2\n        /* \"contracts/desafio.sol\":1209:1244  desafiosPorDesafiado[_indexDesafio] */\n      dup2\n      sload\n      dup2\n      lt\n      tag_42\n      jumpi\n      tag_43\n      tag_37\n      jump\t// in\n    tag_43:\n    tag_42:\n      swap1\n      0x00\n      mstore\n      keccak256(0x00, 0x20)\n      swap1\n      0x05\n      mul\n      add\n        /* \"contracts/desafio.sol\":1209:1255  desafiosPorDesafiado[_indexDesafio].desafiante */\n      0x00\n      add\n      0x00\n      swap1\n      sload\n      swap1\n      0x0100\n      exp\n      swap1\n      div\n      0xffffffffffffffffffffffffffffffffffffffff\n      and\n        /* \"contracts/desafio.sol\":1201:1255  juiz != desafiosPorDesafiado[_indexDesafio].desafiante */\n      0xffffffffffffffffffffffffffffffffffffffff\n      and\n        /* \"contracts/desafio.sol\":1201:1205  juiz */\n      dup3\n        /* \"contracts/desafio.sol\":1201:1255  juiz != desafiosPorDesafiado[_indexDesafio].desafiante */\n      0xffffffffffffffffffffffffffffffffffffffff\n      and\n      sub\n        /* \"contracts/desafio.sol\":1193:1293  require(juiz != desafiosPorDesafiado[_indexDesafio].desafiante, \"O desafiante nao pode ser o juiz.\") */\n      tag_45\n      jumpi\n      mload(0x40)\n      0x08c379a000000000000000000000000000000000000000000000000000000000\n      dup2\n      mstore\n      0x04\n      add\n      tag_46\n      swap1\n      tag_47\n      jump\t// in\n    tag_46:\n      mload(0x40)\n      dup1\n      swap2\n      sub\n      swap1\n      revert\n    tag_45:\n        /* \"contracts/desafio.sol\":4597:4620  Desafio storage desafio */\n      0x00\n        /* \"contracts/desafio.sol\":4623:4643  desafiosPorDesafiado */\n      dup1\n        /* \"contracts/desafio.sol\":4644:4658  _indiceDesafio */\n      dup5\n        /* \"contracts/desafio.sol\":4623:4659  desafiosPorDesafiado[_indiceDesafio] */\n      dup2\n      sload\n      dup2\n      lt\n      tag_49\n      jumpi\n      tag_50\n      tag_37\n      jump\t// in\n    tag_50:\n    tag_49:\n      swap1\n      0x00\n      mstore\n      keccak256(0x00, 0x20)\n      swap1\n      0x05\n      mul\n      add\n        /* \"contracts/desafio.sol\":4597:4659  Desafio storage desafio = desafiosPorDesafiado[_indiceDesafio] */\n      swap1\n      pop\n        /* \"contracts/desafio.sol\":4685:4695  msg.sender */\n      caller\n        /* \"contracts/desafio.sol\":4670:4677  desafio */\n      dup2\n        /* \"contracts/desafio.sol\":4670:4682  desafio.juiz */\n      0x02\n      add\n      0x00\n        /* \"contracts/desafio.sol\":4670:4695  desafio.juiz = msg.sender */\n      0x0100\n      exp\n      dup2\n      sload\n      dup2\n      0xffffffffffffffffffffffffffffffffffffffff\n      mul\n      not\n      and\n      swap1\n      dup4\n      0xffffffffffffffffffffffffffffffffffffffff\n      and\n      mul\n      or\n      swap1\n      sstore\n      pop\n        /* \"contracts/desafio.sol\":4586:4703  {... */\n      pop\n        /* \"contracts/desafio.sol\":4495:4703  function declararJuiz(uint _indiceDesafio) external juizValido(msg.sender, _indiceDesafio) {... */\n      pop\n      pop\n      pop\n      jump\t// out\n        /* \"contracts/desafio.sol\":3293:4487  function declararVencedor(uint256 _indiceDesafio, address _vencedor) external payable  {... */\n    tag_16:\n        /* \"contracts/desafio.sol\":3466:3486  desafiosPorDesafiado */\n      0x00\n        /* \"contracts/desafio.sol\":3487:3501  _indiceDesafio */\n      dup3\n        /* \"contracts/desafio.sol\":3466:3502  desafiosPorDesafiado[_indiceDesafio] */\n      dup2\n      sload\n      dup2\n      lt\n      tag_53\n      jumpi\n      tag_54\n      tag_37\n      jump\t// in\n    tag_54:\n    tag_53:\n      swap1\n      0x00\n      mstore\n      keccak256(0x00, 0x20)\n      swap1\n      0x05\n      mul\n      add\n        /* \"contracts/desafio.sol\":3466:3507  desafiosPorDesafiado[_indiceDesafio].juiz */\n      0x02\n      add\n      0x00\n      swap1\n      sload\n      swap1\n      0x0100\n      exp\n      swap1\n      div\n      0xffffffffffffffffffffffffffffffffffffffff\n      and\n        /* \"contracts/desafio.sol\":3452:3507  msg.sender == desafiosPorDesafiado[_indiceDesafio].juiz */\n      0xffffffffffffffffffffffffffffffffffffffff\n      and\n        /* \"contracts/desafio.sol\":3452:3462  msg.sender */\n      caller\n        /* \"contracts/desafio.sol\":3452:3507  msg.sender == desafiosPorDesafiado[_indiceDesafio].juiz */\n      0xffffffffffffffffffffffffffffffffffffffff\n      and\n      eq\n        /* \"contracts/desafio.sol\":3444:3551  require(msg.sender == desafiosPorDesafiado[_indiceDesafio].juiz, \"Somente o juiz pode declarar o vencedor\") */\n      tag_56\n      jumpi\n      mload(0x40)\n      0x08c379a000000000000000000000000000000000000000000000000000000000\n      dup2\n      mstore\n      0x04\n      add\n      tag_57\n      swap1\n      tag_58\n      jump\t// in\n    tag_57:\n      mload(0x40)\n      dup1\n      swap2\n      sub\n      swap1\n      revert\n    tag_56:\n        /* \"contracts/desafio.sol\":3615:3638  Desafio storage desafio */\n      0x00\n        /* \"contracts/desafio.sol\":3641:3661  desafiosPorDesafiado */\n      dup1\n        /* \"contracts/desafio.sol\":3662:3676  _indiceDesafio */\n      dup4\n        /* \"contracts/desafio.sol\":3641:3677  desafiosPorDesafiado[_indiceDesafio] */\n      dup2\n      sload\n      dup2\n      lt\n      tag_59\n      jumpi\n      tag_60\n      tag_37\n      jump\t// in\n    tag_60:\n    tag_59:\n      swap1\n      0x00\n      mstore\n      keccak256(0x00, 0x20)\n      swap1\n      0x05\n      mul\n      add\n        /* \"contracts/desafio.sol\":3615:3677  Desafio storage desafio = desafiosPorDesafiado[_indiceDesafio] */\n      swap1\n      pop\n        /* \"contracts/desafio.sol\":3765:3772  desafio */\n      dup1\n        /* \"contracts/desafio.sol\":3765:3785  desafio.desafioAtivo */\n      0x04\n      add\n      0x00\n      swap1\n      sload\n      swap1\n      0x0100\n      exp\n      swap1\n      div\n      0xff\n      and\n        /* \"contracts/desafio.sol\":3765:3810  desafio.desafioAtivo && desafio.desafioAceito */\n      dup1\n      iszero\n      tag_62\n      jumpi\n      pop\n        /* \"contracts/desafio.sol\":3789:3796  desafio */\n      dup1\n        /* \"contracts/desafio.sol\":3789:3810  desafio.desafioAceito */\n      0x04\n      add\n      0x01\n      swap1\n      sload\n      swap1\n      0x0100\n      exp\n      swap1\n      div\n      0xff\n      and\n        /* \"contracts/desafio.sol\":3765:3810  desafio.desafioAtivo && desafio.desafioAceito */\n    tag_62:\n        /* \"contracts/desafio.sol\":3757:3855  require(desafio.desafioAtivo && desafio.desafioAceito, \"Desafio nao esta ativo ou nao foi aceito\") */\n      tag_63\n      jumpi\n      mload(0x40)\n      0x08c379a000000000000000000000000000000000000000000000000000000000\n      dup2\n      mstore\n      0x04\n      add\n      tag_64\n      swap1\n      tag_65\n      jump\t// in\n    tag_64:\n      mload(0x40)\n      dup1\n      swap2\n      sub\n      swap1\n      revert\n    tag_63:\n        /* \"contracts/desafio.sol\":3917:3926  _vencedor */\n      dup2\n        /* \"contracts/desafio.sol\":3898:3905  desafio */\n      dup2\n        /* \"contracts/desafio.sol\":3898:3914  desafio.vencedor */\n      0x04\n      add\n      0x02\n        /* \"contracts/desafio.sol\":3898:3926  desafio.vencedor = _vencedor */\n      0x0100\n      exp\n      dup2\n      sload\n      dup2\n      0xffffffffffffffffffffffffffffffffffffffff\n      mul\n      not\n      and\n      swap1\n      dup4\n      0xffffffffffffffffffffffffffffffffffffffff\n      and\n      mul\n      or\n      swap1\n      sstore\n      pop\n        /* \"contracts/desafio.sol\":3973:3992  uint256 valorPremio */\n      0x00\n        /* \"contracts/desafio.sol\":4021:4023  10 */\n      0x0a\n        /* \"contracts/desafio.sol\":4017:4018  8 */\n      0x08\n        /* \"contracts/desafio.sol\":3995:4002  desafio */\n      dup4\n        /* \"contracts/desafio.sol\":3995:4014  desafio.valorAposta */\n      0x03\n      add\n      sload\n        /* \"contracts/desafio.sol\":3995:4018  desafio.valorAposta * 8 */\n      tag_66\n      swap2\n      swap1\n      tag_67\n      jump\t// in\n    tag_66:\n        /* \"contracts/desafio.sol\":3995:4023  desafio.valorAposta * 8 / 10 */\n      tag_68\n      swap2\n      swap1\n      tag_69\n      jump\t// in\n    tag_68:\n        /* \"contracts/desafio.sol\":3973:4023  uint256 valorPremio = desafio.valorAposta * 8 / 10 */\n      swap1\n      pop\n        /* \"contracts/desafio.sol\":4057:4083  uint256 taxaAdministrativa */\n      0x00\n        /* \"contracts/desafio.sol\":4112:4114  10 */\n      0x0a\n        /* \"contracts/desafio.sol\":4108:4109  1 */\n      0x01\n        /* \"contracts/desafio.sol\":4086:4093  desafio */\n      dup5\n        /* \"contracts/desafio.sol\":4086:4105  desafio.valorAposta */\n      0x03\n      add\n      sload\n        /* \"contracts/desafio.sol\":4086:4109  desafio.valorAposta * 1 */\n      tag_70\n      swap2\n      swap1\n      tag_67\n      jump\t// in\n    tag_70:\n        /* \"contracts/desafio.sol\":4086:4114  desafio.valorAposta * 1 / 10 */\n      tag_71\n      swap2\n      swap1\n      tag_69\n      jump\t// in\n    tag_71:\n        /* \"contracts/desafio.sol\":4057:4114  uint256 taxaAdministrativa = desafio.valorAposta * 1 / 10 */\n      swap1\n      pop\n        /* \"contracts/desafio.sol\":4158:4179  uint256 pagamentoJuiz */\n      0x00\n        /* \"contracts/desafio.sol\":4208:4210  10 */\n      0x0a\n        /* \"contracts/desafio.sol\":4204:4205  1 */\n      0x01\n        /* \"contracts/desafio.sol\":4182:4189  desafio */\n      dup6\n        /* \"contracts/desafio.sol\":4182:4201  desafio.valorAposta */\n      0x03\n      add\n      sload\n        /* \"contracts/desafio.sol\":4182:4205  desafio.valorAposta * 1 */\n      tag_72\n      swap2\n      swap1\n      tag_67\n      jump\t// in\n    tag_72:\n        /* \"contracts/desafio.sol\":4182:4210  desafio.valorAposta * 1 / 10 */\n      tag_73\n      swap2\n      swap1\n      tag_69\n      jump\t// in\n    tag_73:\n        /* \"contracts/desafio.sol\":4158:4210  uint256 pagamentoJuiz = desafio.valorAposta * 1 / 10 */\n      swap1\n      pop\n        /* \"contracts/desafio.sol\":4286:4295  _vencedor */\n      dup5\n        /* \"contracts/desafio.sol\":4278:4305  payable(_vencedor).transfer */\n      0xffffffffffffffffffffffffffffffffffffffff\n      and\n        /* \"contracts/desafio.sol\":4278:4318  payable(_vencedor).transfer(valorPremio) */\n      0x08fc\n        /* \"contracts/desafio.sol\":4306:4317  valorPremio */\n      dup5\n        /* \"contracts/desafio.sol\":4278:4318  payable(_vencedor).transfer(valorPremio) */\n      swap1\n      dup2\n      iszero\n      mul\n      swap1\n      mload(0x40)\n      0x00\n      mload(0x40)\n      dup1\n      dup4\n      sub\n      dup2\n      dup6\n      dup9\n      dup9\n      call\n      swap4\n      pop\n      pop\n      pop\n      pop\n      iszero\n      dup1\n      iszero\n      tag_75\n      jumpi\n      returndatasize\n      0x00\n      dup1\n      returndatacopy\n      revert(0x00, returndatasize)\n    tag_75:\n      pop\n        /* \"contracts/desafio.sol\":4337:4344  desafio */\n      dup4\n        /* \"contracts/desafio.sol\":4337:4349  desafio.juiz */\n      0x02\n      add\n      0x00\n      swap1\n      sload\n      swap1\n      0x0100\n      exp\n      swap1\n      div\n      0xffffffffffffffffffffffffffffffffffffffff\n      and\n        /* \"contracts/desafio.sol\":4329:4359  payable(desafio.juiz).transfer */\n      0xffffffffffffffffffffffffffffffffffffffff\n      and\n        /* \"contracts/desafio.sol\":4329:4374  payable(desafio.juiz).transfer(pagamentoJuiz) */\n      0x08fc\n        /* \"contracts/desafio.sol\":4360:4373  pagamentoJuiz */\n      dup3\n        /* \"contracts/desafio.sol\":4329:4374  payable(desafio.juiz).transfer(pagamentoJuiz) */\n      swap1\n      dup2\n      iszero\n      mul\n      swap1\n      mload(0x40)\n      0x00\n      mload(0x40)\n      dup1\n      dup4\n      sub\n      dup2\n      dup6\n      dup9\n      dup9\n      call\n      swap4\n      pop\n      pop\n      pop\n      pop\n      iszero\n      dup1\n      iszero\n      tag_77\n      jumpi\n      returndatasize\n      0x00\n      dup1\n      returndatacopy\n      revert(0x00, returndatasize)\n    tag_77:\n      pop\n        /* \"contracts/desafio.sol\":4401:4405  this */\n      address\n        /* \"contracts/desafio.sol\":4385:4416  payable(address(this)).transfer */\n      0xffffffffffffffffffffffffffffffffffffffff\n      and\n        /* \"contracts/desafio.sol\":4385:4436  payable(address(this)).transfer(taxaAdministrativa) */\n      0x08fc\n        /* \"contracts/desafio.sol\":4417:4435  taxaAdministrativa */\n      dup4\n        /* \"contracts/desafio.sol\":4385:4436  payable(address(this)).transfer(taxaAdministrativa) */\n      swap1\n      dup2\n      iszero\n      mul\n      swap1\n      mload(0x40)\n      0x00\n      mload(0x40)\n      dup1\n      dup4\n      sub\n      dup2\n      dup6\n      dup9\n      dup9\n      call\n      swap4\n      pop\n      pop\n      pop\n      pop\n      iszero\n      dup1\n      iszero\n      tag_79\n      jumpi\n      returndatasize\n      0x00\n      dup1\n      returndatacopy\n      revert(0x00, returndatasize)\n    tag_79:\n      pop\n        /* \"contracts/desafio.sol\":3380:4487  {... */\n      pop\n      pop\n      pop\n      pop\n        /* \"contracts/desafio.sol\":3293:4487  function declararVencedor(uint256 _indiceDesafio, address _vencedor) external payable  {... */\n      pop\n      pop\n      jump\t// out\n        /* \"contracts/desafio.sol\":1365:2340  function criarDesafio(uint256 _valorAposta) external payable valorApostaValido(_valorAposta) {... */\n    tag_19:\n        /* \"contracts/desafio.sol\":1444:1456  _valorAposta */\n      dup1\n        /* \"contracts/desafio.sol\":898:917  0.0017 * (1*10**18) */\n      0x060a24181e4000\n        /* \"contracts/desafio.sol\":882:894  _valorAposta */\n      dup2\n        /* \"contracts/desafio.sol\":882:917  _valorAposta >= 0.0017 * (1*10**18) */\n      lt\n      iszero\n        /* \"contracts/desafio.sol\":882:943  _valorAposta >= 0.0017 * (1*10**18) && _valorAposta <= 10**18 */\n      dup1\n      iszero\n      tag_81\n      jumpi\n      pop\n        /* \"contracts/desafio.sol\":937:943  10**18 */\n      0x0de0b6b3a7640000\n        /* \"contracts/desafio.sol\":921:933  _valorAposta */\n      dup2\n        /* \"contracts/desafio.sol\":921:943  _valorAposta <= 10**18 */\n      gt\n      iszero\n        /* \"contracts/desafio.sol\":882:943  _valorAposta >= 0.0017 * (1*10**18) && _valorAposta <= 10**18 */\n    tag_81:\n        /* \"contracts/desafio.sol\":874:991  require(_valorAposta >= 0.0017 * (1*10**18) && _valorAposta <= 10**18, \"Valor da aposta fora do intervalo permitido\") */\n      tag_82\n      jumpi\n      mload(0x40)\n      0x08c379a000000000000000000000000000000000000000000000000000000000\n      dup2\n      mstore\n      0x04\n      add\n      tag_83\n      swap1\n      tag_84\n      jump\t// in\n    tag_83:\n      mload(0x40)\n      dup1\n      swap2\n      sub\n      swap1\n      revert\n    tag_82:\n        /* \"contracts/desafio.sol\":1560:1572  _valorAposta */\n      dup2\n        /* \"contracts/desafio.sol\":1547:1556  msg.value */\n      callvalue\n        /* \"contracts/desafio.sol\":1547:1572  msg.value == _valorAposta */\n      eq\n        /* \"contracts/desafio.sol\":1539:1621  require(msg.value == _valorAposta, \"Valor enviado e diferente do valor da aposta\") */\n      tag_86\n      jumpi\n      mload(0x40)\n      0x08c379a000000000000000000000000000000000000000000000000000000000\n      dup2\n      mstore\n      0x04\n      add\n      tag_87\n      swap1\n      tag_88\n      jump\t// in\n    tag_87:\n      mload(0x40)\n      dup1\n      swap2\n      sub\n      swap1\n      revert\n    tag_86:\n        /* \"contracts/desafio.sol\":1634:1652  address _desafiado */\n      0x00\n        /* \"contracts/desafio.sol\":1655:1665  msg.sender */\n      caller\n        /* \"contracts/desafio.sol\":1634:1665  address _desafiado = msg.sender */\n      swap1\n      pop\n        /* \"contracts/desafio.sol\":1743:1747  this */\n      address\n        /* \"contracts/desafio.sol\":1727:1758  payable(address(this)).transfer */\n      0xffffffffffffffffffffffffffffffffffffffff\n      and\n        /* \"contracts/desafio.sol\":1727:1772  payable(address(this)).transfer(_valorAposta) */\n      0x08fc\n        /* \"contracts/desafio.sol\":1759:1771  _valorAposta */\n      dup5\n        /* \"contracts/desafio.sol\":1727:1772  payable(address(this)).transfer(_valorAposta) */\n      swap1\n      dup2\n      iszero\n      mul\n      swap1\n      mload(0x40)\n      0x00\n      mload(0x40)\n      dup1\n      dup4\n      sub\n      dup2\n      dup6\n      dup9\n      dup9\n      call\n      swap4\n      pop\n      pop\n      pop\n      pop\n      iszero\n      dup1\n      iszero\n      tag_90\n      jumpi\n      returndatasize\n      0x00\n      dup1\n      returndatacopy\n      revert(0x00, returndatasize)\n    tag_90:\n      pop\n        /* \"contracts/desafio.sol\":1812:1838  Desafio memory novoDesafio */\n      0x00\n        /* \"contracts/desafio.sol\":1841:2108  Desafio({... */\n      mload(0x40)\n      dup1\n      0xe0\n      add\n      0x40\n      mstore\n      dup1\n        /* \"contracts/desafio.sol\":1884:1885  0 */\n      0x00\n        /* \"contracts/desafio.sol\":1841:2108  Desafio({... */\n      0xffffffffffffffffffffffffffffffffffffffff\n      and\n      dup2\n      mstore\n      0x20\n      add\n        /* \"contracts/desafio.sol\":1912:1922  _desafiado */\n      dup4\n        /* \"contracts/desafio.sol\":1841:2108  Desafio({... */\n      0xffffffffffffffffffffffffffffffffffffffff\n      and\n      dup2\n      mstore\n      0x20\n      add\n        /* \"contracts/desafio.sol\":1951:1952  0 */\n      0x00\n        /* \"contracts/desafio.sol\":1841:2108  Desafio({... */\n      0xffffffffffffffffffffffffffffffffffffffff\n      and\n      dup2\n      mstore\n      0x20\n      add\n        /* \"contracts/desafio.sol\":1981:1993  _valorAposta */\n      dup6\n        /* \"contracts/desafio.sol\":1841:2108  Desafio({... */\n      dup2\n      mstore\n      0x20\n      add\n        /* \"contracts/desafio.sol\":2022:2026  true */\n      0x01\n        /* \"contracts/desafio.sol\":1841:2108  Desafio({... */\n      iszero\n      iszero\n      dup2\n      mstore\n      0x20\n      add\n        /* \"contracts/desafio.sol\":2056:2061  false */\n      0x00\n        /* \"contracts/desafio.sol\":1841:2108  Desafio({... */\n      iszero\n      iszero\n      dup2\n      mstore\n      0x20\n      add\n        /* \"contracts/desafio.sol\":2094:2095  0 */\n      0x00\n        /* \"contracts/desafio.sol\":1841:2108  Desafio({... */\n      0xffffffffffffffffffffffffffffffffffffffff\n      and\n      dup2\n      mstore\n      pop\n        /* \"contracts/desafio.sol\":1812:2108  Desafio memory novoDesafio = Desafio({... */\n      swap1\n      pop\n        /* \"contracts/desafio.sol\":2174:2194  desafiosPorDesafiado */\n      0x00\n        /* \"contracts/desafio.sol\":2200:2211  novoDesafio */\n      dup2\n        /* \"contracts/desafio.sol\":2174:2212  desafiosPorDesafiado.push(novoDesafio) */\n      swap1\n      dup1\n      0x01\n      dup2\n      sload\n      add\n      dup1\n      dup3\n      sstore\n      dup1\n      swap2\n      pop\n      pop\n      0x01\n      swap1\n      sub\n      swap1\n      0x00\n      mstore\n      keccak256(0x00, 0x20)\n      swap1\n      0x05\n      mul\n      add\n      0x00\n      swap1\n      swap2\n      swap1\n      swap2\n      swap1\n      swap2\n      pop\n      0x00\n      dup3\n      add\n      mload\n      dup2\n      0x00\n      add\n      exp(0x0100, 0x00)\n      dup2\n      sload\n      dup2\n      0xffffffffffffffffffffffffffffffffffffffff\n      mul\n      not\n      and\n      swap1\n      dup4\n      0xffffffffffffffffffffffffffffffffffffffff\n      and\n      mul\n      or\n      swap1\n      sstore\n      pop\n      0x20\n      dup3\n      add\n      mload\n      dup2\n      0x01\n      add\n      exp(0x0100, 0x00)\n      dup2\n      sload\n      dup2\n      0xffffffffffffffffffffffffffffffffffffffff\n      mul\n      not\n      and\n      swap1\n      dup4\n      0xffffffffffffffffffffffffffffffffffffffff\n      and\n      mul\n      or\n      swap1\n      sstore\n      pop\n      0x40\n      dup3\n      add\n      mload\n      dup2\n      0x02\n      add\n      exp(0x0100, 0x00)\n      dup2\n      sload\n      dup2\n      0xffffffffffffffffffffffffffffffffffffffff\n      mul\n      not\n      and\n      swap1\n      dup4\n      0xffffffffffffffffffffffffffffffffffffffff\n      and\n      mul\n      or\n      swap1\n      sstore\n      pop\n      0x60\n      dup3\n      add\n      mload\n      dup2\n      0x03\n      add\n      sstore\n      0x80\n      dup3\n      add\n      mload\n      dup2\n      0x04\n      add\n      exp(0x0100, 0x00)\n      dup2\n      sload\n      dup2\n      0xff\n      mul\n      not\n      and\n      swap1\n      dup4\n      iszero\n      iszero\n      mul\n      or\n      swap1\n      sstore\n      pop\n      0xa0\n      dup3\n      add\n      mload\n      dup2\n      0x04\n      add\n      exp(0x0100, 0x01)\n      dup2\n      sload\n      dup2\n      0xff\n      mul\n      not\n      and\n      swap1\n      dup4\n      iszero\n      iszero\n      mul\n      or\n      swap1\n      sstore\n      pop\n      0xc0\n      dup3\n      add\n      mload\n      dup2\n      0x04\n      add\n      exp(0x0100, 0x02)\n      dup2\n      sload\n      dup2\n      0xffffffffffffffffffffffffffffffffffffffff\n      mul\n      not\n      and\n      swap1\n      dup4\n      0xffffffffffffffffffffffffffffffffffffffff\n      and\n      mul\n      or\n      swap1\n      sstore\n      pop\n      pop\n      pop\n        /* \"contracts/desafio.sol\":2307:2317  _desafiado */\n      dup2\n        /* \"contracts/desafio.sol\":2281:2332  DesafioCriado(address(0), _desafiado, _valorAposta) */\n      0xffffffffffffffffffffffffffffffffffffffff\n      and\n        /* \"contracts/desafio.sol\":2303:2304  0 */\n      0x00\n        /* \"contracts/desafio.sol\":2281:2332  DesafioCriado(address(0), _desafiado, _valorAposta) */\n      0xffffffffffffffffffffffffffffffffffffffff\n      and\n      0x9f35d8b2b608c7fb87cbd5bb99303d30bb4c28312a9cc11a5ff23a06a21b724b\n        /* \"contracts/desafio.sol\":2319:2331  _valorAposta */\n      dup7\n        /* \"contracts/desafio.sol\":2281:2332  DesafioCriado(address(0), _desafiado, _valorAposta) */\n      mload(0x40)\n      tag_92\n      swap2\n      swap1\n      tag_93\n      jump\t// in\n    tag_92:\n      mload(0x40)\n      dup1\n      swap2\n      sub\n      swap1\n      log3\n        /* \"contracts/desafio.sol\":1458:2340  {... */\n      pop\n      pop\n        /* \"contracts/desafio.sol\":1365:2340  function criarDesafio(uint256 _valorAposta) external payable valorApostaValido(_valorAposta) {... */\n      pop\n      pop\n      jump\t// out\n        /* \"contracts/desafio.sol\":510:547  Desafio[] public desafiosPorDesafiado */\n    tag_23:\n      0x00\n      dup2\n      dup2\n      sload\n      dup2\n      lt\n      tag_94\n      jumpi\n      0x00\n      dup1\n      revert\n    tag_94:\n      swap1\n      0x00\n      mstore\n      keccak256(0x00, 0x20)\n      swap1\n      0x05\n      mul\n      add\n      0x00\n      swap2\n      pop\n      swap1\n      pop\n      dup1\n      0x00\n      add\n      0x00\n      swap1\n      sload\n      swap1\n      0x0100\n      exp\n      swap1\n      div\n      0xffffffffffffffffffffffffffffffffffffffff\n      and\n      swap1\n      dup1\n      0x01\n      add\n      0x00\n      swap1\n      sload\n      swap1\n      0x0100\n      exp\n      swap1\n      div\n      0xffffffffffffffffffffffffffffffffffffffff\n      and\n      swap1\n      dup1\n      0x02\n      add\n      0x00\n      swap1\n      sload\n      swap1\n      0x0100\n      exp\n      swap1\n      div\n      0xffffffffffffffffffffffffffffffffffffffff\n      and\n      swap1\n      dup1\n      0x03\n      add\n      sload\n      swap1\n      dup1\n      0x04\n      add\n      0x00\n      swap1\n      sload\n      swap1\n      0x0100\n      exp\n      swap1\n      div\n      0xff\n      and\n      swap1\n      dup1\n      0x04\n      add\n      0x01\n      swap1\n      sload\n      swap1\n      0x0100\n      exp\n      swap1\n      div\n      0xff\n      and\n      swap1\n      dup1\n      0x04\n      add\n      0x02\n      swap1\n      sload\n      swap1\n      0x0100\n      exp\n      swap1\n      div\n      0xffffffffffffffffffffffffffffffffffffffff\n      and\n      swap1\n      pop\n      dup8\n      jump\t// out\n        /* \"contracts/desafio.sol\":2405:3236  function aceitarDesafio(uint256 _indiceDesafio) external payable valorApostaValido(msg.value) {... */\n    tag_28:\n        /* \"contracts/desafio.sol\":2488:2497  msg.value */\n      callvalue\n        /* \"contracts/desafio.sol\":898:917  0.0017 * (1*10**18) */\n      0x060a24181e4000\n        /* \"contracts/desafio.sol\":882:894  _valorAposta */\n      dup2\n        /* \"contracts/desafio.sol\":882:917  _valorAposta >= 0.0017 * (1*10**18) */\n      lt\n      iszero\n        /* \"contracts/desafio.sol\":882:943  _valorAposta >= 0.0017 * (1*10**18) && _valorAposta <= 10**18 */\n      dup1\n      iszero\n      tag_97\n      jumpi\n      pop\n        /* \"contracts/desafio.sol\":937:943  10**18 */\n      0x0de0b6b3a7640000\n        /* \"contracts/desafio.sol\":921:933  _valorAposta */\n      dup2\n        /* \"contracts/desafio.sol\":921:943  _valorAposta <= 10**18 */\n      gt\n      iszero\n        /* \"contracts/desafio.sol\":882:943  _valorAposta >= 0.0017 * (1*10**18) && _valorAposta <= 10**18 */\n    tag_97:\n        /* \"contracts/desafio.sol\":874:991  require(_valorAposta >= 0.0017 * (1*10**18) && _valorAposta <= 10**18, \"Valor da aposta fora do intervalo permitido\") */\n      tag_98\n      jumpi\n      mload(0x40)\n      0x08c379a000000000000000000000000000000000000000000000000000000000\n      dup2\n      mstore\n      0x04\n      add\n      tag_99\n      swap1\n      tag_84\n      jump\t// in\n    tag_99:\n      mload(0x40)\n      dup1\n      swap2\n      sub\n      swap1\n      revert\n    tag_98:\n        /* \"contracts/desafio.sol\":2561:2584  Desafio storage desafio */\n      0x00\n        /* \"contracts/desafio.sol\":2587:2607  desafiosPorDesafiado */\n      dup1\n        /* \"contracts/desafio.sol\":2608:2622  _indiceDesafio */\n      dup4\n        /* \"contracts/desafio.sol\":2587:2623  desafiosPorDesafiado[_indiceDesafio] */\n      dup2\n      sload\n      dup2\n      lt\n      tag_101\n      jumpi\n      tag_102\n      tag_37\n      jump\t// in\n    tag_102:\n    tag_101:\n      swap1\n      0x00\n      mstore\n      keccak256(0x00, 0x20)\n      swap1\n      0x05\n      mul\n      add\n        /* \"contracts/desafio.sol\":2561:2623  Desafio storage desafio = desafiosPorDesafiado[_indiceDesafio] */\n      swap1\n      pop\n        /* \"contracts/desafio.sol\":2722:2729  desafio */\n      dup1\n        /* \"contracts/desafio.sol\":2722:2742  desafio.desafioAtivo */\n      0x04\n      add\n      0x00\n      swap1\n      sload\n      swap1\n      0x0100\n      exp\n      swap1\n      div\n      0xff\n      and\n        /* \"contracts/desafio.sol\":2722:2768  desafio.desafioAtivo && !desafio.desafioAceito */\n      dup1\n      iszero\n      tag_104\n      jumpi\n      pop\n        /* \"contracts/desafio.sol\":2747:2754  desafio */\n      dup1\n        /* \"contracts/desafio.sol\":2747:2768  desafio.desafioAceito */\n      0x04\n      add\n      0x01\n      swap1\n      sload\n      swap1\n      0x0100\n      exp\n      swap1\n      div\n      0xff\n      and\n        /* \"contracts/desafio.sol\":2746:2768  !desafio.desafioAceito */\n      iszero\n        /* \"contracts/desafio.sol\":2722:2768  desafio.desafioAtivo && !desafio.desafioAceito */\n    tag_104:\n        /* \"contracts/desafio.sol\":2714:2812  require(desafio.desafioAtivo && !desafio.desafioAceito, \"Desafio nao esta ativo ou ja foi aceito\") */\n      tag_105\n      jumpi\n      mload(0x40)\n      0x08c379a000000000000000000000000000000000000000000000000000000000\n      dup2\n      mstore\n      0x04\n      add\n      tag_106\n      swap1\n      tag_107\n      jump\t// in\n    tag_106:\n      mload(0x40)\n      dup1\n      swap2\n      sub\n      swap1\n      revert\n    tag_105:\n        /* \"contracts/desafio.sol\":2916:2923  desafio */\n      dup1\n        /* \"contracts/desafio.sol\":2916:2935  desafio.valorAposta */\n      0x03\n      add\n      sload\n        /* \"contracts/desafio.sol\":2903:2912  msg.value */\n      callvalue\n        /* \"contracts/desafio.sol\":2903:2935  msg.value == desafio.valorAposta */\n      eq\n        /* \"contracts/desafio.sol\":2895:2982  require(msg.value == desafio.valorAposta, \"Valor enviado diferente do valor da aposta\") */\n      tag_108\n      jumpi\n      mload(0x40)\n      0x08c379a000000000000000000000000000000000000000000000000000000000\n      dup2\n      mstore\n      0x04\n      add\n      tag_109\n      swap1\n      tag_110\n      jump\t// in\n    tag_109:\n      mload(0x40)\n      dup1\n      swap2\n      sub\n      swap1\n      revert\n    tag_108:\n        /* \"contracts/desafio.sol\":3076:3086  msg.sender */\n      caller\n        /* \"contracts/desafio.sol\":3055:3062  desafio */\n      dup2\n        /* \"contracts/desafio.sol\":3055:3073  desafio.desafiante */\n      0x00\n      add\n      0x00\n        /* \"contracts/desafio.sol\":3055:3086  desafio.desafiante = msg.sender */\n      0x0100\n      exp\n      dup2\n      sload\n      dup2\n      0xffffffffffffffffffffffffffffffffffffffff\n      mul\n      not\n      and\n      swap1\n      dup4\n      0xffffffffffffffffffffffffffffffffffffffff\n      and\n      mul\n      or\n      swap1\n      sstore\n      pop\n        /* \"contracts/desafio.sol\":3113:3117  this */\n      address\n        /* \"contracts/desafio.sol\":3097:3128  payable(address(this)).transfer */\n      0xffffffffffffffffffffffffffffffffffffffff\n      and\n        /* \"contracts/desafio.sol\":3097:3149  payable(address(this)).transfer(desafio.valorAposta) */\n      0x08fc\n        /* \"contracts/desafio.sol\":3129:3136  desafio */\n      dup3\n        /* \"contracts/desafio.sol\":3129:3148  desafio.valorAposta */\n      0x03\n      add\n      sload\n        /* \"contracts/desafio.sol\":3097:3149  payable(address(this)).transfer(desafio.valorAposta) */\n      swap1\n      dup2\n      iszero\n      mul\n      swap1\n      mload(0x40)\n      0x00\n      mload(0x40)\n      dup1\n      dup4\n      sub\n      dup2\n      dup6\n      dup9\n      dup9\n      call\n      swap4\n      pop\n      pop\n      pop\n      pop\n      iszero\n      dup1\n      iszero\n      tag_112\n      jumpi\n      returndatasize\n      0x00\n      dup1\n      returndatacopy\n      revert(0x00, returndatasize)\n    tag_112:\n      pop\n        /* \"contracts/desafio.sol\":3224:3228  true */\n      0x01\n        /* \"contracts/desafio.sol\":3200:3207  desafio */\n      dup2\n        /* \"contracts/desafio.sol\":3200:3221  desafio.desafioAceito */\n      0x04\n      add\n      0x01\n        /* \"contracts/desafio.sol\":3200:3228  desafio.desafioAceito = true */\n      0x0100\n      exp\n      dup2\n      sload\n      dup2\n      0xff\n      mul\n      not\n      and\n      swap1\n      dup4\n      iszero\n      iszero\n      mul\n      or\n      swap1\n      sstore\n      pop\n        /* \"contracts/desafio.sol\":2499:3236  {... */\n      pop\n        /* \"contracts/desafio.sol\":2405:3236  function aceitarDesafio(uint256 _indiceDesafio) external payable valorApostaValido(msg.value) {... */\n      pop\n      pop\n      jump\t// out\n        /* \"contracts/desafio.sol\":4711:4818  function getDesafios() public view returns(Desafio[] memory) {... */\n    tag_31:\n        /* \"contracts/desafio.sol\":4754:4770  Desafio[] memory */\n      0x60\n        /* \"contracts/desafio.sol\":4790:4810  desafiosPorDesafiado */\n      0x00\n        /* \"contracts/desafio.sol\":4783:4810  return desafiosPorDesafiado */\n      dup1\n      sload\n      dup1\n      0x20\n      mul\n      0x20\n      add\n      mload(0x40)\n      swap1\n      dup2\n      add\n      0x40\n      mstore\n      dup1\n      swap3\n      swap2\n      swap1\n      dup2\n      dup2\n      mstore\n      0x20\n      add\n      0x00\n      swap1\n    tag_114:\n      dup3\n      dup3\n      lt\n      iszero\n      tag_115\n      jumpi\n      dup4\n      dup3\n      swap1\n      0x00\n      mstore\n      keccak256(0x00, 0x20)\n      swap1\n      0x05\n      mul\n      add\n      mload(0x40)\n      dup1\n      0xe0\n      add\n      0x40\n      mstore\n      swap1\n      dup2\n      0x00\n      dup3\n      add\n      0x00\n      swap1\n      sload\n      swap1\n      0x0100\n      exp\n      swap1\n      div\n      0xffffffffffffffffffffffffffffffffffffffff\n      and\n      0xffffffffffffffffffffffffffffffffffffffff\n      and\n      0xffffffffffffffffffffffffffffffffffffffff\n      and\n      dup2\n      mstore\n      0x20\n      add\n      0x01\n      dup3\n      add\n      0x00\n      swap1\n      sload\n      swap1\n      0x0100\n      exp\n      swap1\n      div\n      0xffffffffffffffffffffffffffffffffffffffff\n      and\n      0xffffffffffffffffffffffffffffffffffffffff\n      and\n      0xffffffffffffffffffffffffffffffffffffffff\n      and\n      dup2\n      mstore\n      0x20\n      add\n      0x02\n      dup3\n      add\n      0x00\n      swap1\n      sload\n      swap1\n      0x0100\n      exp\n      swap1\n      div\n      0xffffffffffffffffffffffffffffffffffffffff\n      and\n      0xffffffffffffffffffffffffffffffffffffffff\n      and\n      0xffffffffffffffffffffffffffffffffffffffff\n      and\n      dup2\n      mstore\n      0x20\n      add\n      0x03\n      dup3\n      add\n      sload\n      dup2\n      mstore\n      0x20\n      add\n      0x04\n      dup3\n      add\n      0x00\n      swap1\n      sload\n      swap1\n      0x0100\n      exp\n      swap1\n      div\n      0xff\n      and\n      iszero\n      iszero\n      iszero\n      iszero\n      dup2\n      mstore\n      0x20\n      add\n      0x04\n      dup3\n      add\n      0x01\n      swap1\n      sload\n      swap1\n      0x0100\n      exp\n      swap1\n      div\n      0xff\n      and\n      iszero\n      iszero\n      iszero\n      iszero\n      dup2\n      mstore\n      0x20\n      add\n      0x04\n      dup3\n      add\n      0x02\n      swap1\n      sload\n      swap1\n      0x0100\n      exp\n      swap1\n      div\n      0xffffffffffffffffffffffffffffffffffffffff\n      and\n      0xffffffffffffffffffffffffffffffffffffffff\n      and\n      0xffffffffffffffffffffffffffffffffffffffff\n      and\n      dup2\n      mstore\n      pop\n      pop\n      dup2\n      mstore\n      0x20\n      add\n      swap1\n      0x01\n      add\n      swap1\n      jump(tag_114)\n    tag_115:\n      pop\n      pop\n      pop\n      pop\n      swap1\n      pop\n        /* \"contracts/desafio.sol\":4711:4818  function getDesafios() public view returns(Desafio[] memory) {... */\n      swap1\n      jump\t// out\n        /* \"#utility.yul\":88:205   */\n    tag_118:\n        /* \"#utility.yul\":197:198   */\n      0x00\n        /* \"#utility.yul\":194:195   */\n      dup1\n        /* \"#utility.yul\":187:199   */\n      revert\n        /* \"#utility.yul\":334:411   */\n    tag_120:\n        /* \"#utility.yul\":371:378   */\n      0x00\n        /* \"#utility.yul\":400:405   */\n      dup2\n        /* \"#utility.yul\":389:405   */\n      swap1\n      pop\n        /* \"#utility.yul\":334:411   */\n      swap2\n      swap1\n      pop\n      jump\t// out\n        /* \"#utility.yul\":417:539   */\n    tag_121:\n        /* \"#utility.yul\":490:514   */\n      tag_166\n        /* \"#utility.yul\":508:513   */\n      dup2\n        /* \"#utility.yul\":490:514   */\n      tag_120\n      jump\t// in\n    tag_166:\n        /* \"#utility.yul\":483:488   */\n      dup2\n        /* \"#utility.yul\":480:515   */\n      eq\n        /* \"#utility.yul\":470:533   */\n      tag_167\n      jumpi\n        /* \"#utility.yul\":529:530   */\n      0x00\n        /* \"#utility.yul\":526:527   */\n      dup1\n        /* \"#utility.yul\":519:531   */\n      revert\n        /* \"#utility.yul\":470:533   */\n    tag_167:\n        /* \"#utility.yul\":417:539   */\n      pop\n      jump\t// out\n        /* \"#utility.yul\":545:684   */\n    tag_122:\n        /* \"#utility.yul\":591:596   */\n      0x00\n        /* \"#utility.yul\":629:635   */\n      dup2\n        /* \"#utility.yul\":616:636   */\n      calldataload\n        /* \"#utility.yul\":607:636   */\n      swap1\n      pop\n        /* \"#utility.yul\":645:678   */\n      tag_169\n        /* \"#utility.yul\":672:677   */\n      dup2\n        /* \"#utility.yul\":645:678   */\n      tag_121\n      jump\t// in\n    tag_169:\n        /* \"#utility.yul\":545:684   */\n      swap3\n      swap2\n      pop\n      pop\n      jump\t// out\n        /* \"#utility.yul\":690:1019   */\n    tag_11:\n        /* \"#utility.yul\":749:755   */\n      0x00\n        /* \"#utility.yul\":798:800   */\n      0x20\n        /* \"#utility.yul\":786:795   */\n      dup3\n        /* \"#utility.yul\":777:784   */\n      dup5\n        /* \"#utility.yul\":773:796   */\n      sub\n        /* \"#utility.yul\":769:801   */\n      slt\n        /* \"#utility.yul\":766:885   */\n      iszero\n      tag_171\n      jumpi\n        /* \"#utility.yul\":804:883   */\n      tag_172\n      tag_118\n      jump\t// in\n    tag_172:\n        /* \"#utility.yul\":766:885   */\n    tag_171:\n        /* \"#utility.yul\":924:925   */\n      0x00\n        /* \"#utility.yul\":949:1002   */\n      tag_173\n        /* \"#utility.yul\":994:1001   */\n      dup5\n        /* \"#utility.yul\":985:991   */\n      dup3\n        /* \"#utility.yul\":974:983   */\n      dup6\n        /* \"#utility.yul\":970:992   */\n      add\n        /* \"#utility.yul\":949:1002   */\n      tag_122\n      jump\t// in\n    tag_173:\n        /* \"#utility.yul\":939:1002   */\n      swap2\n      pop\n        /* \"#utility.yul\":895:1012   */\n      pop\n        /* \"#utility.yul\":690:1019   */\n      swap3\n      swap2\n      pop\n      pop\n      jump\t// out\n        /* \"#utility.yul\":1025:1151   */\n    tag_123:\n        /* \"#utility.yul\":1062:1069   */\n      0x00\n        /* \"#utility.yul\":1102:1144   */\n      0xffffffffffffffffffffffffffffffffffffffff\n        /* \"#utility.yul\":1095:1100   */\n      dup3\n        /* \"#utility.yul\":1091:1145   */\n      and\n        /* \"#utility.yul\":1080:1145   */\n      swap1\n      pop\n        /* \"#utility.yul\":1025:1151   */\n      swap2\n      swap1\n      pop\n      jump\t// out\n        /* \"#utility.yul\":1157:1253   */\n    tag_124:\n        /* \"#utility.yul\":1194:1201   */\n      0x00\n        /* \"#utility.yul\":1223:1247   */\n      tag_176\n        /* \"#utility.yul\":1241:1246   */\n      dup3\n        /* \"#utility.yul\":1223:1247   */\n      tag_123\n      jump\t// in\n    tag_176:\n        /* \"#utility.yul\":1212:1247   */\n      swap1\n      pop\n        /* \"#utility.yul\":1157:1253   */\n      swap2\n      swap1\n      pop\n      jump\t// out\n        /* \"#utility.yul\":1259:1381   */\n    tag_125:\n        /* \"#utility.yul\":1332:1356   */\n      tag_178\n        /* \"#utility.yul\":1350:1355   */\n      dup2\n        /* \"#utility.yul\":1332:1356   */\n      tag_124\n      jump\t// in\n    tag_178:\n        /* \"#utility.yul\":1325:1330   */\n      dup2\n        /* \"#utility.yul\":1322:1357   */\n      eq\n        /* \"#utility.yul\":1312:1375   */\n      tag_179\n      jumpi\n        /* \"#utility.yul\":1371:1372   */\n      0x00\n        /* \"#utility.yul\":1368:1369   */\n      dup1\n        /* \"#utility.yul\":1361:1373   */\n      revert\n        /* \"#utility.yul\":1312:1375   */\n    tag_179:\n        /* \"#utility.yul\":1259:1381   */\n      pop\n      jump\t// out\n        /* \"#utility.yul\":1387:1526   */\n    tag_126:\n        /* \"#utility.yul\":1433:1438   */\n      0x00\n        /* \"#utility.yul\":1471:1477   */\n      dup2\n        /* \"#utility.yul\":1458:1478   */\n      calldataload\n        /* \"#utility.yul\":1449:1478   */\n      swap1\n      pop\n        /* \"#utility.yul\":1487:1520   */\n      tag_181\n        /* \"#utility.yul\":1514:1519   */\n      dup2\n        /* \"#utility.yul\":1487:1520   */\n      tag_125\n      jump\t// in\n    tag_181:\n        /* \"#utility.yul\":1387:1526   */\n      swap3\n      swap2\n      pop\n      pop\n      jump\t// out\n        /* \"#utility.yul\":1532:2006   */\n    tag_15:\n        /* \"#utility.yul\":1600:1606   */\n      0x00\n        /* \"#utility.yul\":1608:1614   */\n      dup1\n        /* \"#utility.yul\":1657:1659   */\n      0x40\n        /* \"#utility.yul\":1645:1654   */\n      dup4\n        /* \"#utility.yul\":1636:1643   */\n      dup6\n        /* \"#utility.yul\":1632:1655   */\n      sub\n        /* \"#utility.yul\":1628:1660   */\n      slt\n        /* \"#utility.yul\":1625:1744   */\n      iszero\n      tag_183\n      jumpi\n        /* \"#utility.yul\":1663:1742   */\n      tag_184\n      tag_118\n      jump\t// in\n    tag_184:\n        /* \"#utility.yul\":1625:1744   */\n    tag_183:\n        /* \"#utility.yul\":1783:1784   */\n      0x00\n        /* \"#utility.yul\":1808:1861   */\n      tag_185\n        /* \"#utility.yul\":1853:1860   */\n      dup6\n        /* \"#utility.yul\":1844:1850   */\n      dup3\n        /* \"#utility.yul\":1833:1842   */\n      dup7\n        /* \"#utility.yul\":1829:1851   */\n      add\n        /* \"#utility.yul\":1808:1861   */\n      tag_122\n      jump\t// in\n    tag_185:\n        /* \"#utility.yul\":1798:1861   */\n      swap3\n      pop\n        /* \"#utility.yul\":1754:1871   */\n      pop\n        /* \"#utility.yul\":1910:1912   */\n      0x20\n        /* \"#utility.yul\":1936:1989   */\n      tag_186\n        /* \"#utility.yul\":1981:1988   */\n      dup6\n        /* \"#utility.yul\":1972:1978   */\n      dup3\n        /* \"#utility.yul\":1961:1970   */\n      dup7\n        /* \"#utility.yul\":1957:1979   */\n      add\n        /* \"#utility.yul\":1936:1989   */\n      tag_126\n      jump\t// in\n    tag_186:\n        /* \"#utility.yul\":1926:1989   */\n      swap2\n      pop\n        /* \"#utility.yul\":1881:1999   */\n      pop\n        /* \"#utility.yul\":1532:2006   */\n      swap3\n      pop\n      swap3\n      swap1\n      pop\n      jump\t// out\n        /* \"#utility.yul\":2012:2130   */\n    tag_127:\n        /* \"#utility.yul\":2099:2123   */\n      tag_188\n        /* \"#utility.yul\":2117:2122   */\n      dup2\n        /* \"#utility.yul\":2099:2123   */\n      tag_124\n      jump\t// in\n    tag_188:\n        /* \"#utility.yul\":2094:2097   */\n      dup3\n        /* \"#utility.yul\":2087:2124   */\n      mstore\n        /* \"#utility.yul\":2012:2130   */\n      pop\n      pop\n      jump\t// out\n        /* \"#utility.yul\":2136:2254   */\n    tag_128:\n        /* \"#utility.yul\":2223:2247   */\n      tag_190\n        /* \"#utility.yul\":2241:2246   */\n      dup2\n        /* \"#utility.yul\":2223:2247   */\n      tag_120\n      jump\t// in\n    tag_190:\n        /* \"#utility.yul\":2218:2221   */\n      dup3\n        /* \"#utility.yul\":2211:2248   */\n      mstore\n        /* \"#utility.yul\":2136:2254   */\n      pop\n      pop\n      jump\t// out\n        /* \"#utility.yul\":2260:2350   */\n    tag_129:\n        /* \"#utility.yul\":2294:2301   */\n      0x00\n        /* \"#utility.yul\":2337:2342   */\n      dup2\n        /* \"#utility.yul\":2330:2343   */\n      iszero\n        /* \"#utility.yul\":2323:2344   */\n      iszero\n        /* \"#utility.yul\":2312:2344   */\n      swap1\n      pop\n        /* \"#utility.yul\":2260:2350   */\n      swap2\n      swap1\n      pop\n      jump\t// out\n        /* \"#utility.yul\":2356:2465   */\n    tag_130:\n        /* \"#utility.yul\":2437:2458   */\n      tag_193\n        /* \"#utility.yul\":2452:2457   */\n      dup2\n        /* \"#utility.yul\":2437:2458   */\n      tag_129\n      jump\t// in\n    tag_193:\n        /* \"#utility.yul\":2432:2435   */\n      dup3\n        /* \"#utility.yul\":2425:2459   */\n      mstore\n        /* \"#utility.yul\":2356:2465   */\n      pop\n      pop\n      jump\t// out\n        /* \"#utility.yul\":2471:3333   */\n    tag_25:\n        /* \"#utility.yul\":2720:2724   */\n      0x00\n        /* \"#utility.yul\":2758:2761   */\n      0xe0\n        /* \"#utility.yul\":2747:2756   */\n      dup3\n        /* \"#utility.yul\":2743:2762   */\n      add\n        /* \"#utility.yul\":2735:2762   */\n      swap1\n      pop\n        /* \"#utility.yul\":2772:2843   */\n      tag_195\n        /* \"#utility.yul\":2840:2841   */\n      0x00\n        /* \"#utility.yul\":2829:2838   */\n      dup4\n        /* \"#utility.yul\":2825:2842   */\n      add\n        /* \"#utility.yul\":2816:2822   */\n      dup11\n        /* \"#utility.yul\":2772:2843   */\n      tag_127\n      jump\t// in\n    tag_195:\n        /* \"#utility.yul\":2853:2925   */\n      tag_196\n        /* \"#utility.yul\":2921:2923   */\n      0x20\n        /* \"#utility.yul\":2910:2919   */\n      dup4\n        /* \"#utility.yul\":2906:2924   */\n      add\n        /* \"#utility.yul\":2897:2903   */\n      dup10\n        /* \"#utility.yul\":2853:2925   */\n      tag_127\n      jump\t// in\n    tag_196:\n        /* \"#utility.yul\":2935:3007   */\n      tag_197\n        /* \"#utility.yul\":3003:3005   */\n      0x40\n        /* \"#utility.yul\":2992:3001   */\n      dup4\n        /* \"#utility.yul\":2988:3006   */\n      add\n        /* \"#utility.yul\":2979:2985   */\n      dup9\n        /* \"#utility.yul\":2935:3007   */\n      tag_127\n      jump\t// in\n    tag_197:\n        /* \"#utility.yul\":3017:3089   */\n      tag_198\n        /* \"#utility.yul\":3085:3087   */\n      0x60\n        /* \"#utility.yul\":3074:3083   */\n      dup4\n        /* \"#utility.yul\":3070:3088   */\n      add\n        /* \"#utility.yul\":3061:3067   */\n      dup8\n        /* \"#utility.yul\":3017:3089   */\n      tag_128\n      jump\t// in\n    tag_198:\n        /* \"#utility.yul\":3099:3166   */\n      tag_199\n        /* \"#utility.yul\":3161:3164   */\n      0x80\n        /* \"#utility.yul\":3150:3159   */\n      dup4\n        /* \"#utility.yul\":3146:3165   */\n      add\n        /* \"#utility.yul\":3137:3143   */\n      dup7\n        /* \"#utility.yul\":3099:3166   */\n      tag_130\n      jump\t// in\n    tag_199:\n        /* \"#utility.yul\":3176:3243   */\n      tag_200\n        /* \"#utility.yul\":3238:3241   */\n      0xa0\n        /* \"#utility.yul\":3227:3236   */\n      dup4\n        /* \"#utility.yul\":3223:3242   */\n      add\n        /* \"#utility.yul\":3214:3220   */\n      dup6\n        /* \"#utility.yul\":3176:3243   */\n      tag_130\n      jump\t// in\n    tag_200:\n        /* \"#utility.yul\":3253:3326   */\n      tag_201\n        /* \"#utility.yul\":3321:3324   */\n      0xc0\n        /* \"#utility.yul\":3310:3319   */\n      dup4\n        /* \"#utility.yul\":3306:3325   */\n      add\n        /* \"#utility.yul\":3297:3303   */\n      dup5\n        /* \"#utility.yul\":3253:3326   */\n      tag_127\n      jump\t// in\n    tag_201:\n        /* \"#utility.yul\":2471:3333   */\n      swap9\n      swap8\n      pop\n      pop\n      pop\n      pop\n      pop\n      pop\n      pop\n      pop\n      jump\t// out\n        /* \"#utility.yul\":3339:3476   */\n    tag_131:\n        /* \"#utility.yul\":3429:3435   */\n      0x00\n        /* \"#utility.yul\":3463:3468   */\n      dup2\n        /* \"#utility.yul\":3457:3469   */\n      mload\n        /* \"#utility.yul\":3447:3469   */\n      swap1\n      pop\n        /* \"#utility.yul\":3339:3476   */\n      swap2\n      swap1\n      pop\n      jump\t// out\n        /* \"#utility.yul\":3482:3689   */\n    tag_132:\n        /* \"#utility.yul\":3604:3615   */\n      0x00\n        /* \"#utility.yul\":3638:3644   */\n      dup3\n        /* \"#utility.yul\":3633:3636   */\n      dup3\n        /* \"#utility.yul\":3626:3645   */\n      mstore\n        /* \"#utility.yul\":3678:3682   */\n      0x20\n        /* \"#utility.yul\":3673:3676   */\n      dup3\n        /* \"#utility.yul\":3669:3683   */\n      add\n        /* \"#utility.yul\":3654:3683   */\n      swap1\n      pop\n        /* \"#utility.yul\":3482:3689   */\n      swap3\n      swap2\n      pop\n      pop\n      jump\t// out\n        /* \"#utility.yul\":3695:3850   */\n    tag_133:\n        /* \"#utility.yul\":3785:3789   */\n      0x00\n        /* \"#utility.yul\":3808:3811   */\n      dup2\n        /* \"#utility.yul\":3800:3811   */\n      swap1\n      pop\n        /* \"#utility.yul\":3838:3842   */\n      0x20\n        /* \"#utility.yul\":3833:3836   */\n      dup3\n        /* \"#utility.yul\":3829:3843   */\n      add\n        /* \"#utility.yul\":3821:3843   */\n      swap1\n      pop\n        /* \"#utility.yul\":3695:3850   */\n      swap2\n      swap1\n      pop\n      jump\t// out\n        /* \"#utility.yul\":3856:3964   */\n    tag_134:\n        /* \"#utility.yul\":3933:3957   */\n      tag_206\n        /* \"#utility.yul\":3951:3956   */\n      dup2\n        /* \"#utility.yul\":3933:3957   */\n      tag_124\n      jump\t// in\n    tag_206:\n        /* \"#utility.yul\":3928:3931   */\n      dup3\n        /* \"#utility.yul\":3921:3958   */\n      mstore\n        /* \"#utility.yul\":3856:3964   */\n      pop\n      pop\n      jump\t// out\n        /* \"#utility.yul\":3970:4078   */\n    tag_135:\n        /* \"#utility.yul\":4047:4071   */\n      tag_208\n        /* \"#utility.yul\":4065:4070   */\n      dup2\n        /* \"#utility.yul\":4047:4071   */\n      tag_120\n      jump\t// in\n    tag_208:\n        /* \"#utility.yul\":4042:4045   */\n      dup3\n        /* \"#utility.yul\":4035:4072   */\n      mstore\n        /* \"#utility.yul\":3970:4078   */\n      pop\n      pop\n      jump\t// out\n        /* \"#utility.yul\":4084:4183   */\n    tag_136:\n        /* \"#utility.yul\":4155:4176   */\n      tag_210\n        /* \"#utility.yul\":4170:4175   */\n      dup2\n        /* \"#utility.yul\":4155:4176   */\n      tag_129\n      jump\t// in\n    tag_210:\n        /* \"#utility.yul\":4150:4153   */\n      dup3\n        /* \"#utility.yul\":4143:4177   */\n      mstore\n        /* \"#utility.yul\":4084:4183   */\n      pop\n      pop\n      jump\t// out\n        /* \"#utility.yul\":4261:5651   */\n    tag_137:\n        /* \"#utility.yul\":4394:4398   */\n      0xe0\n        /* \"#utility.yul\":4389:4392   */\n      dup3\n        /* \"#utility.yul\":4385:4399   */\n      add\n        /* \"#utility.yul\":4487:4491   */\n      0x00\n        /* \"#utility.yul\":4480:4485   */\n      dup3\n        /* \"#utility.yul\":4476:4492   */\n      add\n        /* \"#utility.yul\":4470:4493   */\n      mload\n        /* \"#utility.yul\":4506:4569   */\n      tag_212\n        /* \"#utility.yul\":4563:4567   */\n      0x00\n        /* \"#utility.yul\":4558:4561   */\n      dup6\n        /* \"#utility.yul\":4554:4568   */\n      add\n        /* \"#utility.yul\":4540:4552   */\n      dup3\n        /* \"#utility.yul\":4506:4569   */\n      tag_134\n      jump\t// in\n    tag_212:\n        /* \"#utility.yul\":4409:4579   */\n      pop\n        /* \"#utility.yul\":4666:4670   */\n      0x20\n        /* \"#utility.yul\":4659:4664   */\n      dup3\n        /* \"#utility.yul\":4655:4671   */\n      add\n        /* \"#utility.yul\":4649:4672   */\n      mload\n        /* \"#utility.yul\":4685:4748   */\n      tag_213\n        /* \"#utility.yul\":4742:4746   */\n      0x20\n        /* \"#utility.yul\":4737:4740   */\n      dup6\n        /* \"#utility.yul\":4733:4747   */\n      add\n        /* \"#utility.yul\":4719:4731   */\n      dup3\n        /* \"#utility.yul\":4685:4748   */\n      tag_134\n      jump\t// in\n    tag_213:\n        /* \"#utility.yul\":4589:4758   */\n      pop\n        /* \"#utility.yul\":4840:4844   */\n      0x40\n        /* \"#utility.yul\":4833:4838   */\n      dup3\n        /* \"#utility.yul\":4829:4845   */\n      add\n        /* \"#utility.yul\":4823:4846   */\n      mload\n        /* \"#utility.yul\":4859:4922   */\n      tag_214\n        /* \"#utility.yul\":4916:4920   */\n      0x40\n        /* \"#utility.yul\":4911:4914   */\n      dup6\n        /* \"#utility.yul\":4907:4921   */\n      add\n        /* \"#utility.yul\":4893:4905   */\n      dup3\n        /* \"#utility.yul\":4859:4922   */\n      tag_134\n      jump\t// in\n    tag_214:\n        /* \"#utility.yul\":4768:4932   */\n      pop\n        /* \"#utility.yul\":5021:5025   */\n      0x60\n        /* \"#utility.yul\":5014:5019   */\n      dup3\n        /* \"#utility.yul\":5010:5026   */\n      add\n        /* \"#utility.yul\":5004:5027   */\n      mload\n        /* \"#utility.yul\":5040:5103   */\n      tag_215\n        /* \"#utility.yul\":5097:5101   */\n      0x60\n        /* \"#utility.yul\":5092:5095   */\n      dup6\n        /* \"#utility.yul\":5088:5102   */\n      add\n        /* \"#utility.yul\":5074:5086   */\n      dup3\n        /* \"#utility.yul\":5040:5103   */\n      tag_135\n      jump\t// in\n    tag_215:\n        /* \"#utility.yul\":4942:5113   */\n      pop\n        /* \"#utility.yul\":5203:5207   */\n      0x80\n        /* \"#utility.yul\":5196:5201   */\n      dup3\n        /* \"#utility.yul\":5192:5208   */\n      add\n        /* \"#utility.yul\":5186:5209   */\n      mload\n        /* \"#utility.yul\":5222:5279   */\n      tag_216\n        /* \"#utility.yul\":5273:5277   */\n      0x80\n        /* \"#utility.yul\":5268:5271   */\n      dup6\n        /* \"#utility.yul\":5264:5278   */\n      add\n        /* \"#utility.yul\":5250:5262   */\n      dup3\n        /* \"#utility.yul\":5222:5279   */\n      tag_136\n      jump\t// in\n    tag_216:\n        /* \"#utility.yul\":5123:5289   */\n      pop\n        /* \"#utility.yul\":5380:5384   */\n      0xa0\n        /* \"#utility.yul\":5373:5378   */\n      dup3\n        /* \"#utility.yul\":5369:5385   */\n      add\n        /* \"#utility.yul\":5363:5386   */\n      mload\n        /* \"#utility.yul\":5399:5456   */\n      tag_217\n        /* \"#utility.yul\":5450:5454   */\n      0xa0\n        /* \"#utility.yul\":5445:5448   */\n      dup6\n        /* \"#utility.yul\":5441:5455   */\n      add\n        /* \"#utility.yul\":5427:5439   */\n      dup3\n        /* \"#utility.yul\":5399:5456   */\n      tag_136\n      jump\t// in\n    tag_217:\n        /* \"#utility.yul\":5299:5466   */\n      pop\n        /* \"#utility.yul\":5552:5556   */\n      0xc0\n        /* \"#utility.yul\":5545:5550   */\n      dup3\n        /* \"#utility.yul\":5541:5557   */\n      add\n        /* \"#utility.yul\":5535:5558   */\n      mload\n        /* \"#utility.yul\":5571:5634   */\n      tag_218\n        /* \"#utility.yul\":5628:5632   */\n      0xc0\n        /* \"#utility.yul\":5623:5626   */\n      dup6\n        /* \"#utility.yul\":5619:5633   */\n      add\n        /* \"#utility.yul\":5605:5617   */\n      dup3\n        /* \"#utility.yul\":5571:5634   */\n      tag_134\n      jump\t// in\n    tag_218:\n        /* \"#utility.yul\":5476:5644   */\n      pop\n        /* \"#utility.yul\":4363:5651   */\n      pop\n        /* \"#utility.yul\":4261:5651   */\n      pop\n      pop\n      jump\t// out\n        /* \"#utility.yul\":5657:5928   */\n    tag_138:\n        /* \"#utility.yul\":5772:5782   */\n      0x00\n        /* \"#utility.yul\":5793:5885   */\n      tag_220\n        /* \"#utility.yul\":5881:5884   */\n      dup4\n        /* \"#utility.yul\":5873:5879   */\n      dup4\n        /* \"#utility.yul\":5793:5885   */\n      tag_137\n      jump\t// in\n    tag_220:\n        /* \"#utility.yul\":5917:5921   */\n      0xe0\n        /* \"#utility.yul\":5912:5915   */\n      dup4\n        /* \"#utility.yul\":5908:5922   */\n      add\n        /* \"#utility.yul\":5894:5922   */\n      swap1\n      pop\n        /* \"#utility.yul\":5657:5928   */\n      swap3\n      swap2\n      pop\n      pop\n      jump\t// out\n        /* \"#utility.yul\":5934:6070   */\n    tag_139:\n        /* \"#utility.yul\":6027:6031   */\n      0x00\n        /* \"#utility.yul\":6059:6063   */\n      0x20\n        /* \"#utility.yul\":6054:6057   */\n      dup3\n        /* \"#utility.yul\":6050:6064   */\n      add\n        /* \"#utility.yul\":6042:6064   */\n      swap1\n      pop\n        /* \"#utility.yul\":5934:6070   */\n      swap2\n      swap1\n      pop\n      jump\t// out\n        /* \"#utility.yul\":6152:7068   */\n    tag_140:\n        /* \"#utility.yul\":6317:6320   */\n      0x00\n        /* \"#utility.yul\":6346:6423   */\n      tag_223\n        /* \"#utility.yul\":6417:6422   */\n      dup3\n        /* \"#utility.yul\":6346:6423   */\n      tag_131\n      jump\t// in\n    tag_223:\n        /* \"#utility.yul\":6439:6548   */\n      tag_224\n        /* \"#utility.yul\":6541:6547   */\n      dup2\n        /* \"#utility.yul\":6536:6539   */\n      dup6\n        /* \"#utility.yul\":6439:6548   */\n      tag_132\n      jump\t// in\n    tag_224:\n        /* \"#utility.yul\":6432:6548   */\n      swap4\n      pop\n        /* \"#utility.yul\":6572:6651   */\n      tag_225\n        /* \"#utility.yul\":6645:6650   */\n      dup4\n        /* \"#utility.yul\":6572:6651   */\n      tag_133\n      jump\t// in\n    tag_225:\n        /* \"#utility.yul\":6674:6681   */\n      dup1\n        /* \"#utility.yul\":6705:6706   */\n      0x00\n        /* \"#utility.yul\":6690:7043   */\n    tag_226:\n        /* \"#utility.yul\":6715:6721   */\n      dup4\n        /* \"#utility.yul\":6712:6713   */\n      dup2\n        /* \"#utility.yul\":6709:6722   */\n      lt\n        /* \"#utility.yul\":6690:7043   */\n      iszero\n      tag_228\n      jumpi\n        /* \"#utility.yul\":6791:6797   */\n      dup2\n        /* \"#utility.yul\":6785:6798   */\n      mload\n        /* \"#utility.yul\":6818:6927   */\n      tag_229\n        /* \"#utility.yul\":6923:6926   */\n      dup9\n        /* \"#utility.yul\":6908:6921   */\n      dup3\n        /* \"#utility.yul\":6818:6927   */\n      tag_138\n      jump\t// in\n    tag_229:\n        /* \"#utility.yul\":6811:6927   */\n      swap8\n      pop\n        /* \"#utility.yul\":6950:7033   */\n      tag_230\n        /* \"#utility.yul\":7026:7032   */\n      dup4\n        /* \"#utility.yul\":6950:7033   */\n      tag_139\n      jump\t// in\n    tag_230:\n        /* \"#utility.yul\":6940:7033   */\n      swap3\n      pop\n        /* \"#utility.yul\":6750:7043   */\n      pop\n        /* \"#utility.yul\":6737:6738   */\n      0x01\n        /* \"#utility.yul\":6734:6735   */\n      dup2\n        /* \"#utility.yul\":6730:6739   */\n      add\n        /* \"#utility.yul\":6725:6739   */\n      swap1\n      pop\n        /* \"#utility.yul\":6690:7043   */\n      jump(tag_226)\n    tag_228:\n        /* \"#utility.yul\":6694:6708   */\n      pop\n        /* \"#utility.yul\":7059:7062   */\n      dup6\n        /* \"#utility.yul\":7052:7062   */\n      swap4\n      pop\n        /* \"#utility.yul\":6322:7068   */\n      pop\n      pop\n      pop\n        /* \"#utility.yul\":6152:7068   */\n      swap3\n      swap2\n      pop\n      pop\n      jump\t// out\n        /* \"#utility.yul\":7074:7539   */\n    tag_33:\n        /* \"#utility.yul\":7263:7267   */\n      0x00\n        /* \"#utility.yul\":7301:7303   */\n      0x20\n        /* \"#utility.yul\":7290:7299   */\n      dup3\n        /* \"#utility.yul\":7286:7304   */\n      add\n        /* \"#utility.yul\":7278:7304   */\n      swap1\n      pop\n        /* \"#utility.yul\":7350:7359   */\n      dup2\n        /* \"#utility.yul\":7344:7348   */\n      dup2\n        /* \"#utility.yul\":7340:7360   */\n      sub\n        /* \"#utility.yul\":7336:7337   */\n      0x00\n        /* \"#utility.yul\":7325:7334   */\n      dup4\n        /* \"#utility.yul\":7321:7338   */\n      add\n        /* \"#utility.yul\":7314:7361   */\n      mstore\n        /* \"#utility.yul\":7378:7532   */\n      tag_232\n        /* \"#utility.yul\":7527:7531   */\n      dup2\n        /* \"#utility.yul\":7518:7524   */\n      dup5\n        /* \"#utility.yul\":7378:7532   */\n      tag_140\n      jump\t// in\n    tag_232:\n        /* \"#utility.yul\":7370:7532   */\n      swap1\n      pop\n        /* \"#utility.yul\":7074:7539   */\n      swap3\n      swap2\n      pop\n      pop\n      jump\t// out\n        /* \"#utility.yul\":7545:7725   */\n    tag_37:\n        /* \"#utility.yul\":7593:7670   */\n      0x4e487b7100000000000000000000000000000000000000000000000000000000\n        /* \"#utility.yul\":7590:7591   */\n      0x00\n        /* \"#utility.yul\":7583:7671   */\n      mstore\n        /* \"#utility.yul\":7690:7694   */\n      0x32\n        /* \"#utility.yul\":7687:7688   */\n      0x04\n        /* \"#utility.yul\":7680:7695   */\n      mstore\n        /* \"#utility.yul\":7714:7718   */\n      0x24\n        /* \"#utility.yul\":7711:7712   */\n      0x00\n        /* \"#utility.yul\":7704:7719   */\n      revert\n        /* \"#utility.yul\":7731:7900   */\n    tag_141:\n        /* \"#utility.yul\":7815:7826   */\n      0x00\n        /* \"#utility.yul\":7849:7855   */\n      dup3\n        /* \"#utility.yul\":7844:7847   */\n      dup3\n        /* \"#utility.yul\":7837:7856   */\n      mstore\n        /* \"#utility.yul\":7889:7893   */\n      0x20\n        /* \"#utility.yul\":7884:7887   */\n      dup3\n        /* \"#utility.yul\":7880:7894   */\n      add\n        /* \"#utility.yul\":7865:7894   */\n      swap1\n      pop\n        /* \"#utility.yul\":7731:7900   */\n      swap3\n      swap2\n      pop\n      pop\n      jump\t// out\n        /* \"#utility.yul\":7906:8088   */\n    tag_142:\n        /* \"#utility.yul\":8046:8080   */\n      0x4f2064657361666961646f206e616f20706f646520736572206f206a75697a2e\n        /* \"#utility.yul\":8042:8043   */\n      0x00\n        /* \"#utility.yul\":8034:8040   */\n      dup3\n        /* \"#utility.yul\":8030:8044   */\n      add\n        /* \"#utility.yul\":8023:8081   */\n      mstore\n        /* \"#utility.yul\":7906:8088   */\n      pop\n      jump\t// out\n        /* \"#utility.yul\":8094:8460   */\n    tag_143:\n        /* \"#utility.yul\":8236:8239   */\n      0x00\n        /* \"#utility.yul\":8257:8324   */\n      tag_237\n        /* \"#utility.yul\":8321:8323   */\n      0x20\n        /* \"#utility.yul\":8316:8319   */\n      dup4\n        /* \"#utility.yul\":8257:8324   */\n      tag_141\n      jump\t// in\n    tag_237:\n        /* \"#utility.yul\":8250:8324   */\n      swap2\n      pop\n        /* \"#utility.yul\":8333:8426   */\n      tag_238\n        /* \"#utility.yul\":8422:8425   */\n      dup3\n        /* \"#utility.yul\":8333:8426   */\n      tag_142\n      jump\t// in\n    tag_238:\n        /* \"#utility.yul\":8451:8453   */\n      0x20\n        /* \"#utility.yul\":8446:8449   */\n      dup3\n        /* \"#utility.yul\":8442:8454   */\n      add\n        /* \"#utility.yul\":8435:8454   */\n      swap1\n      pop\n        /* \"#utility.yul\":8094:8460   */\n      swap2\n      swap1\n      pop\n      jump\t// out\n        /* \"#utility.yul\":8466:8885   */\n    tag_41:\n        /* \"#utility.yul\":8632:8636   */\n      0x00\n        /* \"#utility.yul\":8670:8672   */\n      0x20\n        /* \"#utility.yul\":8659:8668   */\n      dup3\n        /* \"#utility.yul\":8655:8673   */\n      add\n        /* \"#utility.yul\":8647:8673   */\n      swap1\n      pop\n        /* \"#utility.yul\":8719:8728   */\n      dup2\n        /* \"#utility.yul\":8713:8717   */\n      dup2\n        /* \"#utility.yul\":8709:8729   */\n      sub\n        /* \"#utility.yul\":8705:8706   */\n      0x00\n        /* \"#utility.yul\":8694:8703   */\n      dup4\n        /* \"#utility.yul\":8690:8707   */\n      add\n        /* \"#utility.yul\":8683:8730   */\n      mstore\n        /* \"#utility.yul\":8747:8878   */\n      tag_240\n        /* \"#utility.yul\":8873:8877   */\n      dup2\n        /* \"#utility.yul\":8747:8878   */\n      tag_143\n      jump\t// in\n    tag_240:\n        /* \"#utility.yul\":8739:8878   */\n      swap1\n      pop\n        /* \"#utility.yul\":8466:8885   */\n      swap2\n      swap1\n      pop\n      jump\t// out\n        /* \"#utility.yul\":8891:9111   */\n    tag_144:\n        /* \"#utility.yul\":9031:9065   */\n      0x4f20646573616669616e7465206e616f20706f646520736572206f206a75697a\n        /* \"#utility.yul\":9027:9028   */\n      0x00\n        /* \"#utility.yul\":9019:9025   */\n      dup3\n        /* \"#utility.yul\":9015:9029   */\n      add\n        /* \"#utility.yul\":9008:9066   */\n      mstore\n        /* \"#utility.yul\":9100:9103   */\n      0x2e00000000000000000000000000000000000000000000000000000000000000\n        /* \"#utility.yul\":9095:9097   */\n      0x20\n        /* \"#utility.yul\":9087:9093   */\n      dup3\n        /* \"#utility.yul\":9083:9098   */\n      add\n        /* \"#utility.yul\":9076:9104   */\n      mstore\n        /* \"#utility.yul\":8891:9111   */\n      pop\n      jump\t// out\n        /* \"#utility.yul\":9117:9483   */\n    tag_145:\n        /* \"#utility.yul\":9259:9262   */\n      0x00\n        /* \"#utility.yul\":9280:9347   */\n      tag_243\n        /* \"#utility.yul\":9344:9346   */\n      0x21\n        /* \"#utility.yul\":9339:9342   */\n      dup4\n        /* \"#utility.yul\":9280:9347   */\n      tag_141\n      jump\t// in\n    tag_243:\n        /* \"#utility.yul\":9273:9347   */\n      swap2\n      pop\n        /* \"#utility.yul\":9356:9449   */\n      tag_244\n        /* \"#utility.yul\":9445:9448   */\n      dup3\n        /* \"#utility.yul\":9356:9449   */\n      tag_144\n      jump\t// in\n    tag_244:\n        /* \"#utility.yul\":9474:9476   */\n      0x40\n        /* \"#utility.yul\":9469:9472   */\n      dup3\n        /* \"#utility.yul\":9465:9477   */\n      add\n        /* \"#utility.yul\":9458:9477   */\n      swap1\n      pop\n        /* \"#utility.yul\":9117:9483   */\n      swap2\n      swap1\n      pop\n      jump\t// out\n        /* \"#utility.yul\":9489:9908   */\n    tag_47:\n        /* \"#utility.yul\":9655:9659   */\n      0x00\n        /* \"#utility.yul\":9693:9695   */\n      0x20\n        /* \"#utility.yul\":9682:9691   */\n      dup3\n        /* \"#utility.yul\":9678:9696   */\n      add\n        /* \"#utility.yul\":9670:9696   */\n      swap1\n      pop\n        /* \"#utility.yul\":9742:9751   */\n      dup2\n        /* \"#utility.yul\":9736:9740   */\n      dup2\n        /* \"#utility.yul\":9732:9752   */\n      sub\n        /* \"#utility.yul\":9728:9729   */\n      0x00\n        /* \"#utility.yul\":9717:9726   */\n      dup4\n        /* \"#utility.yul\":9713:9730   */\n      add\n        /* \"#utility.yul\":9706:9753   */\n      mstore\n        /* \"#utility.yul\":9770:9901   */\n      tag_246\n        /* \"#utility.yul\":9896:9900   */\n      dup2\n        /* \"#utility.yul\":9770:9901   */\n      tag_145\n      jump\t// in\n    tag_246:\n        /* \"#utility.yul\":9762:9901   */\n      swap1\n      pop\n        /* \"#utility.yul\":9489:9908   */\n      swap2\n      swap1\n      pop\n      jump\t// out\n        /* \"#utility.yul\":9914:10140   */\n    tag_146:\n        /* \"#utility.yul\":10054:10088   */\n      0x536f6d656e7465206f206a75697a20706f6465206465636c61726172206f2076\n        /* \"#utility.yul\":10050:10051   */\n      0x00\n        /* \"#utility.yul\":10042:10048   */\n      dup3\n        /* \"#utility.yul\":10038:10052   */\n      add\n        /* \"#utility.yul\":10031:10089   */\n      mstore\n        /* \"#utility.yul\":10123:10132   */\n      0x656e6365646f7200000000000000000000000000000000000000000000000000\n        /* \"#utility.yul\":10118:10120   */\n      0x20\n        /* \"#utility.yul\":10110:10116   */\n      dup3\n        /* \"#utility.yul\":10106:10121   */\n      add\n        /* \"#utility.yul\":10099:10133   */\n      mstore\n        /* \"#utility.yul\":9914:10140   */\n      pop\n      jump\t// out\n        /* \"#utility.yul\":10146:10512   */\n    tag_147:\n        /* \"#utility.yul\":10288:10291   */\n      0x00\n        /* \"#utility.yul\":10309:10376   */\n      tag_249\n        /* \"#utility.yul\":10373:10375   */\n      0x27\n        /* \"#utility.yul\":10368:10371   */\n      dup4\n        /* \"#utility.yul\":10309:10376   */\n      tag_141\n      jump\t// in\n    tag_249:\n        /* \"#utility.yul\":10302:10376   */\n      swap2\n      pop\n        /* \"#utility.yul\":10385:10478   */\n      tag_250\n        /* \"#utility.yul\":10474:10477   */\n      dup3\n        /* \"#utility.yul\":10385:10478   */\n      tag_146\n      jump\t// in\n    tag_250:\n        /* \"#utility.yul\":10503:10505   */\n      0x40\n        /* \"#utility.yul\":10498:10501   */\n      dup3\n        /* \"#utility.yul\":10494:10506   */\n      add\n        /* \"#utility.yul\":10487:10506   */\n      swap1\n      pop\n        /* \"#utility.yul\":10146:10512   */\n      swap2\n      swap1\n      pop\n      jump\t// out\n        /* \"#utility.yul\":10518:10937   */\n    tag_58:\n        /* \"#utility.yul\":10684:10688   */\n      0x00\n        /* \"#utility.yul\":10722:10724   */\n      0x20\n        /* \"#utility.yul\":10711:10720   */\n      dup3\n        /* \"#utility.yul\":10707:10725   */\n      add\n        /* \"#utility.yul\":10699:10725   */\n      swap1\n      pop\n        /* \"#utility.yul\":10771:10780   */\n      dup2\n        /* \"#utility.yul\":10765:10769   */\n      dup2\n        /* \"#utility.yul\":10761:10781   */\n      sub\n        /* \"#utility.yul\":10757:10758   */\n      0x00\n        /* \"#utility.yul\":10746:10755   */\n      dup4\n        /* \"#utility.yul\":10742:10759   */\n      add\n        /* \"#utility.yul\":10735:10782   */\n      mstore\n        /* \"#utility.yul\":10799:10930   */\n      tag_252\n        /* \"#utility.yul\":10925:10929   */\n      dup2\n        /* \"#utility.yul\":10799:10930   */\n      tag_147\n      jump\t// in\n    tag_252:\n        /* \"#utility.yul\":10791:10930   */\n      swap1\n      pop\n        /* \"#utility.yul\":10518:10937   */\n      swap2\n      swap1\n      pop\n      jump\t// out\n        /* \"#utility.yul\":10943:11170   */\n    tag_148:\n        /* \"#utility.yul\":11083:11117   */\n      0x4465736166696f206e616f206573746120617469766f206f75206e616f20666f\n        /* \"#utility.yul\":11079:11080   */\n      0x00\n        /* \"#utility.yul\":11071:11077   */\n      dup3\n        /* \"#utility.yul\":11067:11081   */\n      add\n        /* \"#utility.yul\":11060:11118   */\n      mstore\n        /* \"#utility.yul\":11152:11162   */\n      0x692061636569746f000000000000000000000000000000000000000000000000\n        /* \"#utility.yul\":11147:11149   */\n      0x20\n        /* \"#utility.yul\":11139:11145   */\n      dup3\n        /* \"#utility.yul\":11135:11150   */\n      add\n        /* \"#utility.yul\":11128:11163   */\n      mstore\n        /* \"#utility.yul\":10943:11170   */\n      pop\n      jump\t// out\n        /* \"#utility.yul\":11176:11542   */\n    tag_149:\n        /* \"#utility.yul\":11318:11321   */\n      0x00\n        /* \"#utility.yul\":11339:11406   */\n      tag_255\n        /* \"#utility.yul\":11403:11405   */\n      0x28\n        /* \"#utility.yul\":11398:11401   */\n      dup4\n        /* \"#utility.yul\":11339:11406   */\n      tag_141\n      jump\t// in\n    tag_255:\n        /* \"#utility.yul\":11332:11406   */\n      swap2\n      pop\n        /* \"#utility.yul\":11415:11508   */\n      tag_256\n        /* \"#utility.yul\":11504:11507   */\n      dup3\n        /* \"#utility.yul\":11415:11508   */\n      tag_148\n      jump\t// in\n    tag_256:\n        /* \"#utility.yul\":11533:11535   */\n      0x40\n        /* \"#utility.yul\":11528:11531   */\n      dup3\n        /* \"#utility.yul\":11524:11536   */\n      add\n        /* \"#utility.yul\":11517:11536   */\n      swap1\n      pop\n        /* \"#utility.yul\":11176:11542   */\n      swap2\n      swap1\n      pop\n      jump\t// out\n        /* \"#utility.yul\":11548:11967   */\n    tag_65:\n        /* \"#utility.yul\":11714:11718   */\n      0x00\n        /* \"#utility.yul\":11752:11754   */\n      0x20\n        /* \"#utility.yul\":11741:11750   */\n      dup3\n        /* \"#utility.yul\":11737:11755   */\n      add\n        /* \"#utility.yul\":11729:11755   */\n      swap1\n      pop\n        /* \"#utility.yul\":11801:11810   */\n      dup2\n        /* \"#utility.yul\":11795:11799   */\n      dup2\n        /* \"#utility.yul\":11791:11811   */\n      sub\n        /* \"#utility.yul\":11787:11788   */\n      0x00\n        /* \"#utility.yul\":11776:11785   */\n      dup4\n        /* \"#utility.yul\":11772:11789   */\n      add\n        /* \"#utility.yul\":11765:11812   */\n      mstore\n        /* \"#utility.yul\":11829:11960   */\n      tag_258\n        /* \"#utility.yul\":11955:11959   */\n      dup2\n        /* \"#utility.yul\":11829:11960   */\n      tag_149\n      jump\t// in\n    tag_258:\n        /* \"#utility.yul\":11821:11960   */\n      swap1\n      pop\n        /* \"#utility.yul\":11548:11967   */\n      swap2\n      swap1\n      pop\n      jump\t// out\n        /* \"#utility.yul\":11973:12153   */\n    tag_150:\n        /* \"#utility.yul\":12021:12098   */\n      0x4e487b7100000000000000000000000000000000000000000000000000000000\n        /* \"#utility.yul\":12018:12019   */\n      0x00\n        /* \"#utility.yul\":12011:12099   */\n      mstore\n        /* \"#utility.yul\":12118:12122   */\n      0x11\n        /* \"#utility.yul\":12115:12116   */\n      0x04\n        /* \"#utility.yul\":12108:12123   */\n      mstore\n        /* \"#utility.yul\":12142:12146   */\n      0x24\n        /* \"#utility.yul\":12139:12140   */\n      0x00\n        /* \"#utility.yul\":12132:12147   */\n      revert\n        /* \"#utility.yul\":12159:12569   */\n    tag_67:\n        /* \"#utility.yul\":12199:12206   */\n      0x00\n        /* \"#utility.yul\":12222:12242   */\n      tag_261\n        /* \"#utility.yul\":12240:12241   */\n      dup3\n        /* \"#utility.yul\":12222:12242   */\n      tag_120\n      jump\t// in\n    tag_261:\n        /* \"#utility.yul\":12217:12242   */\n      swap2\n      pop\n        /* \"#utility.yul\":12256:12276   */\n      tag_262\n        /* \"#utility.yul\":12274:12275   */\n      dup4\n        /* \"#utility.yul\":12256:12276   */\n      tag_120\n      jump\t// in\n    tag_262:\n        /* \"#utility.yul\":12251:12276   */\n      swap3\n      pop\n        /* \"#utility.yul\":12311:12312   */\n      dup3\n        /* \"#utility.yul\":12308:12309   */\n      dup3\n        /* \"#utility.yul\":12304:12313   */\n      mul\n        /* \"#utility.yul\":12333:12363   */\n      tag_263\n        /* \"#utility.yul\":12351:12362   */\n      dup2\n        /* \"#utility.yul\":12333:12363   */\n      tag_120\n      jump\t// in\n    tag_263:\n        /* \"#utility.yul\":12322:12363   */\n      swap2\n      pop\n        /* \"#utility.yul\":12512:12513   */\n      dup3\n        /* \"#utility.yul\":12503:12510   */\n      dup3\n        /* \"#utility.yul\":12499:12514   */\n      div\n        /* \"#utility.yul\":12496:12497   */\n      dup5\n        /* \"#utility.yul\":12493:12515   */\n      eq\n        /* \"#utility.yul\":12473:12474   */\n      dup4\n        /* \"#utility.yul\":12466:12475   */\n      iszero\n        /* \"#utility.yul\":12446:12529   */\n      or\n        /* \"#utility.yul\":12423:12562   */\n      tag_264\n      jumpi\n        /* \"#utility.yul\":12542:12560   */\n      tag_265\n      tag_150\n      jump\t// in\n    tag_265:\n        /* \"#utility.yul\":12423:12562   */\n    tag_264:\n        /* \"#utility.yul\":12207:12569   */\n      pop\n        /* \"#utility.yul\":12159:12569   */\n      swap3\n      swap2\n      pop\n      pop\n      jump\t// out\n        /* \"#utility.yul\":12575:12755   */\n    tag_151:\n        /* \"#utility.yul\":12623:12700   */\n      0x4e487b7100000000000000000000000000000000000000000000000000000000\n        /* \"#utility.yul\":12620:12621   */\n      0x00\n        /* \"#utility.yul\":12613:12701   */\n      mstore\n        /* \"#utility.yul\":12720:12724   */\n      0x12\n        /* \"#utility.yul\":12717:12718   */\n      0x04\n        /* \"#utility.yul\":12710:12725   */\n      mstore\n        /* \"#utility.yul\":12744:12748   */\n      0x24\n        /* \"#utility.yul\":12741:12742   */\n      0x00\n        /* \"#utility.yul\":12734:12749   */\n      revert\n        /* \"#utility.yul\":12761:12946   */\n    tag_69:\n        /* \"#utility.yul\":12801:12802   */\n      0x00\n        /* \"#utility.yul\":12818:12838   */\n      tag_268\n        /* \"#utility.yul\":12836:12837   */\n      dup3\n        /* \"#utility.yul\":12818:12838   */\n      tag_120\n      jump\t// in\n    tag_268:\n        /* \"#utility.yul\":12813:12838   */\n      swap2\n      pop\n        /* \"#utility.yul\":12852:12872   */\n      tag_269\n        /* \"#utility.yul\":12870:12871   */\n      dup4\n        /* \"#utility.yul\":12852:12872   */\n      tag_120\n      jump\t// in\n    tag_269:\n        /* \"#utility.yul\":12847:12872   */\n      swap3\n      pop\n        /* \"#utility.yul\":12891:12892   */\n      dup3\n        /* \"#utility.yul\":12881:12916   */\n      tag_270\n      jumpi\n        /* \"#utility.yul\":12896:12914   */\n      tag_271\n      tag_151\n      jump\t// in\n    tag_271:\n        /* \"#utility.yul\":12881:12916   */\n    tag_270:\n        /* \"#utility.yul\":12938:12939   */\n      dup3\n        /* \"#utility.yul\":12935:12936   */\n      dup3\n        /* \"#utility.yul\":12931:12940   */\n      div\n        /* \"#utility.yul\":12926:12940   */\n      swap1\n      pop\n        /* \"#utility.yul\":12761:12946   */\n      swap3\n      swap2\n      pop\n      pop\n      jump\t// out\n        /* \"#utility.yul\":12952:13182   */\n    tag_152:\n        /* \"#utility.yul\":13092:13126   */\n      0x56616c6f722064612061706f73746120666f726120646f20696e74657276616c\n        /* \"#utility.yul\":13088:13089   */\n      0x00\n        /* \"#utility.yul\":13080:13086   */\n      dup3\n        /* \"#utility.yul\":13076:13090   */\n      add\n        /* \"#utility.yul\":13069:13127   */\n      mstore\n        /* \"#utility.yul\":13161:13174   */\n      0x6f207065726d697469646f000000000000000000000000000000000000000000\n        /* \"#utility.yul\":13156:13158   */\n      0x20\n        /* \"#utility.yul\":13148:13154   */\n      dup3\n        /* \"#utility.yul\":13144:13159   */\n      add\n        /* \"#utility.yul\":13137:13175   */\n      mstore\n        /* \"#utility.yul\":12952:13182   */\n      pop\n      jump\t// out\n        /* \"#utility.yul\":13188:13554   */\n    tag_153:\n        /* \"#utility.yul\":13330:13333   */\n      0x00\n        /* \"#utility.yul\":13351:13418   */\n      tag_274\n        /* \"#utility.yul\":13415:13417   */\n      0x2b\n        /* \"#utility.yul\":13410:13413   */\n      dup4\n        /* \"#utility.yul\":13351:13418   */\n      tag_141\n      jump\t// in\n    tag_274:\n        /* \"#utility.yul\":13344:13418   */\n      swap2\n      pop\n        /* \"#utility.yul\":13427:13520   */\n      tag_275\n        /* \"#utility.yul\":13516:13519   */\n      dup3\n        /* \"#utility.yul\":13427:13520   */\n      tag_152\n      jump\t// in\n    tag_275:\n        /* \"#utility.yul\":13545:13547   */\n      0x40\n        /* \"#utility.yul\":13540:13543   */\n      dup3\n        /* \"#utility.yul\":13536:13548   */\n      add\n        /* \"#utility.yul\":13529:13548   */\n      swap1\n      pop\n        /* \"#utility.yul\":13188:13554   */\n      swap2\n      swap1\n      pop\n      jump\t// out\n        /* \"#utility.yul\":13560:13979   */\n    tag_84:\n        /* \"#utility.yul\":13726:13730   */\n      0x00\n        /* \"#utility.yul\":13764:13766   */\n      0x20\n        /* \"#utility.yul\":13753:13762   */\n      dup3\n        /* \"#utility.yul\":13749:13767   */\n      add\n        /* \"#utility.yul\":13741:13767   */\n      swap1\n      pop\n        /* \"#utility.yul\":13813:13822   */\n      dup2\n        /* \"#utility.yul\":13807:13811   */\n      dup2\n        /* \"#utility.yul\":13803:13823   */\n      sub\n        /* \"#utility.yul\":13799:13800   */\n      0x00\n        /* \"#utility.yul\":13788:13797   */\n      dup4\n        /* \"#utility.yul\":13784:13801   */\n      add\n        /* \"#utility.yul\":13777:13824   */\n      mstore\n        /* \"#utility.yul\":13841:13972   */\n      tag_277\n        /* \"#utility.yul\":13967:13971   */\n      dup2\n        /* \"#utility.yul\":13841:13972   */\n      tag_153\n      jump\t// in\n    tag_277:\n        /* \"#utility.yul\":13833:13972   */\n      swap1\n      pop\n        /* \"#utility.yul\":13560:13979   */\n      swap2\n      swap1\n      pop\n      jump\t// out\n        /* \"#utility.yul\":13985:14216   */\n    tag_154:\n        /* \"#utility.yul\":14125:14159   */\n      0x56616c6f7220656e766961646f2065206469666572656e746520646f2076616c\n        /* \"#utility.yul\":14121:14122   */\n      0x00\n        /* \"#utility.yul\":14113:14119   */\n      dup3\n        /* \"#utility.yul\":14109:14123   */\n      add\n        /* \"#utility.yul\":14102:14160   */\n      mstore\n        /* \"#utility.yul\":14194:14208   */\n      0x6f722064612061706f7374610000000000000000000000000000000000000000\n        /* \"#utility.yul\":14189:14191   */\n      0x20\n        /* \"#utility.yul\":14181:14187   */\n      dup3\n        /* \"#utility.yul\":14177:14192   */\n      add\n        /* \"#utility.yul\":14170:14209   */\n      mstore\n        /* \"#utility.yul\":13985:14216   */\n      pop\n      jump\t// out\n        /* \"#utility.yul\":14222:14588   */\n    tag_155:\n        /* \"#utility.yul\":14364:14367   */\n      0x00\n        /* \"#utility.yul\":14385:14452   */\n      tag_280\n        /* \"#utility.yul\":14449:14451   */\n      0x2c\n        /* \"#utility.yul\":14444:14447   */\n      dup4\n        /* \"#utility.yul\":14385:14452   */\n      tag_141\n      jump\t// in\n    tag_280:\n        /* \"#utility.yul\":14378:14452   */\n      swap2\n      pop\n        /* \"#utility.yul\":14461:14554   */\n      tag_281\n        /* \"#utility.yul\":14550:14553   */\n      dup3\n        /* \"#utility.yul\":14461:14554   */\n      tag_154\n      jump\t// in\n    tag_281:\n        /* \"#utility.yul\":14579:14581   */\n      0x40\n        /* \"#utility.yul\":14574:14577   */\n      dup3\n        /* \"#utility.yul\":14570:14582   */\n      add\n        /* \"#utility.yul\":14563:14582   */\n      swap1\n      pop\n        /* \"#utility.yul\":14222:14588   */\n      swap2\n      swap1\n      pop\n      jump\t// out\n        /* \"#utility.yul\":14594:15013   */\n    tag_88:\n        /* \"#utility.yul\":14760:14764   */\n      0x00\n        /* \"#utility.yul\":14798:14800   */\n      0x20\n        /* \"#utility.yul\":14787:14796   */\n      dup3\n        /* \"#utility.yul\":14783:14801   */\n      add\n        /* \"#utility.yul\":14775:14801   */\n      swap1\n      pop\n        /* \"#utility.yul\":14847:14856   */\n      dup2\n        /* \"#utility.yul\":14841:14845   */\n      dup2\n        /* \"#utility.yul\":14837:14857   */\n      sub\n        /* \"#utility.yul\":14833:14834   */\n      0x00\n        /* \"#utility.yul\":14822:14831   */\n      dup4\n        /* \"#utility.yul\":14818:14835   */\n      add\n        /* \"#utility.yul\":14811:14858   */\n      mstore\n        /* \"#utility.yul\":14875:15006   */\n      tag_283\n        /* \"#utility.yul\":15001:15005   */\n      dup2\n        /* \"#utility.yul\":14875:15006   */\n      tag_155\n      jump\t// in\n    tag_283:\n        /* \"#utility.yul\":14867:15006   */\n      swap1\n      pop\n        /* \"#utility.yul\":14594:15013   */\n      swap2\n      swap1\n      pop\n      jump\t// out\n        /* \"#utility.yul\":15019:15241   */\n    tag_93:\n        /* \"#utility.yul\":15112:15116   */\n      0x00\n        /* \"#utility.yul\":15150:15152   */\n      0x20\n        /* \"#utility.yul\":15139:15148   */\n      dup3\n        /* \"#utility.yul\":15135:15153   */\n      add\n        /* \"#utility.yul\":15127:15153   */\n      swap1\n      pop\n        /* \"#utility.yul\":15163:15234   */\n      tag_285\n        /* \"#utility.yul\":15231:15232   */\n      0x00\n        /* \"#utility.yul\":15220:15229   */\n      dup4\n        /* \"#utility.yul\":15216:15233   */\n      add\n        /* \"#utility.yul\":15207:15213   */\n      dup5\n        /* \"#utility.yul\":15163:15234   */\n      tag_128\n      jump\t// in\n    tag_285:\n        /* \"#utility.yul\":15019:15241   */\n      swap3\n      swap2\n      pop\n      pop\n      jump\t// out\n        /* \"#utility.yul\":15247:15473   */\n    tag_156:\n        /* \"#utility.yul\":15387:15421   */\n      0x4465736166696f206e616f206573746120617469766f206f75206a6120666f69\n        /* \"#utility.yul\":15383:15384   */\n      0x00\n        /* \"#utility.yul\":15375:15381   */\n      dup3\n        /* \"#utility.yul\":15371:15385   */\n      add\n        /* \"#utility.yul\":15364:15422   */\n      mstore\n        /* \"#utility.yul\":15456:15465   */\n      0x2061636569746f00000000000000000000000000000000000000000000000000\n        /* \"#utility.yul\":15451:15453   */\n      0x20\n        /* \"#utility.yul\":15443:15449   */\n      dup3\n        /* \"#utility.yul\":15439:15454   */\n      add\n        /* \"#utility.yul\":15432:15466   */\n      mstore\n        /* \"#utility.yul\":15247:15473   */\n      pop\n      jump\t// out\n        /* \"#utility.yul\":15479:15845   */\n    tag_157:\n        /* \"#utility.yul\":15621:15624   */\n      0x00\n        /* \"#utility.yul\":15642:15709   */\n      tag_288\n        /* \"#utility.yul\":15706:15708   */\n      0x27\n        /* \"#utility.yul\":15701:15704   */\n      dup4\n        /* \"#utility.yul\":15642:15709   */\n      tag_141\n      jump\t// in\n    tag_288:\n        /* \"#utility.yul\":15635:15709   */\n      swap2\n      pop\n        /* \"#utility.yul\":15718:15811   */\n      tag_289\n        /* \"#utility.yul\":15807:15810   */\n      dup3\n        /* \"#utility.yul\":15718:15811   */\n      tag_156\n      jump\t// in\n    tag_289:\n        /* \"#utility.yul\":15836:15838   */\n      0x40\n        /* \"#utility.yul\":15831:15834   */\n      dup3\n        /* \"#utility.yul\":15827:15839   */\n      add\n        /* \"#utility.yul\":15820:15839   */\n      swap1\n      pop\n        /* \"#utility.yul\":15479:15845   */\n      swap2\n      swap1\n      pop\n      jump\t// out\n        /* \"#utility.yul\":15851:16270   */\n    tag_107:\n        /* \"#utility.yul\":16017:16021   */\n      0x00\n        /* \"#utility.yul\":16055:16057   */\n      0x20\n        /* \"#utility.yul\":16044:16053   */\n      dup3\n        /* \"#utility.yul\":16040:16058   */\n      add\n        /* \"#utility.yul\":16032:16058   */\n      swap1\n      pop\n        /* \"#utility.yul\":16104:16113   */\n      dup2\n        /* \"#utility.yul\":16098:16102   */\n      dup2\n        /* \"#utility.yul\":16094:16114   */\n      sub\n        /* \"#utility.yul\":16090:16091   */\n      0x00\n        /* \"#utility.yul\":16079:16088   */\n      dup4\n        /* \"#utility.yul\":16075:16092   */\n      add\n        /* \"#utility.yul\":16068:16115   */\n      mstore\n        /* \"#utility.yul\":16132:16263   */\n      tag_291\n        /* \"#utility.yul\":16258:16262   */\n      dup2\n        /* \"#utility.yul\":16132:16263   */\n      tag_157\n      jump\t// in\n    tag_291:\n        /* \"#utility.yul\":16124:16263   */\n      swap1\n      pop\n        /* \"#utility.yul\":15851:16270   */\n      swap2\n      swap1\n      pop\n      jump\t// out\n        /* \"#utility.yul\":16276:16505   */\n    tag_158:\n        /* \"#utility.yul\":16416:16450   */\n      0x56616c6f7220656e766961646f206469666572656e746520646f2076616c6f72\n        /* \"#utility.yul\":16412:16413   */\n      0x00\n        /* \"#utility.yul\":16404:16410   */\n      dup3\n        /* \"#utility.yul\":16400:16414   */\n      add\n        /* \"#utility.yul\":16393:16451   */\n      mstore\n        /* \"#utility.yul\":16485:16497   */\n      0x2064612061706f73746100000000000000000000000000000000000000000000\n        /* \"#utility.yul\":16480:16482   */\n      0x20\n        /* \"#utility.yul\":16472:16478   */\n      dup3\n        /* \"#utility.yul\":16468:16483   */\n      add\n        /* \"#utility.yul\":16461:16498   */\n      mstore\n        /* \"#utility.yul\":16276:16505   */\n      pop\n      jump\t// out\n        /* \"#utility.yul\":16511:16877   */\n    tag_159:\n        /* \"#utility.yul\":16653:16656   */\n      0x00\n        /* \"#utility.yul\":16674:16741   */\n      tag_294\n        /* \"#utility.yul\":16738:16740   */\n      0x2a\n        /* \"#utility.yul\":16733:16736   */\n      dup4\n        /* \"#utility.yul\":16674:16741   */\n      tag_141\n      jump\t// in\n    tag_294:\n        /* \"#utility.yul\":16667:16741   */\n      swap2\n      pop\n        /* \"#utility.yul\":16750:16843   */\n      tag_295\n        /* \"#utility.yul\":16839:16842   */\n      dup3\n        /* \"#utility.yul\":16750:16843   */\n      tag_158\n      jump\t// in\n    tag_295:\n        /* \"#utility.yul\":16868:16870   */\n      0x40\n        /* \"#utility.yul\":16863:16866   */\n      dup3\n        /* \"#utility.yul\":16859:16871   */\n      add\n        /* \"#utility.yul\":16852:16871   */\n      swap1\n      pop\n        /* \"#utility.yul\":16511:16877   */\n      swap2\n      swap1\n      pop\n      jump\t// out\n        /* \"#utility.yul\":16883:17302   */\n    tag_110:\n        /* \"#utility.yul\":17049:17053   */\n      0x00\n        /* \"#utility.yul\":17087:17089   */\n      0x20\n        /* \"#utility.yul\":17076:17085   */\n      dup3\n        /* \"#utility.yul\":17072:17090   */\n      add\n        /* \"#utility.yul\":17064:17090   */\n      swap1\n      pop\n        /* \"#utility.yul\":17136:17145   */\n      dup2\n        /* \"#utility.yul\":17130:17134   */\n      dup2\n        /* \"#utility.yul\":17126:17146   */\n      sub\n        /* \"#utility.yul\":17122:17123   */\n      0x00\n        /* \"#utility.yul\":17111:17120   */\n      dup4\n        /* \"#utility.yul\":17107:17124   */\n      add\n        /* \"#utility.yul\":17100:17147   */\n      mstore\n        /* \"#utility.yul\":17164:17295   */\n      tag_297\n        /* \"#utility.yul\":17290:17294   */\n      dup2\n        /* \"#utility.yul\":17164:17295   */\n      tag_159\n      jump\t// in\n    tag_297:\n        /* \"#utility.yul\":17156:17295   */\n      swap1\n      pop\n        /* \"#utility.yul\":16883:17302   */\n      swap2\n      swap1\n      pop\n      jump\t// out\n\n    auxdata: 0xa26469706673582212201a7967c7a5cd34a0c4686a1a1c81ca990c81fbfaa2d44af9315ad5aa3de29f0164736f6c63430008180033\n}\n",
				"bytecode": {
					"linkReferences": {},
					"object": "608060405234801561000f575f80fd5b506116bd8061001d5f395ff3fe608060405260043610610054575f3560e01c806301958da514610058578063023175221461008057806330fd4a741461009c57806390de64ee146100b8578063acdaca3e146100fa578063d34c644514610116575b5f80fd5b348015610063575f80fd5b5061007e60048036038101906100799190610e33565b610140565b005b61009a60048036038101906100959190610eb8565b610309565b005b6100b660048036038101906100b19190610e33565b6105de565b005b3480156100c3575f80fd5b506100de60048036038101906100d99190610e33565b61094f565b6040516100f19796959493929190610f2e565b60405180910390f35b610114600480360381019061010f9190610e33565b610a31565b005b348015610121575f80fd5b5061012a610c0e565b60405161013791906110fc565b60405180910390f35b33815f81815481106101555761015461111c565b5b905f5260205f2090600502016001015f9054906101000a900473ffffffffffffffffffffffffffffffffffffffff1673ffffffffffffffffffffffffffffffffffffffff168273ffffffffffffffffffffffffffffffffffffffff16036101f1576040517f08c379a00000000000000000000000000000000000000000000000000000000081526004016101e8906111a3565b60405180910390fd5b5f81815481106102045761020361111c565b5b905f5260205f2090600502015f015f9054906101000a900473ffffffffffffffffffffffffffffffffffffffff1673ffffffffffffffffffffffffffffffffffffffff168273ffffffffffffffffffffffffffffffffffffffff160361029f576040517f08c379a000000000000000000000000000000000000000000000000000000000815260040161029690611231565b60405180910390fd5b5f8084815481106102b3576102b261111c565b5b905f5260205f209060050201905033816002015f6101000a81548173ffffffffffffffffffffffffffffffffffffffff021916908373ffffffffffffffffffffffffffffffffffffffff16021790555050505050565b5f828154811061031c5761031b61111c565b5b905f5260205f2090600502016002015f9054906101000a900473ffffffffffffffffffffffffffffffffffffffff1673ffffffffffffffffffffffffffffffffffffffff163373ffffffffffffffffffffffffffffffffffffffff16146103b8576040517f08c379a00000000000000000000000000000000000000000000000000000000081526004016103af906112bf565b60405180910390fd5b5f8083815481106103cc576103cb61111c565b5b905f5260205f2090600502019050806004015f9054906101000a900460ff16801561040557508060040160019054906101000a900460ff165b610444576040517f08c379a000000000000000000000000000000000000000000000000000000000815260040161043b9061134d565b60405180910390fd5b818160040160026101000a81548173ffffffffffffffffffffffffffffffffffffffff021916908373ffffffffffffffffffffffffffffffffffffffff1602179055505f600a6008836003015461049b9190611398565b6104a59190611406565b90505f600a600184600301546104bb9190611398565b6104c59190611406565b90505f600a600185600301546104db9190611398565b6104e59190611406565b90508473ffffffffffffffffffffffffffffffffffffffff166108fc8490811502906040515f60405180830381858888f1935050505015801561052a573d5f803e3d5ffd5b50836002015f9054906101000a900473ffffffffffffffffffffffffffffffffffffffff1673ffffffffffffffffffffffffffffffffffffffff166108fc8290811502906040515f60405180830381858888f19350505050158015610591573d5f803e3d5ffd5b503073ffffffffffffffffffffffffffffffffffffffff166108fc8390811502906040515f60405180830381858888f193505050501580156105d5573d5f803e3d5ffd5b50505050505050565b8066060a24181e400081101580156105fe5750670de0b6b3a76400008111155b61063d576040517f08c379a0000000000000000000000000000000000000000000000000000000008152600401610634906114a6565b60405180910390fd5b81341461067f576040517f08c379a000000000000000000000000000000000000000000000000000000000815260040161067690611534565b60405180910390fd5b5f3390503073ffffffffffffffffffffffffffffffffffffffff166108fc8490811502906040515f60405180830381858888f193505050501580156106c6573d5f803e3d5ffd5b505f6040518060e001604052805f73ffffffffffffffffffffffffffffffffffffffff1681526020018373ffffffffffffffffffffffffffffffffffffffff1681526020015f73ffffffffffffffffffffffffffffffffffffffff1681526020018581526020016001151581526020015f151581526020015f73ffffffffffffffffffffffffffffffffffffffff1681525090505f81908060018154018082558091505060019003905f5260205f2090600502015f909190919091505f820151815f015f6101000a81548173ffffffffffffffffffffffffffffffffffffffff021916908373ffffffffffffffffffffffffffffffffffffffff1602179055506020820151816001015f6101000a81548173ffffffffffffffffffffffffffffffffffffffff021916908373ffffffffffffffffffffffffffffffffffffffff1602179055506040820151816002015f6101000a81548173ffffffffffffffffffffffffffffffffffffffff021916908373ffffffffffffffffffffffffffffffffffffffff160217905550606082015181600301556080820151816004015f6101000a81548160ff02191690831515021790555060a08201518160040160016101000a81548160ff02191690831515021790555060c08201518160040160026101000a81548173ffffffffffffffffffffffffffffffffffffffff021916908373ffffffffffffffffffffffffffffffffffffffff16021790555050508173ffffffffffffffffffffffffffffffffffffffff165f73ffffffffffffffffffffffffffffffffffffffff167f9f35d8b2b608c7fb87cbd5bb99303d30bb4c28312a9cc11a5ff23a06a21b724b866040516109419190611552565b60405180910390a350505050565b5f818154811061095d575f80fd5b905f5260205f2090600502015f91509050805f015f9054906101000a900473ffffffffffffffffffffffffffffffffffffffff1690806001015f9054906101000a900473ffffffffffffffffffffffffffffffffffffffff1690806002015f9054906101000a900473ffffffffffffffffffffffffffffffffffffffff1690806003015490806004015f9054906101000a900460ff16908060040160019054906101000a900460ff16908060040160029054906101000a900473ffffffffffffffffffffffffffffffffffffffff16905087565b3466060a24181e40008110158015610a515750670de0b6b3a76400008111155b610a90576040517f08c379a0000000000000000000000000000000000000000000000000000000008152600401610a87906114a6565b60405180910390fd5b5f808381548110610aa457610aa361111c565b5b905f5260205f2090600502019050806004015f9054906101000a900460ff168015610ade57508060040160019054906101000a900460ff16155b610b1d576040517f08c379a0000000000000000000000000000000000000000000000000000000008152600401610b14906115db565b60405180910390fd5b80600301543414610b63576040517f08c379a0000000000000000000000000000000000000000000000000000000008152600401610b5a90611669565b60405180910390fd5b33815f015f6101000a81548173ffffffffffffffffffffffffffffffffffffffff021916908373ffffffffffffffffffffffffffffffffffffffff1602179055503073ffffffffffffffffffffffffffffffffffffffff166108fc826003015490811502906040515f60405180830381858888f19350505050158015610beb573d5f803e3d5ffd5b5060018160040160016101000a81548160ff021916908315150217905550505050565b60605f805480602002602001604051908101604052809291908181526020015f905b82821015610df3578382905f5260205f2090600502016040518060e00160405290815f82015f9054906101000a900473ffffffffffffffffffffffffffffffffffffffff1673ffffffffffffffffffffffffffffffffffffffff1673ffffffffffffffffffffffffffffffffffffffff168152602001600182015f9054906101000a900473ffffffffffffffffffffffffffffffffffffffff1673ffffffffffffffffffffffffffffffffffffffff1673ffffffffffffffffffffffffffffffffffffffff168152602001600282015f9054906101000a900473ffffffffffffffffffffffffffffffffffffffff1673ffffffffffffffffffffffffffffffffffffffff1673ffffffffffffffffffffffffffffffffffffffff16815260200160038201548152602001600482015f9054906101000a900460ff161515151581526020016004820160019054906101000a900460ff161515151581526020016004820160029054906101000a900473ffffffffffffffffffffffffffffffffffffffff1673ffffffffffffffffffffffffffffffffffffffff1673ffffffffffffffffffffffffffffffffffffffff168152505081526020019060010190610c30565b50505050905090565b5f80fd5b5f819050919050565b610e1281610e00565b8114610e1c575f80fd5b50565b5f81359050610e2d81610e09565b92915050565b5f60208284031215610e4857610e47610dfc565b5b5f610e5584828501610e1f565b91505092915050565b5f73ffffffffffffffffffffffffffffffffffffffff82169050919050565b5f610e8782610e5e565b9050919050565b610e9781610e7d565b8114610ea1575f80fd5b50565b5f81359050610eb281610e8e565b92915050565b5f8060408385031215610ece57610ecd610dfc565b5b5f610edb85828601610e1f565b9250506020610eec85828601610ea4565b9150509250929050565b610eff81610e7d565b82525050565b610f0e81610e00565b82525050565b5f8115159050919050565b610f2881610f14565b82525050565b5f60e082019050610f415f83018a610ef6565b610f4e6020830189610ef6565b610f5b6040830188610ef6565b610f686060830187610f05565b610f756080830186610f1f565b610f8260a0830185610f1f565b610f8f60c0830184610ef6565b98975050505050505050565b5f81519050919050565b5f82825260208201905092915050565b5f819050602082019050919050565b610fcd81610e7d565b82525050565b610fdc81610e00565b82525050565b610feb81610f14565b82525050565b60e082015f8201516110055f850182610fc4565b5060208201516110186020850182610fc4565b50604082015161102b6040850182610fc4565b50606082015161103e6060850182610fd3565b5060808201516110516080850182610fe2565b5060a082015161106460a0850182610fe2565b5060c082015161107760c0850182610fc4565b50505050565b5f6110888383610ff1565b60e08301905092915050565b5f602082019050919050565b5f6110aa82610f9b565b6110b48185610fa5565b93506110bf83610fb5565b805f5b838110156110ef5781516110d6888261107d565b97506110e183611094565b9250506001810190506110c2565b5085935050505092915050565b5f6020820190508181035f83015261111481846110a0565b905092915050565b7f4e487b71000000000000000000000000000000000000000000000000000000005f52603260045260245ffd5b5f82825260208201905092915050565b7f4f2064657361666961646f206e616f20706f646520736572206f206a75697a2e5f82015250565b5f61118d602083611149565b915061119882611159565b602082019050919050565b5f6020820190508181035f8301526111ba81611181565b9050919050565b7f4f20646573616669616e7465206e616f20706f646520736572206f206a75697a5f8201527f2e00000000000000000000000000000000000000000000000000000000000000602082015250565b5f61121b602183611149565b9150611226826111c1565b604082019050919050565b5f6020820190508181035f8301526112488161120f565b9050919050565b7f536f6d656e7465206f206a75697a20706f6465206465636c61726172206f20765f8201527f656e6365646f7200000000000000000000000000000000000000000000000000602082015250565b5f6112a9602783611149565b91506112b48261124f565b604082019050919050565b5f6020820190508181035f8301526112d68161129d565b9050919050565b7f4465736166696f206e616f206573746120617469766f206f75206e616f20666f5f8201527f692061636569746f000000000000000000000000000000000000000000000000602082015250565b5f611337602883611149565b9150611342826112dd565b604082019050919050565b5f6020820190508181035f8301526113648161132b565b9050919050565b7f4e487b71000000000000000000000000000000000000000000000000000000005f52601160045260245ffd5b5f6113a282610e00565b91506113ad83610e00565b92508282026113bb81610e00565b915082820484148315176113d2576113d161136b565b5b5092915050565b7f4e487b71000000000000000000000000000000000000000000000000000000005f52601260045260245ffd5b5f61141082610e00565b915061141b83610e00565b92508261142b5761142a6113d9565b5b828204905092915050565b7f56616c6f722064612061706f73746120666f726120646f20696e74657276616c5f8201527f6f207065726d697469646f000000000000000000000000000000000000000000602082015250565b5f611490602b83611149565b915061149b82611436565b604082019050919050565b5f6020820190508181035f8301526114bd81611484565b9050919050565b7f56616c6f7220656e766961646f2065206469666572656e746520646f2076616c5f8201527f6f722064612061706f7374610000000000000000000000000000000000000000602082015250565b5f61151e602c83611149565b9150611529826114c4565b604082019050919050565b5f6020820190508181035f83015261154b81611512565b9050919050565b5f6020820190506115655f830184610f05565b92915050565b7f4465736166696f206e616f206573746120617469766f206f75206a6120666f695f8201527f2061636569746f00000000000000000000000000000000000000000000000000602082015250565b5f6115c5602783611149565b91506115d08261156b565b604082019050919050565b5f6020820190508181035f8301526115f2816115b9565b9050919050565b7f56616c6f7220656e766961646f206469666572656e746520646f2076616c6f725f8201527f2064612061706f73746100000000000000000000000000000000000000000000602082015250565b5f611653602a83611149565b915061165e826115f9565b604082019050919050565b5f6020820190508181035f83015261168081611647565b905091905056fea26469706673582212201a7967c7a5cd34a0c4686a1a1c81ca990c81fbfaa2d44af9315ad5aa3de29f0164736f6c63430008180033",
					"opcodes": "PUSH1 0x80 PUSH1 0x40 MSTORE CALLVALUE DUP1 ISZERO PUSH2 0xF JUMPI PUSH0 DUP1 REVERT JUMPDEST POP PUSH2 0x16BD DUP1 PUSH2 0x1D PUSH0 CODECOPY PUSH0 RETURN INVALID PUSH1 0x80 PUSH1 0x40 MSTORE PUSH1 0x4 CALLDATASIZE LT PUSH2 0x54 JUMPI PUSH0 CALLDATALOAD PUSH1 0xE0 SHR DUP1 PUSH4 0x1958DA5 EQ PUSH2 0x58 JUMPI DUP1 PUSH4 0x2317522 EQ PUSH2 0x80 JUMPI DUP1 PUSH4 0x30FD4A74 EQ PUSH2 0x9C JUMPI DUP1 PUSH4 0x90DE64EE EQ PUSH2 0xB8 JUMPI DUP1 PUSH4 0xACDACA3E EQ PUSH2 0xFA JUMPI DUP1 PUSH4 0xD34C6445 EQ PUSH2 0x116 JUMPI JUMPDEST PUSH0 DUP1 REVERT JUMPDEST CALLVALUE DUP1 ISZERO PUSH2 0x63 JUMPI PUSH0 DUP1 REVERT JUMPDEST POP PUSH2 0x7E PUSH1 0x4 DUP1 CALLDATASIZE SUB DUP2 ADD SWAP1 PUSH2 0x79 SWAP2 SWAP1 PUSH2 0xE33 JUMP JUMPDEST PUSH2 0x140 JUMP JUMPDEST STOP JUMPDEST PUSH2 0x9A PUSH1 0x4 DUP1 CALLDATASIZE SUB DUP2 ADD SWAP1 PUSH2 0x95 SWAP2 SWAP1 PUSH2 0xEB8 JUMP JUMPDEST PUSH2 0x309 JUMP JUMPDEST STOP JUMPDEST PUSH2 0xB6 PUSH1 0x4 DUP1 CALLDATASIZE SUB DUP2 ADD SWAP1 PUSH2 0xB1 SWAP2 SWAP1 PUSH2 0xE33 JUMP JUMPDEST PUSH2 0x5DE JUMP JUMPDEST STOP JUMPDEST CALLVALUE DUP1 ISZERO PUSH2 0xC3 JUMPI PUSH0 DUP1 REVERT JUMPDEST POP PUSH2 0xDE PUSH1 0x4 DUP1 CALLDATASIZE SUB DUP2 ADD SWAP1 PUSH2 0xD9 SWAP2 SWAP1 PUSH2 0xE33 JUMP JUMPDEST PUSH2 0x94F JUMP JUMPDEST PUSH1 0x40 MLOAD PUSH2 0xF1 SWAP8 SWAP7 SWAP6 SWAP5 SWAP4 SWAP3 SWAP2 SWAP1 PUSH2 0xF2E JUMP JUMPDEST PUSH1 0x40 MLOAD DUP1 SWAP2 SUB SWAP1 RETURN JUMPDEST PUSH2 0x114 PUSH1 0x4 DUP1 CALLDATASIZE SUB DUP2 ADD SWAP1 PUSH2 0x10F SWAP2 SWAP1 PUSH2 0xE33 JUMP JUMPDEST PUSH2 0xA31 JUMP JUMPDEST STOP JUMPDEST CALLVALUE DUP1 ISZERO PUSH2 0x121 JUMPI PUSH0 DUP1 REVERT JUMPDEST POP PUSH2 0x12A PUSH2 0xC0E JUMP JUMPDEST PUSH1 0x40 MLOAD PUSH2 0x137 SWAP2 SWAP1 PUSH2 0x10FC JUMP JUMPDEST PUSH1 0x40 MLOAD DUP1 SWAP2 SUB SWAP1 RETURN JUMPDEST CALLER DUP2 PUSH0 DUP2 DUP2 SLOAD DUP2 LT PUSH2 0x155 JUMPI PUSH2 0x154 PUSH2 0x111C JUMP JUMPDEST JUMPDEST SWAP1 PUSH0 MSTORE PUSH1 0x20 PUSH0 KECCAK256 SWAP1 PUSH1 0x5 MUL ADD PUSH1 0x1 ADD PUSH0 SWAP1 SLOAD SWAP1 PUSH2 0x100 EXP SWAP1 DIV PUSH20 0xFFFFFFFFFFFFFFFFFFFFFFFFFFFFFFFFFFFFFFFF AND PUSH20 0xFFFFFFFFFFFFFFFFFFFFFFFFFFFFFFFFFFFFFFFF AND DUP3 PUSH20 0xFFFFFFFFFFFFFFFFFFFFFFFFFFFFFFFFFFFFFFFF AND SUB PUSH2 0x1F1 JUMPI PUSH1 0x40 MLOAD PUSH32 0x8C379A000000000000000000000000000000000000000000000000000000000 DUP2 MSTORE PUSH1 0x4 ADD PUSH2 0x1E8 SWAP1 PUSH2 0x11A3 JUMP JUMPDEST PUSH1 0x40 MLOAD DUP1 SWAP2 SUB SWAP1 REVERT JUMPDEST PUSH0 DUP2 DUP2 SLOAD DUP2 LT PUSH2 0x204 JUMPI PUSH2 0x203 PUSH2 0x111C JUMP JUMPDEST JUMPDEST SWAP1 PUSH0 MSTORE PUSH1 0x20 PUSH0 KECCAK256 SWAP1 PUSH1 0x5 MUL ADD PUSH0 ADD PUSH0 SWAP1 SLOAD SWAP1 PUSH2 0x100 EXP SWAP1 DIV PUSH20 0xFFFFFFFFFFFFFFFFFFFFFFFFFFFFFFFFFFFFFFFF AND PUSH20 0xFFFFFFFFFFFFFFFFFFFFFFFFFFFFFFFFFFFFFFFF AND DUP3 PUSH20 0xFFFFFFFFFFFFFFFFFFFFFFFFFFFFFFFFFFFFFFFF AND SUB PUSH2 0x29F JUMPI PUSH1 0x40 MLOAD PUSH32 0x8C379A000000000000000000000000000000000000000000000000000000000 DUP2 MSTORE PUSH1 0x4 ADD PUSH2 0x296 SWAP1 PUSH2 0x1231 JUMP JUMPDEST PUSH1 0x40 MLOAD DUP1 SWAP2 SUB SWAP1 REVERT JUMPDEST PUSH0 DUP1 DUP5 DUP2 SLOAD DUP2 LT PUSH2 0x2B3 JUMPI PUSH2 0x2B2 PUSH2 0x111C JUMP JUMPDEST JUMPDEST SWAP1 PUSH0 MSTORE PUSH1 0x20 PUSH0 KECCAK256 SWAP1 PUSH1 0x5 MUL ADD SWAP1 POP CALLER DUP2 PUSH1 0x2 ADD PUSH0 PUSH2 0x100 EXP DUP2 SLOAD DUP2 PUSH20 0xFFFFFFFFFFFFFFFFFFFFFFFFFFFFFFFFFFFFFFFF MUL NOT AND SWAP1 DUP4 PUSH20 0xFFFFFFFFFFFFFFFFFFFFFFFFFFFFFFFFFFFFFFFF AND MUL OR SWAP1 SSTORE POP POP POP POP POP JUMP JUMPDEST PUSH0 DUP3 DUP2 SLOAD DUP2 LT PUSH2 0x31C JUMPI PUSH2 0x31B PUSH2 0x111C JUMP JUMPDEST JUMPDEST SWAP1 PUSH0 MSTORE PUSH1 0x20 PUSH0 KECCAK256 SWAP1 PUSH1 0x5 MUL ADD PUSH1 0x2 ADD PUSH0 SWAP1 SLOAD SWAP1 PUSH2 0x100 EXP SWAP1 DIV PUSH20 0xFFFFFFFFFFFFFFFFFFFFFFFFFFFFFFFFFFFFFFFF AND PUSH20 0xFFFFFFFFFFFFFFFFFFFFFFFFFFFFFFFFFFFFFFFF AND CALLER PUSH20 0xFFFFFFFFFFFFFFFFFFFFFFFFFFFFFFFFFFFFFFFF AND EQ PUSH2 0x3B8 JUMPI PUSH1 0x40 MLOAD PUSH32 0x8C379A000000000000000000000000000000000000000000000000000000000 DUP2 MSTORE PUSH1 0x4 ADD PUSH2 0x3AF SWAP1 PUSH2 0x12BF JUMP JUMPDEST PUSH1 0x40 MLOAD DUP1 SWAP2 SUB SWAP1 REVERT JUMPDEST PUSH0 DUP1 DUP4 DUP2 SLOAD DUP2 LT PUSH2 0x3CC JUMPI PUSH2 0x3CB PUSH2 0x111C JUMP JUMPDEST JUMPDEST SWAP1 PUSH0 MSTORE PUSH1 0x20 PUSH0 KECCAK256 SWAP1 PUSH1 0x5 MUL ADD SWAP1 POP DUP1 PUSH1 0x4 ADD PUSH0 SWAP1 SLOAD SWAP1 PUSH2 0x100 EXP SWAP1 DIV PUSH1 0xFF AND DUP1 ISZERO PUSH2 0x405 JUMPI POP DUP1 PUSH1 0x4 ADD PUSH1 0x1 SWAP1 SLOAD SWAP1 PUSH2 0x100 EXP SWAP1 DIV PUSH1 0xFF AND JUMPDEST PUSH2 0x444 JUMPI PUSH1 0x40 MLOAD PUSH32 0x8C379A000000000000000000000000000000000000000000000000000000000 DUP2 MSTORE PUSH1 0x4 ADD PUSH2 0x43B SWAP1 PUSH2 0x134D JUMP JUMPDEST PUSH1 0x40 MLOAD DUP1 SWAP2 SUB SWAP1 REVERT JUMPDEST DUP2 DUP2 PUSH1 0x4 ADD PUSH1 0x2 PUSH2 0x100 EXP DUP2 SLOAD DUP2 PUSH20 0xFFFFFFFFFFFFFFFFFFFFFFFFFFFFFFFFFFFFFFFF MUL NOT AND SWAP1 DUP4 PUSH20 0xFFFFFFFFFFFFFFFFFFFFFFFFFFFFFFFFFFFFFFFF AND MUL OR SWAP1 SSTORE POP PUSH0 PUSH1 0xA PUSH1 0x8 DUP4 PUSH1 0x3 ADD SLOAD PUSH2 0x49B SWAP2 SWAP1 PUSH2 0x1398 JUMP JUMPDEST PUSH2 0x4A5 SWAP2 SWAP1 PUSH2 0x1406 JUMP JUMPDEST SWAP1 POP PUSH0 PUSH1 0xA PUSH1 0x1 DUP5 PUSH1 0x3 ADD SLOAD PUSH2 0x4BB SWAP2 SWAP1 PUSH2 0x1398 JUMP JUMPDEST PUSH2 0x4C5 SWAP2 SWAP1 PUSH2 0x1406 JUMP JUMPDEST SWAP1 POP PUSH0 PUSH1 0xA PUSH1 0x1 DUP6 PUSH1 0x3 ADD SLOAD PUSH2 0x4DB SWAP2 SWAP1 PUSH2 0x1398 JUMP JUMPDEST PUSH2 0x4E5 SWAP2 SWAP1 PUSH2 0x1406 JUMP JUMPDEST SWAP1 POP DUP5 PUSH20 0xFFFFFFFFFFFFFFFFFFFFFFFFFFFFFFFFFFFFFFFF AND PUSH2 0x8FC DUP5 SWAP1 DUP2 ISZERO MUL SWAP1 PUSH1 0x40 MLOAD PUSH0 PUSH1 0x40 MLOAD DUP1 DUP4 SUB DUP2 DUP6 DUP9 DUP9 CALL SWAP4 POP POP POP POP ISZERO DUP1 ISZERO PUSH2 0x52A JUMPI RETURNDATASIZE PUSH0 DUP1 RETURNDATACOPY RETURNDATASIZE PUSH0 REVERT JUMPDEST POP DUP4 PUSH1 0x2 ADD PUSH0 SWAP1 SLOAD SWAP1 PUSH2 0x100 EXP SWAP1 DIV PUSH20 0xFFFFFFFFFFFFFFFFFFFFFFFFFFFFFFFFFFFFFFFF AND PUSH20 0xFFFFFFFFFFFFFFFFFFFFFFFFFFFFFFFFFFFFFFFF AND PUSH2 0x8FC DUP3 SWAP1 DUP2 ISZERO MUL SWAP1 PUSH1 0x40 MLOAD PUSH0 PUSH1 0x40 MLOAD DUP1 DUP4 SUB DUP2 DUP6 DUP9 DUP9 CALL SWAP4 POP POP POP POP ISZERO DUP1 ISZERO PUSH2 0x591 JUMPI RETURNDATASIZE PUSH0 DUP1 RETURNDATACOPY RETURNDATASIZE PUSH0 REVERT JUMPDEST POP ADDRESS PUSH20 0xFFFFFFFFFFFFFFFFFFFFFFFFFFFFFFFFFFFFFFFF AND PUSH2 0x8FC DUP4 SWAP1 DUP2 ISZERO MUL SWAP1 PUSH1 0x40 MLOAD PUSH0 PUSH1 0x40 MLOAD DUP1 DUP4 SUB DUP2 DUP6 DUP9 DUP9 CALL SWAP4 POP POP POP POP ISZERO DUP1 ISZERO PUSH2 0x5D5 JUMPI RETURNDATASIZE PUSH0 DUP1 RETURNDATACOPY RETURNDATASIZE PUSH0 REVERT JUMPDEST POP POP POP POP POP POP POP JUMP JUMPDEST DUP1 PUSH7 0x60A24181E4000 DUP2 LT ISZERO DUP1 ISZERO PUSH2 0x5FE JUMPI POP PUSH8 0xDE0B6B3A7640000 DUP2 GT ISZERO JUMPDEST PUSH2 0x63D JUMPI PUSH1 0x40 MLOAD PUSH32 0x8C379A000000000000000000000000000000000000000000000000000000000 DUP2 MSTORE PUSH1 0x4 ADD PUSH2 0x634 SWAP1 PUSH2 0x14A6 JUMP JUMPDEST PUSH1 0x40 MLOAD DUP1 SWAP2 SUB SWAP1 REVERT JUMPDEST DUP2 CALLVALUE EQ PUSH2 0x67F JUMPI PUSH1 0x40 MLOAD PUSH32 0x8C379A000000000000000000000000000000000000000000000000000000000 DUP2 MSTORE PUSH1 0x4 ADD PUSH2 0x676 SWAP1 PUSH2 0x1534 JUMP JUMPDEST PUSH1 0x40 MLOAD DUP1 SWAP2 SUB SWAP1 REVERT JUMPDEST PUSH0 CALLER SWAP1 POP ADDRESS PUSH20 0xFFFFFFFFFFFFFFFFFFFFFFFFFFFFFFFFFFFFFFFF AND PUSH2 0x8FC DUP5 SWAP1 DUP2 ISZERO MUL SWAP1 PUSH1 0x40 MLOAD PUSH0 PUSH1 0x40 MLOAD DUP1 DUP4 SUB DUP2 DUP6 DUP9 DUP9 CALL SWAP4 POP POP POP POP ISZERO DUP1 ISZERO PUSH2 0x6C6 JUMPI RETURNDATASIZE PUSH0 DUP1 RETURNDATACOPY RETURNDATASIZE PUSH0 REVERT JUMPDEST POP PUSH0 PUSH1 0x40 MLOAD DUP1 PUSH1 0xE0 ADD PUSH1 0x40 MSTORE DUP1 PUSH0 PUSH20 0xFFFFFFFFFFFFFFFFFFFFFFFFFFFFFFFFFFFFFFFF AND DUP2 MSTORE PUSH1 0x20 ADD DUP4 PUSH20 0xFFFFFFFFFFFFFFFFFFFFFFFFFFFFFFFFFFFFFFFF AND DUP2 MSTORE PUSH1 0x20 ADD PUSH0 PUSH20 0xFFFFFFFFFFFFFFFFFFFFFFFFFFFFFFFFFFFFFFFF AND DUP2 MSTORE PUSH1 0x20 ADD DUP6 DUP2 MSTORE PUSH1 0x20 ADD PUSH1 0x1 ISZERO ISZERO DUP2 MSTORE PUSH1 0x20 ADD PUSH0 ISZERO ISZERO DUP2 MSTORE PUSH1 0x20 ADD PUSH0 PUSH20 0xFFFFFFFFFFFFFFFFFFFFFFFFFFFFFFFFFFFFFFFF AND DUP2 MSTORE POP SWAP1 POP PUSH0 DUP2 SWAP1 DUP1 PUSH1 0x1 DUP2 SLOAD ADD DUP1 DUP3 SSTORE DUP1 SWAP2 POP POP PUSH1 0x1 SWAP1 SUB SWAP1 PUSH0 MSTORE PUSH1 0x20 PUSH0 KECCAK256 SWAP1 PUSH1 0x5 MUL ADD PUSH0 SWAP1 SWAP2 SWAP1 SWAP2 SWAP1 SWAP2 POP PUSH0 DUP3 ADD MLOAD DUP2 PUSH0 ADD PUSH0 PUSH2 0x100 EXP DUP2 SLOAD DUP2 PUSH20 0xFFFFFFFFFFFFFFFFFFFFFFFFFFFFFFFFFFFFFFFF MUL NOT AND SWAP1 DUP4 PUSH20 0xFFFFFFFFFFFFFFFFFFFFFFFFFFFFFFFFFFFFFFFF AND MUL OR SWAP1 SSTORE POP PUSH1 0x20 DUP3 ADD MLOAD DUP2 PUSH1 0x1 ADD PUSH0 PUSH2 0x100 EXP DUP2 SLOAD DUP2 PUSH20 0xFFFFFFFFFFFFFFFFFFFFFFFFFFFFFFFFFFFFFFFF MUL NOT AND SWAP1 DUP4 PUSH20 0xFFFFFFFFFFFFFFFFFFFFFFFFFFFFFFFFFFFFFFFF AND MUL OR SWAP1 SSTORE POP PUSH1 0x40 DUP3 ADD MLOAD DUP2 PUSH1 0x2 ADD PUSH0 PUSH2 0x100 EXP DUP2 SLOAD DUP2 PUSH20 0xFFFFFFFFFFFFFFFFFFFFFFFFFFFFFFFFFFFFFFFF MUL NOT AND SWAP1 DUP4 PUSH20 0xFFFFFFFFFFFFFFFFFFFFFFFFFFFFFFFFFFFFFFFF AND MUL OR SWAP1 SSTORE POP PUSH1 0x60 DUP3 ADD MLOAD DUP2 PUSH1 0x3 ADD SSTORE PUSH1 0x80 DUP3 ADD MLOAD DUP2 PUSH1 0x4 ADD PUSH0 PUSH2 0x100 EXP DUP2 SLOAD DUP2 PUSH1 0xFF MUL NOT AND SWAP1 DUP4 ISZERO ISZERO MUL OR SWAP1 SSTORE POP PUSH1 0xA0 DUP3 ADD MLOAD DUP2 PUSH1 0x4 ADD PUSH1 0x1 PUSH2 0x100 EXP DUP2 SLOAD DUP2 PUSH1 0xFF MUL NOT AND SWAP1 DUP4 ISZERO ISZERO MUL OR SWAP1 SSTORE POP PUSH1 0xC0 DUP3 ADD MLOAD DUP2 PUSH1 0x4 ADD PUSH1 0x2 PUSH2 0x100 EXP DUP2 SLOAD DUP2 PUSH20 0xFFFFFFFFFFFFFFFFFFFFFFFFFFFFFFFFFFFFFFFF MUL NOT AND SWAP1 DUP4 PUSH20 0xFFFFFFFFFFFFFFFFFFFFFFFFFFFFFFFFFFFFFFFF AND MUL OR SWAP1 SSTORE POP POP POP DUP2 PUSH20 0xFFFFFFFFFFFFFFFFFFFFFFFFFFFFFFFFFFFFFFFF AND PUSH0 PUSH20 0xFFFFFFFFFFFFFFFFFFFFFFFFFFFFFFFFFFFFFFFF AND PUSH32 0x9F35D8B2B608C7FB87CBD5BB99303D30BB4C28312A9CC11A5FF23A06A21B724B DUP7 PUSH1 0x40 MLOAD PUSH2 0x941 SWAP2 SWAP1 PUSH2 0x1552 JUMP JUMPDEST PUSH1 0x40 MLOAD DUP1 SWAP2 SUB SWAP1 LOG3 POP POP POP POP JUMP JUMPDEST PUSH0 DUP2 DUP2 SLOAD DUP2 LT PUSH2 0x95D JUMPI PUSH0 DUP1 REVERT JUMPDEST SWAP1 PUSH0 MSTORE PUSH1 0x20 PUSH0 KECCAK256 SWAP1 PUSH1 0x5 MUL ADD PUSH0 SWAP2 POP SWAP1 POP DUP1 PUSH0 ADD PUSH0 SWAP1 SLOAD SWAP1 PUSH2 0x100 EXP SWAP1 DIV PUSH20 0xFFFFFFFFFFFFFFFFFFFFFFFFFFFFFFFFFFFFFFFF AND SWAP1 DUP1 PUSH1 0x1 ADD PUSH0 SWAP1 SLOAD SWAP1 PUSH2 0x100 EXP SWAP1 DIV PUSH20 0xFFFFFFFFFFFFFFFFFFFFFFFFFFFFFFFFFFFFFFFF AND SWAP1 DUP1 PUSH1 0x2 ADD PUSH0 SWAP1 SLOAD SWAP1 PUSH2 0x100 EXP SWAP1 DIV PUSH20 0xFFFFFFFFFFFFFFFFFFFFFFFFFFFFFFFFFFFFFFFF AND SWAP1 DUP1 PUSH1 0x3 ADD SLOAD SWAP1 DUP1 PUSH1 0x4 ADD PUSH0 SWAP1 SLOAD SWAP1 PUSH2 0x100 EXP SWAP1 DIV PUSH1 0xFF AND SWAP1 DUP1 PUSH1 0x4 ADD PUSH1 0x1 SWAP1 SLOAD SWAP1 PUSH2 0x100 EXP SWAP1 DIV PUSH1 0xFF AND SWAP1 DUP1 PUSH1 0x4 ADD PUSH1 0x2 SWAP1 SLOAD SWAP1 PUSH2 0x100 EXP SWAP1 DIV PUSH20 0xFFFFFFFFFFFFFFFFFFFFFFFFFFFFFFFFFFFFFFFF AND SWAP1 POP DUP8 JUMP JUMPDEST CALLVALUE PUSH7 0x60A24181E4000 DUP2 LT ISZERO DUP1 ISZERO PUSH2 0xA51 JUMPI POP PUSH8 0xDE0B6B3A7640000 DUP2 GT ISZERO JUMPDEST PUSH2 0xA90 JUMPI PUSH1 0x40 MLOAD PUSH32 0x8C379A000000000000000000000000000000000000000000000000000000000 DUP2 MSTORE PUSH1 0x4 ADD PUSH2 0xA87 SWAP1 PUSH2 0x14A6 JUMP JUMPDEST PUSH1 0x40 MLOAD DUP1 SWAP2 SUB SWAP1 REVERT JUMPDEST PUSH0 DUP1 DUP4 DUP2 SLOAD DUP2 LT PUSH2 0xAA4 JUMPI PUSH2 0xAA3 PUSH2 0x111C JUMP JUMPDEST JUMPDEST SWAP1 PUSH0 MSTORE PUSH1 0x20 PUSH0 KECCAK256 SWAP1 PUSH1 0x5 MUL ADD SWAP1 POP DUP1 PUSH1 0x4 ADD PUSH0 SWAP1 SLOAD SWAP1 PUSH2 0x100 EXP SWAP1 DIV PUSH1 0xFF AND DUP1 ISZERO PUSH2 0xADE JUMPI POP DUP1 PUSH1 0x4 ADD PUSH1 0x1 SWAP1 SLOAD SWAP1 PUSH2 0x100 EXP SWAP1 DIV PUSH1 0xFF AND ISZERO JUMPDEST PUSH2 0xB1D JUMPI PUSH1 0x40 MLOAD PUSH32 0x8C379A000000000000000000000000000000000000000000000000000000000 DUP2 MSTORE PUSH1 0x4 ADD PUSH2 0xB14 SWAP1 PUSH2 0x15DB JUMP JUMPDEST PUSH1 0x40 MLOAD DUP1 SWAP2 SUB SWAP1 REVERT JUMPDEST DUP1 PUSH1 0x3 ADD SLOAD CALLVALUE EQ PUSH2 0xB63 JUMPI PUSH1 0x40 MLOAD PUSH32 0x8C379A000000000000000000000000000000000000000000000000000000000 DUP2 MSTORE PUSH1 0x4 ADD PUSH2 0xB5A SWAP1 PUSH2 0x1669 JUMP JUMPDEST PUSH1 0x40 MLOAD DUP1 SWAP2 SUB SWAP1 REVERT JUMPDEST CALLER DUP2 PUSH0 ADD PUSH0 PUSH2 0x100 EXP DUP2 SLOAD DUP2 PUSH20 0xFFFFFFFFFFFFFFFFFFFFFFFFFFFFFFFFFFFFFFFF MUL NOT AND SWAP1 DUP4 PUSH20 0xFFFFFFFFFFFFFFFFFFFFFFFFFFFFFFFFFFFFFFFF AND MUL OR SWAP1 SSTORE POP ADDRESS PUSH20 0xFFFFFFFFFFFFFFFFFFFFFFFFFFFFFFFFFFFFFFFF AND PUSH2 0x8FC DUP3 PUSH1 0x3 ADD SLOAD SWAP1 DUP2 ISZERO MUL SWAP1 PUSH1 0x40 MLOAD PUSH0 PUSH1 0x40 MLOAD DUP1 DUP4 SUB DUP2 DUP6 DUP9 DUP9 CALL SWAP4 POP POP POP POP ISZERO DUP1 ISZERO PUSH2 0xBEB JUMPI RETURNDATASIZE PUSH0 DUP1 RETURNDATACOPY RETURNDATASIZE PUSH0 REVERT JUMPDEST POP PUSH1 0x1 DUP2 PUSH1 0x4 ADD PUSH1 0x1 PUSH2 0x100 EXP DUP2 SLOAD DUP2 PUSH1 0xFF MUL NOT AND SWAP1 DUP4 ISZERO ISZERO MUL OR SWAP1 SSTORE POP POP POP POP JUMP JUMPDEST PUSH1 0x60 PUSH0 DUP1 SLOAD DUP1 PUSH1 0x20 MUL PUSH1 0x20 ADD PUSH1 0x40 MLOAD SWAP1 DUP2 ADD PUSH1 0x40 MSTORE DUP1 SWAP3 SWAP2 SWAP1 DUP2 DUP2 MSTORE PUSH1 0x20 ADD PUSH0 SWAP1 JUMPDEST DUP3 DUP3 LT ISZERO PUSH2 0xDF3 JUMPI DUP4 DUP3 SWAP1 PUSH0 MSTORE PUSH1 0x20 PUSH0 KECCAK256 SWAP1 PUSH1 0x5 MUL ADD PUSH1 0x40 MLOAD DUP1 PUSH1 0xE0 ADD PUSH1 0x40 MSTORE SWAP1 DUP2 PUSH0 DUP3 ADD PUSH0 SWAP1 SLOAD SWAP1 PUSH2 0x100 EXP SWAP1 DIV PUSH20 0xFFFFFFFFFFFFFFFFFFFFFFFFFFFFFFFFFFFFFFFF AND PUSH20 0xFFFFFFFFFFFFFFFFFFFFFFFFFFFFFFFFFFFFFFFF AND PUSH20 0xFFFFFFFFFFFFFFFFFFFFFFFFFFFFFFFFFFFFFFFF AND DUP2 MSTORE PUSH1 0x20 ADD PUSH1 0x1 DUP3 ADD PUSH0 SWAP1 SLOAD SWAP1 PUSH2 0x100 EXP SWAP1 DIV PUSH20 0xFFFFFFFFFFFFFFFFFFFFFFFFFFFFFFFFFFFFFFFF AND PUSH20 0xFFFFFFFFFFFFFFFFFFFFFFFFFFFFFFFFFFFFFFFF AND PUSH20 0xFFFFFFFFFFFFFFFFFFFFFFFFFFFFFFFFFFFFFFFF AND DUP2 MSTORE PUSH1 0x20 ADD PUSH1 0x2 DUP3 ADD PUSH0 SWAP1 SLOAD SWAP1 PUSH2 0x100 EXP SWAP1 DIV PUSH20 0xFFFFFFFFFFFFFFFFFFFFFFFFFFFFFFFFFFFFFFFF AND PUSH20 0xFFFFFFFFFFFFFFFFFFFFFFFFFFFFFFFFFFFFFFFF AND PUSH20 0xFFFFFFFFFFFFFFFFFFFFFFFFFFFFFFFFFFFFFFFF AND DUP2 MSTORE PUSH1 0x20 ADD PUSH1 0x3 DUP3 ADD SLOAD DUP2 MSTORE PUSH1 0x20 ADD PUSH1 0x4 DUP3 ADD PUSH0 SWAP1 SLOAD SWAP1 PUSH2 0x100 EXP SWAP1 DIV PUSH1 0xFF AND ISZERO ISZERO ISZERO ISZERO DUP2 MSTORE PUSH1 0x20 ADD PUSH1 0x4 DUP3 ADD PUSH1 0x1 SWAP1 SLOAD SWAP1 PUSH2 0x100 EXP SWAP1 DIV PUSH1 0xFF AND ISZERO ISZERO ISZERO ISZERO DUP2 MSTORE PUSH1 0x20 ADD PUSH1 0x4 DUP3 ADD PUSH1 0x2 SWAP1 SLOAD SWAP1 PUSH2 0x100 EXP SWAP1 DIV PUSH20 0xFFFFFFFFFFFFFFFFFFFFFFFFFFFFFFFFFFFFFFFF AND PUSH20 0xFFFFFFFFFFFFFFFFFFFFFFFFFFFFFFFFFFFFFFFF AND PUSH20 0xFFFFFFFFFFFFFFFFFFFFFFFFFFFFFFFFFFFFFFFF AND DUP2 MSTORE POP POP DUP2 MSTORE PUSH1 0x20 ADD SWAP1 PUSH1 0x1 ADD SWAP1 PUSH2 0xC30 JUMP JUMPDEST POP POP POP POP SWAP1 POP SWAP1 JUMP JUMPDEST PUSH0 DUP1 REVERT JUMPDEST PUSH0 DUP2 SWAP1 POP SWAP2 SWAP1 POP JUMP JUMPDEST PUSH2 0xE12 DUP2 PUSH2 0xE00 JUMP JUMPDEST DUP2 EQ PUSH2 0xE1C JUMPI PUSH0 DUP1 REVERT JUMPDEST POP JUMP JUMPDEST PUSH0 DUP2 CALLDATALOAD SWAP1 POP PUSH2 0xE2D DUP2 PUSH2 0xE09 JUMP JUMPDEST SWAP3 SWAP2 POP POP JUMP JUMPDEST PUSH0 PUSH1 0x20 DUP3 DUP5 SUB SLT ISZERO PUSH2 0xE48 JUMPI PUSH2 0xE47 PUSH2 0xDFC JUMP JUMPDEST JUMPDEST PUSH0 PUSH2 0xE55 DUP5 DUP3 DUP6 ADD PUSH2 0xE1F JUMP JUMPDEST SWAP2 POP POP SWAP3 SWAP2 POP POP JUMP JUMPDEST PUSH0 PUSH20 0xFFFFFFFFFFFFFFFFFFFFFFFFFFFFFFFFFFFFFFFF DUP3 AND SWAP1 POP SWAP2 SWAP1 POP JUMP JUMPDEST PUSH0 PUSH2 0xE87 DUP3 PUSH2 0xE5E JUMP JUMPDEST SWAP1 POP SWAP2 SWAP1 POP JUMP JUMPDEST PUSH2 0xE97 DUP2 PUSH2 0xE7D JUMP JUMPDEST DUP2 EQ PUSH2 0xEA1 JUMPI PUSH0 DUP1 REVERT JUMPDEST POP JUMP JUMPDEST PUSH0 DUP2 CALLDATALOAD SWAP1 POP PUSH2 0xEB2 DUP2 PUSH2 0xE8E JUMP JUMPDEST SWAP3 SWAP2 POP POP JUMP JUMPDEST PUSH0 DUP1 PUSH1 0x40 DUP4 DUP6 SUB SLT ISZERO PUSH2 0xECE JUMPI PUSH2 0xECD PUSH2 0xDFC JUMP JUMPDEST JUMPDEST PUSH0 PUSH2 0xEDB DUP6 DUP3 DUP7 ADD PUSH2 0xE1F JUMP JUMPDEST SWAP3 POP POP PUSH1 0x20 PUSH2 0xEEC DUP6 DUP3 DUP7 ADD PUSH2 0xEA4 JUMP JUMPDEST SWAP2 POP POP SWAP3 POP SWAP3 SWAP1 POP JUMP JUMPDEST PUSH2 0xEFF DUP2 PUSH2 0xE7D JUMP JUMPDEST DUP3 MSTORE POP POP JUMP JUMPDEST PUSH2 0xF0E DUP2 PUSH2 0xE00 JUMP JUMPDEST DUP3 MSTORE POP POP JUMP JUMPDEST PUSH0 DUP2 ISZERO ISZERO SWAP1 POP SWAP2 SWAP1 POP JUMP JUMPDEST PUSH2 0xF28 DUP2 PUSH2 0xF14 JUMP JUMPDEST DUP3 MSTORE POP POP JUMP JUMPDEST PUSH0 PUSH1 0xE0 DUP3 ADD SWAP1 POP PUSH2 0xF41 PUSH0 DUP4 ADD DUP11 PUSH2 0xEF6 JUMP JUMPDEST PUSH2 0xF4E PUSH1 0x20 DUP4 ADD DUP10 PUSH2 0xEF6 JUMP JUMPDEST PUSH2 0xF5B PUSH1 0x40 DUP4 ADD DUP9 PUSH2 0xEF6 JUMP JUMPDEST PUSH2 0xF68 PUSH1 0x60 DUP4 ADD DUP8 PUSH2 0xF05 JUMP JUMPDEST PUSH2 0xF75 PUSH1 0x80 DUP4 ADD DUP7 PUSH2 0xF1F JUMP JUMPDEST PUSH2 0xF82 PUSH1 0xA0 DUP4 ADD DUP6 PUSH2 0xF1F JUMP JUMPDEST PUSH2 0xF8F PUSH1 0xC0 DUP4 ADD DUP5 PUSH2 0xEF6 JUMP JUMPDEST SWAP9 SWAP8 POP POP POP POP POP POP POP POP JUMP JUMPDEST PUSH0 DUP2 MLOAD SWAP1 POP SWAP2 SWAP1 POP JUMP JUMPDEST PUSH0 DUP3 DUP3 MSTORE PUSH1 0x20 DUP3 ADD SWAP1 POP SWAP3 SWAP2 POP POP JUMP JUMPDEST PUSH0 DUP2 SWAP1 POP PUSH1 0x20 DUP3 ADD SWAP1 POP SWAP2 SWAP1 POP JUMP JUMPDEST PUSH2 0xFCD DUP2 PUSH2 0xE7D JUMP JUMPDEST DUP3 MSTORE POP POP JUMP JUMPDEST PUSH2 0xFDC DUP2 PUSH2 0xE00 JUMP JUMPDEST DUP3 MSTORE POP POP JUMP JUMPDEST PUSH2 0xFEB DUP2 PUSH2 0xF14 JUMP JUMPDEST DUP3 MSTORE POP POP JUMP JUMPDEST PUSH1 0xE0 DUP3 ADD PUSH0 DUP3 ADD MLOAD PUSH2 0x1005 PUSH0 DUP6 ADD DUP3 PUSH2 0xFC4 JUMP JUMPDEST POP PUSH1 0x20 DUP3 ADD MLOAD PUSH2 0x1018 PUSH1 0x20 DUP6 ADD DUP3 PUSH2 0xFC4 JUMP JUMPDEST POP PUSH1 0x40 DUP3 ADD MLOAD PUSH2 0x102B PUSH1 0x40 DUP6 ADD DUP3 PUSH2 0xFC4 JUMP JUMPDEST POP PUSH1 0x60 DUP3 ADD MLOAD PUSH2 0x103E PUSH1 0x60 DUP6 ADD DUP3 PUSH2 0xFD3 JUMP JUMPDEST POP PUSH1 0x80 DUP3 ADD MLOAD PUSH2 0x1051 PUSH1 0x80 DUP6 ADD DUP3 PUSH2 0xFE2 JUMP JUMPDEST POP PUSH1 0xA0 DUP3 ADD MLOAD PUSH2 0x1064 PUSH1 0xA0 DUP6 ADD DUP3 PUSH2 0xFE2 JUMP JUMPDEST POP PUSH1 0xC0 DUP3 ADD MLOAD PUSH2 0x1077 PUSH1 0xC0 DUP6 ADD DUP3 PUSH2 0xFC4 JUMP JUMPDEST POP POP POP POP JUMP JUMPDEST PUSH0 PUSH2 0x1088 DUP4 DUP4 PUSH2 0xFF1 JUMP JUMPDEST PUSH1 0xE0 DUP4 ADD SWAP1 POP SWAP3 SWAP2 POP POP JUMP JUMPDEST PUSH0 PUSH1 0x20 DUP3 ADD SWAP1 POP SWAP2 SWAP1 POP JUMP JUMPDEST PUSH0 PUSH2 0x10AA DUP3 PUSH2 0xF9B JUMP JUMPDEST PUSH2 0x10B4 DUP2 DUP6 PUSH2 0xFA5 JUMP JUMPDEST SWAP4 POP PUSH2 0x10BF DUP4 PUSH2 0xFB5 JUMP JUMPDEST DUP1 PUSH0 JUMPDEST DUP4 DUP2 LT ISZERO PUSH2 0x10EF JUMPI DUP2 MLOAD PUSH2 0x10D6 DUP9 DUP3 PUSH2 0x107D JUMP JUMPDEST SWAP8 POP PUSH2 0x10E1 DUP4 PUSH2 0x1094 JUMP JUMPDEST SWAP3 POP POP PUSH1 0x1 DUP2 ADD SWAP1 POP PUSH2 0x10C2 JUMP JUMPDEST POP DUP6 SWAP4 POP POP POP POP SWAP3 SWAP2 POP POP JUMP JUMPDEST PUSH0 PUSH1 0x20 DUP3 ADD SWAP1 POP DUP2 DUP2 SUB PUSH0 DUP4 ADD MSTORE PUSH2 0x1114 DUP2 DUP5 PUSH2 0x10A0 JUMP JUMPDEST SWAP1 POP SWAP3 SWAP2 POP POP JUMP JUMPDEST PUSH32 0x4E487B7100000000000000000000000000000000000000000000000000000000 PUSH0 MSTORE PUSH1 0x32 PUSH1 0x4 MSTORE PUSH1 0x24 PUSH0 REVERT JUMPDEST PUSH0 DUP3 DUP3 MSTORE PUSH1 0x20 DUP3 ADD SWAP1 POP SWAP3 SWAP2 POP POP JUMP JUMPDEST PUSH32 0x4F2064657361666961646F206E616F20706F646520736572206F206A75697A2E PUSH0 DUP3 ADD MSTORE POP JUMP JUMPDEST PUSH0 PUSH2 0x118D PUSH1 0x20 DUP4 PUSH2 0x1149 JUMP JUMPDEST SWAP2 POP PUSH2 0x1198 DUP3 PUSH2 0x1159 JUMP JUMPDEST PUSH1 0x20 DUP3 ADD SWAP1 POP SWAP2 SWAP1 POP JUMP JUMPDEST PUSH0 PUSH1 0x20 DUP3 ADD SWAP1 POP DUP2 DUP2 SUB PUSH0 DUP4 ADD MSTORE PUSH2 0x11BA DUP2 PUSH2 0x1181 JUMP JUMPDEST SWAP1 POP SWAP2 SWAP1 POP JUMP JUMPDEST PUSH32 0x4F20646573616669616E7465206E616F20706F646520736572206F206A75697A PUSH0 DUP3 ADD MSTORE PUSH32 0x2E00000000000000000000000000000000000000000000000000000000000000 PUSH1 0x20 DUP3 ADD MSTORE POP JUMP JUMPDEST PUSH0 PUSH2 0x121B PUSH1 0x21 DUP4 PUSH2 0x1149 JUMP JUMPDEST SWAP2 POP PUSH2 0x1226 DUP3 PUSH2 0x11C1 JUMP JUMPDEST PUSH1 0x40 DUP3 ADD SWAP1 POP SWAP2 SWAP1 POP JUMP JUMPDEST PUSH0 PUSH1 0x20 DUP3 ADD SWAP1 POP DUP2 DUP2 SUB PUSH0 DUP4 ADD MSTORE PUSH2 0x1248 DUP2 PUSH2 0x120F JUMP JUMPDEST SWAP1 POP SWAP2 SWAP1 POP JUMP JUMPDEST PUSH32 0x536F6D656E7465206F206A75697A20706F6465206465636C61726172206F2076 PUSH0 DUP3 ADD MSTORE PUSH32 0x656E6365646F7200000000000000000000000000000000000000000000000000 PUSH1 0x20 DUP3 ADD MSTORE POP JUMP JUMPDEST PUSH0 PUSH2 0x12A9 PUSH1 0x27 DUP4 PUSH2 0x1149 JUMP JUMPDEST SWAP2 POP PUSH2 0x12B4 DUP3 PUSH2 0x124F JUMP JUMPDEST PUSH1 0x40 DUP3 ADD SWAP1 POP SWAP2 SWAP1 POP JUMP JUMPDEST PUSH0 PUSH1 0x20 DUP3 ADD SWAP1 POP DUP2 DUP2 SUB PUSH0 DUP4 ADD MSTORE PUSH2 0x12D6 DUP2 PUSH2 0x129D JUMP JUMPDEST SWAP1 POP SWAP2 SWAP1 POP JUMP JUMPDEST PUSH32 0x4465736166696F206E616F206573746120617469766F206F75206E616F20666F PUSH0 DUP3 ADD MSTORE PUSH32 0x692061636569746F000000000000000000000000000000000000000000000000 PUSH1 0x20 DUP3 ADD MSTORE POP JUMP JUMPDEST PUSH0 PUSH2 0x1337 PUSH1 0x28 DUP4 PUSH2 0x1149 JUMP JUMPDEST SWAP2 POP PUSH2 0x1342 DUP3 PUSH2 0x12DD JUMP JUMPDEST PUSH1 0x40 DUP3 ADD SWAP1 POP SWAP2 SWAP1 POP JUMP JUMPDEST PUSH0 PUSH1 0x20 DUP3 ADD SWAP1 POP DUP2 DUP2 SUB PUSH0 DUP4 ADD MSTORE PUSH2 0x1364 DUP2 PUSH2 0x132B JUMP JUMPDEST SWAP1 POP SWAP2 SWAP1 POP JUMP JUMPDEST PUSH32 0x4E487B7100000000000000000000000000000000000000000000000000000000 PUSH0 MSTORE PUSH1 0x11 PUSH1 0x4 MSTORE PUSH1 0x24 PUSH0 REVERT JUMPDEST PUSH0 PUSH2 0x13A2 DUP3 PUSH2 0xE00 JUMP JUMPDEST SWAP2 POP PUSH2 0x13AD DUP4 PUSH2 0xE00 JUMP JUMPDEST SWAP3 POP DUP3 DUP3 MUL PUSH2 0x13BB DUP2 PUSH2 0xE00 JUMP JUMPDEST SWAP2 POP DUP3 DUP3 DIV DUP5 EQ DUP4 ISZERO OR PUSH2 0x13D2 JUMPI PUSH2 0x13D1 PUSH2 0x136B JUMP JUMPDEST JUMPDEST POP SWAP3 SWAP2 POP POP JUMP JUMPDEST PUSH32 0x4E487B7100000000000000000000000000000000000000000000000000000000 PUSH0 MSTORE PUSH1 0x12 PUSH1 0x4 MSTORE PUSH1 0x24 PUSH0 REVERT JUMPDEST PUSH0 PUSH2 0x1410 DUP3 PUSH2 0xE00 JUMP JUMPDEST SWAP2 POP PUSH2 0x141B DUP4 PUSH2 0xE00 JUMP JUMPDEST SWAP3 POP DUP3 PUSH2 0x142B JUMPI PUSH2 0x142A PUSH2 0x13D9 JUMP JUMPDEST JUMPDEST DUP3 DUP3 DIV SWAP1 POP SWAP3 SWAP2 POP POP JUMP JUMPDEST PUSH32 0x56616C6F722064612061706F73746120666F726120646F20696E74657276616C PUSH0 DUP3 ADD MSTORE PUSH32 0x6F207065726D697469646F000000000000000000000000000000000000000000 PUSH1 0x20 DUP3 ADD MSTORE POP JUMP JUMPDEST PUSH0 PUSH2 0x1490 PUSH1 0x2B DUP4 PUSH2 0x1149 JUMP JUMPDEST SWAP2 POP PUSH2 0x149B DUP3 PUSH2 0x1436 JUMP JUMPDEST PUSH1 0x40 DUP3 ADD SWAP1 POP SWAP2 SWAP1 POP JUMP JUMPDEST PUSH0 PUSH1 0x20 DUP3 ADD SWAP1 POP DUP2 DUP2 SUB PUSH0 DUP4 ADD MSTORE PUSH2 0x14BD DUP2 PUSH2 0x1484 JUMP JUMPDEST SWAP1 POP SWAP2 SWAP1 POP JUMP JUMPDEST PUSH32 0x56616C6F7220656E766961646F2065206469666572656E746520646F2076616C PUSH0 DUP3 ADD MSTORE PUSH32 0x6F722064612061706F7374610000000000000000000000000000000000000000 PUSH1 0x20 DUP3 ADD MSTORE POP JUMP JUMPDEST PUSH0 PUSH2 0x151E PUSH1 0x2C DUP4 PUSH2 0x1149 JUMP JUMPDEST SWAP2 POP PUSH2 0x1529 DUP3 PUSH2 0x14C4 JUMP JUMPDEST PUSH1 0x40 DUP3 ADD SWAP1 POP SWAP2 SWAP1 POP JUMP JUMPDEST PUSH0 PUSH1 0x20 DUP3 ADD SWAP1 POP DUP2 DUP2 SUB PUSH0 DUP4 ADD MSTORE PUSH2 0x154B DUP2 PUSH2 0x1512 JUMP JUMPDEST SWAP1 POP SWAP2 SWAP1 POP JUMP JUMPDEST PUSH0 PUSH1 0x20 DUP3 ADD SWAP1 POP PUSH2 0x1565 PUSH0 DUP4 ADD DUP5 PUSH2 0xF05 JUMP JUMPDEST SWAP3 SWAP2 POP POP JUMP JUMPDEST PUSH32 0x4465736166696F206E616F206573746120617469766F206F75206A6120666F69 PUSH0 DUP3 ADD MSTORE PUSH32 0x2061636569746F00000000000000000000000000000000000000000000000000 PUSH1 0x20 DUP3 ADD MSTORE POP JUMP JUMPDEST PUSH0 PUSH2 0x15C5 PUSH1 0x27 DUP4 PUSH2 0x1149 JUMP JUMPDEST SWAP2 POP PUSH2 0x15D0 DUP3 PUSH2 0x156B JUMP JUMPDEST PUSH1 0x40 DUP3 ADD SWAP1 POP SWAP2 SWAP1 POP JUMP JUMPDEST PUSH0 PUSH1 0x20 DUP3 ADD SWAP1 POP DUP2 DUP2 SUB PUSH0 DUP4 ADD MSTORE PUSH2 0x15F2 DUP2 PUSH2 0x15B9 JUMP JUMPDEST SWAP1 POP SWAP2 SWAP1 POP JUMP JUMPDEST PUSH32 0x56616C6F7220656E766961646F206469666572656E746520646F2076616C6F72 PUSH0 DUP3 ADD MSTORE PUSH32 0x2064612061706F73746100000000000000000000000000000000000000000000 PUSH1 0x20 DUP3 ADD MSTORE POP JUMP JUMPDEST PUSH0 PUSH2 0x1653 PUSH1 0x2A DUP4 PUSH2 0x1149 JUMP JUMPDEST SWAP2 POP PUSH2 0x165E DUP3 PUSH2 0x15F9 JUMP JUMPDEST PUSH1 0x40 DUP3 ADD SWAP1 POP SWAP2 SWAP1 POP JUMP JUMPDEST PUSH0 PUSH1 0x20 DUP3 ADD SWAP1 POP DUP2 DUP2 SUB PUSH0 DUP4 ADD MSTORE PUSH2 0x1680 DUP2 PUSH2 0x1647 JUMP JUMPDEST SWAP1 POP SWAP2 SWAP1 POP JUMP INVALID LOG2 PUSH5 0x6970667358 0x22 SLT KECCAK256 BYTE PUSH26 0x67C7A5CD34A0C4686A1A1C81CA990C81FBFAA2D44AF9315AD5AA RETURNDATASIZE 0xE2 SWAP16 ADD PUSH5 0x736F6C6343 STOP ADDMOD XOR STOP CALLER "
				},
				"gasEstimates": {
					"creation": {
						"codeDepositCost": "1164200",
						"executionCost": "1205",
						"totalCost": "1165405"
					},
					"external": {
						"aceitarDesafio(uint256)": "infinite",
						"criarDesafio(uint256)": "infinite",
						"declararJuiz(uint256)": "35587",
						"declararVencedor(uint256,address)": "infinite",
						"desafiosPorDesafiado(uint256)": "infinite",
						"getDesafios()": "infinite"
					}
				},
				"methodIdentifiers": {
					"aceitarDesafio(uint256)": "acdaca3e",
					"criarDesafio(uint256)": "30fd4a74",
					"declararJuiz(uint256)": "01958da5",
					"declararVencedor(uint256,address)": "02317522",
					"desafiosPorDesafiado(uint256)": "90de64ee",
					"getDesafios()": "d34c6445"
				}
			},
			"storageLayout": {
				"storage": [
					{
						"astId": 24,
						"contract": "contracts/desafio.sol:DesafioContract",
						"label": "desafiosPorDesafiado",
						"offset": 0,
						"slot": "0",
						"type": "t_array(t_struct(Desafio)20_storage)dyn_storage"
					}
				],
				"types": {
					"t_address": {
						"encoding": "inplace",
						"label": "address",
						"numberOfBytes": "20"
					},
					"t_array(t_struct(Desafio)20_storage)dyn_storage": {
						"base": "t_struct(Desafio)20_storage",
						"encoding": "dynamic_array",
						"label": "struct DesafioContract.Desafio[]",
						"numberOfBytes": "32"
					},
					"t_bool": {
						"encoding": "inplace",
						"label": "bool",
						"numberOfBytes": "1"
					},
					"t_struct(Desafio)20_storage": {
						"encoding": "inplace",
						"label": "struct DesafioContract.Desafio",
						"members": [
							{
								"astId": 7,
								"contract": "contracts/desafio.sol:DesafioContract",
								"label": "desafiante",
								"offset": 0,
								"slot": "0",
								"type": "t_address"
							},
							{
								"astId": 9,
								"contract": "contracts/desafio.sol:DesafioContract",
								"label": "desafiado",
								"offset": 0,
								"slot": "1",
								"type": "t_address"
							},
							{
								"astId": 11,
								"contract": "contracts/desafio.sol:DesafioContract",
								"label": "juiz",
								"offset": 0,
								"slot": "2",
								"type": "t_address"
							},
							{
								"astId": 13,
								"contract": "contracts/desafio.sol:DesafioContract",
								"label": "valorAposta",
								"offset": 0,
								"slot": "3",
								"type": "t_uint256"
							},
							{
								"astId": 15,
								"contract": "contracts/desafio.sol:DesafioContract",
								"label": "desafioAtivo",
								"offset": 0,
								"slot": "4",
								"type": "t_bool"
							},
							{
								"astId": 17,
								"contract": "contracts/desafio.sol:DesafioContract",
								"label": "desafioAceito",
								"offset": 1,
								"slot": "4",
								"type": "t_bool"
							},
							{
								"astId": 19,
								"contract": "contracts/desafio.sol:DesafioContract",
								"label": "vencedor",
								"offset": 2,
								"slot": "4",
								"type": "t_address"
							}
						],
						"numberOfBytes": "160"
					},
					"t_uint256": {
						"encoding": "inplace",
						"label": "uint256",
						"numberOfBytes": "32"
					}
				}
			},
			"userdoc": {
				"kind": "user",
				"methods": {},
				"version": 1
			}
		}
	}
}