{
	"contracts/rumbled-app.sol": {
		"RumbledApp": {
			"abi": [
				{
					"inputs": [],
					"stateMutability": "nonpayable",
					"type": "constructor"
				},
				{
					"inputs": [
						{
							"internalType": "address",
							"name": "",
							"type": "address"
						}
					],
					"name": "bets",
					"outputs": [
						{
							"internalType": "uint256",
							"name": "",
							"type": "uint256"
						}
					],
					"stateMutability": "view",
					"type": "function"
				},
				{
					"inputs": [
						{
							"internalType": "uint256",
							"name": "bet",
							"type": "uint256"
						}
					],
					"name": "createChallange",
					"outputs": [],
					"stateMutability": "payable",
					"type": "function"
				},
				{
					"inputs": [],
					"name": "getChallanges",
					"outputs": [
						{
							"components": [
								{
									"internalType": "address payable",
									"name": "challenging",
									"type": "address"
								},
								{
									"internalType": "address payable",
									"name": "demanding",
									"type": "address"
								},
								{
									"internalType": "address payable",
									"name": "judge",
									"type": "address"
								},
								{
									"internalType": "uint256",
									"name": "bet",
									"type": "uint256"
								}
							],
							"internalType": "struct Challange[]",
							"name": "",
							"type": "tuple[]"
						}
					],
					"stateMutability": "view",
					"type": "function"
				}
			],
			"devdoc": {
				"kind": "dev",
				"methods": {},
				"version": 1
			},
			"evm": {
				"assembly": "    /* \"contracts/rumbled-app.sol\":456:1173  contract RumbledApp {... */\n  mstore(0x40, 0x80)\n    /* \"contracts/rumbled-app.sol\":606:658  constructor() {... */\n  callvalue\n  dup1\n  iszero\n  tag_1\n  jumpi\n  0x00\n  dup1\n  revert\ntag_1:\n  pop\n    /* \"contracts/rumbled-app.sol\":640:650  msg.sender */\n  caller\n    /* \"contracts/rumbled-app.sol\":631:637  owener */\n  0x00\n  dup1\n    /* \"contracts/rumbled-app.sol\":631:650  owener = msg.sender */\n  0x0100\n  exp\n  dup2\n  sload\n  dup2\n  0xffffffffffffffffffffffffffffffffffffffff\n  mul\n  not\n  and\n  swap1\n  dup4\n  0xffffffffffffffffffffffffffffffffffffffff\n  and\n  mul\n  or\n  swap1\n  sstore\n  pop\n    /* \"contracts/rumbled-app.sol\":456:1173  contract RumbledApp {... */\n  dataSize(sub_0)\n  dup1\n  dataOffset(sub_0)\n  0x00\n  codecopy\n  0x00\n  return\nstop\n\nsub_0: assembly {\n        /* \"contracts/rumbled-app.sol\":456:1173  contract RumbledApp {... */\n      mstore(0x40, 0x80)\n      jumpi(tag_1, lt(calldatasize, 0x04))\n      shr(0xe0, calldataload(0x00))\n      dup1\n      0x84464952\n      eq\n      tag_2\n      jumpi\n      dup1\n      0x89a78f1a\n      eq\n      tag_3\n      jumpi\n      dup1\n      0xdd5d8e14\n      eq\n      tag_4\n      jumpi\n    tag_1:\n      0x00\n      dup1\n      revert\n        /* \"contracts/rumbled-app.sol\":666:768  function getChallanges() public view returns (Challange[] memory) {... */\n    tag_2:\n      callvalue\n      dup1\n      iszero\n      tag_5\n      jumpi\n      0x00\n      dup1\n      revert\n    tag_5:\n      pop\n      tag_6\n      tag_7\n      jump\t// in\n    tag_6:\n      mload(0x40)\n      tag_8\n      swap2\n      swap1\n      tag_9\n      jump\t// in\n    tag_8:\n      mload(0x40)\n      dup1\n      swap2\n      sub\n      swap1\n      return\n        /* \"contracts/rumbled-app.sol\":553:593  mapping (address => uint256) public bets */\n    tag_3:\n      callvalue\n      dup1\n      iszero\n      tag_10\n      jumpi\n      0x00\n      dup1\n      revert\n    tag_10:\n      pop\n      tag_11\n      0x04\n      dup1\n      calldatasize\n      sub\n      dup2\n      add\n      swap1\n      tag_12\n      swap2\n      swap1\n      tag_13\n      jump\t// in\n    tag_12:\n      tag_14\n      jump\t// in\n    tag_11:\n      mload(0x40)\n      tag_15\n      swap2\n      swap1\n      tag_16\n      jump\t// in\n    tag_15:\n      mload(0x40)\n      dup1\n      swap2\n      sub\n      swap1\n      return\n        /* \"contracts/rumbled-app.sol\":776:1170  function createChallange(uint256 bet) public payable {... */\n    tag_4:\n      tag_17\n      0x04\n      dup1\n      calldatasize\n      sub\n      dup2\n      add\n      swap1\n      tag_18\n      swap2\n      swap1\n      tag_19\n      jump\t// in\n    tag_18:\n      tag_20\n      jump\t// in\n    tag_17:\n      stop\n        /* \"contracts/rumbled-app.sol\":666:768  function getChallanges() public view returns (Challange[] memory) {... */\n    tag_7:\n        /* \"contracts/rumbled-app.sol\":712:730  Challange[] memory */\n      0x60\n        /* \"contracts/rumbled-app.sol\":750:760  challanges */\n      0x02\n        /* \"contracts/rumbled-app.sol\":743:760  return challanges */\n      dup1\n      sload\n      dup1\n      0x20\n      mul\n      0x20\n      add\n      mload(0x40)\n      swap1\n      dup2\n      add\n      0x40\n      mstore\n      dup1\n      swap3\n      swap2\n      swap1\n      dup2\n      dup2\n      mstore\n      0x20\n      add\n      0x00\n      swap1\n    tag_22:\n      dup3\n      dup3\n      lt\n      iszero\n      tag_23\n      jumpi\n      dup4\n      dup3\n      swap1\n      0x00\n      mstore\n      keccak256(0x00, 0x20)\n      swap1\n      0x04\n      mul\n      add\n      mload(0x40)\n      dup1\n      0x80\n      add\n      0x40\n      mstore\n      swap1\n      dup2\n      0x00\n      dup3\n      add\n      0x00\n      swap1\n      sload\n      swap1\n      0x0100\n      exp\n      swap1\n      div\n      0xffffffffffffffffffffffffffffffffffffffff\n      and\n      0xffffffffffffffffffffffffffffffffffffffff\n      and\n      0xffffffffffffffffffffffffffffffffffffffff\n      and\n      dup2\n      mstore\n      0x20\n      add\n      0x01\n      dup3\n      add\n      0x00\n      swap1\n      sload\n      swap1\n      0x0100\n      exp\n      swap1\n      div\n      0xffffffffffffffffffffffffffffffffffffffff\n      and\n      0xffffffffffffffffffffffffffffffffffffffff\n      and\n      0xffffffffffffffffffffffffffffffffffffffff\n      and\n      dup2\n      mstore\n      0x20\n      add\n      0x02\n      dup3\n      add\n      0x00\n      swap1\n      sload\n      swap1\n      0x0100\n      exp\n      swap1\n      div\n      0xffffffffffffffffffffffffffffffffffffffff\n      and\n      0xffffffffffffffffffffffffffffffffffffffff\n      and\n      0xffffffffffffffffffffffffffffffffffffffff\n      and\n      dup2\n      mstore\n      0x20\n      add\n      0x03\n      dup3\n      add\n      sload\n      dup2\n      mstore\n      pop\n      pop\n      dup2\n      mstore\n      0x20\n      add\n      swap1\n      0x01\n      add\n      swap1\n      jump(tag_22)\n    tag_23:\n      pop\n      pop\n      pop\n      pop\n      swap1\n      pop\n        /* \"contracts/rumbled-app.sol\":666:768  function getChallanges() public view returns (Challange[] memory) {... */\n      swap1\n      jump\t// out\n        /* \"contracts/rumbled-app.sol\":553:593  mapping (address => uint256) public bets */\n    tag_14:\n      mstore(0x20, 0x03)\n      dup1\n      0x00\n      mstore\n      keccak256(0x00, 0x40)\n      0x00\n      swap2\n      pop\n      swap1\n      pop\n      sload\n      dup2\n      jump\t// out\n        /* \"contracts/rumbled-app.sol\":776:1170  function createChallange(uint256 bet) public payable {... */\n    tag_20:\n        /* \"contracts/rumbled-app.sol\":861:864  bet */\n      dup1\n        /* \"contracts/rumbled-app.sol\":848:857  msg.value */\n      callvalue\n        /* \"contracts/rumbled-app.sol\":848:864  msg.value >= bet */\n      lt\n      iszero\n        /* \"contracts/rumbled-app.sol\":840:883  require(msg.value >= bet, \"Out of balance\") */\n      tag_26\n      jumpi\n      mload(0x40)\n      0x08c379a000000000000000000000000000000000000000000000000000000000\n      dup2\n      mstore\n      0x04\n      add\n      tag_27\n      swap1\n      tag_28\n      jump\t// in\n    tag_27:\n      mload(0x40)\n      dup1\n      swap2\n      sub\n      swap1\n      revert\n    tag_26:\n        /* \"contracts/rumbled-app.sol\":894:906  uint256 _bet */\n      0x00\n        /* \"contracts/rumbled-app.sol\":917:920  bet */\n      dup2\n        /* \"contracts/rumbled-app.sol\":894:921  uint256 _bet = uint256(bet) */\n      swap1\n      pop\n        /* \"contracts/rumbled-app.sol\":934:963  Challange memory newChallange */\n      tag_29\n      tag_30\n      jump\t// in\n    tag_29:\n        /* \"contracts/rumbled-app.sol\":1009:1019  msg.sender */\n      caller\n        /* \"contracts/rumbled-app.sol\":974:986  newChallange */\n      dup2\n        /* \"contracts/rumbled-app.sol\":974:998  newChallange.challenging */\n      0x00\n      add\n        /* \"contracts/rumbled-app.sol\":974:1020  newChallange.challenging = payable(msg.sender) */\n      swap1\n      0xffffffffffffffffffffffffffffffffffffffff\n      and\n      swap1\n      dup2\n      0xffffffffffffffffffffffffffffffffffffffff\n      and\n      dup2\n      mstore\n      pop\n      pop\n        /* \"contracts/rumbled-app.sol\":1058:1062  _bet */\n      dup2\n        /* \"contracts/rumbled-app.sol\":1031:1043  newChallange */\n      dup2\n        /* \"contracts/rumbled-app.sol\":1031:1047  newChallange.bet */\n      0x60\n      add\n        /* \"contracts/rumbled-app.sol\":1031:1063  newChallange.bet = uint256(_bet) */\n      dup2\n      dup2\n      mstore\n      pop\n      pop\n        /* \"contracts/rumbled-app.sol\":1112:1121  msg.value */\n      callvalue\n        /* \"contracts/rumbled-app.sol\":1076:1080  bets */\n      0x03\n        /* \"contracts/rumbled-app.sol\":1076:1101  bets[payable(msg.sender)] */\n      0x00\n        /* \"contracts/rumbled-app.sol\":1089:1099  msg.sender */\n      caller\n        /* \"contracts/rumbled-app.sol\":1076:1101  bets[payable(msg.sender)] */\n      0xffffffffffffffffffffffffffffffffffffffff\n      and\n      0xffffffffffffffffffffffffffffffffffffffff\n      and\n      dup2\n      mstore\n      0x20\n      add\n      swap1\n      dup2\n      mstore\n      0x20\n      add\n      0x00\n      keccak256\n        /* \"contracts/rumbled-app.sol\":1076:1122  bets[payable(msg.sender)] = uint256(msg.value) */\n      dup2\n      swap1\n      sstore\n      pop\n        /* \"contracts/rumbled-app.sol\":1133:1143  challanges */\n      0x02\n        /* \"contracts/rumbled-app.sol\":1149:1161  newChallange */\n      dup2\n        /* \"contracts/rumbled-app.sol\":1133:1162  challanges.push(newChallange) */\n      swap1\n      dup1\n      0x01\n      dup2\n      sload\n      add\n      dup1\n      dup3\n      sstore\n      dup1\n      swap2\n      pop\n      pop\n      0x01\n      swap1\n      sub\n      swap1\n      0x00\n      mstore\n      keccak256(0x00, 0x20)\n      swap1\n      0x04\n      mul\n      add\n      0x00\n      swap1\n      swap2\n      swap1\n      swap2\n      swap1\n      swap2\n      pop\n      0x00\n      dup3\n      add\n      mload\n      dup2\n      0x00\n      add\n      exp(0x0100, 0x00)\n      dup2\n      sload\n      dup2\n      0xffffffffffffffffffffffffffffffffffffffff\n      mul\n      not\n      and\n      swap1\n      dup4\n      0xffffffffffffffffffffffffffffffffffffffff\n      and\n      mul\n      or\n      swap1\n      sstore\n      pop\n      0x20\n      dup3\n      add\n      mload\n      dup2\n      0x01\n      add\n      exp(0x0100, 0x00)\n      dup2\n      sload\n      dup2\n      0xffffffffffffffffffffffffffffffffffffffff\n      mul\n      not\n      and\n      swap1\n      dup4\n      0xffffffffffffffffffffffffffffffffffffffff\n      and\n      mul\n      or\n      swap1\n      sstore\n      pop\n      0x40\n      dup3\n      add\n      mload\n      dup2\n      0x02\n      add\n      exp(0x0100, 0x00)\n      dup2\n      sload\n      dup2\n      0xffffffffffffffffffffffffffffffffffffffff\n      mul\n      not\n      and\n      swap1\n      dup4\n      0xffffffffffffffffffffffffffffffffffffffff\n      and\n      mul\n      or\n      swap1\n      sstore\n      pop\n      0x60\n      dup3\n      add\n      mload\n      dup2\n      0x03\n      add\n      sstore\n      pop\n      pop\n        /* \"contracts/rumbled-app.sol\":829:1170  {... */\n      pop\n      pop\n        /* \"contracts/rumbled-app.sol\":776:1170  function createChallange(uint256 bet) public payable {... */\n      pop\n      jump\t// out\n    tag_30:\n      mload(0x40)\n      dup1\n      0x80\n      add\n      0x40\n      mstore\n      dup1\n      and(0xffffffffffffffffffffffffffffffffffffffff, 0x00)\n      dup2\n      mstore\n      0x20\n      add\n      and(0xffffffffffffffffffffffffffffffffffffffff, 0x00)\n      dup2\n      mstore\n      0x20\n      add\n      and(0xffffffffffffffffffffffffffffffffffffffff, 0x00)\n      dup2\n      mstore\n      0x20\n      add\n      0x00\n      dup2\n      mstore\n      pop\n      swap1\n      jump\t// out\n        /* \"#utility.yul\":7:146   */\n    tag_32:\n        /* \"#utility.yul\":99:105   */\n      0x00\n        /* \"#utility.yul\":133:138   */\n      dup2\n        /* \"#utility.yul\":127:139   */\n      mload\n        /* \"#utility.yul\":117:139   */\n      swap1\n      pop\n        /* \"#utility.yul\":7:146   */\n      swap2\n      swap1\n      pop\n      jump\t// out\n        /* \"#utility.yul\":152:361   */\n    tag_33:\n        /* \"#utility.yul\":276:287   */\n      0x00\n        /* \"#utility.yul\":310:316   */\n      dup3\n        /* \"#utility.yul\":305:308   */\n      dup3\n        /* \"#utility.yul\":298:317   */\n      mstore\n        /* \"#utility.yul\":350:354   */\n      0x20\n        /* \"#utility.yul\":345:348   */\n      dup3\n        /* \"#utility.yul\":341:355   */\n      add\n        /* \"#utility.yul\":326:355   */\n      swap1\n      pop\n        /* \"#utility.yul\":152:361   */\n      swap3\n      swap2\n      pop\n      pop\n      jump\t// out\n        /* \"#utility.yul\":367:524   */\n    tag_34:\n        /* \"#utility.yul\":459:463   */\n      0x00\n        /* \"#utility.yul\":482:485   */\n      dup2\n        /* \"#utility.yul\":474:485   */\n      swap1\n      pop\n        /* \"#utility.yul\":512:516   */\n      0x20\n        /* \"#utility.yul\":507:510   */\n      dup3\n        /* \"#utility.yul\":503:517   */\n      add\n        /* \"#utility.yul\":495:517   */\n      swap1\n      pop\n        /* \"#utility.yul\":367:524   */\n      swap2\n      swap1\n      pop\n      jump\t// out\n        /* \"#utility.yul\":530:656   */\n    tag_35:\n        /* \"#utility.yul\":567:574   */\n      0x00\n        /* \"#utility.yul\":607:649   */\n      0xffffffffffffffffffffffffffffffffffffffff\n        /* \"#utility.yul\":600:605   */\n      dup3\n        /* \"#utility.yul\":596:650   */\n      and\n        /* \"#utility.yul\":585:650   */\n      swap1\n      pop\n        /* \"#utility.yul\":530:656   */\n      swap2\n      swap1\n      pop\n      jump\t// out\n        /* \"#utility.yul\":662:766   */\n    tag_36:\n        /* \"#utility.yul\":707:714   */\n      0x00\n        /* \"#utility.yul\":736:760   */\n      tag_62\n        /* \"#utility.yul\":754:759   */\n      dup3\n        /* \"#utility.yul\":736:760   */\n      tag_35\n      jump\t// in\n    tag_62:\n        /* \"#utility.yul\":725:760   */\n      swap1\n      pop\n        /* \"#utility.yul\":662:766   */\n      swap2\n      swap1\n      pop\n      jump\t// out\n        /* \"#utility.yul\":772:904   */\n    tag_37:\n        /* \"#utility.yul\":865:897   */\n      tag_64\n        /* \"#utility.yul\":891:896   */\n      dup2\n        /* \"#utility.yul\":865:897   */\n      tag_36\n      jump\t// in\n    tag_64:\n        /* \"#utility.yul\":860:863   */\n      dup3\n        /* \"#utility.yul\":853:898   */\n      mstore\n        /* \"#utility.yul\":772:904   */\n      pop\n      pop\n      jump\t// out\n        /* \"#utility.yul\":910:987   */\n    tag_38:\n        /* \"#utility.yul\":947:954   */\n      0x00\n        /* \"#utility.yul\":976:981   */\n      dup2\n        /* \"#utility.yul\":965:981   */\n      swap1\n      pop\n        /* \"#utility.yul\":910:987   */\n      swap2\n      swap1\n      pop\n      jump\t// out\n        /* \"#utility.yul\":993:1101   */\n    tag_39:\n        /* \"#utility.yul\":1070:1094   */\n      tag_67\n        /* \"#utility.yul\":1088:1093   */\n      dup2\n        /* \"#utility.yul\":1070:1094   */\n      tag_38\n      jump\t// in\n    tag_67:\n        /* \"#utility.yul\":1065:1068   */\n      dup3\n        /* \"#utility.yul\":1058:1095   */\n      mstore\n        /* \"#utility.yul\":993:1101   */\n      pop\n      pop\n      jump\t// out\n        /* \"#utility.yul\":1151:2056   */\n    tag_40:\n        /* \"#utility.yul\":1288:1292   */\n      0x80\n        /* \"#utility.yul\":1283:1286   */\n      dup3\n        /* \"#utility.yul\":1279:1293   */\n      add\n        /* \"#utility.yul\":1382:1386   */\n      0x00\n        /* \"#utility.yul\":1375:1380   */\n      dup3\n        /* \"#utility.yul\":1371:1387   */\n      add\n        /* \"#utility.yul\":1365:1388   */\n      mload\n        /* \"#utility.yul\":1401:1480   */\n      tag_69\n        /* \"#utility.yul\":1474:1478   */\n      0x00\n        /* \"#utility.yul\":1469:1472   */\n      dup6\n        /* \"#utility.yul\":1465:1479   */\n      add\n        /* \"#utility.yul\":1451:1463   */\n      dup3\n        /* \"#utility.yul\":1401:1480   */\n      tag_37\n      jump\t// in\n    tag_69:\n        /* \"#utility.yul\":1303:1490   */\n      pop\n        /* \"#utility.yul\":1577:1581   */\n      0x20\n        /* \"#utility.yul\":1570:1575   */\n      dup3\n        /* \"#utility.yul\":1566:1582   */\n      add\n        /* \"#utility.yul\":1560:1583   */\n      mload\n        /* \"#utility.yul\":1596:1675   */\n      tag_70\n        /* \"#utility.yul\":1669:1673   */\n      0x20\n        /* \"#utility.yul\":1664:1667   */\n      dup6\n        /* \"#utility.yul\":1660:1674   */\n      add\n        /* \"#utility.yul\":1646:1658   */\n      dup3\n        /* \"#utility.yul\":1596:1675   */\n      tag_37\n      jump\t// in\n    tag_70:\n        /* \"#utility.yul\":1500:1685   */\n      pop\n        /* \"#utility.yul\":1768:1772   */\n      0x40\n        /* \"#utility.yul\":1761:1766   */\n      dup3\n        /* \"#utility.yul\":1757:1773   */\n      add\n        /* \"#utility.yul\":1751:1774   */\n      mload\n        /* \"#utility.yul\":1787:1866   */\n      tag_71\n        /* \"#utility.yul\":1860:1864   */\n      0x40\n        /* \"#utility.yul\":1855:1858   */\n      dup6\n        /* \"#utility.yul\":1851:1865   */\n      add\n        /* \"#utility.yul\":1837:1849   */\n      dup3\n        /* \"#utility.yul\":1787:1866   */\n      tag_37\n      jump\t// in\n    tag_71:\n        /* \"#utility.yul\":1695:1876   */\n      pop\n        /* \"#utility.yul\":1957:1961   */\n      0x60\n        /* \"#utility.yul\":1950:1955   */\n      dup3\n        /* \"#utility.yul\":1946:1962   */\n      add\n        /* \"#utility.yul\":1940:1963   */\n      mload\n        /* \"#utility.yul\":1976:2039   */\n      tag_72\n        /* \"#utility.yul\":2033:2037   */\n      0x60\n        /* \"#utility.yul\":2028:2031   */\n      dup6\n        /* \"#utility.yul\":2024:2038   */\n      add\n        /* \"#utility.yul\":2010:2022   */\n      dup3\n        /* \"#utility.yul\":1976:2039   */\n      tag_39\n      jump\t// in\n    tag_72:\n        /* \"#utility.yul\":1886:2049   */\n      pop\n        /* \"#utility.yul\":1257:2056   */\n      pop\n        /* \"#utility.yul\":1151:2056   */\n      pop\n      pop\n      jump\t// out\n        /* \"#utility.yul\":2062:2341   */\n    tag_41:\n        /* \"#utility.yul\":2181:2191   */\n      0x00\n        /* \"#utility.yul\":2202:2298   */\n      tag_74\n        /* \"#utility.yul\":2294:2297   */\n      dup4\n        /* \"#utility.yul\":2286:2292   */\n      dup4\n        /* \"#utility.yul\":2202:2298   */\n      tag_40\n      jump\t// in\n    tag_74:\n        /* \"#utility.yul\":2330:2334   */\n      0x80\n        /* \"#utility.yul\":2325:2328   */\n      dup4\n        /* \"#utility.yul\":2321:2335   */\n      add\n        /* \"#utility.yul\":2307:2335   */\n      swap1\n      pop\n        /* \"#utility.yul\":2062:2341   */\n      swap3\n      swap2\n      pop\n      pop\n      jump\t// out\n        /* \"#utility.yul\":2347:2485   */\n    tag_42:\n        /* \"#utility.yul\":2442:2446   */\n      0x00\n        /* \"#utility.yul\":2474:2478   */\n      0x20\n        /* \"#utility.yul\":2469:2472   */\n      dup3\n        /* \"#utility.yul\":2465:2479   */\n      add\n        /* \"#utility.yul\":2457:2479   */\n      swap1\n      pop\n        /* \"#utility.yul\":2347:2485   */\n      swap2\n      swap1\n      pop\n      jump\t// out\n        /* \"#utility.yul\":2539:3471   */\n    tag_43:\n        /* \"#utility.yul\":2708:2711   */\n      0x00\n        /* \"#utility.yul\":2737:2816   */\n      tag_77\n        /* \"#utility.yul\":2810:2815   */\n      dup3\n        /* \"#utility.yul\":2737:2816   */\n      tag_32\n      jump\t// in\n    tag_77:\n        /* \"#utility.yul\":2832:2943   */\n      tag_78\n        /* \"#utility.yul\":2936:2942   */\n      dup2\n        /* \"#utility.yul\":2931:2934   */\n      dup6\n        /* \"#utility.yul\":2832:2943   */\n      tag_33\n      jump\t// in\n    tag_78:\n        /* \"#utility.yul\":2825:2943   */\n      swap4\n      pop\n        /* \"#utility.yul\":2967:3048   */\n      tag_79\n        /* \"#utility.yul\":3042:3047   */\n      dup4\n        /* \"#utility.yul\":2967:3048   */\n      tag_34\n      jump\t// in\n    tag_79:\n        /* \"#utility.yul\":3071:3078   */\n      dup1\n        /* \"#utility.yul\":3102:3103   */\n      0x00\n        /* \"#utility.yul\":3087:3446   */\n    tag_80:\n        /* \"#utility.yul\":3112:3118   */\n      dup4\n        /* \"#utility.yul\":3109:3110   */\n      dup2\n        /* \"#utility.yul\":3106:3119   */\n      lt\n        /* \"#utility.yul\":3087:3446   */\n      iszero\n      tag_82\n      jumpi\n        /* \"#utility.yul\":3188:3194   */\n      dup2\n        /* \"#utility.yul\":3182:3195   */\n      mload\n        /* \"#utility.yul\":3215:3328   */\n      tag_83\n        /* \"#utility.yul\":3324:3327   */\n      dup9\n        /* \"#utility.yul\":3309:3322   */\n      dup3\n        /* \"#utility.yul\":3215:3328   */\n      tag_41\n      jump\t// in\n    tag_83:\n        /* \"#utility.yul\":3208:3328   */\n      swap8\n      pop\n        /* \"#utility.yul\":3351:3436   */\n      tag_84\n        /* \"#utility.yul\":3429:3435   */\n      dup4\n        /* \"#utility.yul\":3351:3436   */\n      tag_42\n      jump\t// in\n    tag_84:\n        /* \"#utility.yul\":3341:3436   */\n      swap3\n      pop\n        /* \"#utility.yul\":3147:3446   */\n      pop\n        /* \"#utility.yul\":3134:3135   */\n      0x01\n        /* \"#utility.yul\":3131:3132   */\n      dup2\n        /* \"#utility.yul\":3127:3136   */\n      add\n        /* \"#utility.yul\":3122:3136   */\n      swap1\n      pop\n        /* \"#utility.yul\":3087:3446   */\n      jump(tag_80)\n    tag_82:\n        /* \"#utility.yul\":3091:3105   */\n      pop\n        /* \"#utility.yul\":3462:3465   */\n      dup6\n        /* \"#utility.yul\":3455:3465   */\n      swap4\n      pop\n        /* \"#utility.yul\":2713:3471   */\n      pop\n      pop\n      pop\n        /* \"#utility.yul\":2539:3471   */\n      swap3\n      swap2\n      pop\n      pop\n      jump\t// out\n        /* \"#utility.yul\":3477:3950   */\n    tag_9:\n        /* \"#utility.yul\":3670:3674   */\n      0x00\n        /* \"#utility.yul\":3708:3710   */\n      0x20\n        /* \"#utility.yul\":3697:3706   */\n      dup3\n        /* \"#utility.yul\":3693:3711   */\n      add\n        /* \"#utility.yul\":3685:3711   */\n      swap1\n      pop\n        /* \"#utility.yul\":3757:3766   */\n      dup2\n        /* \"#utility.yul\":3751:3755   */\n      dup2\n        /* \"#utility.yul\":3747:3767   */\n      sub\n        /* \"#utility.yul\":3743:3744   */\n      0x00\n        /* \"#utility.yul\":3732:3741   */\n      dup4\n        /* \"#utility.yul\":3728:3745   */\n      add\n        /* \"#utility.yul\":3721:3768   */\n      mstore\n        /* \"#utility.yul\":3785:3943   */\n      tag_86\n        /* \"#utility.yul\":3938:3942   */\n      dup2\n        /* \"#utility.yul\":3929:3935   */\n      dup5\n        /* \"#utility.yul\":3785:3943   */\n      tag_43\n      jump\t// in\n    tag_86:\n        /* \"#utility.yul\":3777:3943   */\n      swap1\n      pop\n        /* \"#utility.yul\":3477:3950   */\n      swap3\n      swap2\n      pop\n      pop\n      jump\t// out\n        /* \"#utility.yul\":4037:4154   */\n    tag_45:\n        /* \"#utility.yul\":4146:4147   */\n      0x00\n        /* \"#utility.yul\":4143:4144   */\n      dup1\n        /* \"#utility.yul\":4136:4148   */\n      revert\n        /* \"#utility.yul\":4283:4379   */\n    tag_47:\n        /* \"#utility.yul\":4320:4327   */\n      0x00\n        /* \"#utility.yul\":4349:4373   */\n      tag_91\n        /* \"#utility.yul\":4367:4372   */\n      dup3\n        /* \"#utility.yul\":4349:4373   */\n      tag_35\n      jump\t// in\n    tag_91:\n        /* \"#utility.yul\":4338:4373   */\n      swap1\n      pop\n        /* \"#utility.yul\":4283:4379   */\n      swap2\n      swap1\n      pop\n      jump\t// out\n        /* \"#utility.yul\":4385:4507   */\n    tag_48:\n        /* \"#utility.yul\":4458:4482   */\n      tag_93\n        /* \"#utility.yul\":4476:4481   */\n      dup2\n        /* \"#utility.yul\":4458:4482   */\n      tag_47\n      jump\t// in\n    tag_93:\n        /* \"#utility.yul\":4451:4456   */\n      dup2\n        /* \"#utility.yul\":4448:4483   */\n      eq\n        /* \"#utility.yul\":4438:4501   */\n      tag_94\n      jumpi\n        /* \"#utility.yul\":4497:4498   */\n      0x00\n        /* \"#utility.yul\":4494:4495   */\n      dup1\n        /* \"#utility.yul\":4487:4499   */\n      revert\n        /* \"#utility.yul\":4438:4501   */\n    tag_94:\n        /* \"#utility.yul\":4385:4507   */\n      pop\n      jump\t// out\n        /* \"#utility.yul\":4513:4652   */\n    tag_49:\n        /* \"#utility.yul\":4559:4564   */\n      0x00\n        /* \"#utility.yul\":4597:4603   */\n      dup2\n        /* \"#utility.yul\":4584:4604   */\n      calldataload\n        /* \"#utility.yul\":4575:4604   */\n      swap1\n      pop\n        /* \"#utility.yul\":4613:4646   */\n      tag_96\n        /* \"#utility.yul\":4640:4645   */\n      dup2\n        /* \"#utility.yul\":4613:4646   */\n      tag_48\n      jump\t// in\n    tag_96:\n        /* \"#utility.yul\":4513:4652   */\n      swap3\n      swap2\n      pop\n      pop\n      jump\t// out\n        /* \"#utility.yul\":4658:4987   */\n    tag_13:\n        /* \"#utility.yul\":4717:4723   */\n      0x00\n        /* \"#utility.yul\":4766:4768   */\n      0x20\n        /* \"#utility.yul\":4754:4763   */\n      dup3\n        /* \"#utility.yul\":4745:4752   */\n      dup5\n        /* \"#utility.yul\":4741:4764   */\n      sub\n        /* \"#utility.yul\":4737:4769   */\n      slt\n        /* \"#utility.yul\":4734:4853   */\n      iszero\n      tag_98\n      jumpi\n        /* \"#utility.yul\":4772:4851   */\n      tag_99\n      tag_45\n      jump\t// in\n    tag_99:\n        /* \"#utility.yul\":4734:4853   */\n    tag_98:\n        /* \"#utility.yul\":4892:4893   */\n      0x00\n        /* \"#utility.yul\":4917:4970   */\n      tag_100\n        /* \"#utility.yul\":4962:4969   */\n      dup5\n        /* \"#utility.yul\":4953:4959   */\n      dup3\n        /* \"#utility.yul\":4942:4951   */\n      dup6\n        /* \"#utility.yul\":4938:4960   */\n      add\n        /* \"#utility.yul\":4917:4970   */\n      tag_49\n      jump\t// in\n    tag_100:\n        /* \"#utility.yul\":4907:4970   */\n      swap2\n      pop\n        /* \"#utility.yul\":4863:4980   */\n      pop\n        /* \"#utility.yul\":4658:4987   */\n      swap3\n      swap2\n      pop\n      pop\n      jump\t// out\n        /* \"#utility.yul\":4993:5111   */\n    tag_50:\n        /* \"#utility.yul\":5080:5104   */\n      tag_102\n        /* \"#utility.yul\":5098:5103   */\n      dup2\n        /* \"#utility.yul\":5080:5104   */\n      tag_38\n      jump\t// in\n    tag_102:\n        /* \"#utility.yul\":5075:5078   */\n      dup3\n        /* \"#utility.yul\":5068:5105   */\n      mstore\n        /* \"#utility.yul\":4993:5111   */\n      pop\n      pop\n      jump\t// out\n        /* \"#utility.yul\":5117:5339   */\n    tag_16:\n        /* \"#utility.yul\":5210:5214   */\n      0x00\n        /* \"#utility.yul\":5248:5250   */\n      0x20\n        /* \"#utility.yul\":5237:5246   */\n      dup3\n        /* \"#utility.yul\":5233:5251   */\n      add\n        /* \"#utility.yul\":5225:5251   */\n      swap1\n      pop\n        /* \"#utility.yul\":5261:5332   */\n      tag_104\n        /* \"#utility.yul\":5329:5330   */\n      0x00\n        /* \"#utility.yul\":5318:5327   */\n      dup4\n        /* \"#utility.yul\":5314:5331   */\n      add\n        /* \"#utility.yul\":5305:5311   */\n      dup5\n        /* \"#utility.yul\":5261:5332   */\n      tag_50\n      jump\t// in\n    tag_104:\n        /* \"#utility.yul\":5117:5339   */\n      swap3\n      swap2\n      pop\n      pop\n      jump\t// out\n        /* \"#utility.yul\":5345:5467   */\n    tag_51:\n        /* \"#utility.yul\":5418:5442   */\n      tag_106\n        /* \"#utility.yul\":5436:5441   */\n      dup2\n        /* \"#utility.yul\":5418:5442   */\n      tag_38\n      jump\t// in\n    tag_106:\n        /* \"#utility.yul\":5411:5416   */\n      dup2\n        /* \"#utility.yul\":5408:5443   */\n      eq\n        /* \"#utility.yul\":5398:5461   */\n      tag_107\n      jumpi\n        /* \"#utility.yul\":5457:5458   */\n      0x00\n        /* \"#utility.yul\":5454:5455   */\n      dup1\n        /* \"#utility.yul\":5447:5459   */\n      revert\n        /* \"#utility.yul\":5398:5461   */\n    tag_107:\n        /* \"#utility.yul\":5345:5467   */\n      pop\n      jump\t// out\n        /* \"#utility.yul\":5473:5612   */\n    tag_52:\n        /* \"#utility.yul\":5519:5524   */\n      0x00\n        /* \"#utility.yul\":5557:5563   */\n      dup2\n        /* \"#utility.yul\":5544:5564   */\n      calldataload\n        /* \"#utility.yul\":5535:5564   */\n      swap1\n      pop\n        /* \"#utility.yul\":5573:5606   */\n      tag_109\n        /* \"#utility.yul\":5600:5605   */\n      dup2\n        /* \"#utility.yul\":5573:5606   */\n      tag_51\n      jump\t// in\n    tag_109:\n        /* \"#utility.yul\":5473:5612   */\n      swap3\n      swap2\n      pop\n      pop\n      jump\t// out\n        /* \"#utility.yul\":5618:5947   */\n    tag_19:\n        /* \"#utility.yul\":5677:5683   */\n      0x00\n        /* \"#utility.yul\":5726:5728   */\n      0x20\n        /* \"#utility.yul\":5714:5723   */\n      dup3\n        /* \"#utility.yul\":5705:5712   */\n      dup5\n        /* \"#utility.yul\":5701:5724   */\n      sub\n        /* \"#utility.yul\":5697:5729   */\n      slt\n        /* \"#utility.yul\":5694:5813   */\n      iszero\n      tag_111\n      jumpi\n        /* \"#utility.yul\":5732:5811   */\n      tag_112\n      tag_45\n      jump\t// in\n    tag_112:\n        /* \"#utility.yul\":5694:5813   */\n    tag_111:\n        /* \"#utility.yul\":5852:5853   */\n      0x00\n        /* \"#utility.yul\":5877:5930   */\n      tag_113\n        /* \"#utility.yul\":5922:5929   */\n      dup5\n        /* \"#utility.yul\":5913:5919   */\n      dup3\n        /* \"#utility.yul\":5902:5911   */\n      dup6\n        /* \"#utility.yul\":5898:5920   */\n      add\n        /* \"#utility.yul\":5877:5930   */\n      tag_52\n      jump\t// in\n    tag_113:\n        /* \"#utility.yul\":5867:5930   */\n      swap2\n      pop\n        /* \"#utility.yul\":5823:5940   */\n      pop\n        /* \"#utility.yul\":5618:5947   */\n      swap3\n      swap2\n      pop\n      pop\n      jump\t// out\n        /* \"#utility.yul\":5953:6122   */\n    tag_53:\n        /* \"#utility.yul\":6037:6048   */\n      0x00\n        /* \"#utility.yul\":6071:6077   */\n      dup3\n        /* \"#utility.yul\":6066:6069   */\n      dup3\n        /* \"#utility.yul\":6059:6078   */\n      mstore\n        /* \"#utility.yul\":6111:6115   */\n      0x20\n        /* \"#utility.yul\":6106:6109   */\n      dup3\n        /* \"#utility.yul\":6102:6116   */\n      add\n        /* \"#utility.yul\":6087:6116   */\n      swap1\n      pop\n        /* \"#utility.yul\":5953:6122   */\n      swap3\n      swap2\n      pop\n      pop\n      jump\t// out\n        /* \"#utility.yul\":6128:6292   */\n    tag_54:\n        /* \"#utility.yul\":6268:6284   */\n      0x4f7574206f662062616c616e6365000000000000000000000000000000000000\n        /* \"#utility.yul\":6264:6265   */\n      0x00\n        /* \"#utility.yul\":6256:6262   */\n      dup3\n        /* \"#utility.yul\":6252:6266   */\n      add\n        /* \"#utility.yul\":6245:6285   */\n      mstore\n        /* \"#utility.yul\":6128:6292   */\n      pop\n      jump\t// out\n        /* \"#utility.yul\":6298:6664   */\n    tag_55:\n        /* \"#utility.yul\":6440:6443   */\n      0x00\n        /* \"#utility.yul\":6461:6528   */\n      tag_117\n        /* \"#utility.yul\":6525:6527   */\n      0x0e\n        /* \"#utility.yul\":6520:6523   */\n      dup4\n        /* \"#utility.yul\":6461:6528   */\n      tag_53\n      jump\t// in\n    tag_117:\n        /* \"#utility.yul\":6454:6528   */\n      swap2\n      pop\n        /* \"#utility.yul\":6537:6630   */\n      tag_118\n        /* \"#utility.yul\":6626:6629   */\n      dup3\n        /* \"#utility.yul\":6537:6630   */\n      tag_54\n      jump\t// in\n    tag_118:\n        /* \"#utility.yul\":6655:6657   */\n      0x20\n        /* \"#utility.yul\":6650:6653   */\n      dup3\n        /* \"#utility.yul\":6646:6658   */\n      add\n        /* \"#utility.yul\":6639:6658   */\n      swap1\n      pop\n        /* \"#utility.yul\":6298:6664   */\n      swap2\n      swap1\n      pop\n      jump\t// out\n        /* \"#utility.yul\":6670:7089   */\n    tag_28:\n        /* \"#utility.yul\":6836:6840   */\n      0x00\n        /* \"#utility.yul\":6874:6876   */\n      0x20\n        /* \"#utility.yul\":6863:6872   */\n      dup3\n        /* \"#utility.yul\":6859:6877   */\n      add\n        /* \"#utility.yul\":6851:6877   */\n      swap1\n      pop\n        /* \"#utility.yul\":6923:6932   */\n      dup2\n        /* \"#utility.yul\":6917:6921   */\n      dup2\n        /* \"#utility.yul\":6913:6933   */\n      sub\n        /* \"#utility.yul\":6909:6910   */\n      0x00\n        /* \"#utility.yul\":6898:6907   */\n      dup4\n        /* \"#utility.yul\":6894:6911   */\n      add\n        /* \"#utility.yul\":6887:6934   */\n      mstore\n        /* \"#utility.yul\":6951:7082   */\n      tag_120\n        /* \"#utility.yul\":7077:7081   */\n      dup2\n        /* \"#utility.yul\":6951:7082   */\n      tag_55\n      jump\t// in\n    tag_120:\n        /* \"#utility.yul\":6943:7082   */\n      swap1\n      pop\n        /* \"#utility.yul\":6670:7089   */\n      swap2\n      swap1\n      pop\n      jump\t// out\n\n    auxdata: 0xa26469706673582212209b86d08007aaada3b33dc14ff060eafa210411d5c122484c9f3cd6f04e092e4b64736f6c63430008180033\n}\n",
				"bytecode": {
					"linkReferences": {},
					"object": "608060405234801561000f575f80fd5b50335f806101000a81548173ffffffffffffffffffffffffffffffffffffffff021916908373ffffffffffffffffffffffffffffffffffffffff16021790555061077b8061005c5f395ff3fe608060405260043610610033575f3560e01c8063844649521461003757806389a78f1a14610061578063dd5d8e141461009d575b5f80fd5b348015610042575f80fd5b5061004b6100b9565b60405161005891906105c6565b60405180910390f35b34801561006c575f80fd5b5061008760048036038101906100829190610625565b61021d565b604051610094919061065f565b60405180910390f35b6100b760048036038101906100b291906106a2565b610232565b005b60606002805480602002602001604051908101604052809291908181526020015f905b82821015610214578382905f5260205f2090600402016040518060800160405290815f82015f9054906101000a900473ffffffffffffffffffffffffffffffffffffffff1673ffffffffffffffffffffffffffffffffffffffff1673ffffffffffffffffffffffffffffffffffffffff168152602001600182015f9054906101000a900473ffffffffffffffffffffffffffffffffffffffff1673ffffffffffffffffffffffffffffffffffffffff1673ffffffffffffffffffffffffffffffffffffffff168152602001600282015f9054906101000a900473ffffffffffffffffffffffffffffffffffffffff1673ffffffffffffffffffffffffffffffffffffffff1673ffffffffffffffffffffffffffffffffffffffff168152602001600382015481525050815260200190600101906100dc565b50505050905090565b6003602052805f5260405f205f915090505481565b80341015610275576040517f08c379a000000000000000000000000000000000000000000000000000000000815260040161026c90610727565b60405180910390fd5b5f81905061028161040e565b33815f019073ffffffffffffffffffffffffffffffffffffffff16908173ffffffffffffffffffffffffffffffffffffffff1681525050818160600181815250503460035f3373ffffffffffffffffffffffffffffffffffffffff1673ffffffffffffffffffffffffffffffffffffffff1681526020019081526020015f2081905550600281908060018154018082558091505060019003905f5260205f2090600402015f909190919091505f820151815f015f6101000a81548173ffffffffffffffffffffffffffffffffffffffff021916908373ffffffffffffffffffffffffffffffffffffffff1602179055506020820151816001015f6101000a81548173ffffffffffffffffffffffffffffffffffffffff021916908373ffffffffffffffffffffffffffffffffffffffff1602179055506040820151816002015f6101000a81548173ffffffffffffffffffffffffffffffffffffffff021916908373ffffffffffffffffffffffffffffffffffffffff160217905550606082015181600301555050505050565b60405180608001604052805f73ffffffffffffffffffffffffffffffffffffffff1681526020015f73ffffffffffffffffffffffffffffffffffffffff1681526020015f73ffffffffffffffffffffffffffffffffffffffff1681526020015f81525090565b5f81519050919050565b5f82825260208201905092915050565b5f819050602082019050919050565b5f73ffffffffffffffffffffffffffffffffffffffff82169050919050565b5f6104c68261049d565b9050919050565b6104d6816104bc565b82525050565b5f819050919050565b6104ee816104dc565b82525050565b608082015f8201516105085f8501826104cd565b50602082015161051b60208501826104cd565b50604082015161052e60408501826104cd565b50606082015161054160608501826104e5565b50505050565b5f61055283836104f4565b60808301905092915050565b5f602082019050919050565b5f61057482610474565b61057e818561047e565b93506105898361048e565b805f5b838110156105b95781516105a08882610547565b97506105ab8361055e565b92505060018101905061058c565b5085935050505092915050565b5f6020820190508181035f8301526105de818461056a565b905092915050565b5f80fd5b5f6105f48261049d565b9050919050565b610604816105ea565b811461060e575f80fd5b50565b5f8135905061061f816105fb565b92915050565b5f6020828403121561063a576106396105e6565b5b5f61064784828501610611565b91505092915050565b610659816104dc565b82525050565b5f6020820190506106725f830184610650565b92915050565b610681816104dc565b811461068b575f80fd5b50565b5f8135905061069c81610678565b92915050565b5f602082840312156106b7576106b66105e6565b5b5f6106c48482850161068e565b91505092915050565b5f82825260208201905092915050565b7f4f7574206f662062616c616e63650000000000000000000000000000000000005f82015250565b5f610711600e836106cd565b915061071c826106dd565b602082019050919050565b5f6020820190508181035f83015261073e81610705565b905091905056fea26469706673582212209b86d08007aaada3b33dc14ff060eafa210411d5c122484c9f3cd6f04e092e4b64736f6c63430008180033",
					"opcodes": "PUSH1 0x80 PUSH1 0x40 MSTORE CALLVALUE DUP1 ISZERO PUSH2 0xF JUMPI PUSH0 DUP1 REVERT JUMPDEST POP CALLER PUSH0 DUP1 PUSH2 0x100 EXP DUP2 SLOAD DUP2 PUSH20 0xFFFFFFFFFFFFFFFFFFFFFFFFFFFFFFFFFFFFFFFF MUL NOT AND SWAP1 DUP4 PUSH20 0xFFFFFFFFFFFFFFFFFFFFFFFFFFFFFFFFFFFFFFFF AND MUL OR SWAP1 SSTORE POP PUSH2 0x77B DUP1 PUSH2 0x5C PUSH0 CODECOPY PUSH0 RETURN INVALID PUSH1 0x80 PUSH1 0x40 MSTORE PUSH1 0x4 CALLDATASIZE LT PUSH2 0x33 JUMPI PUSH0 CALLDATALOAD PUSH1 0xE0 SHR DUP1 PUSH4 0x84464952 EQ PUSH2 0x37 JUMPI DUP1 PUSH4 0x89A78F1A EQ PUSH2 0x61 JUMPI DUP1 PUSH4 0xDD5D8E14 EQ PUSH2 0x9D JUMPI JUMPDEST PUSH0 DUP1 REVERT JUMPDEST CALLVALUE DUP1 ISZERO PUSH2 0x42 JUMPI PUSH0 DUP1 REVERT JUMPDEST POP PUSH2 0x4B PUSH2 0xB9 JUMP JUMPDEST PUSH1 0x40 MLOAD PUSH2 0x58 SWAP2 SWAP1 PUSH2 0x5C6 JUMP JUMPDEST PUSH1 0x40 MLOAD DUP1 SWAP2 SUB SWAP1 RETURN JUMPDEST CALLVALUE DUP1 ISZERO PUSH2 0x6C JUMPI PUSH0 DUP1 REVERT JUMPDEST POP PUSH2 0x87 PUSH1 0x4 DUP1 CALLDATASIZE SUB DUP2 ADD SWAP1 PUSH2 0x82 SWAP2 SWAP1 PUSH2 0x625 JUMP JUMPDEST PUSH2 0x21D JUMP JUMPDEST PUSH1 0x40 MLOAD PUSH2 0x94 SWAP2 SWAP1 PUSH2 0x65F JUMP JUMPDEST PUSH1 0x40 MLOAD DUP1 SWAP2 SUB SWAP1 RETURN JUMPDEST PUSH2 0xB7 PUSH1 0x4 DUP1 CALLDATASIZE SUB DUP2 ADD SWAP1 PUSH2 0xB2 SWAP2 SWAP1 PUSH2 0x6A2 JUMP JUMPDEST PUSH2 0x232 JUMP JUMPDEST STOP JUMPDEST PUSH1 0x60 PUSH1 0x2 DUP1 SLOAD DUP1 PUSH1 0x20 MUL PUSH1 0x20 ADD PUSH1 0x40 MLOAD SWAP1 DUP2 ADD PUSH1 0x40 MSTORE DUP1 SWAP3 SWAP2 SWAP1 DUP2 DUP2 MSTORE PUSH1 0x20 ADD PUSH0 SWAP1 JUMPDEST DUP3 DUP3 LT ISZERO PUSH2 0x214 JUMPI DUP4 DUP3 SWAP1 PUSH0 MSTORE PUSH1 0x20 PUSH0 KECCAK256 SWAP1 PUSH1 0x4 MUL ADD PUSH1 0x40 MLOAD DUP1 PUSH1 0x80 ADD PUSH1 0x40 MSTORE SWAP1 DUP2 PUSH0 DUP3 ADD PUSH0 SWAP1 SLOAD SWAP1 PUSH2 0x100 EXP SWAP1 DIV PUSH20 0xFFFFFFFFFFFFFFFFFFFFFFFFFFFFFFFFFFFFFFFF AND PUSH20 0xFFFFFFFFFFFFFFFFFFFFFFFFFFFFFFFFFFFFFFFF AND PUSH20 0xFFFFFFFFFFFFFFFFFFFFFFFFFFFFFFFFFFFFFFFF AND DUP2 MSTORE PUSH1 0x20 ADD PUSH1 0x1 DUP3 ADD PUSH0 SWAP1 SLOAD SWAP1 PUSH2 0x100 EXP SWAP1 DIV PUSH20 0xFFFFFFFFFFFFFFFFFFFFFFFFFFFFFFFFFFFFFFFF AND PUSH20 0xFFFFFFFFFFFFFFFFFFFFFFFFFFFFFFFFFFFFFFFF AND PUSH20 0xFFFFFFFFFFFFFFFFFFFFFFFFFFFFFFFFFFFFFFFF AND DUP2 MSTORE PUSH1 0x20 ADD PUSH1 0x2 DUP3 ADD PUSH0 SWAP1 SLOAD SWAP1 PUSH2 0x100 EXP SWAP1 DIV PUSH20 0xFFFFFFFFFFFFFFFFFFFFFFFFFFFFFFFFFFFFFFFF AND PUSH20 0xFFFFFFFFFFFFFFFFFFFFFFFFFFFFFFFFFFFFFFFF AND PUSH20 0xFFFFFFFFFFFFFFFFFFFFFFFFFFFFFFFFFFFFFFFF AND DUP2 MSTORE PUSH1 0x20 ADD PUSH1 0x3 DUP3 ADD SLOAD DUP2 MSTORE POP POP DUP2 MSTORE PUSH1 0x20 ADD SWAP1 PUSH1 0x1 ADD SWAP1 PUSH2 0xDC JUMP JUMPDEST POP POP POP POP SWAP1 POP SWAP1 JUMP JUMPDEST PUSH1 0x3 PUSH1 0x20 MSTORE DUP1 PUSH0 MSTORE PUSH1 0x40 PUSH0 KECCAK256 PUSH0 SWAP2 POP SWAP1 POP SLOAD DUP2 JUMP JUMPDEST DUP1 CALLVALUE LT ISZERO PUSH2 0x275 JUMPI PUSH1 0x40 MLOAD PUSH32 0x8C379A000000000000000000000000000000000000000000000000000000000 DUP2 MSTORE PUSH1 0x4 ADD PUSH2 0x26C SWAP1 PUSH2 0x727 JUMP JUMPDEST PUSH1 0x40 MLOAD DUP1 SWAP2 SUB SWAP1 REVERT JUMPDEST PUSH0 DUP2 SWAP1 POP PUSH2 0x281 PUSH2 0x40E JUMP JUMPDEST CALLER DUP2 PUSH0 ADD SWAP1 PUSH20 0xFFFFFFFFFFFFFFFFFFFFFFFFFFFFFFFFFFFFFFFF AND SWAP1 DUP2 PUSH20 0xFFFFFFFFFFFFFFFFFFFFFFFFFFFFFFFFFFFFFFFF AND DUP2 MSTORE POP POP DUP2 DUP2 PUSH1 0x60 ADD DUP2 DUP2 MSTORE POP POP CALLVALUE PUSH1 0x3 PUSH0 CALLER PUSH20 0xFFFFFFFFFFFFFFFFFFFFFFFFFFFFFFFFFFFFFFFF AND PUSH20 0xFFFFFFFFFFFFFFFFFFFFFFFFFFFFFFFFFFFFFFFF AND DUP2 MSTORE PUSH1 0x20 ADD SWAP1 DUP2 MSTORE PUSH1 0x20 ADD PUSH0 KECCAK256 DUP2 SWAP1 SSTORE POP PUSH1 0x2 DUP2 SWAP1 DUP1 PUSH1 0x1 DUP2 SLOAD ADD DUP1 DUP3 SSTORE DUP1 SWAP2 POP POP PUSH1 0x1 SWAP1 SUB SWAP1 PUSH0 MSTORE PUSH1 0x20 PUSH0 KECCAK256 SWAP1 PUSH1 0x4 MUL ADD PUSH0 SWAP1 SWAP2 SWAP1 SWAP2 SWAP1 SWAP2 POP PUSH0 DUP3 ADD MLOAD DUP2 PUSH0 ADD PUSH0 PUSH2 0x100 EXP DUP2 SLOAD DUP2 PUSH20 0xFFFFFFFFFFFFFFFFFFFFFFFFFFFFFFFFFFFFFFFF MUL NOT AND SWAP1 DUP4 PUSH20 0xFFFFFFFFFFFFFFFFFFFFFFFFFFFFFFFFFFFFFFFF AND MUL OR SWAP1 SSTORE POP PUSH1 0x20 DUP3 ADD MLOAD DUP2 PUSH1 0x1 ADD PUSH0 PUSH2 0x100 EXP DUP2 SLOAD DUP2 PUSH20 0xFFFFFFFFFFFFFFFFFFFFFFFFFFFFFFFFFFFFFFFF MUL NOT AND SWAP1 DUP4 PUSH20 0xFFFFFFFFFFFFFFFFFFFFFFFFFFFFFFFFFFFFFFFF AND MUL OR SWAP1 SSTORE POP PUSH1 0x40 DUP3 ADD MLOAD DUP2 PUSH1 0x2 ADD PUSH0 PUSH2 0x100 EXP DUP2 SLOAD DUP2 PUSH20 0xFFFFFFFFFFFFFFFFFFFFFFFFFFFFFFFFFFFFFFFF MUL NOT AND SWAP1 DUP4 PUSH20 0xFFFFFFFFFFFFFFFFFFFFFFFFFFFFFFFFFFFFFFFF AND MUL OR SWAP1 SSTORE POP PUSH1 0x60 DUP3 ADD MLOAD DUP2 PUSH1 0x3 ADD SSTORE POP POP POP POP POP JUMP JUMPDEST PUSH1 0x40 MLOAD DUP1 PUSH1 0x80 ADD PUSH1 0x40 MSTORE DUP1 PUSH0 PUSH20 0xFFFFFFFFFFFFFFFFFFFFFFFFFFFFFFFFFFFFFFFF AND DUP2 MSTORE PUSH1 0x20 ADD PUSH0 PUSH20 0xFFFFFFFFFFFFFFFFFFFFFFFFFFFFFFFFFFFFFFFF AND DUP2 MSTORE PUSH1 0x20 ADD PUSH0 PUSH20 0xFFFFFFFFFFFFFFFFFFFFFFFFFFFFFFFFFFFFFFFF AND DUP2 MSTORE PUSH1 0x20 ADD PUSH0 DUP2 MSTORE POP SWAP1 JUMP JUMPDEST PUSH0 DUP2 MLOAD SWAP1 POP SWAP2 SWAP1 POP JUMP JUMPDEST PUSH0 DUP3 DUP3 MSTORE PUSH1 0x20 DUP3 ADD SWAP1 POP SWAP3 SWAP2 POP POP JUMP JUMPDEST PUSH0 DUP2 SWAP1 POP PUSH1 0x20 DUP3 ADD SWAP1 POP SWAP2 SWAP1 POP JUMP JUMPDEST PUSH0 PUSH20 0xFFFFFFFFFFFFFFFFFFFFFFFFFFFFFFFFFFFFFFFF DUP3 AND SWAP1 POP SWAP2 SWAP1 POP JUMP JUMPDEST PUSH0 PUSH2 0x4C6 DUP3 PUSH2 0x49D JUMP JUMPDEST SWAP1 POP SWAP2 SWAP1 POP JUMP JUMPDEST PUSH2 0x4D6 DUP2 PUSH2 0x4BC JUMP JUMPDEST DUP3 MSTORE POP POP JUMP JUMPDEST PUSH0 DUP2 SWAP1 POP SWAP2 SWAP1 POP JUMP JUMPDEST PUSH2 0x4EE DUP2 PUSH2 0x4DC JUMP JUMPDEST DUP3 MSTORE POP POP JUMP JUMPDEST PUSH1 0x80 DUP3 ADD PUSH0 DUP3 ADD MLOAD PUSH2 0x508 PUSH0 DUP6 ADD DUP3 PUSH2 0x4CD JUMP JUMPDEST POP PUSH1 0x20 DUP3 ADD MLOAD PUSH2 0x51B PUSH1 0x20 DUP6 ADD DUP3 PUSH2 0x4CD JUMP JUMPDEST POP PUSH1 0x40 DUP3 ADD MLOAD PUSH2 0x52E PUSH1 0x40 DUP6 ADD DUP3 PUSH2 0x4CD JUMP JUMPDEST POP PUSH1 0x60 DUP3 ADD MLOAD PUSH2 0x541 PUSH1 0x60 DUP6 ADD DUP3 PUSH2 0x4E5 JUMP JUMPDEST POP POP POP POP JUMP JUMPDEST PUSH0 PUSH2 0x552 DUP4 DUP4 PUSH2 0x4F4 JUMP JUMPDEST PUSH1 0x80 DUP4 ADD SWAP1 POP SWAP3 SWAP2 POP POP JUMP JUMPDEST PUSH0 PUSH1 0x20 DUP3 ADD SWAP1 POP SWAP2 SWAP1 POP JUMP JUMPDEST PUSH0 PUSH2 0x574 DUP3 PUSH2 0x474 JUMP JUMPDEST PUSH2 0x57E DUP2 DUP6 PUSH2 0x47E JUMP JUMPDEST SWAP4 POP PUSH2 0x589 DUP4 PUSH2 0x48E JUMP JUMPDEST DUP1 PUSH0 JUMPDEST DUP4 DUP2 LT ISZERO PUSH2 0x5B9 JUMPI DUP2 MLOAD PUSH2 0x5A0 DUP9 DUP3 PUSH2 0x547 JUMP JUMPDEST SWAP8 POP PUSH2 0x5AB DUP4 PUSH2 0x55E JUMP JUMPDEST SWAP3 POP POP PUSH1 0x1 DUP2 ADD SWAP1 POP PUSH2 0x58C JUMP JUMPDEST POP DUP6 SWAP4 POP POP POP POP SWAP3 SWAP2 POP POP JUMP JUMPDEST PUSH0 PUSH1 0x20 DUP3 ADD SWAP1 POP DUP2 DUP2 SUB PUSH0 DUP4 ADD MSTORE PUSH2 0x5DE DUP2 DUP5 PUSH2 0x56A JUMP JUMPDEST SWAP1 POP SWAP3 SWAP2 POP POP JUMP JUMPDEST PUSH0 DUP1 REVERT JUMPDEST PUSH0 PUSH2 0x5F4 DUP3 PUSH2 0x49D JUMP JUMPDEST SWAP1 POP SWAP2 SWAP1 POP JUMP JUMPDEST PUSH2 0x604 DUP2 PUSH2 0x5EA JUMP JUMPDEST DUP2 EQ PUSH2 0x60E JUMPI PUSH0 DUP1 REVERT JUMPDEST POP JUMP JUMPDEST PUSH0 DUP2 CALLDATALOAD SWAP1 POP PUSH2 0x61F DUP2 PUSH2 0x5FB JUMP JUMPDEST SWAP3 SWAP2 POP POP JUMP JUMPDEST PUSH0 PUSH1 0x20 DUP3 DUP5 SUB SLT ISZERO PUSH2 0x63A JUMPI PUSH2 0x639 PUSH2 0x5E6 JUMP JUMPDEST JUMPDEST PUSH0 PUSH2 0x647 DUP5 DUP3 DUP6 ADD PUSH2 0x611 JUMP JUMPDEST SWAP2 POP POP SWAP3 SWAP2 POP POP JUMP JUMPDEST PUSH2 0x659 DUP2 PUSH2 0x4DC JUMP JUMPDEST DUP3 MSTORE POP POP JUMP JUMPDEST PUSH0 PUSH1 0x20 DUP3 ADD SWAP1 POP PUSH2 0x672 PUSH0 DUP4 ADD DUP5 PUSH2 0x650 JUMP JUMPDEST SWAP3 SWAP2 POP POP JUMP JUMPDEST PUSH2 0x681 DUP2 PUSH2 0x4DC JUMP JUMPDEST DUP2 EQ PUSH2 0x68B JUMPI PUSH0 DUP1 REVERT JUMPDEST POP JUMP JUMPDEST PUSH0 DUP2 CALLDATALOAD SWAP1 POP PUSH2 0x69C DUP2 PUSH2 0x678 JUMP JUMPDEST SWAP3 SWAP2 POP POP JUMP JUMPDEST PUSH0 PUSH1 0x20 DUP3 DUP5 SUB SLT ISZERO PUSH2 0x6B7 JUMPI PUSH2 0x6B6 PUSH2 0x5E6 JUMP JUMPDEST JUMPDEST PUSH0 PUSH2 0x6C4 DUP5 DUP3 DUP6 ADD PUSH2 0x68E JUMP JUMPDEST SWAP2 POP POP SWAP3 SWAP2 POP POP JUMP JUMPDEST PUSH0 DUP3 DUP3 MSTORE PUSH1 0x20 DUP3 ADD SWAP1 POP SWAP3 SWAP2 POP POP JUMP JUMPDEST PUSH32 0x4F7574206F662062616C616E6365000000000000000000000000000000000000 PUSH0 DUP3 ADD MSTORE POP JUMP JUMPDEST PUSH0 PUSH2 0x711 PUSH1 0xE DUP4 PUSH2 0x6CD JUMP JUMPDEST SWAP2 POP PUSH2 0x71C DUP3 PUSH2 0x6DD JUMP JUMPDEST PUSH1 0x20 DUP3 ADD SWAP1 POP SWAP2 SWAP1 POP JUMP JUMPDEST PUSH0 PUSH1 0x20 DUP3 ADD SWAP1 POP DUP2 DUP2 SUB PUSH0 DUP4 ADD MSTORE PUSH2 0x73E DUP2 PUSH2 0x705 JUMP JUMPDEST SWAP1 POP SWAP2 SWAP1 POP JUMP INVALID LOG2 PUSH5 0x6970667358 0x22 SLT KECCAK256 SWAP12 DUP7 0xD0 DUP1 SMOD 0xAA 0xAD LOG3 0xB3 RETURNDATASIZE 0xC1 0x4F CREATE PUSH1 0xEA STATICCALL 0x21 DIV GT 0xD5 0xC1 0x22 BASEFEE 0x4C SWAP16 EXTCODECOPY 0xD6 CREATE 0x4E MULMOD 0x2E 0x4B PUSH5 0x736F6C6343 STOP ADDMOD XOR STOP CALLER "
				},
				"gasEstimates": {
					"creation": {
						"codeDepositCost": "383000",
						"executionCost": "24681",
						"totalCost": "407681"
					},
					"external": {
						"bets(address)": "2802",
						"createChallange(uint256)": "142137",
						"getChallanges()": "infinite"
					}
				},
				"methodIdentifiers": {
					"bets(address)": "89a78f1a",
					"createChallange(uint256)": "dd5d8e14",
					"getChallanges()": "84464952"
				}
			},
			"storageLayout": {
				"storage": [
					{
						"astId": 31,
						"contract": "contracts/rumbled-app.sol:RumbledApp",
						"label": "owener",
						"offset": 0,
						"slot": "0",
						"type": "t_address"
					},
					{
						"astId": 33,
						"contract": "contracts/rumbled-app.sol:RumbledApp",
						"label": "token",
						"offset": 0,
						"slot": "1",
						"type": "t_address"
					},
					{
						"astId": 37,
						"contract": "contracts/rumbled-app.sol:RumbledApp",
						"label": "challanges",
						"offset": 0,
						"slot": "2",
						"type": "t_array(t_struct(Challange)29_storage)dyn_storage"
					},
					{
						"astId": 41,
						"contract": "contracts/rumbled-app.sol:RumbledApp",
						"label": "bets",
						"offset": 0,
						"slot": "3",
						"type": "t_mapping(t_address,t_uint256)"
					}
				],
				"types": {
					"t_address": {
						"encoding": "inplace",
						"label": "address",
						"numberOfBytes": "20"
					},
					"t_address_payable": {
						"encoding": "inplace",
						"label": "address payable",
						"numberOfBytes": "20"
					},
					"t_array(t_struct(Challange)29_storage)dyn_storage": {
						"base": "t_struct(Challange)29_storage",
						"encoding": "dynamic_array",
						"label": "struct Challange[]",
						"numberOfBytes": "32"
					},
					"t_mapping(t_address,t_uint256)": {
						"encoding": "mapping",
						"key": "t_address",
						"label": "mapping(address => uint256)",
						"numberOfBytes": "32",
						"value": "t_uint256"
					},
					"t_struct(Challange)29_storage": {
						"encoding": "inplace",
						"label": "struct Challange",
						"members": [
							{
								"astId": 22,
								"contract": "contracts/rumbled-app.sol:RumbledApp",
								"label": "challenging",
								"offset": 0,
								"slot": "0",
								"type": "t_address_payable"
							},
							{
								"astId": 24,
								"contract": "contracts/rumbled-app.sol:RumbledApp",
								"label": "demanding",
								"offset": 0,
								"slot": "1",
								"type": "t_address_payable"
							},
							{
								"astId": 26,
								"contract": "contracts/rumbled-app.sol:RumbledApp",
								"label": "judge",
								"offset": 0,
								"slot": "2",
								"type": "t_address_payable"
							},
							{
								"astId": 28,
								"contract": "contracts/rumbled-app.sol:RumbledApp",
								"label": "bet",
								"offset": 0,
								"slot": "3",
								"type": "t_uint256"
							}
						],
						"numberOfBytes": "128"
					},
					"t_uint256": {
						"encoding": "inplace",
						"label": "uint256",
						"numberOfBytes": "32"
					}
				}
			},
			"userdoc": {
				"kind": "user",
				"methods": {},
				"version": 1
			}
		}
	}
}