{
	"data": {
		"bytecode": {
			"linkReferences": {},
			"object": "608060405234801561000f575f80fd5b50610e8a8061001d5f395ff3fe608060405260043610610049575f3560e01c80630bdead171461004d5780632031b44a1461008f57806330fd4a74146100b9578063a8cdc863146100d5578063acdaca3e146100fd575b5f80fd5b348015610058575f80fd5b50610073600480360381019061006e919061086d565b610119565b6040516100869796959493929190610900565b60405180910390f35b34801561009a575f80fd5b506100a36101ec565b6040516100b0919061096d565b60405180910390f35b6100d360048036038101906100ce919061086d565b6101f2565b005b3480156100e0575f80fd5b506100fb60048036038101906100f691906109b0565b6103d3565b005b6101176004803603810190610112919061086d565b610735565b005b5f602052805f5260405f205f91509050805f015f9054906101000a900473ffffffffffffffffffffffffffffffffffffffff1690806001015f9054906101000a900473ffffffffffffffffffffffffffffffffffffffff1690806002015f9054906101000a900473ffffffffffffffffffffffffffffffffffffffff1690806003015490806004015f9054906101000a900460ff16908060040160019054906101000a900460ff16908060040160029054906101000a900473ffffffffffffffffffffffffffffffffffffffff16905087565b60015481565b80674563918244f400008110158015610214575068a21695e64d11f800008111155b610253576040517f08c379a000000000000000000000000000000000000000000000000000000000815260040161024a90610a5a565b60405180910390fd5b813414610295576040517f08c379a000000000000000000000000000000000000000000000000000000000815260040161028c90610ae8565b60405180910390fd5b5f805f60015481526020019081526020015f20905033815f015f6101000a81548173ffffffffffffffffffffffffffffffffffffffff021916908373ffffffffffffffffffffffffffffffffffffffff1602179055505f816001015f6101000a81548173ffffffffffffffffffffffffffffffffffffffff021916908373ffffffffffffffffffffffffffffffffffffffff1602179055505f816002015f6101000a81548173ffffffffffffffffffffffffffffffffffffffff021916908373ffffffffffffffffffffffffffffffffffffffff1602179055508281600301819055507f3a71223120aff6237885cb6ed2f47f4ce98af9fb90d47a3c2472fce7826b93006001543333866040516103af9493929190610b06565b60405180910390a160015f8154809291906103c990610b76565b9190505550505050565b5f805f8581526020019081526020015f209050806002015f9054906101000a900473ffffffffffffffffffffffffffffffffffffffff1673ffffffffffffffffffffffffffffffffffffffff163373ffffffffffffffffffffffffffffffffffffffff1614610477576040517f08c379a000000000000000000000000000000000000000000000000000000000815260040161046e90610c2d565b60405180910390fd5b806004015f9054906101000a900460ff166104c7576040517f08c379a00000000000000000000000000000000000000000000000000000000081526004016104be90610c95565b60405180910390fd5b8060040160019054906101000a900460ff1615610519576040517f08c379a000000000000000000000000000000000000000000000000000000000815260040161051090610cfd565b60405180910390fd5b82816002015f6101000a81548173ffffffffffffffffffffffffffffffffffffffff021916908373ffffffffffffffffffffffffffffffffffffffff160217905550818160040160026101000a81548173ffffffffffffffffffffffffffffffffffffffff021916908373ffffffffffffffffffffffffffffffffffffffff16021790555060018160040160016101000a81548160ff0219169083151502179055505f6064600a83600301546105cf9190610d1b565b6105d99190610d89565b90505f6064600a84600301546105ef9190610d1b565b6105f99190610d89565b90505f8183856003015461060d9190610db9565b6106179190610db9565b9050836002015f9054906101000a900473ffffffffffffffffffffffffffffffffffffffff1673ffffffffffffffffffffffffffffffffffffffff166108fc8490811502906040515f60405180830381858888f1935050505015801561067f573d5f803e3d5ffd5b503073ffffffffffffffffffffffffffffffffffffffff166108fc8390811502906040515f60405180830381858888f193505050501580156106c3573d5f803e3d5ffd5b508360040160029054906101000a900473ffffffffffffffffffffffffffffffffffffffff1673ffffffffffffffffffffffffffffffffffffffff166108fc8290811502906040515f60405180830381858888f1935050505015801561072b573d5f803e3d5ffd5b5050505050505050565b5f805f8381526020019081526020015f209050806004015f9054906101000a900460ff1615610799576040517f08c379a000000000000000000000000000000000000000000000000000000000815260040161079090610e36565b60405180910390fd5b806003015434146107df576040517f08c379a00000000000000000000000000000000000000000000000000000000081526004016107d690610ae8565b60405180910390fd5b6001816004015f6101000a81548160ff0219169083151502179055507f3aba256eef2df63b58c4927642f3f59ebf45f15a8c3c4a70ed1f6dd607ecfc618260405161082a919061096d565b60405180910390a15050565b5f80fd5b5f819050919050565b61084c8161083a565b8114610856575f80fd5b50565b5f8135905061086781610843565b92915050565b5f6020828403121561088257610881610836565b5b5f61088f84828501610859565b91505092915050565b5f73ffffffffffffffffffffffffffffffffffffffff82169050919050565b5f6108c182610898565b9050919050565b6108d1816108b7565b82525050565b6108e08161083a565b82525050565b5f8115159050919050565b6108fa816108e6565b82525050565b5f60e0820190506109135f83018a6108c8565b61092060208301896108c8565b61092d60408301886108c8565b61093a60608301876108d7565b61094760808301866108f1565b61095460a08301856108f1565b61096160c08301846108c8565b98975050505050505050565b5f6020820190506109805f8301846108d7565b92915050565b61098f816108b7565b8114610999575f80fd5b50565b5f813590506109aa81610986565b92915050565b5f805f606084860312156109c7576109c6610836565b5b5f6109d486828701610859565b93505060206109e58682870161099c565b92505060406109f68682870161099c565b9150509250925092565b5f82825260208201905092915050565b7f56616c6f722064612061706f73746120696e76616c69646f00000000000000005f82015250565b5f610a44601883610a00565b9150610a4f82610a10565b602082019050919050565b5f6020820190508181035f830152610a7181610a38565b9050919050565b7f56616c6f7220656e766961646f206e616f20636f72726573706f6e64652061205f8201527f61706f7374610000000000000000000000000000000000000000000000000000602082015250565b5f610ad2602683610a00565b9150610add82610a78565b604082019050919050565b5f6020820190508181035f830152610aff81610ac6565b9050919050565b5f608082019050610b195f8301876108d7565b610b2660208301866108c8565b610b3360408301856108c8565b610b4060608301846108d7565b95945050505050565b7f4e487b71000000000000000000000000000000000000000000000000000000005f52601160045260245ffd5b5f610b808261083a565b91507fffffffffffffffffffffffffffffffffffffffffffffffffffffffffffffffff8203610bb257610bb1610b49565b5b600182019050919050565b7f536f6d656e7465206f206a75697a20706f6465206465636c61726172206f20765f8201527f656e6365646f7200000000000000000000000000000000000000000000000000602082015250565b5f610c17602783610a00565b9150610c2282610bbd565b604082019050919050565b5f6020820190508181035f830152610c4481610c0b565b9050919050565b7f4f206465736166696f2061696e6461206e616f20666f692061636569746f00005f82015250565b5f610c7f601e83610a00565b9150610c8a82610c4b565b602082019050919050565b5f6020820190508181035f830152610cac81610c73565b9050919050565b7f4f206465736166696f206a6120666f6920636f6e636c7569646f0000000000005f82015250565b5f610ce7601a83610a00565b9150610cf282610cb3565b602082019050919050565b5f6020820190508181035f830152610d1481610cdb565b9050919050565b5f610d258261083a565b9150610d308361083a565b9250828202610d3e8161083a565b91508282048414831517610d5557610d54610b49565b5b5092915050565b7f4e487b71000000000000000000000000000000000000000000000000000000005f52601260045260245ffd5b5f610d938261083a565b9150610d9e8361083a565b925082610dae57610dad610d5c565b5b828204905092915050565b5f610dc38261083a565b9150610dce8361083a565b9250828203905081811115610de657610de5610b49565b5b92915050565b7f4465736166696f206a6120666f692061636569746f00000000000000000000005f82015250565b5f610e20601583610a00565b9150610e2b82610dec565b602082019050919050565b5f6020820190508181035f830152610e4d81610e14565b905091905056fea26469706673582212203ea38bdb4996feb90f316931ffac8748924f2f22f4fa7ce9378328ebabbf123864736f6c63430008180033",
			"opcodes": "PUSH1 0x80 PUSH1 0x40 MSTORE CALLVALUE DUP1 ISZERO PUSH2 0xF JUMPI PUSH0 DUP1 REVERT JUMPDEST POP PUSH2 0xE8A DUP1 PUSH2 0x1D PUSH0 CODECOPY PUSH0 RETURN INVALID PUSH1 0x80 PUSH1 0x40 MSTORE PUSH1 0x4 CALLDATASIZE LT PUSH2 0x49 JUMPI PUSH0 CALLDATALOAD PUSH1 0xE0 SHR DUP1 PUSH4 0xBDEAD17 EQ PUSH2 0x4D JUMPI DUP1 PUSH4 0x2031B44A EQ PUSH2 0x8F JUMPI DUP1 PUSH4 0x30FD4A74 EQ PUSH2 0xB9 JUMPI DUP1 PUSH4 0xA8CDC863 EQ PUSH2 0xD5 JUMPI DUP1 PUSH4 0xACDACA3E EQ PUSH2 0xFD JUMPI JUMPDEST PUSH0 DUP1 REVERT JUMPDEST CALLVALUE DUP1 ISZERO PUSH2 0x58 JUMPI PUSH0 DUP1 REVERT JUMPDEST POP PUSH2 0x73 PUSH1 0x4 DUP1 CALLDATASIZE SUB DUP2 ADD SWAP1 PUSH2 0x6E SWAP2 SWAP1 PUSH2 0x86D JUMP JUMPDEST PUSH2 0x119 JUMP JUMPDEST PUSH1 0x40 MLOAD PUSH2 0x86 SWAP8 SWAP7 SWAP6 SWAP5 SWAP4 SWAP3 SWAP2 SWAP1 PUSH2 0x900 JUMP JUMPDEST PUSH1 0x40 MLOAD DUP1 SWAP2 SUB SWAP1 RETURN JUMPDEST CALLVALUE DUP1 ISZERO PUSH2 0x9A JUMPI PUSH0 DUP1 REVERT JUMPDEST POP PUSH2 0xA3 PUSH2 0x1EC JUMP JUMPDEST PUSH1 0x40 MLOAD PUSH2 0xB0 SWAP2 SWAP1 PUSH2 0x96D JUMP JUMPDEST PUSH1 0x40 MLOAD DUP1 SWAP2 SUB SWAP1 RETURN JUMPDEST PUSH2 0xD3 PUSH1 0x4 DUP1 CALLDATASIZE SUB DUP2 ADD SWAP1 PUSH2 0xCE SWAP2 SWAP1 PUSH2 0x86D JUMP JUMPDEST PUSH2 0x1F2 JUMP JUMPDEST STOP JUMPDEST CALLVALUE DUP1 ISZERO PUSH2 0xE0 JUMPI PUSH0 DUP1 REVERT JUMPDEST POP PUSH2 0xFB PUSH1 0x4 DUP1 CALLDATASIZE SUB DUP2 ADD SWAP1 PUSH2 0xF6 SWAP2 SWAP1 PUSH2 0x9B0 JUMP JUMPDEST PUSH2 0x3D3 JUMP JUMPDEST STOP JUMPDEST PUSH2 0x117 PUSH1 0x4 DUP1 CALLDATASIZE SUB DUP2 ADD SWAP1 PUSH2 0x112 SWAP2 SWAP1 PUSH2 0x86D JUMP JUMPDEST PUSH2 0x735 JUMP JUMPDEST STOP JUMPDEST PUSH0 PUSH1 0x20 MSTORE DUP1 PUSH0 MSTORE PUSH1 0x40 PUSH0 KECCAK256 PUSH0 SWAP2 POP SWAP1 POP DUP1 PUSH0 ADD PUSH0 SWAP1 SLOAD SWAP1 PUSH2 0x100 EXP SWAP1 DIV PUSH20 0xFFFFFFFFFFFFFFFFFFFFFFFFFFFFFFFFFFFFFFFF AND SWAP1 DUP1 PUSH1 0x1 ADD PUSH0 SWAP1 SLOAD SWAP1 PUSH2 0x100 EXP SWAP1 DIV PUSH20 0xFFFFFFFFFFFFFFFFFFFFFFFFFFFFFFFFFFFFFFFF AND SWAP1 DUP1 PUSH1 0x2 ADD PUSH0 SWAP1 SLOAD SWAP1 PUSH2 0x100 EXP SWAP1 DIV PUSH20 0xFFFFFFFFFFFFFFFFFFFFFFFFFFFFFFFFFFFFFFFF AND SWAP1 DUP1 PUSH1 0x3 ADD SLOAD SWAP1 DUP1 PUSH1 0x4 ADD PUSH0 SWAP1 SLOAD SWAP1 PUSH2 0x100 EXP SWAP1 DIV PUSH1 0xFF AND SWAP1 DUP1 PUSH1 0x4 ADD PUSH1 0x1 SWAP1 SLOAD SWAP1 PUSH2 0x100 EXP SWAP1 DIV PUSH1 0xFF AND SWAP1 DUP1 PUSH1 0x4 ADD PUSH1 0x2 SWAP1 SLOAD SWAP1 PUSH2 0x100 EXP SWAP1 DIV PUSH20 0xFFFFFFFFFFFFFFFFFFFFFFFFFFFFFFFFFFFFFFFF AND SWAP1 POP DUP8 JUMP JUMPDEST PUSH1 0x1 SLOAD DUP2 JUMP JUMPDEST DUP1 PUSH8 0x4563918244F40000 DUP2 LT ISZERO DUP1 ISZERO PUSH2 0x214 JUMPI POP PUSH9 0xA21695E64D11F80000 DUP2 GT ISZERO JUMPDEST PUSH2 0x253 JUMPI PUSH1 0x40 MLOAD PUSH32 0x8C379A000000000000000000000000000000000000000000000000000000000 DUP2 MSTORE PUSH1 0x4 ADD PUSH2 0x24A SWAP1 PUSH2 0xA5A JUMP JUMPDEST PUSH1 0x40 MLOAD DUP1 SWAP2 SUB SWAP1 REVERT JUMPDEST DUP2 CALLVALUE EQ PUSH2 0x295 JUMPI PUSH1 0x40 MLOAD PUSH32 0x8C379A000000000000000000000000000000000000000000000000000000000 DUP2 MSTORE PUSH1 0x4 ADD PUSH2 0x28C SWAP1 PUSH2 0xAE8 JUMP JUMPDEST PUSH1 0x40 MLOAD DUP1 SWAP2 SUB SWAP1 REVERT JUMPDEST PUSH0 DUP1 PUSH0 PUSH1 0x1 SLOAD DUP2 MSTORE PUSH1 0x20 ADD SWAP1 DUP2 MSTORE PUSH1 0x20 ADD PUSH0 KECCAK256 SWAP1 POP CALLER DUP2 PUSH0 ADD PUSH0 PUSH2 0x100 EXP DUP2 SLOAD DUP2 PUSH20 0xFFFFFFFFFFFFFFFFFFFFFFFFFFFFFFFFFFFFFFFF MUL NOT AND SWAP1 DUP4 PUSH20 0xFFFFFFFFFFFFFFFFFFFFFFFFFFFFFFFFFFFFFFFF AND MUL OR SWAP1 SSTORE POP PUSH0 DUP2 PUSH1 0x1 ADD PUSH0 PUSH2 0x100 EXP DUP2 SLOAD DUP2 PUSH20 0xFFFFFFFFFFFFFFFFFFFFFFFFFFFFFFFFFFFFFFFF MUL NOT AND SWAP1 DUP4 PUSH20 0xFFFFFFFFFFFFFFFFFFFFFFFFFFFFFFFFFFFFFFFF AND MUL OR SWAP1 SSTORE POP PUSH0 DUP2 PUSH1 0x2 ADD PUSH0 PUSH2 0x100 EXP DUP2 SLOAD DUP2 PUSH20 0xFFFFFFFFFFFFFFFFFFFFFFFFFFFFFFFFFFFFFFFF MUL NOT AND SWAP1 DUP4 PUSH20 0xFFFFFFFFFFFFFFFFFFFFFFFFFFFFFFFFFFFFFFFF AND MUL OR SWAP1 SSTORE POP DUP3 DUP2 PUSH1 0x3 ADD DUP2 SWAP1 SSTORE POP PUSH32 0x3A71223120AFF6237885CB6ED2F47F4CE98AF9FB90D47A3C2472FCE7826B9300 PUSH1 0x1 SLOAD CALLER CALLER DUP7 PUSH1 0x40 MLOAD PUSH2 0x3AF SWAP5 SWAP4 SWAP3 SWAP2 SWAP1 PUSH2 0xB06 JUMP JUMPDEST PUSH1 0x40 MLOAD DUP1 SWAP2 SUB SWAP1 LOG1 PUSH1 0x1 PUSH0 DUP2 SLOAD DUP1 SWAP3 SWAP2 SWAP1 PUSH2 0x3C9 SWAP1 PUSH2 0xB76 JUMP JUMPDEST SWAP2 SWAP1 POP SSTORE POP POP POP POP JUMP JUMPDEST PUSH0 DUP1 PUSH0 DUP6 DUP2 MSTORE PUSH1 0x20 ADD SWAP1 DUP2 MSTORE PUSH1 0x20 ADD PUSH0 KECCAK256 SWAP1 POP DUP1 PUSH1 0x2 ADD PUSH0 SWAP1 SLOAD SWAP1 PUSH2 0x100 EXP SWAP1 DIV PUSH20 0xFFFFFFFFFFFFFFFFFFFFFFFFFFFFFFFFFFFFFFFF AND PUSH20 0xFFFFFFFFFFFFFFFFFFFFFFFFFFFFFFFFFFFFFFFF AND CALLER PUSH20 0xFFFFFFFFFFFFFFFFFFFFFFFFFFFFFFFFFFFFFFFF AND EQ PUSH2 0x477 JUMPI PUSH1 0x40 MLOAD PUSH32 0x8C379A000000000000000000000000000000000000000000000000000000000 DUP2 MSTORE PUSH1 0x4 ADD PUSH2 0x46E SWAP1 PUSH2 0xC2D JUMP JUMPDEST PUSH1 0x40 MLOAD DUP1 SWAP2 SUB SWAP1 REVERT JUMPDEST DUP1 PUSH1 0x4 ADD PUSH0 SWAP1 SLOAD SWAP1 PUSH2 0x100 EXP SWAP1 DIV PUSH1 0xFF AND PUSH2 0x4C7 JUMPI PUSH1 0x40 MLOAD PUSH32 0x8C379A000000000000000000000000000000000000000000000000000000000 DUP2 MSTORE PUSH1 0x4 ADD PUSH2 0x4BE SWAP1 PUSH2 0xC95 JUMP JUMPDEST PUSH1 0x40 MLOAD DUP1 SWAP2 SUB SWAP1 REVERT JUMPDEST DUP1 PUSH1 0x4 ADD PUSH1 0x1 SWAP1 SLOAD SWAP1 PUSH2 0x100 EXP SWAP1 DIV PUSH1 0xFF AND ISZERO PUSH2 0x519 JUMPI PUSH1 0x40 MLOAD PUSH32 0x8C379A000000000000000000000000000000000000000000000000000000000 DUP2 MSTORE PUSH1 0x4 ADD PUSH2 0x510 SWAP1 PUSH2 0xCFD JUMP JUMPDEST PUSH1 0x40 MLOAD DUP1 SWAP2 SUB SWAP1 REVERT JUMPDEST DUP3 DUP2 PUSH1 0x2 ADD PUSH0 PUSH2 0x100 EXP DUP2 SLOAD DUP2 PUSH20 0xFFFFFFFFFFFFFFFFFFFFFFFFFFFFFFFFFFFFFFFF MUL NOT AND SWAP1 DUP4 PUSH20 0xFFFFFFFFFFFFFFFFFFFFFFFFFFFFFFFFFFFFFFFF AND MUL OR SWAP1 SSTORE POP DUP2 DUP2 PUSH1 0x4 ADD PUSH1 0x2 PUSH2 0x100 EXP DUP2 SLOAD DUP2 PUSH20 0xFFFFFFFFFFFFFFFFFFFFFFFFFFFFFFFFFFFFFFFF MUL NOT AND SWAP1 DUP4 PUSH20 0xFFFFFFFFFFFFFFFFFFFFFFFFFFFFFFFFFFFFFFFF AND MUL OR SWAP1 SSTORE POP PUSH1 0x1 DUP2 PUSH1 0x4 ADD PUSH1 0x1 PUSH2 0x100 EXP DUP2 SLOAD DUP2 PUSH1 0xFF MUL NOT AND SWAP1 DUP4 ISZERO ISZERO MUL OR SWAP1 SSTORE POP PUSH0 PUSH1 0x64 PUSH1 0xA DUP4 PUSH1 0x3 ADD SLOAD PUSH2 0x5CF SWAP2 SWAP1 PUSH2 0xD1B JUMP JUMPDEST PUSH2 0x5D9 SWAP2 SWAP1 PUSH2 0xD89 JUMP JUMPDEST SWAP1 POP PUSH0 PUSH1 0x64 PUSH1 0xA DUP5 PUSH1 0x3 ADD SLOAD PUSH2 0x5EF SWAP2 SWAP1 PUSH2 0xD1B JUMP JUMPDEST PUSH2 0x5F9 SWAP2 SWAP1 PUSH2 0xD89 JUMP JUMPDEST SWAP1 POP PUSH0 DUP2 DUP4 DUP6 PUSH1 0x3 ADD SLOAD PUSH2 0x60D SWAP2 SWAP1 PUSH2 0xDB9 JUMP JUMPDEST PUSH2 0x617 SWAP2 SWAP1 PUSH2 0xDB9 JUMP JUMPDEST SWAP1 POP DUP4 PUSH1 0x2 ADD PUSH0 SWAP1 SLOAD SWAP1 PUSH2 0x100 EXP SWAP1 DIV PUSH20 0xFFFFFFFFFFFFFFFFFFFFFFFFFFFFFFFFFFFFFFFF AND PUSH20 0xFFFFFFFFFFFFFFFFFFFFFFFFFFFFFFFFFFFFFFFF AND PUSH2 0x8FC DUP5 SWAP1 DUP2 ISZERO MUL SWAP1 PUSH1 0x40 MLOAD PUSH0 PUSH1 0x40 MLOAD DUP1 DUP4 SUB DUP2 DUP6 DUP9 DUP9 CALL SWAP4 POP POP POP POP ISZERO DUP1 ISZERO PUSH2 0x67F JUMPI RETURNDATASIZE PUSH0 DUP1 RETURNDATACOPY RETURNDATASIZE PUSH0 REVERT JUMPDEST POP ADDRESS PUSH20 0xFFFFFFFFFFFFFFFFFFFFFFFFFFFFFFFFFFFFFFFF AND PUSH2 0x8FC DUP4 SWAP1 DUP2 ISZERO MUL SWAP1 PUSH1 0x40 MLOAD PUSH0 PUSH1 0x40 MLOAD DUP1 DUP4 SUB DUP2 DUP6 DUP9 DUP9 CALL SWAP4 POP POP POP POP ISZERO DUP1 ISZERO PUSH2 0x6C3 JUMPI RETURNDATASIZE PUSH0 DUP1 RETURNDATACOPY RETURNDATASIZE PUSH0 REVERT JUMPDEST POP DUP4 PUSH1 0x4 ADD PUSH1 0x2 SWAP1 SLOAD SWAP1 PUSH2 0x100 EXP SWAP1 DIV PUSH20 0xFFFFFFFFFFFFFFFFFFFFFFFFFFFFFFFFFFFFFFFF AND PUSH20 0xFFFFFFFFFFFFFFFFFFFFFFFFFFFFFFFFFFFFFFFF AND PUSH2 0x8FC DUP3 SWAP1 DUP2 ISZERO MUL SWAP1 PUSH1 0x40 MLOAD PUSH0 PUSH1 0x40 MLOAD DUP1 DUP4 SUB DUP2 DUP6 DUP9 DUP9 CALL SWAP4 POP POP POP POP ISZERO DUP1 ISZERO PUSH2 0x72B JUMPI RETURNDATASIZE PUSH0 DUP1 RETURNDATACOPY RETURNDATASIZE PUSH0 REVERT JUMPDEST POP POP POP POP POP POP POP POP JUMP JUMPDEST PUSH0 DUP1 PUSH0 DUP4 DUP2 MSTORE PUSH1 0x20 ADD SWAP1 DUP2 MSTORE PUSH1 0x20 ADD PUSH0 KECCAK256 SWAP1 POP DUP1 PUSH1 0x4 ADD PUSH0 SWAP1 SLOAD SWAP1 PUSH2 0x100 EXP SWAP1 DIV PUSH1 0xFF AND ISZERO PUSH2 0x799 JUMPI PUSH1 0x40 MLOAD PUSH32 0x8C379A000000000000000000000000000000000000000000000000000000000 DUP2 MSTORE PUSH1 0x4 ADD PUSH2 0x790 SWAP1 PUSH2 0xE36 JUMP JUMPDEST PUSH1 0x40 MLOAD DUP1 SWAP2 SUB SWAP1 REVERT JUMPDEST DUP1 PUSH1 0x3 ADD SLOAD CALLVALUE EQ PUSH2 0x7DF JUMPI PUSH1 0x40 MLOAD PUSH32 0x8C379A000000000000000000000000000000000000000000000000000000000 DUP2 MSTORE PUSH1 0x4 ADD PUSH2 0x7D6 SWAP1 PUSH2 0xAE8 JUMP JUMPDEST PUSH1 0x40 MLOAD DUP1 SWAP2 SUB SWAP1 REVERT JUMPDEST PUSH1 0x1 DUP2 PUSH1 0x4 ADD PUSH0 PUSH2 0x100 EXP DUP2 SLOAD DUP2 PUSH1 0xFF MUL NOT AND SWAP1 DUP4 ISZERO ISZERO MUL OR SWAP1 SSTORE POP PUSH32 0x3ABA256EEF2DF63B58C4927642F3F59EBF45F15A8C3C4A70ED1F6DD607ECFC61 DUP3 PUSH1 0x40 MLOAD PUSH2 0x82A SWAP2 SWAP1 PUSH2 0x96D JUMP JUMPDEST PUSH1 0x40 MLOAD DUP1 SWAP2 SUB SWAP1 LOG1 POP POP JUMP JUMPDEST PUSH0 DUP1 REVERT JUMPDEST PUSH0 DUP2 SWAP1 POP SWAP2 SWAP1 POP JUMP JUMPDEST PUSH2 0x84C DUP2 PUSH2 0x83A JUMP JUMPDEST DUP2 EQ PUSH2 0x856 JUMPI PUSH0 DUP1 REVERT JUMPDEST POP JUMP JUMPDEST PUSH0 DUP2 CALLDATALOAD SWAP1 POP PUSH2 0x867 DUP2 PUSH2 0x843 JUMP JUMPDEST SWAP3 SWAP2 POP POP JUMP JUMPDEST PUSH0 PUSH1 0x20 DUP3 DUP5 SUB SLT ISZERO PUSH2 0x882 JUMPI PUSH2 0x881 PUSH2 0x836 JUMP JUMPDEST JUMPDEST PUSH0 PUSH2 0x88F DUP5 DUP3 DUP6 ADD PUSH2 0x859 JUMP JUMPDEST SWAP2 POP POP SWAP3 SWAP2 POP POP JUMP JUMPDEST PUSH0 PUSH20 0xFFFFFFFFFFFFFFFFFFFFFFFFFFFFFFFFFFFFFFFF DUP3 AND SWAP1 POP SWAP2 SWAP1 POP JUMP JUMPDEST PUSH0 PUSH2 0x8C1 DUP3 PUSH2 0x898 JUMP JUMPDEST SWAP1 POP SWAP2 SWAP1 POP JUMP JUMPDEST PUSH2 0x8D1 DUP2 PUSH2 0x8B7 JUMP JUMPDEST DUP3 MSTORE POP POP JUMP JUMPDEST PUSH2 0x8E0 DUP2 PUSH2 0x83A JUMP JUMPDEST DUP3 MSTORE POP POP JUMP JUMPDEST PUSH0 DUP2 ISZERO ISZERO SWAP1 POP SWAP2 SWAP1 POP JUMP JUMPDEST PUSH2 0x8FA DUP2 PUSH2 0x8E6 JUMP JUMPDEST DUP3 MSTORE POP POP JUMP JUMPDEST PUSH0 PUSH1 0xE0 DUP3 ADD SWAP1 POP PUSH2 0x913 PUSH0 DUP4 ADD DUP11 PUSH2 0x8C8 JUMP JUMPDEST PUSH2 0x920 PUSH1 0x20 DUP4 ADD DUP10 PUSH2 0x8C8 JUMP JUMPDEST PUSH2 0x92D PUSH1 0x40 DUP4 ADD DUP9 PUSH2 0x8C8 JUMP JUMPDEST PUSH2 0x93A PUSH1 0x60 DUP4 ADD DUP8 PUSH2 0x8D7 JUMP JUMPDEST PUSH2 0x947 PUSH1 0x80 DUP4 ADD DUP7 PUSH2 0x8F1 JUMP JUMPDEST PUSH2 0x954 PUSH1 0xA0 DUP4 ADD DUP6 PUSH2 0x8F1 JUMP JUMPDEST PUSH2 0x961 PUSH1 0xC0 DUP4 ADD DUP5 PUSH2 0x8C8 JUMP JUMPDEST SWAP9 SWAP8 POP POP POP POP POP POP POP POP JUMP JUMPDEST PUSH0 PUSH1 0x20 DUP3 ADD SWAP1 POP PUSH2 0x980 PUSH0 DUP4 ADD DUP5 PUSH2 0x8D7 JUMP JUMPDEST SWAP3 SWAP2 POP POP JUMP JUMPDEST PUSH2 0x98F DUP2 PUSH2 0x8B7 JUMP JUMPDEST DUP2 EQ PUSH2 0x999 JUMPI PUSH0 DUP1 REVERT JUMPDEST POP JUMP JUMPDEST PUSH0 DUP2 CALLDATALOAD SWAP1 POP PUSH2 0x9AA DUP2 PUSH2 0x986 JUMP JUMPDEST SWAP3 SWAP2 POP POP JUMP JUMPDEST PUSH0 DUP1 PUSH0 PUSH1 0x60 DUP5 DUP7 SUB SLT ISZERO PUSH2 0x9C7 JUMPI PUSH2 0x9C6 PUSH2 0x836 JUMP JUMPDEST JUMPDEST PUSH0 PUSH2 0x9D4 DUP7 DUP3 DUP8 ADD PUSH2 0x859 JUMP JUMPDEST SWAP4 POP POP PUSH1 0x20 PUSH2 0x9E5 DUP7 DUP3 DUP8 ADD PUSH2 0x99C JUMP JUMPDEST SWAP3 POP POP PUSH1 0x40 PUSH2 0x9F6 DUP7 DUP3 DUP8 ADD PUSH2 0x99C JUMP JUMPDEST SWAP2 POP POP SWAP3 POP SWAP3 POP SWAP3 JUMP JUMPDEST PUSH0 DUP3 DUP3 MSTORE PUSH1 0x20 DUP3 ADD SWAP1 POP SWAP3 SWAP2 POP POP JUMP JUMPDEST PUSH32 0x56616C6F722064612061706F73746120696E76616C69646F0000000000000000 PUSH0 DUP3 ADD MSTORE POP JUMP JUMPDEST PUSH0 PUSH2 0xA44 PUSH1 0x18 DUP4 PUSH2 0xA00 JUMP JUMPDEST SWAP2 POP PUSH2 0xA4F DUP3 PUSH2 0xA10 JUMP JUMPDEST PUSH1 0x20 DUP3 ADD SWAP1 POP SWAP2 SWAP1 POP JUMP JUMPDEST PUSH0 PUSH1 0x20 DUP3 ADD SWAP1 POP DUP2 DUP2 SUB PUSH0 DUP4 ADD MSTORE PUSH2 0xA71 DUP2 PUSH2 0xA38 JUMP JUMPDEST SWAP1 POP SWAP2 SWAP1 POP JUMP JUMPDEST PUSH32 0x56616C6F7220656E766961646F206E616F20636F72726573706F6E6465206120 PUSH0 DUP3 ADD MSTORE PUSH32 0x61706F7374610000000000000000000000000000000000000000000000000000 PUSH1 0x20 DUP3 ADD MSTORE POP JUMP JUMPDEST PUSH0 PUSH2 0xAD2 PUSH1 0x26 DUP4 PUSH2 0xA00 JUMP JUMPDEST SWAP2 POP PUSH2 0xADD DUP3 PUSH2 0xA78 JUMP JUMPDEST PUSH1 0x40 DUP3 ADD SWAP1 POP SWAP2 SWAP1 POP JUMP JUMPDEST PUSH0 PUSH1 0x20 DUP3 ADD SWAP1 POP DUP2 DUP2 SUB PUSH0 DUP4 ADD MSTORE PUSH2 0xAFF DUP2 PUSH2 0xAC6 JUMP JUMPDEST SWAP1 POP SWAP2 SWAP1 POP JUMP JUMPDEST PUSH0 PUSH1 0x80 DUP3 ADD SWAP1 POP PUSH2 0xB19 PUSH0 DUP4 ADD DUP8 PUSH2 0x8D7 JUMP JUMPDEST PUSH2 0xB26 PUSH1 0x20 DUP4 ADD DUP7 PUSH2 0x8C8 JUMP JUMPDEST PUSH2 0xB33 PUSH1 0x40 DUP4 ADD DUP6 PUSH2 0x8C8 JUMP JUMPDEST PUSH2 0xB40 PUSH1 0x60 DUP4 ADD DUP5 PUSH2 0x8D7 JUMP JUMPDEST SWAP6 SWAP5 POP POP POP POP POP JUMP JUMPDEST PUSH32 0x4E487B7100000000000000000000000000000000000000000000000000000000 PUSH0 MSTORE PUSH1 0x11 PUSH1 0x4 MSTORE PUSH1 0x24 PUSH0 REVERT JUMPDEST PUSH0 PUSH2 0xB80 DUP3 PUSH2 0x83A JUMP JUMPDEST SWAP2 POP PUSH32 0xFFFFFFFFFFFFFFFFFFFFFFFFFFFFFFFFFFFFFFFFFFFFFFFFFFFFFFFFFFFFFFFF DUP3 SUB PUSH2 0xBB2 JUMPI PUSH2 0xBB1 PUSH2 0xB49 JUMP JUMPDEST JUMPDEST PUSH1 0x1 DUP3 ADD SWAP1 POP SWAP2 SWAP1 POP JUMP JUMPDEST PUSH32 0x536F6D656E7465206F206A75697A20706F6465206465636C61726172206F2076 PUSH0 DUP3 ADD MSTORE PUSH32 0x656E6365646F7200000000000000000000000000000000000000000000000000 PUSH1 0x20 DUP3 ADD MSTORE POP JUMP JUMPDEST PUSH0 PUSH2 0xC17 PUSH1 0x27 DUP4 PUSH2 0xA00 JUMP JUMPDEST SWAP2 POP PUSH2 0xC22 DUP3 PUSH2 0xBBD JUMP JUMPDEST PUSH1 0x40 DUP3 ADD SWAP1 POP SWAP2 SWAP1 POP JUMP JUMPDEST PUSH0 PUSH1 0x20 DUP3 ADD SWAP1 POP DUP2 DUP2 SUB PUSH0 DUP4 ADD MSTORE PUSH2 0xC44 DUP2 PUSH2 0xC0B JUMP JUMPDEST SWAP1 POP SWAP2 SWAP1 POP JUMP JUMPDEST PUSH32 0x4F206465736166696F2061696E6461206E616F20666F692061636569746F0000 PUSH0 DUP3 ADD MSTORE POP JUMP JUMPDEST PUSH0 PUSH2 0xC7F PUSH1 0x1E DUP4 PUSH2 0xA00 JUMP JUMPDEST SWAP2 POP PUSH2 0xC8A DUP3 PUSH2 0xC4B JUMP JUMPDEST PUSH1 0x20 DUP3 ADD SWAP1 POP SWAP2 SWAP1 POP JUMP JUMPDEST PUSH0 PUSH1 0x20 DUP3 ADD SWAP1 POP DUP2 DUP2 SUB PUSH0 DUP4 ADD MSTORE PUSH2 0xCAC DUP2 PUSH2 0xC73 JUMP JUMPDEST SWAP1 POP SWAP2 SWAP1 POP JUMP JUMPDEST PUSH32 0x4F206465736166696F206A6120666F6920636F6E636C7569646F000000000000 PUSH0 DUP3 ADD MSTORE POP JUMP JUMPDEST PUSH0 PUSH2 0xCE7 PUSH1 0x1A DUP4 PUSH2 0xA00 JUMP JUMPDEST SWAP2 POP PUSH2 0xCF2 DUP3 PUSH2 0xCB3 JUMP JUMPDEST PUSH1 0x20 DUP3 ADD SWAP1 POP SWAP2 SWAP1 POP JUMP JUMPDEST PUSH0 PUSH1 0x20 DUP3 ADD SWAP1 POP DUP2 DUP2 SUB PUSH0 DUP4 ADD MSTORE PUSH2 0xD14 DUP2 PUSH2 0xCDB JUMP JUMPDEST SWAP1 POP SWAP2 SWAP1 POP JUMP JUMPDEST PUSH0 PUSH2 0xD25 DUP3 PUSH2 0x83A JUMP JUMPDEST SWAP2 POP PUSH2 0xD30 DUP4 PUSH2 0x83A JUMP JUMPDEST SWAP3 POP DUP3 DUP3 MUL PUSH2 0xD3E DUP2 PUSH2 0x83A JUMP JUMPDEST SWAP2 POP DUP3 DUP3 DIV DUP5 EQ DUP4 ISZERO OR PUSH2 0xD55 JUMPI PUSH2 0xD54 PUSH2 0xB49 JUMP JUMPDEST JUMPDEST POP SWAP3 SWAP2 POP POP JUMP JUMPDEST PUSH32 0x4E487B7100000000000000000000000000000000000000000000000000000000 PUSH0 MSTORE PUSH1 0x12 PUSH1 0x4 MSTORE PUSH1 0x24 PUSH0 REVERT JUMPDEST PUSH0 PUSH2 0xD93 DUP3 PUSH2 0x83A JUMP JUMPDEST SWAP2 POP PUSH2 0xD9E DUP4 PUSH2 0x83A JUMP JUMPDEST SWAP3 POP DUP3 PUSH2 0xDAE JUMPI PUSH2 0xDAD PUSH2 0xD5C JUMP JUMPDEST JUMPDEST DUP3 DUP3 DIV SWAP1 POP SWAP3 SWAP2 POP POP JUMP JUMPDEST PUSH0 PUSH2 0xDC3 DUP3 PUSH2 0x83A JUMP JUMPDEST SWAP2 POP PUSH2 0xDCE DUP4 PUSH2 0x83A JUMP JUMPDEST SWAP3 POP DUP3 DUP3 SUB SWAP1 POP DUP2 DUP2 GT ISZERO PUSH2 0xDE6 JUMPI PUSH2 0xDE5 PUSH2 0xB49 JUMP JUMPDEST JUMPDEST SWAP3 SWAP2 POP POP JUMP JUMPDEST PUSH32 0x4465736166696F206A6120666F692061636569746F0000000000000000000000 PUSH0 DUP3 ADD MSTORE POP JUMP JUMPDEST PUSH0 PUSH2 0xE20 PUSH1 0x15 DUP4 PUSH2 0xA00 JUMP JUMPDEST SWAP2 POP PUSH2 0xE2B DUP3 PUSH2 0xDEC JUMP JUMPDEST PUSH1 0x20 DUP3 ADD SWAP1 POP SWAP2 SWAP1 POP JUMP JUMPDEST PUSH0 PUSH1 0x20 DUP3 ADD SWAP1 POP DUP2 DUP2 SUB PUSH0 DUP4 ADD MSTORE PUSH2 0xE4D DUP2 PUSH2 0xE14 JUMP JUMPDEST SWAP1 POP SWAP2 SWAP1 POP JUMP INVALID LOG2 PUSH5 0x6970667358 0x22 SLT KECCAK256 RETURNDATACOPY LOG3 DUP12 0xDB BLOBHASH SWAP7 INVALID 0xB9 0xF BALANCE PUSH10 0x31FFAC8748924F2F22F4 STATICCALL PUSH29 0xE9378328EBABBF123864736F6C63430008180033000000000000000000 "
		},
		"gasEstimates": {
			"creation": {
				"codeDepositCost": "744400",
				"executionCost": "777",
				"totalCost": "745177"
			},
			"external": {
				"aceitarDesafio(uint256)": "infinite",
				"contadorDesafios()": "2425",
				"criarDesafio(uint256)": "infinite",
				"definirVencedor(uint256,address,address)": "infinite",
				"desafios(uint256)": "infinite"
			}
		},
		"methodIdentifiers": {
			"aceitarDesafio(uint256)": "acdaca3e",
			"contadorDesafios()": "2031b44a",
			"criarDesafio(uint256)": "30fd4a74",
			"definirVencedor(uint256,address,address)": "a8cdc863",
			"desafios(uint256)": "0bdead17"
		}
	},
	"abi": [
		{
			"anonymous": false,
			"inputs": [
				{
					"indexed": false,
					"internalType": "uint256",
					"name": "desafioId",
					"type": "uint256"
				}
			],
			"name": "DesafioAceito",
			"type": "event"
		},
		{
			"anonymous": false,
			"inputs": [
				{
					"indexed": false,
					"internalType": "uint256",
					"name": "desafioId",
					"type": "uint256"
				},
				{
					"indexed": false,
					"internalType": "address",
					"name": "desafiante",
					"type": "address"
				},
				{
					"indexed": false,
					"internalType": "address",
					"name": "desafiado",
					"type": "address"
				},
				{
					"indexed": false,
					"internalType": "uint256",
					"name": "valorAposta",
					"type": "uint256"
				}
			],
			"name": "NovoDesafio",
			"type": "event"
		},
		{
			"inputs": [
				{
					"internalType": "uint256",
					"name": "_desafioId",
					"type": "uint256"
				}
			],
			"name": "aceitarDesafio",
			"outputs": [],
			"stateMutability": "payable",
			"type": "function"
		},
		{
			"inputs": [],
			"name": "contadorDesafios",
			"outputs": [
				{
					"internalType": "uint256",
					"name": "",
					"type": "uint256"
				}
			],
			"stateMutability": "view",
			"type": "function"
		},
		{
			"inputs": [
				{
					"internalType": "uint256",
					"name": "_valorAposta",
					"type": "uint256"
				}
			],
			"name": "criarDesafio",
			"outputs": [],
			"stateMutability": "payable",
			"type": "function"
		},
		{
			"inputs": [
				{
					"internalType": "uint256",
					"name": "_desafioId",
					"type": "uint256"
				},
				{
					"internalType": "address",
					"name": "_juiz",
					"type": "address"
				},
				{
					"internalType": "address",
					"name": "_vencedor",
					"type": "address"
				}
			],
			"name": "definirVencedor",
			"outputs": [],
			"stateMutability": "nonpayable",
			"type": "function"
		},
		{
			"inputs": [
				{
					"internalType": "uint256",
					"name": "",
					"type": "uint256"
				}
			],
			"name": "desafios",
			"outputs": [
				{
					"internalType": "address",
					"name": "desafiante",
					"type": "address"
				},
				{
					"internalType": "address",
					"name": "desafiado",
					"type": "address"
				},
				{
					"internalType": "address",
					"name": "juiz",
					"type": "address"
				},
				{
					"internalType": "uint256",
					"name": "valorAposta",
					"type": "uint256"
				},
				{
					"internalType": "bool",
					"name": "desafioAceito",
					"type": "bool"
				},
				{
					"internalType": "bool",
					"name": "desafioConcluido",
					"type": "bool"
				},
				{
					"internalType": "address",
					"name": "vencedor",
					"type": "address"
				}
			],
			"stateMutability": "view",
			"type": "function"
		}
	]
}